{
  "contractName": "ChimeraRoyaltyRegistry",
  "abi": [
    {
      "anonymous": false,
      "inputs": [
        {
          "indexed": true,
          "internalType": "address",
          "name": "previousOwner",
          "type": "address"
        },
        {
          "indexed": true,
          "internalType": "address",
          "name": "newOwner",
          "type": "address"
        }
      ],
      "name": "OwnershipTransferred",
      "type": "event"
    },
    {
      "inputs": [],
      "name": "iERC721TokenCreator",
      "outputs": [
        {
          "internalType": "contract IERC721TokenCreator",
          "name": "",
          "type": "address"
        }
      ],
      "stateMutability": "view",
      "type": "function"
    },
    {
      "inputs": [],
      "name": "owner",
      "outputs": [
        {
          "internalType": "address",
          "name": "",
          "type": "address"
        }
      ],
      "stateMutability": "view",
      "type": "function"
    },
    {
      "inputs": [],
      "name": "renounceOwnership",
      "outputs": [],
      "stateMutability": "nonpayable",
      "type": "function"
    },
    {
      "inputs": [
        {
          "internalType": "address",
          "name": "newOwner",
          "type": "address"
        }
      ],
      "name": "transferOwnership",
      "outputs": [],
      "stateMutability": "nonpayable",
      "type": "function"
    },
    {
      "inputs": [
        {
          "internalType": "address",
          "name": "_iERC721TokenCreator",
          "type": "address"
        }
      ],
      "name": "initialize",
      "outputs": [],
      "stateMutability": "nonpayable",
      "type": "function"
    },
    {
      "inputs": [
        {
          "internalType": "address",
          "name": "_contractAddress",
          "type": "address"
        }
      ],
      "name": "setIERC721TokenCreator",
      "outputs": [],
      "stateMutability": "nonpayable",
      "type": "function"
    },
    {
      "inputs": [
        {
          "internalType": "address",
          "name": "_contractAddress",
          "type": "address"
        },
        {
          "internalType": "uint256",
          "name": "_tokenId",
          "type": "uint256"
        }
      ],
      "name": "getERC721TokenRoyaltyPercentage",
      "outputs": [
        {
          "internalType": "uint8",
          "name": "",
          "type": "uint8"
        }
      ],
      "stateMutability": "view",
      "type": "function"
    },
    {
      "inputs": [
        {
          "internalType": "address",
          "name": "_contractAddress",
          "type": "address"
        },
        {
          "internalType": "uint256",
          "name": "_tokenId",
          "type": "uint256"
        }
      ],
      "name": "getPercentageForSetERC721TokenRoyalty",
      "outputs": [
        {
          "internalType": "uint8",
          "name": "",
          "type": "uint8"
        }
      ],
      "stateMutability": "view",
      "type": "function"
    },
    {
      "inputs": [
        {
          "internalType": "address",
          "name": "_contractAddress",
          "type": "address"
        },
        {
          "internalType": "uint256",
          "name": "_tokenId",
          "type": "uint256"
        },
        {
          "internalType": "uint8",
          "name": "_percentage",
          "type": "uint8"
        }
      ],
      "name": "setPercentageForSetERC721TokenRoyalty",
      "outputs": [
        {
          "internalType": "uint8",
          "name": "",
          "type": "uint8"
        }
      ],
      "stateMutability": "nonpayable",
      "type": "function"
    },
    {
      "inputs": [
        {
          "internalType": "address",
          "name": "_contractAddress",
          "type": "address"
        },
        {
          "internalType": "uint256",
          "name": "_tokenId",
          "type": "uint256"
        }
      ],
      "name": "getPercentageForSetERC721CreatorRoyalty",
      "outputs": [
        {
          "internalType": "uint8",
          "name": "",
          "type": "uint8"
        }
      ],
      "stateMutability": "view",
      "type": "function"
    },
    {
      "inputs": [
        {
          "internalType": "address",
          "name": "_creatorAddress",
          "type": "address"
        },
        {
          "internalType": "uint8",
          "name": "_percentage",
          "type": "uint8"
        }
      ],
      "name": "setPercentageForSetERC721CreatorRoyalty",
      "outputs": [
        {
          "internalType": "uint8",
          "name": "",
          "type": "uint8"
        }
      ],
      "stateMutability": "nonpayable",
      "type": "function"
    },
    {
      "inputs": [
        {
          "internalType": "address",
          "name": "_contractAddress",
          "type": "address"
        }
      ],
      "name": "getPercentageForSetERC721ContractRoyalty",
      "outputs": [
        {
          "internalType": "uint8",
          "name": "",
          "type": "uint8"
        }
      ],
      "stateMutability": "view",
      "type": "function"
    },
    {
      "inputs": [
        {
          "internalType": "address",
          "name": "_contractAddress",
          "type": "address"
        },
        {
          "internalType": "uint8",
          "name": "_percentage",
          "type": "uint8"
        }
      ],
      "name": "setPercentageForSetERC721ContractRoyalty",
      "outputs": [
        {
          "internalType": "uint8",
          "name": "",
          "type": "uint8"
        }
      ],
      "stateMutability": "nonpayable",
      "type": "function"
    },
    {
      "inputs": [
        {
          "internalType": "address",
          "name": "_contractAddress",
          "type": "address"
        },
        {
          "internalType": "uint256",
          "name": "_tokenId",
          "type": "uint256"
        },
        {
          "internalType": "uint256",
          "name": "_amount",
          "type": "uint256"
        }
      ],
      "name": "calculateRoyaltyFee",
      "outputs": [
        {
          "internalType": "uint256",
          "name": "",
          "type": "uint256"
        }
      ],
      "stateMutability": "view",
      "type": "function"
    },
    {
      "inputs": [
        {
          "internalType": "address",
          "name": "_contractAddress",
          "type": "address"
        },
        {
          "internalType": "uint256",
          "name": "_tokenId",
          "type": "uint256"
        }
      ],
      "name": "tokenCreator",
      "outputs": [
        {
          "internalType": "address payable",
          "name": "",
          "type": "address"
        }
      ],
      "stateMutability": "view",
      "type": "function"
    }
  ],
  "bytecode": "0x608060405234801561001057600080fd5b50611f29806100206000396000f3fe608060405234801561001057600080fd5b50600436106100f55760003560e01c80638da5cb5b11610097578063c6ad8d7511610066578063c6ad8d7514610465578063c88a9aee146104ca578063e8b8b53d14610532578063f2fde38b146105a4576100f5565b80638da5cb5b14610310578063b85ed7e414610344578063c461f15d146103bc578063c4d66de814610421576100f5565b8063715018a6116100d3578063715018a6146101da57806376bf88b2146101e45780637c0329f71461023f578063860110f5146102a4576100f5565b80632d5baea3146100fa5780635121d5ba1461016257806358a7026614610196575b600080fd5b6101496004803603604081101561011057600080fd5b81019080803573ffffffffffffffffffffffffffffffffffffffff169060200190929190803560ff1690602001909291905050506105e8565b604051808260ff16815260200191505060405180910390f35b61016a610754565b604051808273ffffffffffffffffffffffffffffffffffffffff16815260200191505060405180910390f35b6101d8600480360360208110156101ac57600080fd5b81019080803573ffffffffffffffffffffffffffffffffffffffff16906020019092919050505061077a565b005b6101e26108f3565b005b610226600480360360208110156101fa57600080fd5b81019080803573ffffffffffffffffffffffffffffffffffffffff169060200190929190505050610a63565b604051808260ff16815260200191505060405180910390f35b61028b6004803603604081101561025557600080fd5b81019080803573ffffffffffffffffffffffffffffffffffffffff16906020019092919080359060200190929190505050610ab9565b604051808260ff16815260200191505060405180910390f35b6102fa600480360360608110156102ba57600080fd5b81019080803573ffffffffffffffffffffffffffffffffffffffff1690602001909291908035906020019092919080359060200190929190505050610d5c565b6040518082815260200191505060405180910390f35b610318610d99565b604051808273ffffffffffffffffffffffffffffffffffffffff16815260200191505060405180910390f35b6103906004803603604081101561035a57600080fd5b81019080803573ffffffffffffffffffffffffffffffffffffffff16906020019092919080359060200190929190505050610dc3565b604051808273ffffffffffffffffffffffffffffffffffffffff16815260200191505060405180910390f35b610408600480360360408110156103d257600080fd5b81019080803573ffffffffffffffffffffffffffffffffffffffff16906020019092919080359060200190929190505050610e99565b604051808260ff16815260200191505060405180910390f35b6104636004803603602081101561043757600080fd5b81019080803573ffffffffffffffffffffffffffffffffffffffff169060200190929190505050610f01565b005b6104b16004803603604081101561047b57600080fd5b81019080803573ffffffffffffffffffffffffffffffffffffffff169060200190929190803590602001909291905050506110cf565b604051808260ff16815260200191505060405180910390f35b610519600480360360408110156104e057600080fd5b81019080803573ffffffffffffffffffffffffffffffffffffffff169060200190929190803560ff1690602001909291905050506111f6565b604051808260ff16815260200191505060405180910390f35b61058b6004803603606081101561054857600080fd5b81019080803573ffffffffffffffffffffffffffffffffffffffff16906020019092919080359060200190929190803560ff169060200190929190505050611374565b604051808260ff16815260200191505060405180910390f35b6105e6600480360360208110156105ba57600080fd5b81019080803573ffffffffffffffffffffffffffffffffffffffff1690602001909291905050506115cf565b005b60006105f26117c4565b73ffffffffffffffffffffffffffffffffffffffff16610610610d99565b73ffffffffffffffffffffffffffffffffffffffff1614610699576040517f08c379a00000000000000000000000000000000000000000000000000000000081526004018080602001828103825260208152602001807f4f776e61626c653a2063616c6c6572206973206e6f7420746865206f776e657281525060200191505060405180910390fd5b60648260ff1611156106f6576040517f08c379a0000000000000000000000000000000000000000000000000000000008152600401808060200182810382526044815260200180611cd96044913960600191505060405180910390fd5b81606560008573ffffffffffffffffffffffffffffffffffffffff1673ffffffffffffffffffffffffffffffffffffffff16815260200190815260200160002060006101000a81548160ff021916908360ff16021790555092915050565b606860009054906101000a900473ffffffffffffffffffffffffffffffffffffffff1681565b6107826117c4565b73ffffffffffffffffffffffffffffffffffffffff166107a0610d99565b73ffffffffffffffffffffffffffffffffffffffff1614610829576040517f08c379a00000000000000000000000000000000000000000000000000000000081526004018080602001828103825260208152602001807f4f776e61626c653a2063616c6c6572206973206e6f7420746865206f776e657281525060200191505060405180910390fd5b600073ffffffffffffffffffffffffffffffffffffffff168173ffffffffffffffffffffffffffffffffffffffff1614156108af576040517f08c379a0000000000000000000000000000000000000000000000000000000008152600401808060200182810382526037815260200180611d606037913960400191505060405180910390fd5b80606860006101000a81548173ffffffffffffffffffffffffffffffffffffffff021916908373ffffffffffffffffffffffffffffffffffffffff16021790555050565b6108fb6117c4565b73ffffffffffffffffffffffffffffffffffffffff16610919610d99565b73ffffffffffffffffffffffffffffffffffffffff16146109a2576040517f08c379a00000000000000000000000000000000000000000000000000000000081526004018080602001828103825260208152602001807f4f776e61626c653a2063616c6c6572206973206e6f7420746865206f776e657281525060200191505060405180910390fd5b600073ffffffffffffffffffffffffffffffffffffffff16603360009054906101000a900473ffffffffffffffffffffffffffffffffffffffff1673ffffffffffffffffffffffffffffffffffffffff167f8be0079c531659141344cd1fd0a4f28419497f9722a3daafe3b4186f6b6457e060405160405180910390a36000603360006101000a81548173ffffffffffffffffffffffffffffffffffffffff021916908373ffffffffffffffffffffffffffffffffffffffff160217905550565b6000606560008373ffffffffffffffffffffffffffffffffffffffff1673ffffffffffffffffffffffffffffffffffffffff16815260200190815260200160002060009054906101000a900460ff169050919050565b600080606760008573ffffffffffffffffffffffffffffffffffffffff1673ffffffffffffffffffffffffffffffffffffffff168152602001908152602001600020600084815260200190815260200160002060009054906101000a900460ff1660ff161115610b8857606760008473ffffffffffffffffffffffffffffffffffffffff1673ffffffffffffffffffffffffffffffffffffffff168152602001908152602001600020600083815260200190815260200160002060009054906101000a900460ff169050610d56565b6000606860009054906101000a900473ffffffffffffffffffffffffffffffffffffffff1673ffffffffffffffffffffffffffffffffffffffff1663b85ed7e485856040518363ffffffff1660e01b8152600401808373ffffffffffffffffffffffffffffffffffffffff1681526020018281526020019250505060206040518083038186803b158015610c1b57600080fd5b505afa158015610c2f573d6000803e3d6000fd5b505050506040513d6020811015610c4557600080fd5b810190808051906020019092919050505090506000606660008373ffffffffffffffffffffffffffffffffffffffff1673ffffffffffffffffffffffffffffffffffffffff16815260200190815260200160002060009054906101000a900460ff1660ff161115610d0557606660008273ffffffffffffffffffffffffffffffffffffffff1673ffffffffffffffffffffffffffffffffffffffff16815260200190815260200160002060009054906101000a900460ff16915050610d56565b606560008573ffffffffffffffffffffffffffffffffffffffff1673ffffffffffffffffffffffffffffffffffffffff16815260200190815260200160002060009054906101000a900460ff169150505b92915050565b6000610d906064610d82610d708787610ab9565b60ff16856117cc90919063ffffffff16565b61185290919063ffffffff16565b90509392505050565b6000603360009054906101000a900473ffffffffffffffffffffffffffffffffffffffff16905090565b6000606860009054906101000a900473ffffffffffffffffffffffffffffffffffffffff1673ffffffffffffffffffffffffffffffffffffffff1663b85ed7e484846040518363ffffffff1660e01b8152600401808373ffffffffffffffffffffffffffffffffffffffff1681526020018281526020019250505060206040518083038186803b158015610e5657600080fd5b505afa158015610e6a573d6000803e3d6000fd5b505050506040513d6020811015610e8057600080fd5b8101908080519060200190929190505050905092915050565b6000606760008473ffffffffffffffffffffffffffffffffffffffff1673ffffffffffffffffffffffffffffffffffffffff168152602001908152602001600020600083815260200190815260200160002060009054906101000a900460ff16905092915050565b600060019054906101000a900460ff1680610f205750610f1f6118db565b5b80610f36575060008054906101000a900460ff16155b610f8b576040517f08c379a000000000000000000000000000000000000000000000000000000000815260040180806020018281038252602e815260200180611dd8602e913960400191505060405180910390fd5b60008060019054906101000a900460ff161590508015610fdb576001600060016101000a81548160ff02191690831515021790555060016000806101000a81548160ff0219169083151502179055505b600073ffffffffffffffffffffffffffffffffffffffff168273ffffffffffffffffffffffffffffffffffffffff161415611061576040517f08c379a0000000000000000000000000000000000000000000000000000000008152600401808060200182810382526043815260200180611eb16043913960600191505060405180910390fd5b6110696118ec565b81606860006101000a81548173ffffffffffffffffffffffffffffffffffffffff021916908373ffffffffffffffffffffffffffffffffffffffff16021790555080156110cb5760008060016101000a81548160ff0219169083151502179055505b5050565b600080606860009054906101000a900473ffffffffffffffffffffffffffffffffffffffff1673ffffffffffffffffffffffffffffffffffffffff1663b85ed7e485856040518363ffffffff1660e01b8152600401808373ffffffffffffffffffffffffffffffffffffffff1681526020018281526020019250505060206040518083038186803b15801561116357600080fd5b505afa158015611177573d6000803e3d6000fd5b505050506040513d602081101561118d57600080fd5b81019080805190602001909291905050509050606660008273ffffffffffffffffffffffffffffffffffffffff1673ffffffffffffffffffffffffffffffffffffffff16815260200190815260200160002060009054906101000a900460ff1691505092915050565b60008273ffffffffffffffffffffffffffffffffffffffff163373ffffffffffffffffffffffffffffffffffffffff1614806112645750611235610d99565b73ffffffffffffffffffffffffffffffffffffffff163373ffffffffffffffffffffffffffffffffffffffff16145b6112b9576040517f08c379a0000000000000000000000000000000000000000000000000000000008152600401808060200182810382526041815260200180611e276041913960600191505060405180910390fd5b60648260ff161115611316576040517f08c379a0000000000000000000000000000000000000000000000000000000008152600401808060200182810382526043815260200180611d1d6043913960600191505060405180910390fd5b81606660008573ffffffffffffffffffffffffffffffffffffffff1673ffffffffffffffffffffffffffffffffffffffff16815260200190815260200160002060006101000a81548160ff021916908360ff16021790555092915050565b6000606860009054906101000a900473ffffffffffffffffffffffffffffffffffffffff1673ffffffffffffffffffffffffffffffffffffffff1663b85ed7e485856040518363ffffffff1660e01b8152600401808373ffffffffffffffffffffffffffffffffffffffff1681526020018281526020019250505060206040518083038186803b15801561140757600080fd5b505afa15801561141b573d6000803e3d6000fd5b505050506040513d602081101561143157600080fd5b810190808051906020019092919050505073ffffffffffffffffffffffffffffffffffffffff163373ffffffffffffffffffffffffffffffffffffffff1614806114ad575061147e610d99565b73ffffffffffffffffffffffffffffffffffffffff163373ffffffffffffffffffffffffffffffffffffffff16145b611502576040517f08c379a0000000000000000000000000000000000000000000000000000000008152600401808060200182810382526049815260200180611e686049913960600191505060405180910390fd5b60648260ff16111561155f576040517f08c379a0000000000000000000000000000000000000000000000000000000008152600401808060200182810382526041815260200180611d976041913960600191505060405180910390fd5b81606760008673ffffffffffffffffffffffffffffffffffffffff1673ffffffffffffffffffffffffffffffffffffffff168152602001908152602001600020600085815260200190815260200160002060006101000a81548160ff021916908360ff1602179055509392505050565b6115d76117c4565b73ffffffffffffffffffffffffffffffffffffffff166115f5610d99565b73ffffffffffffffffffffffffffffffffffffffff161461167e576040517f08c379a00000000000000000000000000000000000000000000000000000000081526004018080602001828103825260208152602001807f4f776e61626c653a2063616c6c6572206973206e6f7420746865206f776e657281525060200191505060405180910390fd5b600073ffffffffffffffffffffffffffffffffffffffff168173ffffffffffffffffffffffffffffffffffffffff161415611704576040517f08c379a0000000000000000000000000000000000000000000000000000000008152600401808060200182810382526026815260200180611cb36026913960400191505060405180910390fd5b8073ffffffffffffffffffffffffffffffffffffffff16603360009054906101000a900473ffffffffffffffffffffffffffffffffffffffff1673ffffffffffffffffffffffffffffffffffffffff167f8be0079c531659141344cd1fd0a4f28419497f9722a3daafe3b4186f6b6457e060405160405180910390a380603360006101000a81548173ffffffffffffffffffffffffffffffffffffffff021916908373ffffffffffffffffffffffffffffffffffffffff16021790555050565b600033905090565b6000808314156117df576000905061184c565b60008284029050828482816117f057fe5b0414611847576040517f08c379a0000000000000000000000000000000000000000000000000000000008152600401808060200182810382526021815260200180611e066021913960400191505060405180910390fd5b809150505b92915050565b60008082116118c9576040517f08c379a000000000000000000000000000000000000000000000000000000000815260040180806020018281038252601a8152602001807f536166654d6174683a206469766973696f6e206279207a65726f00000000000081525060200191505060405180910390fd5b8183816118d257fe5b04905092915050565b60006118e6306119fa565b15905090565b600060019054906101000a900460ff168061190b575061190a6118db565b5b80611921575060008054906101000a900460ff16155b611976576040517f08c379a000000000000000000000000000000000000000000000000000000000815260040180806020018281038252602e815260200180611dd8602e913960400191505060405180910390fd5b60008060019054906101000a900460ff1615905080156119c6576001600060016101000a81548160ff02191690831515021790555060016000806101000a81548160ff0219169083151502179055505b6119ce611a0d565b6119d6611b0b565b80156119f75760008060016101000a81548160ff0219169083151502179055505b50565b600080823b905060008111915050919050565b600060019054906101000a900460ff1680611a2c5750611a2b6118db565b5b80611a42575060008054906101000a900460ff16155b611a97576040517f08c379a000000000000000000000000000000000000000000000000000000000815260040180806020018281038252602e815260200180611dd8602e913960400191505060405180910390fd5b60008060019054906101000a900460ff161590508015611ae7576001600060016101000a81548160ff02191690831515021790555060016000806101000a81548160ff0219169083151502179055505b8015611b085760008060016101000a81548160ff0219169083151502179055505b50565b600060019054906101000a900460ff1680611b2a5750611b296118db565b5b80611b40575060008054906101000a900460ff16155b611b95576040517f08c379a000000000000000000000000000000000000000000000000000000000815260040180806020018281038252602e815260200180611dd8602e913960400191505060405180910390fd5b60008060019054906101000a900460ff161590508015611be5576001600060016101000a81548160ff02191690831515021790555060016000806101000a81548160ff0219169083151502179055505b6000611bef6117c4565b905080603360006101000a81548173ffffffffffffffffffffffffffffffffffffffff021916908373ffffffffffffffffffffffffffffffffffffffff1602179055508073ffffffffffffffffffffffffffffffffffffffff16600073ffffffffffffffffffffffffffffffffffffffff167f8be0079c531659141344cd1fd0a4f28419497f9722a3daafe3b4186f6b6457e060405160405180910390a3508015611caf5760008060016101000a81548160ff0219169083151502179055505b5056fe4f776e61626c653a206e6577206f776e657220697320746865207a65726f206164647265737373657450657263656e74616765466f72536574455243373231436f6e7472616374526f79616c74793a3a5f70657263656e74616765206d757374206265203c3d2031303073657450657263656e74616765466f7253657445524337323143726561746f72526f79616c74793a3a5f70657263656e74616765206d757374206265203c3d2031303073657449455243373231546f6b656e43726561746f723a3a5f636f6e7472616374416464726573732063616e6e6f74206265206e756c6c73657450657263656e74616765466f72536574455243373231546f6b656e526f79616c74793a3a5f70657263656e74616765206d757374206265203c3d20313030496e697469616c697a61626c653a20636f6e747261637420697320616c726561647920696e697469616c697a6564536166654d6174683a206d756c7469706c69636174696f6e206f766572666c6f7773657450657263656e74616765466f7253657445524337323143726561746f72526f79616c74793a3a4d757374206265206f776e6572206f722063726561746f7273657450657263656e74616765466f72536574455243373231546f6b656e526f79616c74793a3a4d75737420626520636f6e7472616374206f776e6572206f722063726561746f7220636f6e7374727563746f723a3a43616e6e6f742073657420746865206e756c6c206164647265737320617320616e205f69455243373231546f6b656e43726561746f72a26469706673582212200e86d13fb40879c9d3a95995075b3f926d096e8a868fb06d431fc746ea8fc3f964736f6c634300060c0033",
  "immutableReferences": {},
  "source": "// SPDX-License-Identifier: MIT\n\n\npragma solidity >=0.6.0 <0.8.0;\n\n/**\n * @dev Wrappers over Solidity's arithmetic operations with added overflow\n * checks.\n *\n * Arithmetic operations in Solidity wrap on overflow. This can easily result\n * in bugs, because programmers usually assume that an overflow raises an\n * error, which is the standard behavior in high level programming languages.\n * `SafeMath` restores this intuition by reverting the transaction when an\n * operation overflows.\n *\n * Using this library instead of the unchecked operations eliminates an entire\n * class of bugs, so it's recommended to use it always.\n */\nlibrary SafeMathUpgradeable {\n    /**\n     * @dev Returns the addition of two unsigned integers, with an overflow flag.\n     *\n     * _Available since v3.4._\n     */\n    function tryAdd(uint256 a, uint256 b) internal pure returns (bool, uint256) {\n        uint256 c = a + b;\n        if (c < a) return (false, 0);\n        return (true, c);\n    }\n\n    /**\n     * @dev Returns the substraction of two unsigned integers, with an overflow flag.\n     *\n     * _Available since v3.4._\n     */\n    function trySub(uint256 a, uint256 b) internal pure returns (bool, uint256) {\n        if (b > a) return (false, 0);\n        return (true, a - b);\n    }\n\n    /**\n     * @dev Returns the multiplication of two unsigned integers, with an overflow flag.\n     *\n     * _Available since v3.4._\n     */\n    function tryMul(uint256 a, uint256 b) internal pure returns (bool, uint256) {\n        // Gas optimization: this is cheaper than requiring 'a' not being zero, but the\n        // benefit is lost if 'b' is also tested.\n        // See: https://github.com/OpenZeppelin/openzeppelin-contracts/pull/522\n        if (a == 0) return (true, 0);\n        uint256 c = a * b;\n        if (c / a != b) return (false, 0);\n        return (true, c);\n    }\n\n    /**\n     * @dev Returns the division of two unsigned integers, with a division by zero flag.\n     *\n     * _Available since v3.4._\n     */\n    function tryDiv(uint256 a, uint256 b) internal pure returns (bool, uint256) {\n        if (b == 0) return (false, 0);\n        return (true, a / b);\n    }\n\n    /**\n     * @dev Returns the remainder of dividing two unsigned integers, with a division by zero flag.\n     *\n     * _Available since v3.4._\n     */\n    function tryMod(uint256 a, uint256 b) internal pure returns (bool, uint256) {\n        if (b == 0) return (false, 0);\n        return (true, a % b);\n    }\n\n    /**\n     * @dev Returns the addition of two unsigned integers, reverting on\n     * overflow.\n     *\n     * Counterpart to Solidity's `+` operator.\n     *\n     * Requirements:\n     *\n     * - Addition cannot overflow.\n     */\n    function add(uint256 a, uint256 b) internal pure returns (uint256) {\n        uint256 c = a + b;\n        require(c >= a, \"SafeMath: addition overflow\");\n        return c;\n    }\n\n    /**\n     * @dev Returns the subtraction of two unsigned integers, reverting on\n     * overflow (when the result is negative).\n     *\n     * Counterpart to Solidity's `-` operator.\n     *\n     * Requirements:\n     *\n     * - Subtraction cannot overflow.\n     */\n    function sub(uint256 a, uint256 b) internal pure returns (uint256) {\n        require(b <= a, \"SafeMath: subtraction overflow\");\n        return a - b;\n    }\n\n    /**\n     * @dev Returns the multiplication of two unsigned integers, reverting on\n     * overflow.\n     *\n     * Counterpart to Solidity's `*` operator.\n     *\n     * Requirements:\n     *\n     * - Multiplication cannot overflow.\n     */\n    function mul(uint256 a, uint256 b) internal pure returns (uint256) {\n        if (a == 0) return 0;\n        uint256 c = a * b;\n        require(c / a == b, \"SafeMath: multiplication overflow\");\n        return c;\n    }\n\n    /**\n     * @dev Returns the integer division of two unsigned integers, reverting on\n     * division by zero. The result is rounded towards zero.\n     *\n     * Counterpart to Solidity's `/` operator. Note: this function uses a\n     * `revert` opcode (which leaves remaining gas untouched) while Solidity\n     * uses an invalid opcode to revert (consuming all remaining gas).\n     *\n     * Requirements:\n     *\n     * - The divisor cannot be zero.\n     */\n    function div(uint256 a, uint256 b) internal pure returns (uint256) {\n        require(b > 0, \"SafeMath: division by zero\");\n        return a / b;\n    }\n\n    /**\n     * @dev Returns the remainder of dividing two unsigned integers. (unsigned integer modulo),\n     * reverting when dividing by zero.\n     *\n     * Counterpart to Solidity's `%` operator. This function uses a `revert`\n     * opcode (which leaves remaining gas untouched) while Solidity uses an\n     * invalid opcode to revert (consuming all remaining gas).\n     *\n     * Requirements:\n     *\n     * - The divisor cannot be zero.\n     */\n    function mod(uint256 a, uint256 b) internal pure returns (uint256) {\n        require(b > 0, \"SafeMath: modulo by zero\");\n        return a % b;\n    }\n\n    /**\n     * @dev Returns the subtraction of two unsigned integers, reverting with custom message on\n     * overflow (when the result is negative).\n     *\n     * CAUTION: This function is deprecated because it requires allocating memory for the error\n     * message unnecessarily. For custom revert reasons use {trySub}.\n     *\n     * Counterpart to Solidity's `-` operator.\n     *\n     * Requirements:\n     *\n     * - Subtraction cannot overflow.\n     */\n    function sub(uint256 a, uint256 b, string memory errorMessage) internal pure returns (uint256) {\n        require(b <= a, errorMessage);\n        return a - b;\n    }\n\n    /**\n     * @dev Returns the integer division of two unsigned integers, reverting with custom message on\n     * division by zero. The result is rounded towards zero.\n     *\n     * CAUTION: This function is deprecated because it requires allocating memory for the error\n     * message unnecessarily. For custom revert reasons use {tryDiv}.\n     *\n     * Counterpart to Solidity's `/` operator. Note: this function uses a\n     * `revert` opcode (which leaves remaining gas untouched) while Solidity\n     * uses an invalid opcode to revert (consuming all remaining gas).\n     *\n     * Requirements:\n     *\n     * - The divisor cannot be zero.\n     */\n    function div(uint256 a, uint256 b, string memory errorMessage) internal pure returns (uint256) {\n        require(b > 0, errorMessage);\n        return a / b;\n    }\n\n    /**\n     * @dev Returns the remainder of dividing two unsigned integers. (unsigned integer modulo),\n     * reverting with custom message when dividing by zero.\n     *\n     * CAUTION: This function is deprecated because it requires allocating memory for the error\n     * message unnecessarily. For custom revert reasons use {tryMod}.\n     *\n     * Counterpart to Solidity's `%` operator. This function uses a `revert`\n     * opcode (which leaves remaining gas untouched) while Solidity uses an\n     * invalid opcode to revert (consuming all remaining gas).\n     *\n     * Requirements:\n     *\n     * - The divisor cannot be zero.\n     */\n    function mod(uint256 a, uint256 b, string memory errorMessage) internal pure returns (uint256) {\n        require(b > 0, errorMessage);\n        return a % b;\n    }\n}\n\n// File: @openzeppelin/contracts-upgradeable/utils/AddressUpgradeable.sol\n\n\npragma solidity >=0.6.2 <0.8.0;\n\n/**\n * @dev Collection of functions related to the address type\n */\nlibrary AddressUpgradeable {\n    /**\n     * @dev Returns true if `account` is a contract.\n     *\n     * [IMPORTANT]\n     * ====\n     * It is unsafe to assume that an address for which this function returns\n     * false is an externally-owned account (EOA) and not a contract.\n     *\n     * Among others, `isContract` will return false for the following\n     * types of addresses:\n     *\n     *  - an externally-owned account\n     *  - a contract in construction\n     *  - an address where a contract will be created\n     *  - an address where a contract lived, but was destroyed\n     * ====\n     */\n    function isContract(address account) internal view returns (bool) {\n        // This method relies on extcodesize, which returns 0 for contracts in\n        // construction, since the code is only stored at the end of the\n        // constructor execution.\n\n        uint256 size;\n        // solhint-disable-next-line no-inline-assembly\n        assembly { size := extcodesize(account) }\n        return size > 0;\n    }\n\n    /**\n     * @dev Replacement for Solidity's `transfer`: sends `amount` wei to\n     * `recipient`, forwarding all available gas and reverting on errors.\n     *\n     * https://eips.ethereum.org/EIPS/eip-1884[EIP1884] increases the gas cost\n     * of certain opcodes, possibly making contracts go over the 2300 gas limit\n     * imposed by `transfer`, making them unable to receive funds via\n     * `transfer`. {sendValue} removes this limitation.\n     *\n     * https://diligence.consensys.net/posts/2019/09/stop-using-soliditys-transfer-now/[Learn more].\n     *\n     * IMPORTANT: because control is transferred to `recipient`, care must be\n     * taken to not create reentrancy vulnerabilities. Consider using\n     * {ReentrancyGuard} or the\n     * https://solidity.readthedocs.io/en/v0.5.11/security-considerations.html#use-the-checks-effects-interactions-pattern[checks-effects-interactions pattern].\n     */\n    function sendValue(address payable recipient, uint256 amount) internal {\n        require(address(this).balance >= amount, \"Address: insufficient balance\");\n\n        // solhint-disable-next-line avoid-low-level-calls, avoid-call-value\n        (bool success, ) = recipient.call{ value: amount }(\"\");\n        require(success, \"Address: unable to send value, recipient may have reverted\");\n    }\n\n    /**\n     * @dev Performs a Solidity function call using a low level `call`. A\n     * plain`call` is an unsafe replacement for a function call: use this\n     * function instead.\n     *\n     * If `target` reverts with a revert reason, it is bubbled up by this\n     * function (like regular Solidity function calls).\n     *\n     * Returns the raw returned data. To convert to the expected return value,\n     * use https://solidity.readthedocs.io/en/latest/units-and-global-variables.html?highlight=abi.decode#abi-encoding-and-decoding-functions[`abi.decode`].\n     *\n     * Requirements:\n     *\n     * - `target` must be a contract.\n     * - calling `target` with `data` must not revert.\n     *\n     * _Available since v3.1._\n     */\n    function functionCall(address target, bytes memory data) internal returns (bytes memory) {\n      return functionCall(target, data, \"Address: low-level call failed\");\n    }\n\n    /**\n     * @dev Same as {xref-Address-functionCall-address-bytes-}[`functionCall`], but with\n     * `errorMessage` as a fallback revert reason when `target` reverts.\n     *\n     * _Available since v3.1._\n     */\n    function functionCall(address target, bytes memory data, string memory errorMessage) internal returns (bytes memory) {\n        return functionCallWithValue(target, data, 0, errorMessage);\n    }\n\n    /**\n     * @dev Same as {xref-Address-functionCall-address-bytes-}[`functionCall`],\n     * but also transferring `value` wei to `target`.\n     *\n     * Requirements:\n     *\n     * - the calling contract must have an ETH balance of at least `value`.\n     * - the called Solidity function must be `payable`.\n     *\n     * _Available since v3.1._\n     */\n    function functionCallWithValue(address target, bytes memory data, uint256 value) internal returns (bytes memory) {\n        return functionCallWithValue(target, data, value, \"Address: low-level call with value failed\");\n    }\n\n    /**\n     * @dev Same as {xref-Address-functionCallWithValue-address-bytes-uint256-}[`functionCallWithValue`], but\n     * with `errorMessage` as a fallback revert reason when `target` reverts.\n     *\n     * _Available since v3.1._\n     */\n    function functionCallWithValue(address target, bytes memory data, uint256 value, string memory errorMessage) internal returns (bytes memory) {\n        require(address(this).balance >= value, \"Address: insufficient balance for call\");\n        require(isContract(target), \"Address: call to non-contract\");\n\n        // solhint-disable-next-line avoid-low-level-calls\n        (bool success, bytes memory returndata) = target.call{ value: value }(data);\n        return _verifyCallResult(success, returndata, errorMessage);\n    }\n\n    /**\n     * @dev Same as {xref-Address-functionCall-address-bytes-}[`functionCall`],\n     * but performing a static call.\n     *\n     * _Available since v3.3._\n     */\n    function functionStaticCall(address target, bytes memory data) internal view returns (bytes memory) {\n        return functionStaticCall(target, data, \"Address: low-level static call failed\");\n    }\n\n    /**\n     * @dev Same as {xref-Address-functionCall-address-bytes-string-}[`functionCall`],\n     * but performing a static call.\n     *\n     * _Available since v3.3._\n     */\n    function functionStaticCall(address target, bytes memory data, string memory errorMessage) internal view returns (bytes memory) {\n        require(isContract(target), \"Address: static call to non-contract\");\n\n        // solhint-disable-next-line avoid-low-level-calls\n        (bool success, bytes memory returndata) = target.staticcall(data);\n        return _verifyCallResult(success, returndata, errorMessage);\n    }\n\n    function _verifyCallResult(bool success, bytes memory returndata, string memory errorMessage) private pure returns(bytes memory) {\n        if (success) {\n            return returndata;\n        } else {\n            // Look for revert reason and bubble it up if present\n            if (returndata.length > 0) {\n                // The easiest way to bubble the revert reason is using memory via assembly\n\n                // solhint-disable-next-line no-inline-assembly\n                assembly {\n                    let returndata_size := mload(returndata)\n                    revert(add(32, returndata), returndata_size)\n                }\n            } else {\n                revert(errorMessage);\n            }\n        }\n    }\n}\n\n// File: @openzeppelin/contracts-upgradeable/proxy/Initializable.sol\n\n\n// solhint-disable-next-line compiler-version\npragma solidity >=0.4.24 <0.8.0;\n\n\n/**\n * @dev This is a base contract to aid in writing upgradeable contracts, or any kind of contract that will be deployed\n * behind a proxy. Since a proxied contract can't have a constructor, it's common to move constructor logic to an\n * external initializer function, usually called `initialize`. It then becomes necessary to protect this initializer\n * function so it can only be called once. The {initializer} modifier provided by this contract will have this effect.\n *\n * TIP: To avoid leaving the proxy in an uninitialized state, the initializer function should be called as early as\n * possible by providing the encoded function call as the `_data` argument to {UpgradeableProxy-constructor}.\n *\n * CAUTION: When used with inheritance, manual care must be taken to not invoke a parent initializer twice, or to ensure\n * that all initializers are idempotent. This is not verified automatically as constructors are by Solidity.\n */\nabstract contract Initializable {\n\n    /**\n     * @dev Indicates that the contract has been initialized.\n     */\n    bool private _initialized;\n\n    /**\n     * @dev Indicates that the contract is in the process of being initialized.\n     */\n    bool private _initializing;\n\n    /**\n     * @dev Modifier to protect an initializer function from being invoked twice.\n     */\n    modifier initializer() {\n        require(_initializing || _isConstructor() || !_initialized, \"Initializable: contract is already initialized\");\n\n        bool isTopLevelCall = !_initializing;\n        if (isTopLevelCall) {\n            _initializing = true;\n            _initialized = true;\n        }\n\n        _;\n\n        if (isTopLevelCall) {\n            _initializing = false;\n        }\n    }\n\n    /// @dev Returns true if and only if the function is running in the constructor\n    function _isConstructor() private view returns (bool) {\n        return !AddressUpgradeable.isContract(address(this));\n    }\n}\n\n// File: @openzeppelin/contracts-upgradeable/utils/ContextUpgradeable.sol\n\n\npragma solidity >=0.6.0 <0.8.0;\n\n\n/*\n * @dev Provides information about the current execution context, including the\n * sender of the transaction and its data. While these are generally available\n * via msg.sender and msg.data, they should not be accessed in such a direct\n * manner, since when dealing with GSN meta-transactions the account sending and\n * paying for execution may not be the actual sender (as far as an application\n * is concerned).\n *\n * This contract is only required for intermediate, library-like contracts.\n */\nabstract contract ContextUpgradeable is Initializable {\n    function __Context_init() internal initializer {\n        __Context_init_unchained();\n    }\n\n    function __Context_init_unchained() internal initializer {\n    }\n    function _msgSender() internal view virtual returns (address payable) {\n        return msg.sender;\n    }\n\n    function _msgData() internal view virtual returns (bytes memory) {\n        this; // silence state mutability warning without generating bytecode - see https://github.com/ethereum/solidity/issues/2691\n        return msg.data;\n    }\n    uint256[50] private __gap;\n}\n\n// File: @openzeppelin/contracts-upgradeable/access/OwnableUpgradeable.sol\n\n\npragma solidity >=0.6.0 <0.8.0;\n\n\n/**\n * @dev Contract module which provides a basic access control mechanism, where\n * there is an account (an owner) that can be granted exclusive access to\n * specific functions.\n *\n * By default, the owner account will be the one that deploys the contract. This\n * can later be changed with {transferOwnership}.\n *\n * This module is used through inheritance. It will make available the modifier\n * `onlyOwner`, which can be applied to your functions to restrict their use to\n * the owner.\n */\nabstract contract OwnableUpgradeable is Initializable, ContextUpgradeable {\n    address private _owner;\n\n    event OwnershipTransferred(address indexed previousOwner, address indexed newOwner);\n\n    /**\n     * @dev Initializes the contract setting the deployer as the initial owner.\n     */\n    function __Ownable_init() internal initializer {\n        __Context_init_unchained();\n        __Ownable_init_unchained();\n    }\n\n    function __Ownable_init_unchained() internal initializer {\n        address msgSender = _msgSender();\n        _owner = msgSender;\n        emit OwnershipTransferred(address(0), msgSender);\n    }\n\n    /**\n     * @dev Returns the address of the current owner.\n     */\n    function owner() public view virtual returns (address) {\n        return _owner;\n    }\n\n    /**\n     * @dev Throws if called by any account other than the owner.\n     */\n    modifier onlyOwner() {\n        require(owner() == _msgSender(), \"Ownable: caller is not the owner\");\n        _;\n    }\n\n    /**\n     * @dev Leaves the contract without owner. It will not be possible to call\n     * `onlyOwner` functions anymore. Can only be called by the current owner.\n     *\n     * NOTE: Renouncing ownership will leave the contract without an owner,\n     * thereby removing any functionality that is only available to the owner.\n     */\n    function renounceOwnership() public virtual onlyOwner {\n        emit OwnershipTransferred(_owner, address(0));\n        _owner = address(0);\n    }\n\n    /**\n     * @dev Transfers ownership of the contract to a new account (`newOwner`).\n     * Can only be called by the current owner.\n     */\n    function transferOwnership(address newOwner) public virtual onlyOwner {\n        require(newOwner != address(0), \"Ownable: new owner is the zero address\");\n        emit OwnershipTransferred(_owner, newOwner);\n        _owner = newOwner;\n    }\n    uint256[49] private __gap;\n}\n\n// File: @openzeppelin/contracts-upgradeable/utils/EnumerableSetUpgradeable.sol\n\n\npragma solidity >=0.6.0 <0.8.0;\n\n/**\n * @dev Library for managing\n * https://en.wikipedia.org/wiki/Set_(abstract_data_type)[sets] of primitive\n * types.\n *\n * Sets have the following properties:\n *\n * - Elements are added, removed, and checked for existence in constant time\n * (O(1)).\n * - Elements are enumerated in O(n). No guarantees are made on the ordering.\n *\n * ```\n * contract Example {\n *     // Add the library methods\n *     using EnumerableSet for EnumerableSet.AddressSet;\n *\n *     // Declare a set state variable\n *     EnumerableSet.AddressSet private mySet;\n * }\n * ```\n *\n * As of v3.3.0, sets of type `bytes32` (`Bytes32Set`), `address` (`AddressSet`)\n * and `uint256` (`UintSet`) are supported.\n */\nlibrary EnumerableSetUpgradeable {\n    // To implement this library for multiple types with as little code\n    // repetition as possible, we write it in terms of a generic Set type with\n    // bytes32 values.\n    // The Set implementation uses private functions, and user-facing\n    // implementations (such as AddressSet) are just wrappers around the\n    // underlying Set.\n    // This means that we can only create new EnumerableSets for types that fit\n    // in bytes32.\n\n    struct Set {\n        // Storage of set values\n        bytes32[] _values;\n\n        // Position of the value in the `values` array, plus 1 because index 0\n        // means a value is not in the set.\n        mapping (bytes32 => uint256) _indexes;\n    }\n\n    /**\n     * @dev Add a value to a set. O(1).\n     *\n     * Returns true if the value was added to the set, that is if it was not\n     * already present.\n     */\n    function _add(Set storage set, bytes32 value) private returns (bool) {\n        if (!_contains(set, value)) {\n            set._values.push(value);\n            // The value is stored at length-1, but we add 1 to all indexes\n            // and use 0 as a sentinel value\n            set._indexes[value] = set._values.length;\n            return true;\n        } else {\n            return false;\n        }\n    }\n\n    /**\n     * @dev Removes a value from a set. O(1).\n     *\n     * Returns true if the value was removed from the set, that is if it was\n     * present.\n     */\n    function _remove(Set storage set, bytes32 value) private returns (bool) {\n        // We read and store the value's index to prevent multiple reads from the same storage slot\n        uint256 valueIndex = set._indexes[value];\n\n        if (valueIndex != 0) { // Equivalent to contains(set, value)\n            // To delete an element from the _values array in O(1), we swap the element to delete with the last one in\n            // the array, and then remove the last element (sometimes called as 'swap and pop').\n            // This modifies the order of the array, as noted in {at}.\n\n            uint256 toDeleteIndex = valueIndex - 1;\n            uint256 lastIndex = set._values.length - 1;\n\n            // When the value to delete is the last one, the swap operation is unnecessary. However, since this occurs\n            // so rarely, we still do the swap anyway to avoid the gas cost of adding an 'if' statement.\n\n            bytes32 lastvalue = set._values[lastIndex];\n\n            // Move the last value to the index where the value to delete is\n            set._values[toDeleteIndex] = lastvalue;\n            // Update the index for the moved value\n            set._indexes[lastvalue] = toDeleteIndex + 1; // All indexes are 1-based\n\n            // Delete the slot where the moved value was stored\n            set._values.pop();\n\n            // Delete the index for the deleted slot\n            delete set._indexes[value];\n\n            return true;\n        } else {\n            return false;\n        }\n    }\n\n    /**\n     * @dev Returns true if the value is in the set. O(1).\n     */\n    function _contains(Set storage set, bytes32 value) private view returns (bool) {\n        return set._indexes[value] != 0;\n    }\n\n    /**\n     * @dev Returns the number of values on the set. O(1).\n     */\n    function _length(Set storage set) private view returns (uint256) {\n        return set._values.length;\n    }\n\n   /**\n    * @dev Returns the value stored at position `index` in the set. O(1).\n    *\n    * Note that there are no guarantees on the ordering of values inside the\n    * array, and it may change when more values are added or removed.\n    *\n    * Requirements:\n    *\n    * - `index` must be strictly less than {length}.\n    */\n    function _at(Set storage set, uint256 index) private view returns (bytes32) {\n        require(set._values.length > index, \"EnumerableSet: index out of bounds\");\n        return set._values[index];\n    }\n\n    // Bytes32Set\n\n    struct Bytes32Set {\n        Set _inner;\n    }\n\n    /**\n     * @dev Add a value to a set. O(1).\n     *\n     * Returns true if the value was added to the set, that is if it was not\n     * already present.\n     */\n    function add(Bytes32Set storage set, bytes32 value) internal returns (bool) {\n        return _add(set._inner, value);\n    }\n\n    /**\n     * @dev Removes a value from a set. O(1).\n     *\n     * Returns true if the value was removed from the set, that is if it was\n     * present.\n     */\n    function remove(Bytes32Set storage set, bytes32 value) internal returns (bool) {\n        return _remove(set._inner, value);\n    }\n\n    /**\n     * @dev Returns true if the value is in the set. O(1).\n     */\n    function contains(Bytes32Set storage set, bytes32 value) internal view returns (bool) {\n        return _contains(set._inner, value);\n    }\n\n    /**\n     * @dev Returns the number of values in the set. O(1).\n     */\n    function length(Bytes32Set storage set) internal view returns (uint256) {\n        return _length(set._inner);\n    }\n\n   /**\n    * @dev Returns the value stored at position `index` in the set. O(1).\n    *\n    * Note that there are no guarantees on the ordering of values inside the\n    * array, and it may change when more values are added or removed.\n    *\n    * Requirements:\n    *\n    * - `index` must be strictly less than {length}.\n    */\n    function at(Bytes32Set storage set, uint256 index) internal view returns (bytes32) {\n        return _at(set._inner, index);\n    }\n\n    // AddressSet\n\n    struct AddressSet {\n        Set _inner;\n    }\n\n    /**\n     * @dev Add a value to a set. O(1).\n     *\n     * Returns true if the value was added to the set, that is if it was not\n     * already present.\n     */\n    function add(AddressSet storage set, address value) internal returns (bool) {\n        return _add(set._inner, bytes32(uint256(uint160(value))));\n    }\n\n    /**\n     * @dev Removes a value from a set. O(1).\n     *\n     * Returns true if the value was removed from the set, that is if it was\n     * present.\n     */\n    function remove(AddressSet storage set, address value) internal returns (bool) {\n        return _remove(set._inner, bytes32(uint256(uint160(value))));\n    }\n\n    /**\n     * @dev Returns true if the value is in the set. O(1).\n     */\n    function contains(AddressSet storage set, address value) internal view returns (bool) {\n        return _contains(set._inner, bytes32(uint256(uint160(value))));\n    }\n\n    /**\n     * @dev Returns the number of values in the set. O(1).\n     */\n    function length(AddressSet storage set) internal view returns (uint256) {\n        return _length(set._inner);\n    }\n\n   /**\n    * @dev Returns the value stored at position `index` in the set. O(1).\n    *\n    * Note that there are no guarantees on the ordering of values inside the\n    * array, and it may change when more values are added or removed.\n    *\n    * Requirements:\n    *\n    * - `index` must be strictly less than {length}.\n    */\n    function at(AddressSet storage set, uint256 index) internal view returns (address) {\n        return address(uint160(uint256(_at(set._inner, index))));\n    }\n\n\n    // UintSet\n\n    struct UintSet {\n        Set _inner;\n    }\n\n    /**\n     * @dev Add a value to a set. O(1).\n     *\n     * Returns true if the value was added to the set, that is if it was not\n     * already present.\n     */\n    function add(UintSet storage set, uint256 value) internal returns (bool) {\n        return _add(set._inner, bytes32(value));\n    }\n\n    /**\n     * @dev Removes a value from a set. O(1).\n     *\n     * Returns true if the value was removed from the set, that is if it was\n     * present.\n     */\n    function remove(UintSet storage set, uint256 value) internal returns (bool) {\n        return _remove(set._inner, bytes32(value));\n    }\n\n    /**\n     * @dev Returns true if the value is in the set. O(1).\n     */\n    function contains(UintSet storage set, uint256 value) internal view returns (bool) {\n        return _contains(set._inner, bytes32(value));\n    }\n\n    /**\n     * @dev Returns the number of values on the set. O(1).\n     */\n    function length(UintSet storage set) internal view returns (uint256) {\n        return _length(set._inner);\n    }\n\n   /**\n    * @dev Returns the value stored at position `index` in the set. O(1).\n    *\n    * Note that there are no guarantees on the ordering of values inside the\n    * array, and it may change when more values are added or removed.\n    *\n    * Requirements:\n    *\n    * - `index` must be strictly less than {length}.\n    */\n    function at(UintSet storage set, uint256 index) internal view returns (uint256) {\n        return uint256(_at(set._inner, index));\n    }\n}\n\n// File: @openzeppelin/contracts-upgradeable/access/AccessControlUpgradeable.sol\n\n\npragma solidity >=0.6.0 <0.8.0;\n\n\n\n\n\n/**\n * @dev Contract module that allows children to implement role-based access\n * control mechanisms.\n *\n * Roles are referred to by their `bytes32` identifier. These should be exposed\n * in the external API and be unique. The best way to achieve this is by\n * using `public constant` hash digests:\n *\n * ```\n * bytes32 public constant MY_ROLE = keccak256(\"MY_ROLE\");\n * ```\n *\n * Roles can be used to represent a set of permissions. To restrict access to a\n * function call, use {hasRole}:\n *\n * ```\n * function foo() public {\n *     require(hasRole(MY_ROLE, msg.sender));\n *     ...\n * }\n * ```\n *\n * Roles can be granted and revoked dynamically via the {grantRole} and\n * {revokeRole} functions. Each role has an associated admin role, and only\n * accounts that have a role's admin role can call {grantRole} and {revokeRole}.\n *\n * By default, the admin role for all roles is `DEFAULT_ADMIN_ROLE`, which means\n * that only accounts with this role will be able to grant or revoke other\n * roles. More complex role relationships can be created by using\n * {_setRoleAdmin}.\n *\n * WARNING: The `DEFAULT_ADMIN_ROLE` is also its own admin: it has permission to\n * grant and revoke this role. Extra precautions should be taken to secure\n * accounts that have been granted it.\n */\nabstract contract AccessControlUpgradeable is Initializable, ContextUpgradeable {\n    function __AccessControl_init() internal initializer {\n        __Context_init_unchained();\n        __AccessControl_init_unchained();\n    }\n\n    function __AccessControl_init_unchained() internal initializer {\n    }\n    using EnumerableSetUpgradeable for EnumerableSetUpgradeable.AddressSet;\n    using AddressUpgradeable for address;\n\n    struct RoleData {\n        EnumerableSetUpgradeable.AddressSet members;\n        bytes32 adminRole;\n    }\n\n    mapping (bytes32 => RoleData) private _roles;\n\n    bytes32 public constant DEFAULT_ADMIN_ROLE = 0x00;\n\n    /**\n     * @dev Emitted when `newAdminRole` is set as ``role``'s admin role, replacing `previousAdminRole`\n     *\n     * `DEFAULT_ADMIN_ROLE` is the starting admin for all roles, despite\n     * {RoleAdminChanged} not being emitted signaling this.\n     *\n     * _Available since v3.1._\n     */\n    event RoleAdminChanged(bytes32 indexed role, bytes32 indexed previousAdminRole, bytes32 indexed newAdminRole);\n\n    /**\n     * @dev Emitted when `account` is granted `role`.\n     *\n     * `sender` is the account that originated the contract call, an admin role\n     * bearer except when using {_setupRole}.\n     */\n    event RoleGranted(bytes32 indexed role, address indexed account, address indexed sender);\n\n    /**\n     * @dev Emitted when `account` is revoked `role`.\n     *\n     * `sender` is the account that originated the contract call:\n     *   - if using `revokeRole`, it is the admin role bearer\n     *   - if using `renounceRole`, it is the role bearer (i.e. `account`)\n     */\n    event RoleRevoked(bytes32 indexed role, address indexed account, address indexed sender);\n\n    /**\n     * @dev Returns `true` if `account` has been granted `role`.\n     */\n    function hasRole(bytes32 role, address account) public view returns (bool) {\n        return _roles[role].members.contains(account);\n    }\n\n    /**\n     * @dev Returns the number of accounts that have `role`. Can be used\n     * together with {getRoleMember} to enumerate all bearers of a role.\n     */\n    function getRoleMemberCount(bytes32 role) public view returns (uint256) {\n        return _roles[role].members.length();\n    }\n\n    /**\n     * @dev Returns one of the accounts that have `role`. `index` must be a\n     * value between 0 and {getRoleMemberCount}, non-inclusive.\n     *\n     * Role bearers are not sorted in any particular way, and their ordering may\n     * change at any point.\n     *\n     * WARNING: When using {getRoleMember} and {getRoleMemberCount}, make sure\n     * you perform all queries on the same block. See the following\n     * https://forum.openzeppelin.com/t/iterating-over-elements-on-enumerableset-in-openzeppelin-contracts/2296[forum post]\n     * for more information.\n     */\n    function getRoleMember(bytes32 role, uint256 index) public view returns (address) {\n        return _roles[role].members.at(index);\n    }\n\n    /**\n     * @dev Returns the admin role that controls `role`. See {grantRole} and\n     * {revokeRole}.\n     *\n     * To change a role's admin, use {_setRoleAdmin}.\n     */\n    function getRoleAdmin(bytes32 role) public view returns (bytes32) {\n        return _roles[role].adminRole;\n    }\n\n    /**\n     * @dev Grants `role` to `account`.\n     *\n     * If `account` had not been already granted `role`, emits a {RoleGranted}\n     * event.\n     *\n     * Requirements:\n     *\n     * - the caller must have ``role``'s admin role.\n     */\n    function grantRole(bytes32 role, address account) public virtual {\n        require(hasRole(_roles[role].adminRole, _msgSender()), \"AccessControl: sender must be an admin to grant\");\n\n        _grantRole(role, account);\n    }\n\n    /**\n     * @dev Revokes `role` from `account`.\n     *\n     * If `account` had been granted `role`, emits a {RoleRevoked} event.\n     *\n     * Requirements:\n     *\n     * - the caller must have ``role``'s admin role.\n     */\n    function revokeRole(bytes32 role, address account) public virtual {\n        require(hasRole(_roles[role].adminRole, _msgSender()), \"AccessControl: sender must be an admin to revoke\");\n\n        _revokeRole(role, account);\n    }\n\n    /**\n     * @dev Revokes `role` from the calling account.\n     *\n     * Roles are often managed via {grantRole} and {revokeRole}: this function's\n     * purpose is to provide a mechanism for accounts to lose their privileges\n     * if they are compromised (such as when a trusted device is misplaced).\n     *\n     * If the calling account had been granted `role`, emits a {RoleRevoked}\n     * event.\n     *\n     * Requirements:\n     *\n     * - the caller must be `account`.\n     */\n    function renounceRole(bytes32 role, address account) public virtual {\n        require(account == _msgSender(), \"AccessControl: can only renounce roles for self\");\n\n        _revokeRole(role, account);\n    }\n\n    /**\n     * @dev Grants `role` to `account`.\n     *\n     * If `account` had not been already granted `role`, emits a {RoleGranted}\n     * event. Note that unlike {grantRole}, this function doesn't perform any\n     * checks on the calling account.\n     *\n     * [WARNING]\n     * ====\n     * This function should only be called from the constructor when setting\n     * up the initial roles for the system.\n     *\n     * Using this function in any other way is effectively circumventing the admin\n     * system imposed by {AccessControl}.\n     * ====\n     */\n    function _setupRole(bytes32 role, address account) internal virtual {\n        _grantRole(role, account);\n    }\n\n    /**\n     * @dev Sets `adminRole` as ``role``'s admin role.\n     *\n     * Emits a {RoleAdminChanged} event.\n     */\n    function _setRoleAdmin(bytes32 role, bytes32 adminRole) internal virtual {\n        emit RoleAdminChanged(role, _roles[role].adminRole, adminRole);\n        _roles[role].adminRole = adminRole;\n    }\n\n    function _grantRole(bytes32 role, address account) private {\n        if (_roles[role].members.add(account)) {\n            emit RoleGranted(role, account, _msgSender());\n        }\n    }\n\n    function _revokeRole(bytes32 role, address account) private {\n        if (_roles[role].members.remove(account)) {\n            emit RoleRevoked(role, account, _msgSender());\n        }\n    }\n    uint256[49] private __gap;\n}\n\n// File: contracts/IERC721TokenCreator.sol\n\npragma solidity 0.6.12;\n\n/**\n * @title IERC721 Non-Fungible Token Creator basic interface\n */\ninterface IERC721TokenCreator {\n    /**\n     * @dev Gets the creator of the token\n     * @param _contractAddress address of the ERC721 contract\n     * @param _tokenId uint256 ID of the token\n     * @return address of the creator\n     */\n    function tokenCreator(address _contractAddress, uint256 _tokenId)\n        external\n        view\n        returns (address payable);\n}\n\n// File: contracts/IERC721CreatorRoyalty.sol\n\npragma solidity 0.6.12;\n\n\n/**\n * @title IERC721CreatorRoyalty Token level royalty interface.\n */\ninterface IERC721CreatorRoyalty is IERC721TokenCreator {\n    /**\n     * @dev Get the royalty fee percentage for a specific ERC721 contract.\n     * @param _contractAddress address ERC721Contract address.\n     * @param _tokenId uint256 token ID.\n     * @return uint8 wei royalty fee.\n     */\n    function getERC721TokenRoyaltyPercentage(\n        address _contractAddress,\n        uint256 _tokenId\n    ) external view returns (uint8);\n\n    /**\n     * @dev Utililty function to calculate the royalty fee for a token.\n     * @param _contractAddress address ERC721Contract address.\n     * @param _tokenId uint256 token ID.\n     * @param _amount uint256 wei amount.\n     * @return uint256 wei fee.\n     */\n    function calculateRoyaltyFee(\n        address _contractAddress,\n        uint256 _tokenId,\n        uint256 _amount\n    ) external view returns (uint256);\n}\n\n// File: contracts/ChimeraRoyaltyRegistry.sol\n\npragma solidity 0.6.12;\n\n// import 'https://github.com/OpenZeppelin/openzeppelin-contracts-upgradeable/blob/release-v3.3/contracts/math/SafeMathUpgradeable.sol';\n// import 'https://github.com/OpenZeppelin/openzeppelin-contracts-upgradeable/blob/release-v3.3/contracts/access/OwnableUpgradeable.sol';\n// import 'https://github.com/OpenZeppelin/openzeppelin-contracts-upgradeable/blob/release-v3.3/contracts/access/AccessControlUpgradeable.sol';\n\n\n\n\n\n/**\n * @title IERC721 Non-Fungible Token Creator basic interface\n */\ncontract ChimeraRoyaltyRegistry is OwnableUpgradeable, IERC721CreatorRoyalty {\n    using SafeMathUpgradeable for uint256;\n\n    /////////////////////////////////////////////////////////////////////////\n    // State Variables\n    /////////////////////////////////////////////////////////////////////////\n\n    // Mapping of ERC721 contract to royalty percentage for all NFTs,  3 == 3%\n    mapping(address => uint8) private contractRoyaltyPercentage;\n\n    // Mapping of ERC721 creator to royalty percentage for all NFTs.\n    mapping(address => uint8) private creatorRoyaltyPercentage;\n\n    // Mapping of ERC721 token to royalty percentage for all NFTs.\n    mapping(address => mapping(uint256 => uint8))\n        private tokenRoyaltyPercentage;\n\n    IERC721TokenCreator public iERC721TokenCreator;\n\n    /////////////////////////////////////////////////////////////////////////\n    // Constructor\n    /////////////////////////////////////////////////////////////////////////\n    // constructor(address _iERC721TokenCreator) public {\n    //     require(\n    //         _iERC721TokenCreator != address(0),\n    //         \"constructor::Cannot set the null address as an _iERC721TokenCreator\"\n    //     );\n    //     iERC721TokenCreator = IERC721TokenCreator(_iERC721TokenCreator);\n    // }\n     /////////////////////////////////////////////////////////////////////////\n    // Constructor\n    /////////////////////////////////////////////////////////////////////////\n    function initialize(address _iERC721TokenCreator) public initializer\n    {\n        require(\n            _iERC721TokenCreator != address(0),\n            \"constructor::Cannot set the null address as an _iERC721TokenCreator\"\n        );\n        __Ownable_init();\n        iERC721TokenCreator = IERC721TokenCreator(_iERC721TokenCreator);\n    }\n\n    /////////////////////////////////////////////////////////////////////////\n    // setIERC721TokenCreator\n    /////////////////////////////////////////////////////////////////////////\n    /**\n     * @dev Set an address as an IERC721TokenCreator\n     * @param _contractAddress address of the IERC721TokenCreator contract\n     */\n    function setIERC721TokenCreator(address _contractAddress)\n        external\n        onlyOwner\n    {\n        require(\n            _contractAddress != address(0),\n            \"setIERC721TokenCreator::_contractAddress cannot be null\"\n        );\n\n        iERC721TokenCreator = IERC721TokenCreator(_contractAddress);\n    }\n\n    /////////////////////////////////////////////////////////////////////////\n    // getERC721TokenRoyaltyPercentage\n    /////////////////////////////////////////////////////////////////////////\n    /**\n     * @dev Get the royalty fee percentage for a specific ERC721 contract.\n     * @param _contractAddress address ERC721Contract address.\n     * @param _tokenId uint256 token ID.\n     * @return uint8 wei royalty fee.\n     */\n    function getERC721TokenRoyaltyPercentage(\n        address _contractAddress,\n        uint256 _tokenId\n    ) public override view returns (uint8) {\n        if (tokenRoyaltyPercentage[_contractAddress][_tokenId] > 0) {\n            return tokenRoyaltyPercentage[_contractAddress][_tokenId];\n        }\n        address creator = iERC721TokenCreator.tokenCreator(\n            _contractAddress,\n            _tokenId\n        );\n        if (creatorRoyaltyPercentage[creator] > 0) {\n            return creatorRoyaltyPercentage[creator];\n        }\n        return contractRoyaltyPercentage[_contractAddress];\n    }\n\n    /////////////////////////////////////////////////////////////////////////\n    // getPercentageForSetERC721TokenRoyalty\n    /////////////////////////////////////////////////////////////////////////\n    /**\n     * @dev Gets the royalty percentage set for an ERC721 token\n     * @param _contractAddress address ERC721Contract address.\n     * @param _tokenId uint256 token ID.\n     * @return uint8 wei royalty fee.\n     */\n    function getPercentageForSetERC721TokenRoyalty(\n        address _contractAddress,\n        uint256 _tokenId\n    ) external view returns (uint8) {\n        return tokenRoyaltyPercentage[_contractAddress][_tokenId];\n    }\n\n    /////////////////////////////////////////////////////////////////////////\n    // setPercentageForSetERC721TokenRoyalty\n    /////////////////////////////////////////////////////////////////////////\n    /**\n     * @dev Sets the royalty percentage set for an ERC721 token\n     * Requirements:\n     * - `_percentage` must be <= 100.\n     * - only the owner of this contract or the creator can call this method.\n     * @param _contractAddress address ERC721Contract address.\n     * @param _tokenId uint256 token ID.\n     * @param _percentage uint8 wei royalty fee.\n     */\n    function setPercentageForSetERC721TokenRoyalty(\n        address _contractAddress,\n        uint256 _tokenId,\n        uint8 _percentage\n    ) external returns (uint8) {\n        require(\n            msg.sender ==\n                iERC721TokenCreator.tokenCreator(_contractAddress, _tokenId) ||\n                msg.sender == owner(),\n            \"setPercentageForSetERC721TokenRoyalty::Must be contract owner or creator \"\n        );\n        require(\n            _percentage <= 100,\n            \"setPercentageForSetERC721TokenRoyalty::_percentage must be <= 100\"\n        );\n        tokenRoyaltyPercentage[_contractAddress][_tokenId] = _percentage;\n    }\n\n    /////////////////////////////////////////////////////////////////////////\n    // getPercentageForSetERC721CreatorRoyalty\n    /////////////////////////////////////////////////////////////////////////\n    /**\n     * @dev Gets the royalty percentage set for an ERC721 creator\n     * @param _contractAddress address ERC721Contract address.\n     * @param _tokenId uint256 token ID.\n     * @return uint8 wei royalty fee.\n     */\n    function getPercentageForSetERC721CreatorRoyalty(\n        address _contractAddress,\n        uint256 _tokenId\n    ) external view returns (uint8) {\n        address creator = iERC721TokenCreator.tokenCreator(\n            _contractAddress,\n            _tokenId\n        );\n        return creatorRoyaltyPercentage[creator];\n    }\n\n    /////////////////////////////////////////////////////////////////////////\n    // setPercentageForSetERC721CreatorRoyalty\n    /////////////////////////////////////////////////////////////////////////\n    /**\n     * @dev Sets the royalty percentage set for an ERC721 creator\n     * Requirements:\n     * - `_percentage` must be <= 100.\n     * - only the owner of this contract or the creator can call this method.\n     * @param _creatorAddress address token ID.\n     * @param _percentage uint8 wei royalty fee.\n     */\n    function setPercentageForSetERC721CreatorRoyalty(\n        address _creatorAddress,\n        uint8 _percentage\n    ) external returns (uint8) {\n        require(\n            msg.sender == _creatorAddress || msg.sender == owner(),\n            \"setPercentageForSetERC721CreatorRoyalty::Must be owner or creator\"\n        );\n        require(\n            _percentage <= 100,\n            \"setPercentageForSetERC721CreatorRoyalty::_percentage must be <= 100\"\n        );\n        creatorRoyaltyPercentage[_creatorAddress] = _percentage;\n    }\n\n    /////////////////////////////////////////////////////////////////////////\n    // getPercentageForSetERC721ContractRoyalty\n    /////////////////////////////////////////////////////////////////////////\n    /**\n     * @dev Gets the royalty percentage set for an ERC721 contract\n     * @param _contractAddress address ERC721Contract address.\n     * @return uint8 wei royalty fee.\n     */\n    function getPercentageForSetERC721ContractRoyalty(address _contractAddress)\n        external\n        view\n        returns (uint8)\n    {\n        return contractRoyaltyPercentage[_contractAddress];\n    }\n\n    /////////////////////////////////////////////////////////////////////////\n    // setPercentageForSetERC721ContractRoyalty\n    /////////////////////////////////////////////////////////////////////////\n    /**\n     * @dev Sets the royalty percentage set for an ERC721 token\n     * Requirements:\n     * - `_percentage` must be <= 100.\n     * - only the owner of this contract.\n     * @param _contractAddress address ERC721Contract address.\n     * @param _percentage uint8 wei royalty fee.\n     */\n    function setPercentageForSetERC721ContractRoyalty(\n        address _contractAddress,\n        uint8 _percentage\n    ) external onlyOwner returns (uint8) {\n        require(\n            _percentage <= 100,\n            \"setPercentageForSetERC721ContractRoyalty::_percentage must be <= 100\"\n        );\n        contractRoyaltyPercentage[_contractAddress] = _percentage;\n    }\n\n    /////////////////////////////////////////////////////////////////////////\n    // calculateRoyaltyFee\n    /////////////////////////////////////////////////////////////////////////\n    /**\n     * @dev Utililty function to calculate the royalty fee for a token.\n     * @param _contractAddress address ERC721Contract address.\n     * @param _tokenId uint256 token ID.\n     * @param _amount uint256 wei amount.\n     * @return uint256 wei fee.\n     */\n    function calculateRoyaltyFee(\n        address _contractAddress,\n        uint256 _tokenId,\n        uint256 _amount\n    ) external override view returns (uint256) {\n        return\n            _amount\n                .mul(\n                getERC721TokenRoyaltyPercentage(_contractAddress, _tokenId)\n            )\n                .div(100);\n    }\n\n    /////////////////////////////////////////////////////////////////////////\n    // tokenCreator\n    /////////////////////////////////////////////////////////////////////////\n    /**\n     * @dev Gets the creator of the token\n     * @param _contractAddress address of the ERC721 contract\n     * @param _tokenId uint256 ID of the token\n     * @return address of the creator\n     */\n    function tokenCreator(address _contractAddress, uint256 _tokenId)\n        external\n        override\n        view\n        returns (address payable)\n    {\n        return iERC721TokenCreator.tokenCreator(_contractAddress, _tokenId);\n    }\n}\n",
  "sourcePath": "/home/khizer/Documents/AllData/chimera-react-frontend/ChimeraContracts/contracts/ChimeraRoyaltyRegistery.sol",
  "compiler": {
    "name": "solc",
    "version": "0.6.12+commit.27d51765.Emscripten.clang"
  },
  "schemaVersion": "3.3.4",
  "updatedAt": "2021-05-31T13:24:37.686Z",
  "devdoc": {
    "kind": "dev",
    "methods": {
      "calculateRoyaltyFee(address,uint256,uint256)": {
        "details": "Utililty function to calculate the royalty fee for a token.",
        "params": {
          "_amount": "uint256 wei amount.",
          "_contractAddress": "address ERC721Contract address.",
          "_tokenId": "uint256 token ID."
        },
        "returns": {
          "_0": "uint256 wei fee."
        }
      },
      "getERC721TokenRoyaltyPercentage(address,uint256)": {
        "details": "Get the royalty fee percentage for a specific ERC721 contract.",
        "params": {
          "_contractAddress": "address ERC721Contract address.",
          "_tokenId": "uint256 token ID."
        },
        "returns": {
          "_0": "uint8 wei royalty fee."
        }
      },
      "getPercentageForSetERC721ContractRoyalty(address)": {
        "details": "Gets the royalty percentage set for an ERC721 contract",
        "params": {
          "_contractAddress": "address ERC721Contract address."
        },
        "returns": {
          "_0": "uint8 wei royalty fee."
        }
      },
      "getPercentageForSetERC721CreatorRoyalty(address,uint256)": {
        "details": "Gets the royalty percentage set for an ERC721 creator",
        "params": {
          "_contractAddress": "address ERC721Contract address.",
          "_tokenId": "uint256 token ID."
        },
        "returns": {
          "_0": "uint8 wei royalty fee."
        }
      },
      "getPercentageForSetERC721TokenRoyalty(address,uint256)": {
        "details": "Gets the royalty percentage set for an ERC721 token",
        "params": {
          "_contractAddress": "address ERC721Contract address.",
          "_tokenId": "uint256 token ID."
        },
        "returns": {
          "_0": "uint8 wei royalty fee."
        }
      },
      "owner()": {
        "details": "Returns the address of the current owner."
      },
      "renounceOwnership()": {
        "details": "Leaves the contract without owner. It will not be possible to call `onlyOwner` functions anymore. Can only be called by the current owner. NOTE: Renouncing ownership will leave the contract without an owner, thereby removing any functionality that is only available to the owner."
      },
      "setIERC721TokenCreator(address)": {
        "details": "Set an address as an IERC721TokenCreator",
        "params": {
          "_contractAddress": "address of the IERC721TokenCreator contract"
        }
      },
      "setPercentageForSetERC721ContractRoyalty(address,uint8)": {
        "details": "Sets the royalty percentage set for an ERC721 token Requirements: - `_percentage` must be <= 100. - only the owner of this contract.",
        "params": {
          "_contractAddress": "address ERC721Contract address.",
          "_percentage": "uint8 wei royalty fee."
        }
      },
      "setPercentageForSetERC721CreatorRoyalty(address,uint8)": {
        "details": "Sets the royalty percentage set for an ERC721 creator Requirements: - `_percentage` must be <= 100. - only the owner of this contract or the creator can call this method.",
        "params": {
          "_creatorAddress": "address token ID.",
          "_percentage": "uint8 wei royalty fee."
        }
      },
      "setPercentageForSetERC721TokenRoyalty(address,uint256,uint8)": {
        "details": "Sets the royalty percentage set for an ERC721 token Requirements: - `_percentage` must be <= 100. - only the owner of this contract or the creator can call this method.",
        "params": {
          "_contractAddress": "address ERC721Contract address.",
          "_percentage": "uint8 wei royalty fee.",
          "_tokenId": "uint256 token ID."
        }
      },
      "tokenCreator(address,uint256)": {
        "details": "Gets the creator of the token",
        "params": {
          "_contractAddress": "address of the ERC721 contract",
          "_tokenId": "uint256 ID of the token"
        },
        "returns": {
          "_0": "address of the creator"
        }
      },
      "transferOwnership(address)": {
        "details": "Transfers ownership of the contract to a new account (`newOwner`). Can only be called by the current owner."
      }
    },
    "title": "IERC721 Non-Fungible Token Creator basic interface",
    "version": 1
  },
  "userdoc": {
    "kind": "user",
    "methods": {},
    "version": 1
  }
}