{
  "contractName": "Chimera",
  "abi": [
    {
      "anonymous": false,
      "inputs": [
        {
          "indexed": true,
          "internalType": "address",
          "name": "_newAddress",
          "type": "address"
        }
      ],
      "name": "AddToWhitelist",
      "type": "event"
    },
    {
      "anonymous": false,
      "inputs": [
        {
          "indexed": true,
          "internalType": "address",
          "name": "owner",
          "type": "address"
        },
        {
          "indexed": true,
          "internalType": "address",
          "name": "approved",
          "type": "address"
        },
        {
          "indexed": true,
          "internalType": "uint256",
          "name": "tokenId",
          "type": "uint256"
        }
      ],
      "name": "Approval",
      "type": "event"
    },
    {
      "anonymous": false,
      "inputs": [
        {
          "indexed": true,
          "internalType": "address",
          "name": "owner",
          "type": "address"
        },
        {
          "indexed": true,
          "internalType": "address",
          "name": "operator",
          "type": "address"
        },
        {
          "indexed": false,
          "internalType": "bool",
          "name": "approved",
          "type": "bool"
        }
      ],
      "name": "ApprovalForAll",
      "type": "event"
    },
    {
      "anonymous": false,
      "inputs": [
        {
          "indexed": true,
          "internalType": "address",
          "name": "previousOwner",
          "type": "address"
        },
        {
          "indexed": true,
          "internalType": "address",
          "name": "newOwner",
          "type": "address"
        }
      ],
      "name": "OwnershipTransferred",
      "type": "event"
    },
    {
      "anonymous": false,
      "inputs": [
        {
          "indexed": true,
          "internalType": "address",
          "name": "_removedAddress",
          "type": "address"
        }
      ],
      "name": "RemoveFromWhitelist",
      "type": "event"
    },
    {
      "anonymous": false,
      "inputs": [
        {
          "indexed": true,
          "internalType": "uint256",
          "name": "_tokenId",
          "type": "uint256"
        },
        {
          "indexed": false,
          "internalType": "string",
          "name": "_uri",
          "type": "string"
        },
        {
          "indexed": false,
          "internalType": "enum Chimera.TokenType",
          "name": "_tokenType",
          "type": "uint8"
        }
      ],
      "name": "TokenURIUpdated",
      "type": "event"
    },
    {
      "anonymous": false,
      "inputs": [
        {
          "indexed": true,
          "internalType": "address",
          "name": "from",
          "type": "address"
        },
        {
          "indexed": true,
          "internalType": "address",
          "name": "to",
          "type": "address"
        },
        {
          "indexed": true,
          "internalType": "uint256",
          "name": "tokenId",
          "type": "uint256"
        }
      ],
      "name": "Transfer",
      "type": "event"
    },
    {
      "inputs": [
        {
          "internalType": "address",
          "name": "_newAddress",
          "type": "address"
        }
      ],
      "name": "addToWhitelist",
      "outputs": [],
      "stateMutability": "nonpayable",
      "type": "function"
    },
    {
      "inputs": [
        {
          "internalType": "address",
          "name": "to",
          "type": "address"
        },
        {
          "internalType": "uint256",
          "name": "tokenId",
          "type": "uint256"
        }
      ],
      "name": "approve",
      "outputs": [],
      "stateMutability": "nonpayable",
      "type": "function"
    },
    {
      "inputs": [
        {
          "internalType": "address",
          "name": "owner",
          "type": "address"
        }
      ],
      "name": "balanceOf",
      "outputs": [
        {
          "internalType": "uint256",
          "name": "",
          "type": "uint256"
        }
      ],
      "stateMutability": "view",
      "type": "function"
    },
    {
      "inputs": [],
      "name": "baseURI",
      "outputs": [
        {
          "internalType": "string",
          "name": "",
          "type": "string"
        }
      ],
      "stateMutability": "view",
      "type": "function"
    },
    {
      "inputs": [
        {
          "internalType": "bool",
          "name": "_enabled",
          "type": "bool"
        }
      ],
      "name": "enableWhitelist",
      "outputs": [],
      "stateMutability": "nonpayable",
      "type": "function"
    },
    {
      "inputs": [
        {
          "internalType": "uint256",
          "name": "tokenId",
          "type": "uint256"
        }
      ],
      "name": "getApproved",
      "outputs": [
        {
          "internalType": "address",
          "name": "",
          "type": "address"
        }
      ],
      "stateMutability": "view",
      "type": "function"
    },
    {
      "inputs": [
        {
          "internalType": "address",
          "name": "owner",
          "type": "address"
        },
        {
          "internalType": "address",
          "name": "operator",
          "type": "address"
        }
      ],
      "name": "isApprovedForAll",
      "outputs": [
        {
          "internalType": "bool",
          "name": "",
          "type": "bool"
        }
      ],
      "stateMutability": "view",
      "type": "function"
    },
    {
      "inputs": [
        {
          "internalType": "address",
          "name": "_address",
          "type": "address"
        }
      ],
      "name": "isWhitelisted",
      "outputs": [
        {
          "internalType": "bool",
          "name": "",
          "type": "bool"
        }
      ],
      "stateMutability": "view",
      "type": "function"
    },
    {
      "inputs": [],
      "name": "name",
      "outputs": [
        {
          "internalType": "string",
          "name": "",
          "type": "string"
        }
      ],
      "stateMutability": "view",
      "type": "function"
    },
    {
      "inputs": [],
      "name": "owner",
      "outputs": [
        {
          "internalType": "address",
          "name": "",
          "type": "address"
        }
      ],
      "stateMutability": "view",
      "type": "function"
    },
    {
      "inputs": [
        {
          "internalType": "uint256",
          "name": "tokenId",
          "type": "uint256"
        }
      ],
      "name": "ownerOf",
      "outputs": [
        {
          "internalType": "address",
          "name": "",
          "type": "address"
        }
      ],
      "stateMutability": "view",
      "type": "function"
    },
    {
      "inputs": [
        {
          "internalType": "address",
          "name": "_removedAddress",
          "type": "address"
        }
      ],
      "name": "removeFromWhitelist",
      "outputs": [],
      "stateMutability": "nonpayable",
      "type": "function"
    },
    {
      "inputs": [],
      "name": "renounceOwnership",
      "outputs": [],
      "stateMutability": "nonpayable",
      "type": "function"
    },
    {
      "inputs": [
        {
          "internalType": "address",
          "name": "from",
          "type": "address"
        },
        {
          "internalType": "address",
          "name": "to",
          "type": "address"
        },
        {
          "internalType": "uint256",
          "name": "tokenId",
          "type": "uint256"
        }
      ],
      "name": "safeTransferFrom",
      "outputs": [],
      "stateMutability": "nonpayable",
      "type": "function"
    },
    {
      "inputs": [
        {
          "internalType": "address",
          "name": "from",
          "type": "address"
        },
        {
          "internalType": "address",
          "name": "to",
          "type": "address"
        },
        {
          "internalType": "uint256",
          "name": "tokenId",
          "type": "uint256"
        },
        {
          "internalType": "bytes",
          "name": "_data",
          "type": "bytes"
        }
      ],
      "name": "safeTransferFrom",
      "outputs": [],
      "stateMutability": "nonpayable",
      "type": "function"
    },
    {
      "inputs": [
        {
          "internalType": "address",
          "name": "operator",
          "type": "address"
        },
        {
          "internalType": "bool",
          "name": "approved",
          "type": "bool"
        }
      ],
      "name": "setApprovalForAll",
      "outputs": [],
      "stateMutability": "nonpayable",
      "type": "function"
    },
    {
      "inputs": [
        {
          "internalType": "bytes4",
          "name": "interfaceId",
          "type": "bytes4"
        }
      ],
      "name": "supportsInterface",
      "outputs": [
        {
          "internalType": "bool",
          "name": "",
          "type": "bool"
        }
      ],
      "stateMutability": "view",
      "type": "function"
    },
    {
      "inputs": [],
      "name": "symbol",
      "outputs": [
        {
          "internalType": "string",
          "name": "",
          "type": "string"
        }
      ],
      "stateMutability": "view",
      "type": "function"
    },
    {
      "inputs": [
        {
          "internalType": "uint256",
          "name": "index",
          "type": "uint256"
        }
      ],
      "name": "tokenByIndex",
      "outputs": [
        {
          "internalType": "uint256",
          "name": "",
          "type": "uint256"
        }
      ],
      "stateMutability": "view",
      "type": "function"
    },
    {
      "inputs": [
        {
          "internalType": "address",
          "name": "owner",
          "type": "address"
        },
        {
          "internalType": "uint256",
          "name": "index",
          "type": "uint256"
        }
      ],
      "name": "tokenOfOwnerByIndex",
      "outputs": [
        {
          "internalType": "uint256",
          "name": "",
          "type": "uint256"
        }
      ],
      "stateMutability": "view",
      "type": "function"
    },
    {
      "inputs": [
        {
          "internalType": "uint256",
          "name": "tokenId",
          "type": "uint256"
        }
      ],
      "name": "tokenURI",
      "outputs": [
        {
          "internalType": "string",
          "name": "",
          "type": "string"
        }
      ],
      "stateMutability": "view",
      "type": "function"
    },
    {
      "inputs": [],
      "name": "totalSupply",
      "outputs": [
        {
          "internalType": "uint256",
          "name": "",
          "type": "uint256"
        }
      ],
      "stateMutability": "view",
      "type": "function"
    },
    {
      "inputs": [
        {
          "internalType": "address",
          "name": "from",
          "type": "address"
        },
        {
          "internalType": "address",
          "name": "to",
          "type": "address"
        },
        {
          "internalType": "uint256",
          "name": "tokenId",
          "type": "uint256"
        }
      ],
      "name": "transferFrom",
      "outputs": [],
      "stateMutability": "nonpayable",
      "type": "function"
    },
    {
      "inputs": [
        {
          "internalType": "address",
          "name": "newOwner",
          "type": "address"
        }
      ],
      "name": "transferOwnership",
      "outputs": [],
      "stateMutability": "nonpayable",
      "type": "function"
    },
    {
      "inputs": [
        {
          "internalType": "string",
          "name": "name",
          "type": "string"
        },
        {
          "internalType": "string",
          "name": "symbol",
          "type": "string"
        }
      ],
      "name": "initialize",
      "outputs": [],
      "stateMutability": "nonpayable",
      "type": "function"
    },
    {
      "inputs": [],
      "name": "initialize",
      "outputs": [],
      "stateMutability": "nonpayable",
      "type": "function"
    },
    {
      "inputs": [
        {
          "internalType": "address[]",
          "name": "_whitelistees",
          "type": "address[]"
        }
      ],
      "name": "initWhitelist",
      "outputs": [],
      "stateMutability": "nonpayable",
      "type": "function"
    },
    {
      "inputs": [
        {
          "internalType": "string",
          "name": "_uri",
          "type": "string"
        },
        {
          "internalType": "enum Chimera.TokenType",
          "name": "_tokenType",
          "type": "uint8"
        }
      ],
      "name": "addNewToken",
      "outputs": [],
      "stateMutability": "nonpayable",
      "type": "function"
    },
    {
      "inputs": [
        {
          "internalType": "uint256",
          "name": "_tokenId",
          "type": "uint256"
        }
      ],
      "name": "deleteToken",
      "outputs": [],
      "stateMutability": "nonpayable",
      "type": "function"
    },
    {
      "inputs": [
        {
          "internalType": "uint256",
          "name": "_tokenId",
          "type": "uint256"
        },
        {
          "internalType": "string",
          "name": "_uri",
          "type": "string"
        },
        {
          "internalType": "enum Chimera.TokenType",
          "name": "_tokenType",
          "type": "uint8"
        }
      ],
      "name": "updateTokenMetadata",
      "outputs": [],
      "stateMutability": "nonpayable",
      "type": "function"
    },
    {
      "inputs": [
        {
          "internalType": "uint256",
          "name": "_tokenId",
          "type": "uint256"
        }
      ],
      "name": "tokenCreator",
      "outputs": [
        {
          "internalType": "address",
          "name": "",
          "type": "address"
        }
      ],
      "stateMutability": "view",
      "type": "function"
    },
    {
      "inputs": [
        {
          "internalType": "uint256",
          "name": "_tokenId",
          "type": "uint256"
        }
      ],
      "name": "tokenType",
      "outputs": [
        {
          "internalType": "enum Chimera.TokenType",
          "name": "_tokentype",
          "type": "uint8"
        }
      ],
      "stateMutability": "view",
      "type": "function"
    },
    {
      "inputs": [
        {
          "internalType": "uint256",
          "name": "_tokenId",
          "type": "uint256"
        }
      ],
      "name": "getTokenSaleType",
      "outputs": [
        {
          "internalType": "enum Chimera.TokenSaleType",
          "name": "_tokensaleType",
          "type": "uint8"
        }
      ],
      "stateMutability": "view",
      "type": "function"
    }
  ],
  "bytecode": "0x6080604052600160ca60006101000a81548160ff02191690831515021790555034801561002b57600080fd5b50614ca88061003b6000396000f3fe608060405234801561001057600080fd5b50600436106101fb5760003560e01c80636c0360eb1161011a578063ad05c434116100ad578063e43252d71161007c578063e43252d714610d97578063e6c3b1f614610ddb578063e985e9c514610e28578063f2fde38b14610ea2578063fa328bf514610ee6576101fb565b8063ad05c43414610ae6578063b85ecf9314610b33578063b88d4fde14610beb578063c87b56dd14610cf0576101fb565b80638ab1d681116100e95780638ab1d6811461099b5780638da5cb5b146109df57806395d89b4114610a13578063a22cb46514610a96576101fb565b80636c0360eb146108ac57806370a082311461092f578063715018a6146109875780638129fc1c14610991576101fb565b80633af32abf116101925780634cd88b76116101615780634cd88b76146106925780634f6ccce7146107e45780636297c16c146108265780636352211e14610854576101fb565b80633af32abf146104aa57806340c1a0641461050457806342842e0e1461055c5780634b3f8867146105ca576101fb565b8063095ea7b3116101ce578063095ea7b31461036e57806318160ddd146103bc57806323b872dd146103da5780632f745c5914610448576101fb565b806301ffc9a714610200578063040b65831461026357806306fdde0314610293578063081812fc14610316575b600080fd5b61024b6004803603602081101561021657600080fd5b8101908080357bffffffffffffffffffffffffffffffffffffffffffffffffffffffff19169060200190929190505050610fb8565b60405180821515815260200191505060405180910390f35b6102916004803603602081101561027957600080fd5b81019080803515159060200190929190505050611020565b005b61029b6110ec565b6040518080602001828103825283818151815260200191508051906020019080838360005b838110156102db5780820151818401526020810190506102c0565b50505050905090810190601f1680156103085780820380516001836020036101000a031916815260200191505b509250505060405180910390f35b6103426004803603602081101561032c57600080fd5b810190808035906020019092919050505061118e565b604051808273ffffffffffffffffffffffffffffffffffffffff16815260200191505060405180910390f35b6103ba6004803603604081101561038457600080fd5b81019080803573ffffffffffffffffffffffffffffffffffffffff16906020019092919080359060200190929190505050611229565b005b6103c461136d565b6040518082815260200191505060405180910390f35b610446600480360360608110156103f057600080fd5b81019080803573ffffffffffffffffffffffffffffffffffffffff169060200190929190803573ffffffffffffffffffffffffffffffffffffffff1690602001909291908035906020019092919050505061137e565b005b6104946004803603604081101561045e57600080fd5b81019080803573ffffffffffffffffffffffffffffffffffffffff169060200190929190803590602001909291905050506113f4565b6040518082815260200191505060405180910390f35b6104ec600480360360208110156104c057600080fd5b81019080803573ffffffffffffffffffffffffffffffffffffffff16906020019092919050505061144f565b60405180821515815260200191505060405180910390f35b6105306004803603602081101561051a57600080fd5b81019080803590602001909291905050506114c4565b604051808273ffffffffffffffffffffffffffffffffffffffff16815260200191505060405180910390f35b6105c86004803603606081101561057257600080fd5b81019080803573ffffffffffffffffffffffffffffffffffffffff169060200190929190803573ffffffffffffffffffffffffffffffffffffffff16906020019092919080359060200190929190505050611501565b005b610690600480360360408110156105e057600080fd5b81019080803590602001906401000000008111156105fd57600080fd5b82018360208201111561060f57600080fd5b8035906020019184600183028401116401000000008311171561063157600080fd5b91908080601f016020809104026020016040519081016040528093929190818152602001838380828437600081840152601f19601f820116905080830192505050505050509192919290803560ff169060200190929190505050611521565b005b6107e2600480360360408110156106a857600080fd5b81019080803590602001906401000000008111156106c557600080fd5b8201836020820111156106d757600080fd5b803590602001918460018302840111640100000000831117156106f957600080fd5b91908080601f016020809104026020016040519081016040528093929190818152602001838380828437600081840152601f19601f8201169050808301925050505050505091929192908035906020019064010000000081111561075c57600080fd5b82018360208201111561076e57600080fd5b8035906020019184600183028401116401000000008311171561079057600080fd5b91908080601f016020809104026020016040519081016040528093929190818152602001838380828437600081840152601f19601f82011690508083019250505050505050919291929050505061158f565b005b610810600480360360208110156107fa57600080fd5b81019080803590602001909291905050506116a9565b6040518082815260200191505060405180910390f35b6108526004803603602081101561083c57600080fd5b81019080803590602001909291905050506116cc565b005b6108806004803603602081101561086a57600080fd5b8101908080359060200190929190505050611789565b604051808273ffffffffffffffffffffffffffffffffffffffff16815260200191505060405180910390f35b6108b46117c0565b6040518080602001828103825283818151815260200191508051906020019080838360005b838110156108f45780820151818401526020810190506108d9565b50505050905090810190601f1680156109215780820380516001836020036101000a031916815260200191505b509250505060405180910390f35b6109716004803603602081101561094557600080fd5b81019080803573ffffffffffffffffffffffffffffffffffffffff169060200190929190505050611862565b6040518082815260200191505060405180910390f35b61098f611937565b005b610999611aa7565b005b6109dd600480360360208110156109b157600080fd5b81019080803573ffffffffffffffffffffffffffffffffffffffff169060200190929190505050611bad565b005b6109e7611cab565b604051808273ffffffffffffffffffffffffffffffffffffffff16815260200191505060405180910390f35b610a1b611cd5565b6040518080602001828103825283818151815260200191508051906020019080838360005b83811015610a5b578082015181840152602081019050610a40565b50505050905090810190601f168015610a885780820380516001836020036101000a031916815260200191505b509250505060405180910390f35b610ae460048036036040811015610aac57600080fd5b81019080803573ffffffffffffffffffffffffffffffffffffffff169060200190929190803515159060200190929190505050611d77565b005b610b1260048036036020811015610afc57600080fd5b8101908080359060200190929190505050611f2d565b60405180826001811115610b2257fe5b815260200191505060405180910390f35b610be960048036036020811015610b4957600080fd5b8101908080359060200190640100000000811115610b6657600080fd5b820183602082011115610b7857600080fd5b80359060200191846020830284011164010000000083111715610b9a57600080fd5b919080806020026020016040519081016040528093929190818152602001838360200280828437600081840152601f19601f820116905080830192505050505050509192919290505050611f5a565b005b610cee60048036036080811015610c0157600080fd5b81019080803573ffffffffffffffffffffffffffffffffffffffff169060200190929190803573ffffffffffffffffffffffffffffffffffffffff1690602001909291908035906020019092919080359060200190640100000000811115610c6857600080fd5b820183602082011115610c7a57600080fd5b80359060200191846001830284011164010000000083111715610c9c57600080fd5b91908080601f016020809104026020016040519081016040528093929190818152602001838380828437600081840152601f19601f820116905080830192505050505050509192919290505050612056565b005b610d1c60048036036020811015610d0657600080fd5b81019080803590602001909291905050506120ce565b6040518080602001828103825283818151815260200191508051906020019080838360005b83811015610d5c578082015181840152602081019050610d41565b50505050905090810190601f168015610d895780820380516001836020036101000a031916815260200191505b509250505060405180910390f35b610dd960048036036020811015610dad57600080fd5b81019080803573ffffffffffffffffffffffffffffffffffffffff16906020019092919050505061239f565b005b610e0760048036036020811015610df157600080fd5b810190808035906020019092919050505061249d565b60405180826001811115610e1757fe5b815260200191505060405180910390f35b610e8a60048036036040811015610e3e57600080fd5b81019080803573ffffffffffffffffffffffffffffffffffffffff169060200190929190803573ffffffffffffffffffffffffffffffffffffffff1690602001909291905050506124ca565b60405180821515815260200191505060405180910390f35b610ee460048036036020811015610eb857600080fd5b81019080803573ffffffffffffffffffffffffffffffffffffffff16906020019092919050505061255e565b005b610fb660048036036060811015610efc57600080fd5b810190808035906020019092919080359060200190640100000000811115610f2357600080fd5b820183602082011115610f3557600080fd5b80359060200191846001830284011164010000000083111715610f5757600080fd5b91908080601f016020809104026020016040519081016040528093929190818152602001838380828437600081840152601f19601f820116905080830192505050505050509192919290803560ff169060200190929190505050612753565b005b600060336000837bffffffffffffffffffffffffffffffffffffffffffffffffffffffff19167bffffffffffffffffffffffffffffffffffffffffffffffffffffffff1916815260200190815260200160002060009054906101000a900460ff169050919050565b61102861297e565b73ffffffffffffffffffffffffffffffffffffffff16611046611cab565b73ffffffffffffffffffffffffffffffffffffffff16146110cf576040517f08c379a00000000000000000000000000000000000000000000000000000000081526004018080602001828103825260208152602001807f4f776e61626c653a2063616c6c6572206973206e6f7420746865206f776e657281525060200191505060405180910390fd5b8060ca60006101000a81548160ff02191690831515021790555050565b6060606a8054600181600116156101000203166002900480601f0160208091040260200160405190810160405280929190818152602001828054600181600116156101000203166002900480156111845780601f1061115957610100808354040283529160200191611184565b820191906000526020600020905b81548152906001019060200180831161116757829003601f168201915b5050505050905090565b600061119982612986565b6111ee576040517f08c379a000000000000000000000000000000000000000000000000000000000815260040180806020018281038252602c815260200180614b4d602c913960400191505060405180910390fd5b6068600083815260200190815260200160002060009054906101000a900473ffffffffffffffffffffffffffffffffffffffff169050919050565b600061123482611789565b90508073ffffffffffffffffffffffffffffffffffffffff168373ffffffffffffffffffffffffffffffffffffffff1614156112bb576040517f08c379a0000000000000000000000000000000000000000000000000000000008152600401808060200182810382526021815260200180614bfd6021913960400191505060405180910390fd5b8073ffffffffffffffffffffffffffffffffffffffff166112da61297e565b73ffffffffffffffffffffffffffffffffffffffff16148061130957506113088161130361297e565b6124ca565b5b61135e576040517f08c379a0000000000000000000000000000000000000000000000000000000008152600401808060200182810382526038815260200180614a726038913960400191505060405180910390fd5b61136883836129a3565b505050565b60006113796066612a5c565b905090565b61138f61138961297e565b82612a71565b6113e4576040517f08c379a0000000000000000000000000000000000000000000000000000000008152600401808060200182810382526031815260200180614c1e6031913960400191505060405180910390fd5b6113ef838383612b65565b505050565b600061144782606560008673ffffffffffffffffffffffffffffffffffffffff1673ffffffffffffffffffffffffffffffffffffffff168152602001908152602001600020612da890919063ffffffff16565b905092915050565b600060ca60009054906101000a900460ff16156114ba5760c960008373ffffffffffffffffffffffffffffffffffffffff1673ffffffffffffffffffffffffffffffffffffffff16815260200190815260200160002060009054906101000a900460ff1690506114bf565b600190505b919050565b600060ce600083815260200190815260200160002060009054906101000a900473ffffffffffffffffffffffffffffffffffffffff169050919050565b61151c83838360405180602001604052806000815250612056565b505050565b61152a3361144f565b61157f576040517f08c379a0000000000000000000000000000000000000000000000000000000008152600401808060200182810382526024815260200180614c4f6024913960400191505060405180910390fd5b61158a823383612dc2565b505050565b600060019054906101000a900460ff16806115ae57506115ad612e0f565b5b806115c4575060008054906101000a900460ff16155b611619576040517f08c379a000000000000000000000000000000000000000000000000000000000815260040180806020018281038252602e815260200180614afd602e913960400191505060405180910390fd5b60008060019054906101000a900460ff161590508015611669576001600060016101000a81548160ff02191690831515021790555060016000806101000a81548160ff0219169083151502179055505b611671611aa7565b611679612e20565b6116838383612f2e565b80156116a45760008060016101000a81548160ff0219169083151502179055505b505050565b6000806116c083606661304890919063ffffffff16565b50905080915050919050565b8060006116d882611789565b90503373ffffffffffffffffffffffffffffffffffffffff168173ffffffffffffffffffffffffffffffffffffffff161461177b576040517f08c379a000000000000000000000000000000000000000000000000000000000815260040180806020018281038252601e8152602001807f6d75737420626520746865206f776e6572206f662074686520746f6b656e000081525060200191505060405180910390fd5b61178483613074565b505050565b60006117b982604051806060016040528060298152602001614ad46029913960666131ae9092919063ffffffff16565b9050919050565b6060606d8054600181600116156101000203166002900480601f0160208091040260200160405190810160405280929190818152602001828054600181600116156101000203166002900480156118585780601f1061182d57610100808354040283529160200191611858565b820191906000526020600020905b81548152906001019060200180831161183b57829003601f168201915b5050505050905090565b60008073ffffffffffffffffffffffffffffffffffffffff168273ffffffffffffffffffffffffffffffffffffffff1614156118e9576040517f08c379a000000000000000000000000000000000000000000000000000000000815260040180806020018281038252602a815260200180614aaa602a913960400191505060405180910390fd5b611930606560008473ffffffffffffffffffffffffffffffffffffffff1673ffffffffffffffffffffffffffffffffffffffff1681526020019081526020016000206131cd565b9050919050565b61193f61297e565b73ffffffffffffffffffffffffffffffffffffffff1661195d611cab565b73ffffffffffffffffffffffffffffffffffffffff16146119e6576040517f08c379a00000000000000000000000000000000000000000000000000000000081526004018080602001828103825260208152602001807f4f776e61626c653a2063616c6c6572206973206e6f7420746865206f776e657281525060200191505060405180910390fd5b600073ffffffffffffffffffffffffffffffffffffffff16609760009054906101000a900473ffffffffffffffffffffffffffffffffffffffff1673ffffffffffffffffffffffffffffffffffffffff167f8be0079c531659141344cd1fd0a4f28419497f9722a3daafe3b4186f6b6457e060405160405180910390a36000609760006101000a81548173ffffffffffffffffffffffffffffffffffffffff021916908373ffffffffffffffffffffffffffffffffffffffff160217905550565b600060019054906101000a900460ff1680611ac65750611ac5612e0f565b5b80611adc575060008054906101000a900460ff16155b611b31576040517f08c379a000000000000000000000000000000000000000000000000000000000815260040180806020018281038252602e815260200180614afd602e913960400191505060405180910390fd5b60008060019054906101000a900460ff161590508015611b81576001600060016101000a81548160ff02191690831515021790555060016000806101000a81548160ff0219169083151502179055505b611b89612e20565b8015611baa5760008060016101000a81548160ff0219169083151502179055505b50565b611bb561297e565b73ffffffffffffffffffffffffffffffffffffffff16611bd3611cab565b73ffffffffffffffffffffffffffffffffffffffff1614611c5c576040517f08c379a00000000000000000000000000000000000000000000000000000000081526004018080602001828103825260208152602001807f4f776e61626c653a2063616c6c6572206973206e6f7420746865206f776e657281525060200191505060405180910390fd5b611c65816131e2565b8073ffffffffffffffffffffffffffffffffffffffff167f1f756c8b089af6b33ee121fee8badac2553a2fa89c0575ea91ff8792617746c260405160405180910390a250565b6000609760009054906101000a900473ffffffffffffffffffffffffffffffffffffffff16905090565b6060606b8054600181600116156101000203166002900480601f016020809104026020016040519081016040528092919081815260200182805460018160011615610100020316600290048015611d6d5780601f10611d4257610100808354040283529160200191611d6d565b820191906000526020600020905b815481529060010190602001808311611d5057829003601f168201915b5050505050905090565b611d7f61297e565b73ffffffffffffffffffffffffffffffffffffffff168273ffffffffffffffffffffffffffffffffffffffff161415611e20576040517f08c379a00000000000000000000000000000000000000000000000000000000081526004018080602001828103825260198152602001807f4552433732313a20617070726f766520746f2063616c6c65720000000000000081525060200191505060405180910390fd5b8060696000611e2d61297e565b73ffffffffffffffffffffffffffffffffffffffff1673ffffffffffffffffffffffffffffffffffffffff16815260200190815260200160002060008473ffffffffffffffffffffffffffffffffffffffff1673ffffffffffffffffffffffffffffffffffffffff16815260200190815260200160002060006101000a81548160ff0219169083151502179055508173ffffffffffffffffffffffffffffffffffffffff16611eda61297e565b73ffffffffffffffffffffffffffffffffffffffff167f17307eab39ab6107e8899845ad3d59bd9653f200f220920489ca2b5937696c318360405180821515815260200191505060405180910390a35050565b600060cf600083815260200190815260200160002060000160019054906101000a900460ff169050919050565b611f6261297e565b73ffffffffffffffffffffffffffffffffffffffff16611f80611cab565b73ffffffffffffffffffffffffffffffffffffffff1614612009576040517f08c379a00000000000000000000000000000000000000000000000000000000081526004018080602001828103825260208152602001807f4f776e61626c653a2063616c6c6572206973206e6f7420746865206f776e657281525060200191505060405180910390fd5b60005b815181101561205257600082828151811061202357fe5b602002602001015190506120368161144f565b612044576120438161323d565b5b50808060010191505061200c565b5050565b61206761206161297e565b83612a71565b6120bc576040517f08c379a0000000000000000000000000000000000000000000000000000000008152600401808060200182810382526031815260200180614c1e6031913960400191505060405180910390fd5b6120c884848484613298565b50505050565b60606120d982612986565b61212e576040517f08c379a000000000000000000000000000000000000000000000000000000000815260040180806020018281038252602f815260200180614bce602f913960400191505060405180910390fd5b6060606c60008481526020019081526020016000208054600181600116156101000203166002900480601f0160208091040260200160405190810160405280929190818152602001828054600181600116156101000203166002900480156121d75780601f106121ac576101008083540402835291602001916121d7565b820191906000526020600020905b8154815290600101906020018083116121ba57829003601f168201915b5050505050905060606121e86117c0565b90506000815114156121fe57819250505061239a565b6000825111156122cf5780826040516020018083805190602001908083835b60208310612240578051825260208201915060208101905060208303925061221d565b6001836020036101000a03801982511681845116808217855250505050505090500182805190602001908083835b60208310612291578051825260208201915060208101905060208303925061226e565b6001836020036101000a038019825116818451168082178552505050505050905001925050506040516020818303038152906040529250505061239a565b806122d98561330a565b6040516020018083805190602001908083835b6020831061230f57805182526020820191506020810190506020830392506122ec565b6001836020036101000a03801982511681845116808217855250505050505090500182805190602001908083835b60208310612360578051825260208201915060208101905060208303925061233d565b6001836020036101000a03801982511681845116808217855250505050505090500192505050604051602081830303815290604052925050505b919050565b6123a761297e565b73ffffffffffffffffffffffffffffffffffffffff166123c5611cab565b73ffffffffffffffffffffffffffffffffffffffff161461244e576040517f08c379a00000000000000000000000000000000000000000000000000000000081526004018080602001828103825260208152602001807f4f776e61626c653a2063616c6c6572206973206e6f7420746865206f776e657281525060200191505060405180910390fd5b6124578161323d565b8073ffffffffffffffffffffffffffffffffffffffff167f75b2135d1c8c3519f3c09c43fe6527089ef09f40c7981ebf0ed46e79e79032c760405160405180910390a250565b600060cf600083815260200190815260200160002060000160009054906101000a900460ff169050919050565b6000606960008473ffffffffffffffffffffffffffffffffffffffff1673ffffffffffffffffffffffffffffffffffffffff16815260200190815260200160002060008373ffffffffffffffffffffffffffffffffffffffff1673ffffffffffffffffffffffffffffffffffffffff16815260200190815260200160002060009054906101000a900460ff16905092915050565b61256661297e565b73ffffffffffffffffffffffffffffffffffffffff16612584611cab565b73ffffffffffffffffffffffffffffffffffffffff161461260d576040517f08c379a00000000000000000000000000000000000000000000000000000000081526004018080602001828103825260208152602001807f4f776e61626c653a2063616c6c6572206973206e6f7420746865206f776e657281525060200191505060405180910390fd5b600073ffffffffffffffffffffffffffffffffffffffff168173ffffffffffffffffffffffffffffffffffffffff161415612693576040517f08c379a00000000000000000000000000000000000000000000000000000000081526004018080602001828103825260268152602001806149d66026913960400191505060405180910390fd5b8073ffffffffffffffffffffffffffffffffffffffff16609760009054906101000a900473ffffffffffffffffffffffffffffffffffffffff1673ffffffffffffffffffffffffffffffffffffffff167f8be0079c531659141344cd1fd0a4f28419497f9722a3daafe3b4186f6b6457e060405160405180910390a380609760006101000a81548173ffffffffffffffffffffffffffffffffffffffff021916908373ffffffffffffffffffffffffffffffffffffffff16021790555050565b82600061275f82611789565b90503373ffffffffffffffffffffffffffffffffffffffff168173ffffffffffffffffffffffffffffffffffffffff1614612802576040517f08c379a000000000000000000000000000000000000000000000000000000000815260040180806020018281038252601e8152602001807f6d75737420626520746865206f776e6572206f662074686520746f6b656e000081525060200191505060405180910390fd5b84600061280e826114c4565b90503373ffffffffffffffffffffffffffffffffffffffff168173ffffffffffffffffffffffffffffffffffffffff16146128b1576040517f08c379a00000000000000000000000000000000000000000000000000000000081526004018080602001828103825260208152602001807f6d757374206265207468652063726561746f72206f662074686520746f6b656e81525060200191505060405180910390fd5b6128bb8787613451565b6128c587866134db565b867f10f7e1e313b1a76ac6b244a10cf1fa7ff63293b55170486c49f1686023bb3552878760405180806020018360018111156128fd57fe5b8152602001828103825284818151815260200191508051906020019080838360005b8381101561293a57808201518184015260208101905061291f565b50505050905090810190601f1680156129675780820380516001836020036101000a031916815260200191505b50935050505060405180910390a250505050505050565b600033905090565b600061299c82606661351690919063ffffffff16565b9050919050565b816068600083815260200190815260200160002060006101000a81548173ffffffffffffffffffffffffffffffffffffffff021916908373ffffffffffffffffffffffffffffffffffffffff160217905550808273ffffffffffffffffffffffffffffffffffffffff16612a1683611789565b73ffffffffffffffffffffffffffffffffffffffff167f8c5be1e5ebec7d5bd14f71427d1e84f3dd0314c0f7b2291e5b200ac8c7c3b92560405160405180910390a45050565b6000612a6a82600001613530565b9050919050565b6000612a7c82612986565b612ad1576040517f08c379a000000000000000000000000000000000000000000000000000000000815260040180806020018281038252602c815260200180614a46602c913960400191505060405180910390fd5b6000612adc83611789565b90508073ffffffffffffffffffffffffffffffffffffffff168473ffffffffffffffffffffffffffffffffffffffff161480612b4b57508373ffffffffffffffffffffffffffffffffffffffff16612b338461118e565b73ffffffffffffffffffffffffffffffffffffffff16145b80612b5c5750612b5b81856124ca565b5b91505092915050565b8273ffffffffffffffffffffffffffffffffffffffff16612b8582611789565b73ffffffffffffffffffffffffffffffffffffffff1614612bf1576040517f08c379a0000000000000000000000000000000000000000000000000000000008152600401808060200182810382526029815260200180614ba56029913960400191505060405180910390fd5b600073ffffffffffffffffffffffffffffffffffffffff168273ffffffffffffffffffffffffffffffffffffffff161415612c77576040517f08c379a00000000000000000000000000000000000000000000000000000000081526004018080602001828103825260248152602001806149fc6024913960400191505060405180910390fd5b612c82838383613541565b612c8d6000826129a3565b612cde81606560008673ffffffffffffffffffffffffffffffffffffffff1673ffffffffffffffffffffffffffffffffffffffff16815260200190815260200160002061354690919063ffffffff16565b50612d3081606560008573ffffffffffffffffffffffffffffffffffffffff1673ffffffffffffffffffffffffffffffffffffffff16815260200190815260200160002061356090919063ffffffff16565b50612d478183606661357a9092919063ffffffff16565b50808273ffffffffffffffffffffffffffffffffffffffff168473ffffffffffffffffffffffffffffffffffffffff167fddf252ad1be2c89b69c2b068fc378daa952ba7f163c4a11628f55a4df523b3ef60405160405180910390a4505050565b6000612db783600001836135af565b60001c905092915050565b60008060d054905060d060008154809291906001019190505550612de68482613632565b612df08186613451565b612dfa8185613826565b612e0481846134db565b809150509392505050565b6000612e1a3061387c565b15905090565b600060019054906101000a900460ff1680612e3f5750612e3e612e0f565b5b80612e55575060008054906101000a900460ff16155b612eaa576040517f08c379a000000000000000000000000000000000000000000000000000000000815260040180806020018281038252602e815260200180614afd602e913960400191505060405180910390fd5b60008060019054906101000a900460ff161590508015612efa576001600060016101000a81548160ff02191690831515021790555060016000806101000a81548160ff0219169083151502179055505b612f0261388f565b612f0a61398d565b8015612f2b5760008060016101000a81548160ff0219169083151502179055505b50565b600060019054906101000a900460ff1680612f4d5750612f4c612e0f565b5b80612f63575060008054906101000a900460ff16155b612fb8576040517f08c379a000000000000000000000000000000000000000000000000000000000815260040180806020018281038252602e815260200180614afd602e913960400191505060405180910390fd5b60008060019054906101000a900460ff161590508015613008576001600060016101000a81548160ff02191690831515021790555060016000806101000a81548160ff0219169083151502179055505b61301061388f565b613018613b34565b6130228383613c42565b80156130435760008060016101000a81548160ff0219169083151502179055505b505050565b60008060008061305b8660000186613da0565b915091508160001c8160001c9350935050509250929050565b600061307f82611789565b905061308d81600084613541565b6130986000836129a3565b6000606c6000848152602001908152602001600020805460018160011615610100020316600290049050146130e757606c600083815260200190815260200160002060006130e6919061489c565b5b61313882606560008473ffffffffffffffffffffffffffffffffffffffff1673ffffffffffffffffffffffffffffffffffffffff16815260200190815260200160002061354690919063ffffffff16565b5061314d826066613e3990919063ffffffff16565b5081600073ffffffffffffffffffffffffffffffffffffffff168273ffffffffffffffffffffffffffffffffffffffff167fddf252ad1be2c89b69c2b068fc378daa952ba7f163c4a11628f55a4df523b3ef60405160405180910390a45050565b60006131c1846000018460001b84613e53565b60001c90509392505050565b60006131db82600001613f49565b9050919050565b600060c960008373ffffffffffffffffffffffffffffffffffffffff1673ffffffffffffffffffffffffffffffffffffffff16815260200190815260200160002060006101000a81548160ff02191690831515021790555050565b600160c960008373ffffffffffffffffffffffffffffffffffffffff1673ffffffffffffffffffffffffffffffffffffffff16815260200190815260200160002060006101000a81548160ff02191690831515021790555050565b6132a3848484612b65565b6132af84848484613f5a565b613304576040517f08c379a00000000000000000000000000000000000000000000000000000000081526004018080602001828103825260328152602001806149a46032913960400191505060405180910390fd5b50505050565b60606000821415613352576040518060400160405280600181526020017f3000000000000000000000000000000000000000000000000000000000000000815250905061344c565b600082905060005b6000821461337c578080600101915050600a828161337457fe5b04915061335a565b60608167ffffffffffffffff8111801561339557600080fd5b506040519080825280601f01601f1916602001820160405280156133c85781602001600182028036833780820191505090505b50905060006001830390508593505b6000841461344457600a84816133e957fe5b0660300160f81b8282806001900393508151811061340357fe5b60200101907effffffffffffffffffffffffffffffffffffffffffffffffffffffffffffff1916908160001a905350600a848161343c57fe5b0493506133d7565b819450505050505b919050565b61345a82612986565b6134af576040517f08c379a000000000000000000000000000000000000000000000000000000000815260040180806020018281038252602c815260200180614b79602c913960400191505060405180910390fd5b80606c600084815260200190815260200160002090805190602001906134d69291906148e4565b505050565b8060cf600084815260200190815260200160002060000160006101000a81548160ff0219169083600181111561350d57fe5b02179055505050565b6000613528836000018360001b614173565b905092915050565b600081600001805490509050919050565b505050565b6000613558836000018360001b614196565b905092915050565b6000613572836000018360001b61427e565b905092915050565b60006135a6846000018460001b8473ffffffffffffffffffffffffffffffffffffffff1660001b6142ee565b90509392505050565b600081836000018054905011613610576040517f08c379a00000000000000000000000000000000000000000000000000000000081526004018080602001828103825260228152602001806149826022913960400191505060405180910390fd5b82600001828154811061361f57fe5b9060005260206000200154905092915050565b600073ffffffffffffffffffffffffffffffffffffffff168273ffffffffffffffffffffffffffffffffffffffff1614156136d5576040517f08c379a00000000000000000000000000000000000000000000000000000000081526004018080602001828103825260208152602001807f4552433732313a206d696e7420746f20746865207a65726f206164647265737381525060200191505060405180910390fd5b6136de81612986565b15613751576040517f08c379a000000000000000000000000000000000000000000000000000000000815260040180806020018281038252601c8152602001807f4552433732313a20746f6b656e20616c7265616479206d696e7465640000000081525060200191505060405180910390fd5b61375d60008383613541565b6137ae81606560008573ffffffffffffffffffffffffffffffffffffffff1673ffffffffffffffffffffffffffffffffffffffff16815260200190815260200160002061356090919063ffffffff16565b506137c58183606661357a9092919063ffffffff16565b50808273ffffffffffffffffffffffffffffffffffffffff16600073ffffffffffffffffffffffffffffffffffffffff167fddf252ad1be2c89b69c2b068fc378daa952ba7f163c4a11628f55a4df523b3ef60405160405180910390a45050565b8060ce600084815260200190815260200160002060006101000a81548173ffffffffffffffffffffffffffffffffffffffff021916908373ffffffffffffffffffffffffffffffffffffffff1602179055505050565b600080823b905060008111915050919050565b600060019054906101000a900460ff16806138ae57506138ad612e0f565b5b806138c4575060008054906101000a900460ff16155b613919576040517f08c379a000000000000000000000000000000000000000000000000000000000815260040180806020018281038252602e815260200180614afd602e913960400191505060405180910390fd5b60008060019054906101000a900460ff161590508015613969576001600060016101000a81548160ff02191690831515021790555060016000806101000a81548160ff0219169083151502179055505b801561398a5760008060016101000a81548160ff0219169083151502179055505b50565b600060019054906101000a900460ff16806139ac57506139ab612e0f565b5b806139c2575060008054906101000a900460ff16155b613a17576040517f08c379a000000000000000000000000000000000000000000000000000000000815260040180806020018281038252602e815260200180614afd602e913960400191505060405180910390fd5b60008060019054906101000a900460ff161590508015613a67576001600060016101000a81548160ff02191690831515021790555060016000806101000a81548160ff0219169083151502179055505b6000613a7161297e565b905080609760006101000a81548173ffffffffffffffffffffffffffffffffffffffff021916908373ffffffffffffffffffffffffffffffffffffffff1602179055508073ffffffffffffffffffffffffffffffffffffffff16600073ffffffffffffffffffffffffffffffffffffffff167f8be0079c531659141344cd1fd0a4f28419497f9722a3daafe3b4186f6b6457e060405160405180910390a3508015613b315760008060016101000a81548160ff0219169083151502179055505b50565b600060019054906101000a900460ff1680613b535750613b52612e0f565b5b80613b69575060008054906101000a900460ff16155b613bbe576040517f08c379a000000000000000000000000000000000000000000000000000000000815260040180806020018281038252602e815260200180614afd602e913960400191505060405180910390fd5b60008060019054906101000a900460ff161590508015613c0e576001600060016101000a81548160ff02191690831515021790555060016000806101000a81548160ff0219169083151502179055505b613c1e6301ffc9a760e01b6143ca565b8015613c3f5760008060016101000a81548160ff0219169083151502179055505b50565b600060019054906101000a900460ff1680613c615750613c60612e0f565b5b80613c77575060008054906101000a900460ff16155b613ccc576040517f08c379a000000000000000000000000000000000000000000000000000000000815260040180806020018281038252602e815260200180614afd602e913960400191505060405180910390fd5b60008060019054906101000a900460ff161590508015613d1c576001600060016101000a81548160ff02191690831515021790555060016000806101000a81548160ff0219169083151502179055505b82606a9080519060200190613d329291906148e4565b5081606b9080519060200190613d499291906148e4565b50613d5a6380ac58cd60e01b6143ca565b613d6a635b5e139f60e01b6143ca565b613d7a63780e9d6360e01b6143ca565b8015613d9b5760008060016101000a81548160ff0219169083151502179055505b505050565b60008082846000018054905011613e02576040517f08c379a0000000000000000000000000000000000000000000000000000000008152600401808060200182810382526022815260200180614b2b6022913960400191505060405180910390fd5b6000846000018481548110613e1357fe5b906000526020600020906002020190508060000154816001015492509250509250929050565b6000613e4b836000018360001b6144d3565b905092915050565b60008084600101600085815260200190815260200160002054905060008114158390613f1a576040517f08c379a00000000000000000000000000000000000000000000000000000000081526004018080602001828103825283818151815260200191508051906020019080838360005b83811015613edf578082015181840152602081019050613ec4565b50505050905090810190601f168015613f0c5780820380516001836020036101000a031916815260200191505b509250505060405180910390fd5b50846000016001820381548110613f2d57fe5b9060005260206000209060020201600101549150509392505050565b600081600001805490509050919050565b6000613f7b8473ffffffffffffffffffffffffffffffffffffffff1661387c565b613f88576001905061416b565b60606140f263150b7a0260e01b613f9d61297e565b888787604051602401808573ffffffffffffffffffffffffffffffffffffffff1681526020018473ffffffffffffffffffffffffffffffffffffffff16815260200183815260200180602001828103825283818151815260200191508051906020019080838360005b83811015614021578082015181840152602081019050614006565b50505050905090810190601f16801561404e5780820380516001836020036101000a031916815260200191505b5095505050505050604051602081830303815290604052907bffffffffffffffffffffffffffffffffffffffffffffffffffffffff19166020820180517bffffffffffffffffffffffffffffffffffffffffffffffffffffffff83818316178352505050506040518060600160405280603281526020016149a4603291398773ffffffffffffffffffffffffffffffffffffffff166145ec9092919063ffffffff16565b9050600081806020019051602081101561410b57600080fd5b8101908080519060200190929190505050905063150b7a0260e01b7bffffffffffffffffffffffffffffffffffffffffffffffffffffffff1916817bffffffffffffffffffffffffffffffffffffffffffffffffffffffff191614925050505b949350505050565b600080836001016000848152602001908152602001600020541415905092915050565b6000808360010160008481526020019081526020016000205490506000811461427257600060018203905060006001866000018054905003905060008660000182815481106141e157fe5b90600052602060002001549050808760000184815481106141fe57fe5b906000526020600020018190555060018301876001016000838152602001908152602001600020819055508660000180548061423657fe5b60019003818190600052602060002001600090559055866001016000878152602001908152602001600020600090556001945050505050614278565b60009150505b92915050565b600061428a8383614604565b6142e35782600001829080600181540180825580915050600190039060005260206000200160009091909190915055826000018054905083600101600084815260200190815260200160002081905550600190506142e8565b600090505b92915050565b6000808460010160008581526020019081526020016000205490506000811415614395578460000160405180604001604052808681526020018581525090806001815401808255809150506001900390600052602060002090600202016000909190919091506000820151816000015560208201518160010155505084600001805490508560010160008681526020019081526020016000208190555060019150506143c3565b828560000160018303815481106143a857fe5b90600052602060002090600202016001018190555060009150505b9392505050565b63ffffffff60e01b817bffffffffffffffffffffffffffffffffffffffffffffffffffffffff19161415614466576040517f08c379a000000000000000000000000000000000000000000000000000000000815260040180806020018281038252601c8152602001807f4552433136353a20696e76616c696420696e746572666163652069640000000081525060200191505060405180910390fd5b600160336000837bffffffffffffffffffffffffffffffffffffffffffffffffffffffff19167bffffffffffffffffffffffffffffffffffffffffffffffffffffffff1916815260200190815260200160002060006101000a81548160ff02191690831515021790555050565b600080836001016000848152602001908152602001600020549050600081146145e0576000600182039050600060018660000180549050039050600086600001828154811061451e57fe5b906000526020600020906002020190508087600001848154811061453e57fe5b906000526020600020906002020160008201548160000155600182015481600101559050506001830187600101600083600001548152602001908152602001600020819055508660000180548061459157fe5b60019003818190600052602060002090600202016000808201600090556001820160009055505090558660010160008781526020019081526020016000206000905560019450505050506145e6565b60009150505b92915050565b60606145fb8484600085614627565b90509392505050565b600080836001016000848152602001908152602001600020541415905092915050565b606082471015614682576040517f08c379a0000000000000000000000000000000000000000000000000000000008152600401808060200182810382526026815260200180614a206026913960400191505060405180910390fd5b61468b8561387c565b6146fd576040517f08c379a000000000000000000000000000000000000000000000000000000000815260040180806020018281038252601d8152602001807f416464726573733a2063616c6c20746f206e6f6e2d636f6e747261637400000081525060200191505060405180910390fd5b600060608673ffffffffffffffffffffffffffffffffffffffff1685876040518082805190602001908083835b6020831061474d578051825260208201915060208101905060208303925061472a565b6001836020036101000a03801982511681845116808217855250505050505090500191505060006040518083038185875af1925050503d80600081146147af576040519150601f19603f3d011682016040523d82523d6000602084013e6147b4565b606091505b50915091506147c48282866147d0565b92505050949350505050565b606083156147e057829050614895565b6000835111156147f35782518084602001fd5b816040517f08c379a00000000000000000000000000000000000000000000000000000000081526004018080602001828103825283818151815260200191508051906020019080838360005b8381101561485a57808201518184015260208101905061483f565b50505050905090810190601f1680156148875780820380516001836020036101000a031916815260200191505b509250505060405180910390fd5b9392505050565b50805460018160011615610100020316600290046000825580601f106148c257506148e1565b601f0160209004906000526020600020908101906148e09190614964565b5b50565b828054600181600116156101000203166002900490600052602060002090601f016020900481019282601f1061492557805160ff1916838001178555614953565b82800160010185558215614953579182015b82811115614952578251825591602001919060010190614937565b5b5090506149609190614964565b5090565b5b8082111561497d576000816000905550600101614965565b509056fe456e756d657261626c655365743a20696e646578206f7574206f6620626f756e64734552433732313a207472616e7366657220746f206e6f6e20455243373231526563656976657220696d706c656d656e7465724f776e61626c653a206e6577206f776e657220697320746865207a65726f20616464726573734552433732313a207472616e7366657220746f20746865207a65726f2061646472657373416464726573733a20696e73756666696369656e742062616c616e636520666f722063616c6c4552433732313a206f70657261746f7220717565727920666f72206e6f6e6578697374656e7420746f6b656e4552433732313a20617070726f76652063616c6c6572206973206e6f74206f776e6572206e6f7220617070726f76656420666f7220616c6c4552433732313a2062616c616e636520717565727920666f7220746865207a65726f20616464726573734552433732313a206f776e657220717565727920666f72206e6f6e6578697374656e7420746f6b656e496e697469616c697a61626c653a20636f6e747261637420697320616c726561647920696e697469616c697a6564456e756d657261626c654d61703a20696e646578206f7574206f6620626f756e64734552433732313a20617070726f76656420717565727920666f72206e6f6e6578697374656e7420746f6b656e4552433732314d657461646174613a2055524920736574206f66206e6f6e6578697374656e7420746f6b656e4552433732313a207472616e73666572206f6620746f6b656e2074686174206973206e6f74206f776e4552433732314d657461646174613a2055524920717565727920666f72206e6f6e6578697374656e7420746f6b656e4552433732313a20617070726f76616c20746f2063757272656e74206f776e65724552433732313a207472616e736665722063616c6c6572206973206e6f74206f776e6572206e6f7220617070726f7665646d7573742062652077686974656c697374656420746f2063726561746520746f6b656e73a26469706673582212202a1be567e905793caca947cd5862e323ad9d4c01ef2381d7c326ba07e396c0f364736f6c634300060c0033",
  "immutableReferences": {},
  "source": "// contracts/MyContract.sol\n// SPDX-License-Identifier: MIT\npragma solidity 0.6.12;\n\nimport '@openzeppelin/contracts-upgradeable/proxy/Initializable.sol';\nimport '@openzeppelin/contracts-upgradeable/token/ERC721/ERC721Upgradeable.sol';\nimport '@openzeppelin/contracts-upgradeable/access/OwnableUpgradeable.sol';\nimport '@openzeppelin/contracts-upgradeable/math/SafeMathUpgradeable.sol';\n\n\n// import \"https://github.com/OpenZeppelin/openzeppelin-contracts-upgradeable/blob/release-v3.4/contracts/access/OwnableUpgradeable.sol\";\n// import \"https://github.com/OpenZeppelin/openzeppelin-contracts-upgradeable/blob/release-v3.4/contracts/proxy/Initializable.sol\";\n// import \"https://github.com/OpenZeppelin/openzeppelin-contracts-upgradeable/blob/release-v3.4/contracts/token/ERC721/ERC721Upgradeable.sol\";\n// import \"https://github.com/OpenZeppelin/openzeppelin-contracts-upgradeable/blob/release-v3.4/contracts/math/SafeMathUpgradeable.sol\";\n// //last contract inheritance\n//contract Chimera is Initializable, ERC721Upgradeable, IERC721Creator, Ownable, Whitelist \n\n  contract Whitelist is Initializable, OwnableUpgradeable {\n      \n       function initialize() public initializer {\n         __Ownable_init();\n          }\n      \n    // Mapping of address to boolean indicating whether the address is whitelisted\n    mapping(address => bool) private whitelistMap;\n\n    // flag controlling whether whitelist is enabled.\n    bool private whitelistEnabled = true;\n\n    event AddToWhitelist(address indexed _newAddress);\n    event RemoveFromWhitelist(address indexed _removedAddress);\n\n    /**\n   * @dev Enable or disable the whitelist\n   * @param _enabled bool of whether to enable the whitelist.\n   */\n    function enableWhitelist(bool _enabled) public onlyOwner {\n        whitelistEnabled = _enabled;\n    }\n\n    /**\n   * @dev Adds the provided address to the whitelist\n   * @param _newAddress address to be added to the whitelist\n   */\n    function addToWhitelist(address _newAddress) public onlyOwner {\n        _whitelist(_newAddress);\n        \n        emit AddToWhitelist(_newAddress);\n    }\n\n    /**\n   * @dev Removes the provided address to the whitelist\n   * @param _removedAddress address to be removed from the whitelist\n   */\n    function removeFromWhitelist(address _removedAddress) public onlyOwner {\n        _unWhitelist(_removedAddress);\n        emit RemoveFromWhitelist(_removedAddress);\n    }\n\n    /**\n   * @dev Returns whether the address is whitelisted\n   * @param _address address to check\n   * @return bool\n   */\n    function isWhitelisted(address _address) public view returns (bool) {\n        if (whitelistEnabled) {\n            return whitelistMap[_address];\n        } else {\n            return true;\n        }\n    }\n\n    /**\n   * @dev Internal function for removing an address from the whitelist\n   * @param _removedAddress address to unwhitelisted\n   */\n    function _unWhitelist(address _removedAddress) internal {\n        whitelistMap[_removedAddress] = false;\n    }\n\n    /**\n   * @dev Internal function for adding the provided address to the whitelist\n   * @param _newAddress address to be added to the whitelist\n   */\n    function _whitelist(address _newAddress) internal {\n        whitelistMap[_newAddress] = true;\n    }\n}\ncontract Chimera is Initializable, ERC721Upgradeable, OwnableUpgradeable, Whitelist {\n    using SafeMathUpgradeable for uint256;\n    \n    string private _name;\n    string private _symbol;\n    uint8 private _decimals;\n    // Mapping from token ID to the creator's address.\n    mapping(uint256 => address) private tokenCreators;\n    \n    //Enum for storing token type whether it is physical or Digital\n    enum TokenType {DIGITAL,PHYSICAL}\n    //Enum for storing token sale type PRIMARY or SECONDARY\n    enum TokenSaleType {PRIMARY,SECONDARY}\n    \n    struct tokenTypeStruct{\n    TokenType tokenType;\n    TokenSaleType tokensaleType;\n      \n    }\n     \n    //mapping to hold token Type \n    mapping(uint256 => tokenTypeStruct) private tokentypes;\n    \n    \n    \n    // Counter for creating token IDs\n    uint256 private idCounter;\n    \n    // Event indicating metadata was updated.\n    event TokenURIUpdated(uint256 indexed _tokenId, string  _uri, TokenType _tokenType);\n\n    function initialize(string memory name, string memory symbol)  public initializer {\n        //ERC721Upgradeable.__ERC721_init(name , symbol);\n        Whitelist.initialize();\n        __Ownable_init();\n        __ERC721_init(name , symbol);\n        \n    }\n\n    /**\n     * @dev Whitelists a bunch of addresses.\n     * @param _whitelistees address[] of addresses to whitelist.\n     */\n    function initWhitelist(address[] memory _whitelistees) public onlyOwner {\n      // Add all whitelistees.\n      for (uint256 i = 0; i < _whitelistees.length; i++) {\n        address creator = _whitelistees[i];\n        if (!isWhitelisted(creator)) {\n          _whitelist(creator);\n        }\n      }\n      \n    }\n\n    /**\n     * @dev Checks that the token is owned by the sender.\n     * @param _tokenId uint256 ID of the token.\n     */\n    modifier onlyTokenOwner(uint256 _tokenId) {\n      address owner = ownerOf(_tokenId);\n      require(owner == msg.sender, \"must be the owner of the token\");\n      _;\n    }\n\n    /**\n     * @dev Checks that the token was created by the sender.\n     * @param _tokenId uint256 ID of the token.\n     */\n    modifier onlyTokenCreator(uint256 _tokenId) {\n      address creator = tokenCreator(_tokenId);\n      require(creator == msg.sender, \"must be the creator of the token\");\n      _;\n    }\n\n    /**\n     * @dev Adds a new unique token to the supply.\n     * @param _uri string metadata uri associated with the token.\n     * param _tokenType of the token to make it PHYSICAL or DIGITAL\n     */\n    function addNewToken(string memory _uri, TokenType _tokenType) public {\n      require(isWhitelisted(msg.sender), \"must be whitelisted to create tokens\");\n      _createToken(_uri, msg.sender, _tokenType);\n    }\n\n    /**\n     * @dev Deletes the token with the provided ID.\n     * @param _tokenId uint256 ID of the token.\n    //  */\n    function deleteToken(uint256 _tokenId) public onlyTokenOwner(_tokenId) {\n      _burn( _tokenId);\n    }\n\n    /**\n     * @dev Updates the token metadata if the owner is also the\n     *      creator.\n     * @param _tokenId uint256 ID of the token.\n     * @param _uri string metadata URI.\n     * param _tokenType of the token PHYSICAL or DIGITAL 0,1\n     */\n    function updateTokenMetadata(uint256 _tokenId, string memory _uri,TokenType _tokenType  )\n      public\n      onlyTokenOwner(_tokenId)\n      onlyTokenCreator(_tokenId)\n    {\n      _setTokenURI(_tokenId, _uri);\n      _setTokenType(_tokenId,_tokenType);\n      \n      emit TokenURIUpdated(_tokenId, _uri, _tokenType);\n    }\n\n    /**\n    * @dev Gets the creator of the token.\n    * @param _tokenId uint256 ID of the token.\n    * @return address of the creator.\n    */\n    function tokenCreator(uint256 _tokenId) public view returns (address) {\n        return tokenCreators[_tokenId];\n    }\n    \n      /**\n    * @dev Gets the Type of the token.\n    * @param _tokenId uint256 ID of the token.\n    * @return _tokentype of the token PHYSICAL or DIGITAL.\n    */\n    function tokenType(uint256 _tokenId) public view returns (TokenType _tokentype) {\n        return  tokentypes[_tokenId].tokenType;\n    }\n      /**\n    * @dev Gets the Sale Type of the token.\n    * @param _tokenId uint256 ID of the token.\n    * @return _tokensaleType of the token PHYSICAL or DIGITAL.\n    */\n    function getTokenSaleType(uint256 _tokenId) public view returns (TokenSaleType _tokensaleType) {\n        return  tokentypes[_tokenId].tokensaleType;\n    }\n    \n\n    /**\n     * @dev Internal function for setting the token's creator.\n     * @param _tokenId uint256 id of the token.\n     * @param _creator address of the creator of the token.\n     */\n    function _setTokenCreator(uint256 _tokenId, address _creator) internal {\n      tokenCreators[_tokenId] = _creator;\n    }\n     /**\n     * @dev Internal function for setting the token Type.\n     * @param _tokenId uint256 id of the token.\n     * @param _tokenType 0,1 DIGITAL,PHYSICAL of the creator of the token.\n     */\n    function _setTokenType(uint256 _tokenId, TokenType _tokenType ) internal{\n        tokentypes[_tokenId].tokenType = _tokenType;\n    }\n    \n    // function _setTokenSaleType(uint256 _tokenId ) internal returns(TokenSaleType _tokensaleType){\n    //     TokenSaleType tokensaleType = TokenSaleType.PRIMARY;\n    //     tokentypes[_tokenId].tokensaleType = tokensaleType;\n        \n    //     return tokentypes[_tokenId].tokensaleType;\n    // }\n    /**\n     * @dev Internal function creating a new token.\n     * @param _uri string metadata uri associated with the token\n     * @param _creator address of the creator of the token.\n     * @param _tokenType of the token\n     */\n    function _createToken(string memory _uri, address _creator,TokenType _tokenType  ) internal returns (uint256) {\n      uint256 newId = idCounter;\n      idCounter++;\n      _mint(_creator, newId);\n      _setTokenURI(newId, _uri);\n      _setTokenCreator(newId, _creator);\n      _setTokenType(newId,_tokenType);\n      //_setTokenSaleType(newId);\n      return newId;\n    }\n}",
  "sourcePath": "/home/khizer/Documents/AllData/chimera-react-frontend/ChimeraContracts/contracts/chimerasource.sol",
  "compiler": {
    "name": "solc",
    "version": "0.6.12+commit.27d51765.Emscripten.clang"
  },
  "schemaVersion": "3.3.4",
  "updatedAt": "2021-05-10T10:04:18.470Z",
  "devdoc": {
    "kind": "dev",
    "methods": {
      "addNewToken(string,uint8)": {
        "details": "Adds a new unique token to the supply.",
        "params": {
          "_uri": "string metadata uri associated with the token. param _tokenType of the token to make it PHYSICAL or DIGITAL"
        }
      },
      "addToWhitelist(address)": {
        "details": "Adds the provided address to the whitelist",
        "params": {
          "_newAddress": "address to be added to the whitelist"
        }
      },
      "approve(address,uint256)": {
        "details": "See {IERC721-approve}."
      },
      "balanceOf(address)": {
        "details": "See {IERC721-balanceOf}."
      },
      "baseURI()": {
        "details": "Returns the base URI set via {_setBaseURI}. This will be automatically added as a prefix in {tokenURI} to each token's URI, or to the token ID if no specific URI is set for that token ID."
      },
      "deleteToken(uint256)": {
        "details": "Deletes the token with the provided ID.",
        "params": {
          "_tokenId": "uint256 ID of the token. //  "
        }
      },
      "enableWhitelist(bool)": {
        "details": "Enable or disable the whitelist",
        "params": {
          "_enabled": "bool of whether to enable the whitelist."
        }
      },
      "getApproved(uint256)": {
        "details": "See {IERC721-getApproved}."
      },
      "getTokenSaleType(uint256)": {
        "details": "Gets the Sale Type of the token.",
        "params": {
          "_tokenId": "uint256 ID of the token."
        },
        "returns": {
          "_tokensaleType": "of the token PHYSICAL or DIGITAL."
        }
      },
      "initWhitelist(address[])": {
        "details": "Whitelists a bunch of addresses.",
        "params": {
          "_whitelistees": "address[] of addresses to whitelist."
        }
      },
      "isApprovedForAll(address,address)": {
        "details": "See {IERC721-isApprovedForAll}."
      },
      "isWhitelisted(address)": {
        "details": "Returns whether the address is whitelisted",
        "params": {
          "_address": "address to check"
        },
        "returns": {
          "_0": "bool"
        }
      },
      "name()": {
        "details": "See {IERC721Metadata-name}."
      },
      "owner()": {
        "details": "Returns the address of the current owner."
      },
      "ownerOf(uint256)": {
        "details": "See {IERC721-ownerOf}."
      },
      "removeFromWhitelist(address)": {
        "details": "Removes the provided address to the whitelist",
        "params": {
          "_removedAddress": "address to be removed from the whitelist"
        }
      },
      "renounceOwnership()": {
        "details": "Leaves the contract without owner. It will not be possible to call `onlyOwner` functions anymore. Can only be called by the current owner. NOTE: Renouncing ownership will leave the contract without an owner, thereby removing any functionality that is only available to the owner."
      },
      "safeTransferFrom(address,address,uint256)": {
        "details": "See {IERC721-safeTransferFrom}."
      },
      "safeTransferFrom(address,address,uint256,bytes)": {
        "details": "See {IERC721-safeTransferFrom}."
      },
      "setApprovalForAll(address,bool)": {
        "details": "See {IERC721-setApprovalForAll}."
      },
      "supportsInterface(bytes4)": {
        "details": "See {IERC165-supportsInterface}. Time complexity O(1), guaranteed to always use less than 30 000 gas."
      },
      "symbol()": {
        "details": "See {IERC721Metadata-symbol}."
      },
      "tokenByIndex(uint256)": {
        "details": "See {IERC721Enumerable-tokenByIndex}."
      },
      "tokenCreator(uint256)": {
        "details": "Gets the creator of the token.",
        "params": {
          "_tokenId": "uint256 ID of the token."
        },
        "returns": {
          "_0": "address of the creator."
        }
      },
      "tokenOfOwnerByIndex(address,uint256)": {
        "details": "See {IERC721Enumerable-tokenOfOwnerByIndex}."
      },
      "tokenType(uint256)": {
        "details": "Gets the Type of the token.",
        "params": {
          "_tokenId": "uint256 ID of the token."
        },
        "returns": {
          "_tokentype": "of the token PHYSICAL or DIGITAL."
        }
      },
      "tokenURI(uint256)": {
        "details": "See {IERC721Metadata-tokenURI}."
      },
      "totalSupply()": {
        "details": "See {IERC721Enumerable-totalSupply}."
      },
      "transferFrom(address,address,uint256)": {
        "details": "See {IERC721-transferFrom}."
      },
      "transferOwnership(address)": {
        "details": "Transfers ownership of the contract to a new account (`newOwner`). Can only be called by the current owner."
      },
      "updateTokenMetadata(uint256,string,uint8)": {
        "details": "Updates the token metadata if the owner is also the      creator.",
        "params": {
          "_tokenId": "uint256 ID of the token.",
          "_uri": "string metadata URI. param _tokenType of the token PHYSICAL or DIGITAL 0,1"
        }
      }
    },
    "version": 1
  },
  "userdoc": {
    "kind": "user",
    "methods": {},
    "version": 1
  }
}