{
  "contractName": "MarketplaceSettings",
  "abi": [
    {
      "anonymous": false,
      "inputs": [
        {
          "indexed": true,
          "internalType": "address",
          "name": "previousOwner",
          "type": "address"
        },
        {
          "indexed": true,
          "internalType": "address",
          "name": "newOwner",
          "type": "address"
        }
      ],
      "name": "OwnershipTransferred",
      "type": "event"
    },
    {
      "anonymous": false,
      "inputs": [
        {
          "indexed": true,
          "internalType": "bytes32",
          "name": "role",
          "type": "bytes32"
        },
        {
          "indexed": true,
          "internalType": "bytes32",
          "name": "previousAdminRole",
          "type": "bytes32"
        },
        {
          "indexed": true,
          "internalType": "bytes32",
          "name": "newAdminRole",
          "type": "bytes32"
        }
      ],
      "name": "RoleAdminChanged",
      "type": "event"
    },
    {
      "anonymous": false,
      "inputs": [
        {
          "indexed": true,
          "internalType": "bytes32",
          "name": "role",
          "type": "bytes32"
        },
        {
          "indexed": true,
          "internalType": "address",
          "name": "account",
          "type": "address"
        },
        {
          "indexed": true,
          "internalType": "address",
          "name": "sender",
          "type": "address"
        }
      ],
      "name": "RoleGranted",
      "type": "event"
    },
    {
      "anonymous": false,
      "inputs": [
        {
          "indexed": true,
          "internalType": "bytes32",
          "name": "role",
          "type": "bytes32"
        },
        {
          "indexed": true,
          "internalType": "address",
          "name": "account",
          "type": "address"
        },
        {
          "indexed": true,
          "internalType": "address",
          "name": "sender",
          "type": "address"
        }
      ],
      "name": "RoleRevoked",
      "type": "event"
    },
    {
      "inputs": [],
      "name": "DEFAULT_ADMIN_ROLE",
      "outputs": [
        {
          "internalType": "bytes32",
          "name": "",
          "type": "bytes32"
        }
      ],
      "stateMutability": "view",
      "type": "function"
    },
    {
      "inputs": [],
      "name": "TOKEN_MARK_ROLE",
      "outputs": [
        {
          "internalType": "bytes32",
          "name": "",
          "type": "bytes32"
        }
      ],
      "stateMutability": "view",
      "type": "function"
    },
    {
      "inputs": [
        {
          "internalType": "bytes32",
          "name": "role",
          "type": "bytes32"
        }
      ],
      "name": "getRoleAdmin",
      "outputs": [
        {
          "internalType": "bytes32",
          "name": "",
          "type": "bytes32"
        }
      ],
      "stateMutability": "view",
      "type": "function"
    },
    {
      "inputs": [
        {
          "internalType": "bytes32",
          "name": "role",
          "type": "bytes32"
        },
        {
          "internalType": "uint256",
          "name": "index",
          "type": "uint256"
        }
      ],
      "name": "getRoleMember",
      "outputs": [
        {
          "internalType": "address",
          "name": "",
          "type": "address"
        }
      ],
      "stateMutability": "view",
      "type": "function"
    },
    {
      "inputs": [
        {
          "internalType": "bytes32",
          "name": "role",
          "type": "bytes32"
        }
      ],
      "name": "getRoleMemberCount",
      "outputs": [
        {
          "internalType": "uint256",
          "name": "",
          "type": "uint256"
        }
      ],
      "stateMutability": "view",
      "type": "function"
    },
    {
      "inputs": [
        {
          "internalType": "bytes32",
          "name": "role",
          "type": "bytes32"
        },
        {
          "internalType": "address",
          "name": "account",
          "type": "address"
        }
      ],
      "name": "grantRole",
      "outputs": [],
      "stateMutability": "nonpayable",
      "type": "function"
    },
    {
      "inputs": [
        {
          "internalType": "bytes32",
          "name": "role",
          "type": "bytes32"
        },
        {
          "internalType": "address",
          "name": "account",
          "type": "address"
        }
      ],
      "name": "hasRole",
      "outputs": [
        {
          "internalType": "bool",
          "name": "",
          "type": "bool"
        }
      ],
      "stateMutability": "view",
      "type": "function"
    },
    {
      "inputs": [],
      "name": "owner",
      "outputs": [
        {
          "internalType": "address",
          "name": "",
          "type": "address"
        }
      ],
      "stateMutability": "view",
      "type": "function"
    },
    {
      "inputs": [],
      "name": "renounceOwnership",
      "outputs": [],
      "stateMutability": "nonpayable",
      "type": "function"
    },
    {
      "inputs": [
        {
          "internalType": "bytes32",
          "name": "role",
          "type": "bytes32"
        },
        {
          "internalType": "address",
          "name": "account",
          "type": "address"
        }
      ],
      "name": "renounceRole",
      "outputs": [],
      "stateMutability": "nonpayable",
      "type": "function"
    },
    {
      "inputs": [
        {
          "internalType": "bytes32",
          "name": "role",
          "type": "bytes32"
        },
        {
          "internalType": "address",
          "name": "account",
          "type": "address"
        }
      ],
      "name": "revokeRole",
      "outputs": [],
      "stateMutability": "nonpayable",
      "type": "function"
    },
    {
      "inputs": [
        {
          "internalType": "address",
          "name": "newOwner",
          "type": "address"
        }
      ],
      "name": "transferOwnership",
      "outputs": [],
      "stateMutability": "nonpayable",
      "type": "function"
    },
    {
      "inputs": [],
      "name": "initialize",
      "outputs": [],
      "stateMutability": "nonpayable",
      "type": "function"
    },
    {
      "inputs": [
        {
          "internalType": "address",
          "name": "_account",
          "type": "address"
        }
      ],
      "name": "grantMarketplaceAccess",
      "outputs": [],
      "stateMutability": "nonpayable",
      "type": "function"
    },
    {
      "inputs": [],
      "name": "getMarketplaceMaxValue",
      "outputs": [
        {
          "internalType": "uint256",
          "name": "",
          "type": "uint256"
        }
      ],
      "stateMutability": "view",
      "type": "function"
    },
    {
      "inputs": [
        {
          "internalType": "uint256",
          "name": "_maxValue",
          "type": "uint256"
        }
      ],
      "name": "setMarketplaceMaxValue",
      "outputs": [],
      "stateMutability": "nonpayable",
      "type": "function"
    },
    {
      "inputs": [],
      "name": "getMarketplaceMinValue",
      "outputs": [
        {
          "internalType": "uint256",
          "name": "",
          "type": "uint256"
        }
      ],
      "stateMutability": "view",
      "type": "function"
    },
    {
      "inputs": [
        {
          "internalType": "uint256",
          "name": "_minValue",
          "type": "uint256"
        }
      ],
      "name": "setMarketplaceMinValue",
      "outputs": [],
      "stateMutability": "nonpayable",
      "type": "function"
    },
    {
      "inputs": [],
      "name": "getMarketplaceFeePercentage",
      "outputs": [
        {
          "internalType": "uint8",
          "name": "",
          "type": "uint8"
        }
      ],
      "stateMutability": "view",
      "type": "function"
    },
    {
      "inputs": [
        {
          "internalType": "uint8",
          "name": "_percentage",
          "type": "uint8"
        }
      ],
      "name": "setMarketplaceFeePercentage",
      "outputs": [],
      "stateMutability": "nonpayable",
      "type": "function"
    },
    {
      "inputs": [
        {
          "internalType": "uint256",
          "name": "_amount",
          "type": "uint256"
        }
      ],
      "name": "calculateMarketplaceFee",
      "outputs": [
        {
          "internalType": "uint256",
          "name": "",
          "type": "uint256"
        }
      ],
      "stateMutability": "view",
      "type": "function"
    },
    {
      "inputs": [
        {
          "internalType": "address",
          "name": "_contractAddress",
          "type": "address"
        }
      ],
      "name": "getERC721ContractPrimarySaleFeePercentage",
      "outputs": [
        {
          "internalType": "uint8",
          "name": "",
          "type": "uint8"
        }
      ],
      "stateMutability": "view",
      "type": "function"
    },
    {
      "inputs": [
        {
          "internalType": "address",
          "name": "_contractAddress",
          "type": "address"
        },
        {
          "internalType": "uint8",
          "name": "_percentage",
          "type": "uint8"
        }
      ],
      "name": "setERC721ContractPrimarySaleFeePercentage",
      "outputs": [],
      "stateMutability": "nonpayable",
      "type": "function"
    },
    {
      "inputs": [
        {
          "internalType": "address",
          "name": "_contractAddress",
          "type": "address"
        },
        {
          "internalType": "uint256",
          "name": "_amount",
          "type": "uint256"
        }
      ],
      "name": "calculatePrimarySaleFee",
      "outputs": [
        {
          "internalType": "uint256",
          "name": "",
          "type": "uint256"
        }
      ],
      "stateMutability": "view",
      "type": "function"
    },
    {
      "inputs": [
        {
          "internalType": "address",
          "name": "_contractAddress",
          "type": "address"
        }
      ],
      "name": "getERC721ContractSecondarySaleFeePercentage",
      "outputs": [
        {
          "internalType": "uint8",
          "name": "",
          "type": "uint8"
        }
      ],
      "stateMutability": "view",
      "type": "function"
    },
    {
      "inputs": [
        {
          "internalType": "address",
          "name": "_contractAddress",
          "type": "address"
        },
        {
          "internalType": "uint8",
          "name": "_percentage",
          "type": "uint8"
        }
      ],
      "name": "setERC721ContractSecondarySaleFeePercentage",
      "outputs": [],
      "stateMutability": "nonpayable",
      "type": "function"
    },
    {
      "inputs": [
        {
          "internalType": "address",
          "name": "_contractAddress",
          "type": "address"
        },
        {
          "internalType": "uint256",
          "name": "_amount",
          "type": "uint256"
        }
      ],
      "name": "calculateSecondarySaleFee",
      "outputs": [
        {
          "internalType": "uint256",
          "name": "",
          "type": "uint256"
        }
      ],
      "stateMutability": "view",
      "type": "function"
    },
    {
      "inputs": [
        {
          "internalType": "address",
          "name": "_contractAddress",
          "type": "address"
        },
        {
          "internalType": "uint256",
          "name": "_tokenId",
          "type": "uint256"
        }
      ],
      "name": "hasERC721TokenSold",
      "outputs": [
        {
          "internalType": "bool",
          "name": "",
          "type": "bool"
        }
      ],
      "stateMutability": "view",
      "type": "function"
    },
    {
      "inputs": [
        {
          "internalType": "address",
          "name": "_contractAddress",
          "type": "address"
        },
        {
          "internalType": "uint256",
          "name": "_tokenId",
          "type": "uint256"
        },
        {
          "internalType": "bool",
          "name": "_hasSold",
          "type": "bool"
        }
      ],
      "name": "markERC721Token",
      "outputs": [],
      "stateMutability": "nonpayable",
      "type": "function"
    },
    {
      "inputs": [
        {
          "internalType": "address",
          "name": "_originContract",
          "type": "address"
        },
        {
          "internalType": "uint256[]",
          "name": "_tokenIds",
          "type": "uint256[]"
        }
      ],
      "name": "markTokensAsSold",
      "outputs": [],
      "stateMutability": "nonpayable",
      "type": "function"
    }
  ],
  "bytecode": "0x608060405234801561001057600080fd5b50612a1c806100206000396000f3fe608060405234801561001057600080fd5b50600436106101da5760003560e01c80638da5cb5b11610104578063b28a7bad116100a2578063ca15c87311610071578063ca15c873146108cc578063d547741f1461090e578063f2fde38b1461095c578063f9a23e86146109a0576101da565b8063b28a7bad1461079c578063b60c8135146107f7578063c3fc495214610828578063c9b0b8281461086a576101da565b8063a217fddf116100de578063a217fddf14610681578063a36fe8d81461069f578063ae312a97146106fa578063b089c2311461074b576101da565b80638da5cb5b146105875780639010d07c146105bb57806391d148541461061d576101da565b80635a3c652d1161017c578063715018a61161014b578063715018a61461050e5780638129fc1c1461051857806382ebaa59146105225780638347592114610566576101da565b80635a3c652d146104065780635c1b40f11461046057806362029a1b1461047e5780636357f1ac146104ac576101da565b80632f2ff15d116101b85780632f2ff15d146102e857806336568abe146103365780633765628c14610384578063511bc84c146103a2576101da565b8063248a9ca3146101df5780632b702b5f146102215780632cfda2f1146102ba575b600080fd5b61020b600480360360208110156101f557600080fd5b81019080803590602001909291905050506109be565b6040518082815260200191505060405180910390f35b6102b86004803603604081101561023757600080fd5b81019080803573ffffffffffffffffffffffffffffffffffffffff1690602001909291908035906020019064010000000081111561027457600080fd5b82018360208201111561028657600080fd5b803590602001918460208302840111640100000000831117156102a857600080fd5b90919293919293905050506109de565b005b6102e6600480360360208110156102d057600080fd5b8101908080359060200190929190505050610b57565b005b610334600480360360408110156102fe57600080fd5b8101908080359060200190929190803573ffffffffffffffffffffffffffffffffffffffff169060200190929190505050610c10565b005b6103826004803603604081101561034c57600080fd5b8101908080359060200190929190803573ffffffffffffffffffffffffffffffffffffffff169060200190929190505050610c9a565b005b61038c610d33565b6040518082815260200191505060405180910390f35b6103ee600480360360408110156103b857600080fd5b81019080803573ffffffffffffffffffffffffffffffffffffffff16906020019092919080359060200190929190505050610d57565b60405180821515815260200191505060405180910390f35b61045e6004803603606081101561041c57600080fd5b81019080803573ffffffffffffffffffffffffffffffffffffffff16906020019092919080359060200190929190803515159060200190929190505050610dbf565b005b610468610eab565b6040518082815260200191505060405180910390f35b6104aa6004803603602081101561049457600080fd5b8101908080359060200190929190505050610eb5565b005b6104f8600480360360408110156104c257600080fd5b81019080803573ffffffffffffffffffffffffffffffffffffffff16906020019092919080359060200190929190505050610f6e565b6040518082815260200191505060405180910390f35b610516610fed565b005b61052061115d565b005b6105646004803603602081101561053857600080fd5b81019080803573ffffffffffffffffffffffffffffffffffffffff1690602001909291905050506112fc565b005b61056e61138b565b604051808260ff16815260200191505060405180910390f35b61058f6113a2565b604051808273ffffffffffffffffffffffffffffffffffffffff16815260200191505060405180910390f35b6105f1600480360360408110156105d157600080fd5b8101908080359060200190929190803590602001909291905050506113cc565b604051808273ffffffffffffffffffffffffffffffffffffffff16815260200191505060405180910390f35b6106696004803603604081101561063357600080fd5b8101908080359060200190929190803573ffffffffffffffffffffffffffffffffffffffff1690602001909291905050506113fe565b60405180821515815260200191505060405180910390f35b610689611430565b6040518082815260200191505060405180910390f35b6106e1600480360360208110156106b557600080fd5b81019080803573ffffffffffffffffffffffffffffffffffffffff169060200190929190505050611437565b604051808260ff16815260200191505060405180910390f35b6107496004803603604081101561071057600080fd5b81019080803573ffffffffffffffffffffffffffffffffffffffff169060200190929190803560ff16906020019092919050505061148d565b005b61079a6004803603604081101561076157600080fd5b81019080803573ffffffffffffffffffffffffffffffffffffffff169060200190929190803560ff1690602001909291905050506115f5565b005b6107de600480360360208110156107b257600080fd5b81019080803573ffffffffffffffffffffffffffffffffffffffff16906020019092919050505061175d565b604051808260ff16815260200191505060405180910390f35b6108266004803603602081101561080d57600080fd5b81019080803560ff1690602001909291905050506117b3565b005b6108546004803603602081101561083e57600080fd5b81019080803590602001909291905050506118dd565b6040518082815260200191505060405180910390f35b6108b66004803603604081101561088057600080fd5b81019080803573ffffffffffffffffffffffffffffffffffffffff1690602001909291908035906020019092919050505061191e565b6040518082815260200191505060405180910390f35b6108f8600480360360208110156108e257600080fd5b810190808035906020019092919050505061199d565b6040518082815260200191505060405180910390f35b61095a6004803603604081101561092457600080fd5b8101908080359060200190929190803573ffffffffffffffffffffffffffffffffffffffff1690602001909291905050506119c4565b005b61099e6004803603602081101561097257600080fd5b81019080803573ffffffffffffffffffffffffffffffffffffffff169060200190929190505050611a4e565b005b6109a8611c43565b6040518082815260200191505060405180910390f35b600060656000838152602001908152602001600020600201549050919050565b610a087f544f4b454e5f4d41524b5f524f4c450000000000000000000000000000000000336113fe565b610a5d576040517f08c379a000000000000000000000000000000000000000000000000000000000815260040180806020018281038252603e815260200180612933603e913960400191505060405180910390fd5b6107d0828290501115610abb576040517f08c379a00000000000000000000000000000000000000000000000000000000081526004018080602001828103825260418152602001806128f26041913960600191505060405180910390fd5b60005b82829050811015610b51576001609c60008673ffffffffffffffffffffffffffffffffffffffff1673ffffffffffffffffffffffffffffffffffffffff1681526020019081526020016000206000858585818110610b1857fe5b90506020020135815260200190815260200160002060006101000a81548160ff0219169083151502179055508080600101915050610abe565b50505050565b610b5f611c4d565b73ffffffffffffffffffffffffffffffffffffffff16610b7d6113a2565b73ffffffffffffffffffffffffffffffffffffffff1614610c06576040517f08c379a00000000000000000000000000000000000000000000000000000000081526004018080602001828103825260208152602001807f4f776e61626c653a2063616c6c6572206973206e6f7420746865206f776e657281525060200191505060405180910390fd5b8060978190555050565b610c376065600084815260200190815260200160002060020154610c32611c4d565b6113fe565b610c8c576040517f08c379a000000000000000000000000000000000000000000000000000000000815260040180806020018281038252602f81526020018061276e602f913960400191505060405180910390fd5b610c968282611c55565b5050565b610ca2611c4d565b73ffffffffffffffffffffffffffffffffffffffff168173ffffffffffffffffffffffffffffffffffffffff1614610d25576040517f08c379a000000000000000000000000000000000000000000000000000000000815260040180806020018281038252602f8152602001806129b8602f913960400191505060405180910390fd5b610d2f8282611ce9565b5050565b7f544f4b454e5f4d41524b5f524f4c45000000000000000000000000000000000081565b6000609c60008473ffffffffffffffffffffffffffffffffffffffff1673ffffffffffffffffffffffffffffffffffffffff168152602001908152602001600020600083815260200190815260200160002060009054906101000a900460ff16905092915050565b610de97f544f4b454e5f4d41524b5f524f4c450000000000000000000000000000000000336113fe565b610e3e576040517f08c379a000000000000000000000000000000000000000000000000000000000815260040180806020018281038252603e815260200180612933603e913960400191505060405180910390fd5b80609c60008573ffffffffffffffffffffffffffffffffffffffff1673ffffffffffffffffffffffffffffffffffffffff168152602001908152602001600020600084815260200190815260200160002060006101000a81548160ff021916908315150217905550505050565b6000609854905090565b610ebd611c4d565b73ffffffffffffffffffffffffffffffffffffffff16610edb6113a2565b73ffffffffffffffffffffffffffffffffffffffff1614610f64576040517f08c379a00000000000000000000000000000000000000000000000000000000081526004018080602001828103825260208152602001807f4f776e61626c653a2063616c6c6572206973206e6f7420746865206f776e657281525060200191505060405180910390fd5b8060988190555050565b6000610fe56064610fd7609a60008773ffffffffffffffffffffffffffffffffffffffff1673ffffffffffffffffffffffffffffffffffffffff16815260200190815260200160002060009054906101000a900460ff1660ff1685611d7d90919063ffffffff16565b611e0390919063ffffffff16565b905092915050565b610ff5611c4d565b73ffffffffffffffffffffffffffffffffffffffff166110136113a2565b73ffffffffffffffffffffffffffffffffffffffff161461109c576040517f08c379a00000000000000000000000000000000000000000000000000000000081526004018080602001828103825260208152602001807f4f776e61626c653a2063616c6c6572206973206e6f7420746865206f776e657281525060200191505060405180910390fd5b600073ffffffffffffffffffffffffffffffffffffffff16603360009054906101000a900473ffffffffffffffffffffffffffffffffffffffff1673ffffffffffffffffffffffffffffffffffffffff167f8be0079c531659141344cd1fd0a4f28419497f9722a3daafe3b4186f6b6457e060405160405180910390a36000603360006101000a81548173ffffffffffffffffffffffffffffffffffffffff021916908373ffffffffffffffffffffffffffffffffffffffff160217905550565b600060019054906101000a900460ff168061117c575061117b611e8c565b5b80611192575060008054906101000a900460ff16155b6111e7576040517f08c379a000000000000000000000000000000000000000000000000000000000815260040180806020018281038252602e81526020018061282a602e913960400191505060405180910390fd5b60008060019054906101000a900460ff161590508015611237576001600060016101000a81548160ff02191690831515021790555060016000806101000a81548160ff0219169083151502179055505b61123f611e9d565b611247611fab565b7f40000000000000000000000000000000000000000000000000000000000000006097819055506103e86098819055506003609960006101000a81548160ff021916908360ff1602179055506112a76000801b6112a26113a2565b6120b9565b6112d87f544f4b454e5f4d41524b5f524f4c4500000000000000000000000000000000006112d36113a2565b610c10565b80156112f95760008060016101000a81548160ff0219169083151502179055505b50565b6113096000801b336113fe565b61135e576040517f08c379a00000000000000000000000000000000000000000000000000000000081526004018080602001828103825260348152602001806128796034913960400191505060405180910390fd5b6113887f544f4b454e5f4d41524b5f524f4c45000000000000000000000000000000000082610c10565b50565b6000609960009054906101000a900460ff16905090565b6000603360009054906101000a900473ffffffffffffffffffffffffffffffffffffffff16905090565b60006113f682606560008681526020019081526020016000206000016120c790919063ffffffff16565b905092915050565b600061142882606560008681526020019081526020016000206000016120e190919063ffffffff16565b905092915050565b6000801b81565b6000609b60008373ffffffffffffffffffffffffffffffffffffffff1673ffffffffffffffffffffffffffffffffffffffff16815260200190815260200160002060009054906101000a900460ff169050919050565b611495611c4d565b73ffffffffffffffffffffffffffffffffffffffff166114b36113a2565b73ffffffffffffffffffffffffffffffffffffffff161461153c576040517f08c379a00000000000000000000000000000000000000000000000000000000081526004018080602001828103825260208152602001807f4f776e61626c653a2063616c6c6572206973206e6f7420746865206f776e657281525060200191505060405180910390fd5b60648160ff161115611599576040517f08c379a00000000000000000000000000000000000000000000000000000000081526004018080602001828103825260458152602001806128ad6045913960600191505060405180910390fd5b80609a60008473ffffffffffffffffffffffffffffffffffffffff1673ffffffffffffffffffffffffffffffffffffffff16815260200190815260200160002060006101000a81548160ff021916908360ff1602179055505050565b6115fd611c4d565b73ffffffffffffffffffffffffffffffffffffffff1661161b6113a2565b73ffffffffffffffffffffffffffffffffffffffff16146116a4576040517f08c379a00000000000000000000000000000000000000000000000000000000081526004018080602001828103825260208152602001807f4f776e61626c653a2063616c6c6572206973206e6f7420746865206f776e657281525060200191505060405180910390fd5b60648160ff161115611701576040517f08c379a00000000000000000000000000000000000000000000000000000000081526004018080602001828103825260478152602001806129716047913960600191505060405180910390fd5b80609b60008473ffffffffffffffffffffffffffffffffffffffff1673ffffffffffffffffffffffffffffffffffffffff16815260200190815260200160002060006101000a81548160ff021916908360ff1602179055505050565b6000609a60008373ffffffffffffffffffffffffffffffffffffffff1673ffffffffffffffffffffffffffffffffffffffff16815260200190815260200160002060009054906101000a900460ff169050919050565b6117bb611c4d565b73ffffffffffffffffffffffffffffffffffffffff166117d96113a2565b73ffffffffffffffffffffffffffffffffffffffff1614611862576040517f08c379a00000000000000000000000000000000000000000000000000000000081526004018080602001828103825260208152602001807f4f776e61626c653a2063616c6c6572206973206e6f7420746865206f776e657281525060200191505060405180910390fd5b60648160ff1611156118bf576040517f08c379a000000000000000000000000000000000000000000000000000000000815260040180806020018281038252603781526020018061279d6037913960400191505060405180910390fd5b80609960006101000a81548160ff021916908360ff16021790555050565b60006119176064611909609960009054906101000a900460ff1660ff1685611d7d90919063ffffffff16565b611e0390919063ffffffff16565b9050919050565b60006119956064611987609b60008773ffffffffffffffffffffffffffffffffffffffff1673ffffffffffffffffffffffffffffffffffffffff16815260200190815260200160002060009054906101000a900460ff1660ff1685611d7d90919063ffffffff16565b611e0390919063ffffffff16565b905092915050565b60006119bd60656000848152602001908152602001600020600001612111565b9050919050565b6119eb60656000848152602001908152602001600020600201546119e6611c4d565b6113fe565b611a40576040517f08c379a00000000000000000000000000000000000000000000000000000000081526004018080602001828103825260308152602001806127fa6030913960400191505060405180910390fd5b611a4a8282611ce9565b5050565b611a56611c4d565b73ffffffffffffffffffffffffffffffffffffffff16611a746113a2565b73ffffffffffffffffffffffffffffffffffffffff1614611afd576040517f08c379a00000000000000000000000000000000000000000000000000000000081526004018080602001828103825260208152602001807f4f776e61626c653a2063616c6c6572206973206e6f7420746865206f776e657281525060200191505060405180910390fd5b600073ffffffffffffffffffffffffffffffffffffffff168173ffffffffffffffffffffffffffffffffffffffff161415611b83576040517f08c379a00000000000000000000000000000000000000000000000000000000081526004018080602001828103825260268152602001806127d46026913960400191505060405180910390fd5b8073ffffffffffffffffffffffffffffffffffffffff16603360009054906101000a900473ffffffffffffffffffffffffffffffffffffffff1673ffffffffffffffffffffffffffffffffffffffff167f8be0079c531659141344cd1fd0a4f28419497f9722a3daafe3b4186f6b6457e060405160405180910390a380603360006101000a81548173ffffffffffffffffffffffffffffffffffffffff021916908373ffffffffffffffffffffffffffffffffffffffff16021790555050565b6000609754905090565b600033905090565b611c7d816065600085815260200190815260200160002060000161212690919063ffffffff16565b15611ce557611c8a611c4d565b73ffffffffffffffffffffffffffffffffffffffff168173ffffffffffffffffffffffffffffffffffffffff16837f2f8788117e7eff1d82e926ec794901d17c78024a50270940304540a733656f0d60405160405180910390a45b5050565b611d11816065600085815260200190815260200160002060000161215690919063ffffffff16565b15611d7957611d1e611c4d565b73ffffffffffffffffffffffffffffffffffffffff168173ffffffffffffffffffffffffffffffffffffffff16837ff6391f5c32d9c69d2a47ea670b442974b53935d1edc7fd64eb21e047a839171b60405160405180910390a45b5050565b600080831415611d905760009050611dfd565b6000828402905082848281611da157fe5b0414611df8576040517f08c379a00000000000000000000000000000000000000000000000000000000081526004018080602001828103825260218152602001806128586021913960400191505060405180910390fd5b809150505b92915050565b6000808211611e7a576040517f08c379a000000000000000000000000000000000000000000000000000000000815260040180806020018281038252601a8152602001807f536166654d6174683a206469766973696f6e206279207a65726f00000000000081525060200191505060405180910390fd5b818381611e8357fe5b04905092915050565b6000611e9730612186565b15905090565b600060019054906101000a900460ff1680611ebc5750611ebb611e8c565b5b80611ed2575060008054906101000a900460ff16155b611f27576040517f08c379a000000000000000000000000000000000000000000000000000000000815260040180806020018281038252602e81526020018061282a602e913960400191505060405180910390fd5b60008060019054906101000a900460ff161590508015611f77576001600060016101000a81548160ff02191690831515021790555060016000806101000a81548160ff0219169083151502179055505b611f7f612199565b611f87612297565b8015611fa85760008060016101000a81548160ff0219169083151502179055505b50565b600060019054906101000a900460ff1680611fca5750611fc9611e8c565b5b80611fe0575060008054906101000a900460ff16155b612035576040517f08c379a000000000000000000000000000000000000000000000000000000000815260040180806020018281038252602e81526020018061282a602e913960400191505060405180910390fd5b60008060019054906101000a900460ff161590508015612085576001600060016101000a81548160ff02191690831515021790555060016000806101000a81548160ff0219169083151502179055505b61208d612199565b61209561243e565b80156120b65760008060016101000a81548160ff0219169083151502179055505b50565b6120c38282611c55565b5050565b60006120d6836000018361253c565b60001c905092915050565b6000612109836000018373ffffffffffffffffffffffffffffffffffffffff1660001b6125bf565b905092915050565b600061211f826000016125e2565b9050919050565b600061214e836000018373ffffffffffffffffffffffffffffffffffffffff1660001b6125f3565b905092915050565b600061217e836000018373ffffffffffffffffffffffffffffffffffffffff1660001b612663565b905092915050565b600080823b905060008111915050919050565b600060019054906101000a900460ff16806121b857506121b7611e8c565b5b806121ce575060008054906101000a900460ff16155b612223576040517f08c379a000000000000000000000000000000000000000000000000000000000815260040180806020018281038252602e81526020018061282a602e913960400191505060405180910390fd5b60008060019054906101000a900460ff161590508015612273576001600060016101000a81548160ff02191690831515021790555060016000806101000a81548160ff0219169083151502179055505b80156122945760008060016101000a81548160ff0219169083151502179055505b50565b600060019054906101000a900460ff16806122b657506122b5611e8c565b5b806122cc575060008054906101000a900460ff16155b612321576040517f08c379a000000000000000000000000000000000000000000000000000000000815260040180806020018281038252602e81526020018061282a602e913960400191505060405180910390fd5b60008060019054906101000a900460ff161590508015612371576001600060016101000a81548160ff02191690831515021790555060016000806101000a81548160ff0219169083151502179055505b600061237b611c4d565b905080603360006101000a81548173ffffffffffffffffffffffffffffffffffffffff021916908373ffffffffffffffffffffffffffffffffffffffff1602179055508073ffffffffffffffffffffffffffffffffffffffff16600073ffffffffffffffffffffffffffffffffffffffff167f8be0079c531659141344cd1fd0a4f28419497f9722a3daafe3b4186f6b6457e060405160405180910390a350801561243b5760008060016101000a81548160ff0219169083151502179055505b50565b600060019054906101000a900460ff168061245d575061245c611e8c565b5b80612473575060008054906101000a900460ff16155b6124c8576040517f08c379a000000000000000000000000000000000000000000000000000000000815260040180806020018281038252602e81526020018061282a602e913960400191505060405180910390fd5b60008060019054906101000a900460ff161590508015612518576001600060016101000a81548160ff02191690831515021790555060016000806101000a81548160ff0219169083151502179055505b80156125395760008060016101000a81548160ff0219169083151502179055505b50565b60008183600001805490501161259d576040517f08c379a000000000000000000000000000000000000000000000000000000000815260040180806020018281038252602281526020018061274c6022913960400191505060405180910390fd5b8260000182815481106125ac57fe5b9060005260206000200154905092915050565b600080836001016000848152602001908152602001600020541415905092915050565b600081600001805490509050919050565b60006125ff83836125bf565b61265857826000018290806001815401808255809150506001900390600052602060002001600090919091909150558260000180549050836001016000848152602001908152602001600020819055506001905061265d565b600090505b92915050565b6000808360010160008481526020019081526020016000205490506000811461273f57600060018203905060006001866000018054905003905060008660000182815481106126ae57fe5b90600052602060002001549050808760000184815481106126cb57fe5b906000526020600020018190555060018301876001016000838152602001908152602001600020819055508660000180548061270357fe5b60019003818190600052602060002001600090559055866001016000878152602001908152602001600020600090556001945050505050612745565b60009150505b9291505056fe456e756d657261626c655365743a20696e646578206f7574206f6620626f756e6473416363657373436f6e74726f6c3a2073656e646572206d75737420626520616e2061646d696e20746f206772616e747365744d61726b6574706c61636546656550657263656e746167653a3a5f70657263656e74616765206d757374206265203c3d203130304f776e61626c653a206e6577206f776e657220697320746865207a65726f2061646472657373416363657373436f6e74726f6c3a2073656e646572206d75737420626520616e2061646d696e20746f207265766f6b65496e697469616c697a61626c653a20636f6e747261637420697320616c726561647920696e697469616c697a6564536166654d6174683a206d756c7469706c69636174696f6e206f766572666c6f776772616e744d61726b6574706c6163654163636573733a3a4d7573742062652061646d696e20746f2063616c6c206d6574686f64736574455243373231436f6e74726163745072696d61727953616c6546656550657263656e746167653a3a5f70657263656e74616765206d757374206265203c3d203130306d61726b546f6b656e734173536f6c643a3a417474656d7074656420746f206d61726b206d6f7265207468616e203230303020746f6b656e7320617320736f6c646d61726b455243373231546f6b656e3a3a4d757374206861766520544f4b454e5f4d41524b5f524f4c4520726f6c6520746f2063616c6c206d6574686f64736574455243373231436f6e74726163745365636f6e6461727953616c6546656550657263656e746167653a3a5f70657263656e74616765206d757374206265203c3d20313030416363657373436f6e74726f6c3a2063616e206f6e6c792072656e6f756e636520726f6c657320666f722073656c66a26469706673582212209efdb63e420c24f895fec3d040a8a3bf1ee7cd79fa134b3aa0ef07c455ef32ba64736f6c634300060c0033",
  "immutableReferences": {},
  "source": "        // SPDX-License-Identifier: MIT\n        \n        pragma solidity 0.6.12;\n        \n        import \"./IMarketplaceSettings.sol\";\n        import \"@openzeppelin/contracts-upgradeable/access/OwnableUpgradeable.sol\";\n        import \"@openzeppelin/contracts-upgradeable/access/AccessControlUpgradeable.sol\";\n        import \"@openzeppelin/contracts-upgradeable/math/SafeMathUpgradeable.sol\";\n        import \"@openzeppelin/contracts-upgradeable/proxy/Initializable.sol\";\n        \n        // import \"https://github.com/OpenZeppelin/openzeppelin-contracts/blob/solc-0.6/contracts/access/Ownable.sol\";\n        // import \"https://github.com/OpenZeppelin/openzeppelin-contracts/blob/solc-0.6/contracts/access/AccessControl.sol\";\n        // import \"https://github.com/OpenZeppelin/openzeppelin-contracts/blob/solc-0.6/contracts/math/SafeMath.sol\";\n        \n        \n        /**\n         * @title MarketplaceSettings Settings governing the marketplace fees.\n         */\n        contract MarketplaceSettings is Initializable, OwnableUpgradeable, AccessControlUpgradeable, IMarketplaceSettings {\n            using SafeMathUpgradeable for uint256;\n        \n            /////////////////////////////////////////////////////////////////////////\n            // Constants\n            /////////////////////////////////////////////////////////////////////////\n        \n            bytes32 public constant TOKEN_MARK_ROLE = \"TOKEN_MARK_ROLE\";\n        \n            /////////////////////////////////////////////////////////////////////////\n            // State Variables\n            /////////////////////////////////////////////////////////////////////////\n        \n            // Max wei value within the marketplace\n            uint256 private maxValue;\n        \n            // Min wei value within the marketplace\n            uint256 private minValue;\n        \n            // Percentage fee for the marketplace, 3 == 3%\n            uint8 private marketplaceFeePercentage;\n        \n            // Mapping of ERC721 contract to the primary sale fee. If primary sale fee is 0 for an origin contract then primary sale fee is ignored. 1 == 1%\n            mapping(address => uint8) private primarySaleFees;\n            \n            //chimera\n            // Mapping of ERC721 contract to the secondary sale fee. If secondary sale fee is 0 for an origin contract then secondary sale fee is ignored. 1 == 1%\n            mapping(address => uint8) private secondarySaleFees;\n        \n            // Mapping of ERC721 contract to mapping of token ID to whether the token has been sold before.\n            mapping(address => mapping(uint256 => bool)) private soldTokens;\n            \n            \n        \n            /////////////////////////////////////////////////////////////////////////\n            // Constructor\n            /////////////////////////////////////////////////////////////////////////\n            /**\n             * @dev Initializes the contract maxValue, minValues, and marketplaceFeePercentage to default settings.\n             *      Also, sets the roles for the contract to the owner.\n             */\n            // constructor() public {\n            //     maxValue = 2**254; // 2 ^ 254 is max amount, prevents any overflow issues.\n        \n            //     minValue = 1000; // all amounts must be greater than 1000 Wei.\n        \n            //     marketplaceFeePercentage = 3; // 3% marketplace fee on all txs.\n        \n            //     _setupRole(AccessControl.DEFAULT_ADMIN_ROLE, owner());\n            //     grantRole(TOKEN_MARK_ROLE, owner());\n            // }  \n        \n             /////////////////////////////////////////////////////////////////////////\n            // initializer\n            /////////////////////////////////////////////////////////////////////////\n            /**\n             * @dev Initializes the contract maxValue, minValues, and marketplaceFeePercentage to default settings.\n             *      Also, sets the roles for the contract to the owner.\n             */\n            function initialize() public initializer {\n                 __Ownable_init();\n                 __AccessControl_init();\n                 \n                maxValue = 2**254; // 2 ^ 254 is max amount, prevents any overflow issues.\n        \n                minValue = 1000; // all amounts must be greater than 1000 Wei.\n        \n                marketplaceFeePercentage = 3; // 3% marketplace fee on all txs.\n        \n                _setupRole(AccessControlUpgradeable.DEFAULT_ADMIN_ROLE, owner());\n                grantRole(TOKEN_MARK_ROLE, owner());\n            }\n        \n            /////////////////////////////////////////////////////////////////////////\n            // grantMarketplaceMarkTokenAccess\n            /////////////////////////////////////////////////////////////////////////\n            /**\n             * @dev Grants a marketplace contract access to marke\n             * @param _account address of the account that can perform the token mark role.\n             */\n            function grantMarketplaceAccess(address _account) external {\n                require(\n                    hasRole(AccessControlUpgradeable.DEFAULT_ADMIN_ROLE, msg.sender),\n                    \"grantMarketplaceAccess::Must be admin to call method\"\n                );\n                grantRole(TOKEN_MARK_ROLE, _account);\n            }\n        \n            /////////////////////////////////////////////////////////////////////////\n            // getMarketplaceMaxValue\n            /////////////////////////////////////////////////////////////////////////\n            /**\n             * @dev Get the max value to be used with the marketplace.\n             * @return uint256 wei value.\n             */\n            function getMarketplaceMaxValue() external override view returns (uint256) {\n                return maxValue;\n            }\n        \n            /////////////////////////////////////////////////////////////////////////\n            // setMarketplaceMaxValue\n            /////////////////////////////////////////////////////////////////////////\n            /**\n             * @dev Set the maximum value of the marketplace settings.\n             * @param _maxValue uint256 maximum wei value.\n             */\n            function setMarketplaceMaxValue(uint256 _maxValue) external onlyOwner {\n                maxValue = _maxValue;\n            }\n        \n            /////////////////////////////////////////////////////////////////////////\n            // getMarketplaceMinValue\n            /////////////////////////////////////////////////////////////////////////\n            /**\n             * @dev Get the max value to be used with the marketplace.\n             * @return uint256 wei value.\n             */\n            function getMarketplaceMinValue() external override view returns (uint256) {\n                return minValue;\n            }\n        \n            /////////////////////////////////////////////////////////////////////////\n            // setMarketplaceMinValue\n            /////////////////////////////////////////////////////////////////////////\n            /**\n             * @dev Set the minimum value of the marketplace settings.\n             * @param _minValue uint256 minimum wei value.\n             */\n            function setMarketplaceMinValue(uint256 _minValue) external onlyOwner {\n                minValue = _minValue;\n            }\n        \n            /////////////////////////////////////////////////////////////////////////\n            // getMarketplaceFeePercentage\n            /////////////////////////////////////////////////////////////////////////\n            /**\n             * @dev Get the marketplace fee percentage.\n             * @return uint8 wei fee.\n             */\n            function getMarketplaceFeePercentage()\n                external\n                override\n                view\n                returns (uint8)\n            {\n                return marketplaceFeePercentage;\n            }\n        \n            /////////////////////////////////////////////////////////////////////////\n            // setMarketplaceFeePercentage\n            /////////////////////////////////////////////////////////////////////////\n            /**\n             * @dev Set the marketplace fee percentage.\n             * Requirements:\n        \n             * - `_percentage` must be <= 100.\n             * @param _percentage uint8 percentage fee.\n             */\n            function setMarketplaceFeePercentage(uint8 _percentage) external onlyOwner {\n                require(\n                    _percentage <= 100,\n                    \"setMarketplaceFeePercentage::_percentage must be <= 100\"\n                );\n                marketplaceFeePercentage = _percentage;\n            }\n        \n            /////////////////////////////////////////////////////////////////////////\n            // calculateMarketplaceFee\n            /////////////////////////////////////////////////////////////////////////\n            /**\n             * @dev Utility function for calculating the marketplace fee for given amount of wei.\n             * @param _amount uint256 wei amount.\n             * @return uint256 wei fee.\n             */\n            function calculateMarketplaceFee(uint256 _amount)\n                external\n                override\n                view\n                returns (uint256)\n            {\n                return _amount.mul(marketplaceFeePercentage).div(100);\n            }\n        \n            /////////////////////////////////////////////////////////////////////////\n            // getERC721ContractPrimarySaleFeePercentage\n            /////////////////////////////////////////////////////////////////////////\n            /**\n             * @dev Get the primary sale fee percentage for a specific ERC721 contract.\n             * @param _contractAddress address ERC721Contract address.\n             * @return uint8 wei primary sale fee.\n             */\n            function getERC721ContractPrimarySaleFeePercentage(address _contractAddress)\n                external\n                override\n                view\n                returns (uint8)\n            {\n                return primarySaleFees[_contractAddress];\n            }\n        \n            /////////////////////////////////////////////////////////////////////////\n            // setERC721ContractPrimarySaleFeePercentage\n            /////////////////////////////////////////////////////////////////////////\n            /**\n             * @dev Set the primary sale fee percentage for a specific ERC721 contract.\n        \n             * Requirements:\n             *\n             * - `_contractAddress` cannot be the zero address.\n             * - `_percentage` must be <= 100.\n        \n             * @param _contractAddress address ERC721Contract address.\n             * @param _percentage uint8 percentage fee for the ERC721 contract.\n             */\n            function setERC721ContractPrimarySaleFeePercentage(\n                address _contractAddress,\n                uint8 _percentage\n            ) external onlyOwner {\n                require(\n                    _percentage <= 100,\n                    \"setERC721ContractPrimarySaleFeePercentage::_percentage must be <= 100\"\n                );\n                primarySaleFees[_contractAddress] = _percentage;\n            }\n        \n            /////////////////////////////////////////////////////////////////////////\n            // calculatePrimarySaleFee\n            /////////////////////////////////////////////////////////////////////////\n            /**\n             * @dev Utility function for calculating the primary sale fee for given amount of wei\n             * @param _contractAddress address ERC721Contract address.\n             * @param _amount uint256 wei amount.\n             * @return uint256 wei fee.\n             */\n            function calculatePrimarySaleFee(address _contractAddress, uint256 _amount)\n                external\n                override\n                view\n                returns (uint256)\n            {\n                return _amount.mul(primarySaleFees[_contractAddress]).div(100);\n            }\n            \n            //chimera\n            /////////////////////////////////////////////////////////////////////////\n            // getERC721ContractSecondarySaleFeePercentage\n            /////////////////////////////////////////////////////////////////////////\n            /**\n             * @dev Get the secondary sale fee percentage for a specific ERC721 contract.\n             * @param _contractAddress address ERC721Contract address.\n             * @return uint8 wei primary sale fee.\n             */\n            function getERC721ContractSecondarySaleFeePercentage(address _contractAddress)\n                external\n                override\n                view\n                returns (uint8)\n            {\n                return secondarySaleFees[_contractAddress];\n            }\n        \n            /////////////////////////////////////////////////////////////////////////\n            // setERC721ContractSecondarySaleFeePercentage\n            /////////////////////////////////////////////////////////////////////////\n            /**\n             * @dev Set the secondary sale fee percentage for a specific ERC721 contract.\n        \n             * Requirements:\n             *\n             * - `_contractAddress` cannot be the zero address.\n             * - `_percentage` must be <= 100.\n        \n             * @param _contractAddress address ERC721Contract address.\n             * @param _percentage uint8 percentage fee for the ERC721 contract.\n             */\n            function setERC721ContractSecondarySaleFeePercentage(\n                address _contractAddress,\n                uint8 _percentage\n            ) external onlyOwner {\n                require(\n                    _percentage <= 100,\n                    \"setERC721ContractSecondarySaleFeePercentage::_percentage must be <= 100\"\n                );\n                secondarySaleFees[_contractAddress] = _percentage;\n            }\n        \n            /////////////////////////////////////////////////////////////////////////\n            // calculateSecondarySaleFee\n            /////////////////////////////////////////////////////////////////////////\n            /**\n             * @dev Utility function for calculating the secondary sale fee for given amount of wei\n             * @param _contractAddress address ERC721Contract address.\n             * @param _amount uint256 wei amount.\n             * @return uint256 wei fee.\n             */\n            function calculateSecondarySaleFee(address _contractAddress, uint256 _amount)\n                external\n                override\n                view\n                returns (uint256)\n            {\n                return _amount.mul(secondarySaleFees[_contractAddress]).div(100);\n            }\n        \n            /////////////////////////////////////////////////////////////////////////\n            // hasERC721TokenSold\n            /////////////////////////////////////////////////////////////////////////\n            /**\n             * @dev Check whether the ERC721 token has sold at least once.\n             * @param _contractAddress address ERC721Contract address.\n             * @param _tokenId uint256 token ID.\n             * @return bool of whether the token has sold.\n             */\n            function hasERC721TokenSold(address _contractAddress, uint256 _tokenId)\n                external\n                override\n                view\n                returns (bool)\n            {\n                return soldTokens[_contractAddress][_tokenId];\n            }\n        \n            /////////////////////////////////////////////////////////////////////////\n            // markERC721TokenAsSold\n            /////////////////////////////////////////////////////////////////////////\n            /**\n             * @dev Mark a token as sold.\n        \n             * Requirements:\n             *\n             * - `_contractAddress` cannot be the zero address.\n        \n             * @param _contractAddress address ERC721Contract address.\n             * @param _tokenId uint256 token ID.\n             * @param _hasSold bool of whether the token should be marked sold or not.\n             */\n            function markERC721Token(\n                address _contractAddress,\n                uint256 _tokenId,\n                bool _hasSold\n            ) external override {\n                require(\n                    hasRole(TOKEN_MARK_ROLE, msg.sender),\n                    \"markERC721Token::Must have TOKEN_MARK_ROLE role to call method\"\n                );\n                soldTokens[_contractAddress][_tokenId] = _hasSold;\n            }\n        \n            /////////////////////////////////////////////////////////////////////////\n            // markTokensAsSold\n            /////////////////////////////////////////////////////////////////////////\n            /**\n             * @dev Function to set an array of tokens for a contract as sold, thus not being subject to the primary sale fee, if one exists.\n             * @param _originContract address of ERC721 contract.\n             * @param _tokenIds uint256[] array of token ids.\n             */\n            function markTokensAsSold(\n                address _originContract,\n                uint256[] calldata _tokenIds\n            ) external {\n                require(\n                    hasRole(TOKEN_MARK_ROLE, msg.sender),\n                    \"markERC721Token::Must have TOKEN_MARK_ROLE role to call method\"\n                );\n                \n                // limit to batches of 2000\n                require(\n                    _tokenIds.length <= 2000,\n                    \"markTokensAsSold::Attempted to mark more than 2000 tokens as sold\"\n                );\n        \n                // Mark provided tokens as sold.\n                for (uint256 i = 0; i < _tokenIds.length; i++) {\n                    soldTokens[_originContract][_tokenIds[i]] = true;\n                }\n            }\n        }",
  "sourcePath": "/home/khizer/Documents/AllData/chimera-react-frontend/ChimeraContracts/contracts/MarketplaceSettings.sol",
  "compiler": {
    "name": "solc",
    "version": "0.6.12+commit.27d51765.Emscripten.clang"
  },
  "schemaVersion": "3.3.4",
  "updatedAt": "2021-05-10T16:28:36.720Z",
  "devdoc": {
    "kind": "dev",
    "methods": {
      "calculateMarketplaceFee(uint256)": {
        "details": "Utility function for calculating the marketplace fee for given amount of wei.",
        "params": {
          "_amount": "uint256 wei amount."
        },
        "returns": {
          "_0": "uint256 wei fee."
        }
      },
      "calculatePrimarySaleFee(address,uint256)": {
        "details": "Utility function for calculating the primary sale fee for given amount of wei",
        "params": {
          "_amount": "uint256 wei amount.",
          "_contractAddress": "address ERC721Contract address."
        },
        "returns": {
          "_0": "uint256 wei fee."
        }
      },
      "calculateSecondarySaleFee(address,uint256)": {
        "details": "Utility function for calculating the secondary sale fee for given amount of wei",
        "params": {
          "_amount": "uint256 wei amount.",
          "_contractAddress": "address ERC721Contract address."
        },
        "returns": {
          "_0": "uint256 wei fee."
        }
      },
      "getERC721ContractPrimarySaleFeePercentage(address)": {
        "details": "Get the primary sale fee percentage for a specific ERC721 contract.",
        "params": {
          "_contractAddress": "address ERC721Contract address."
        },
        "returns": {
          "_0": "uint8 wei primary sale fee."
        }
      },
      "getERC721ContractSecondarySaleFeePercentage(address)": {
        "details": "Get the secondary sale fee percentage for a specific ERC721 contract.",
        "params": {
          "_contractAddress": "address ERC721Contract address."
        },
        "returns": {
          "_0": "uint8 wei primary sale fee."
        }
      },
      "getMarketplaceFeePercentage()": {
        "details": "Get the marketplace fee percentage.",
        "returns": {
          "_0": "uint8 wei fee."
        }
      },
      "getMarketplaceMaxValue()": {
        "details": "Get the max value to be used with the marketplace.",
        "returns": {
          "_0": "uint256 wei value."
        }
      },
      "getMarketplaceMinValue()": {
        "details": "Get the max value to be used with the marketplace.",
        "returns": {
          "_0": "uint256 wei value."
        }
      },
      "getRoleAdmin(bytes32)": {
        "details": "Returns the admin role that controls `role`. See {grantRole} and {revokeRole}. To change a role's admin, use {_setRoleAdmin}."
      },
      "getRoleMember(bytes32,uint256)": {
        "details": "Returns one of the accounts that have `role`. `index` must be a value between 0 and {getRoleMemberCount}, non-inclusive. Role bearers are not sorted in any particular way, and their ordering may change at any point. WARNING: When using {getRoleMember} and {getRoleMemberCount}, make sure you perform all queries on the same block. See the following https://forum.openzeppelin.com/t/iterating-over-elements-on-enumerableset-in-openzeppelin-contracts/2296[forum post] for more information."
      },
      "getRoleMemberCount(bytes32)": {
        "details": "Returns the number of accounts that have `role`. Can be used together with {getRoleMember} to enumerate all bearers of a role."
      },
      "grantMarketplaceAccess(address)": {
        "details": "Grants a marketplace contract access to marke",
        "params": {
          "_account": "address of the account that can perform the token mark role."
        }
      },
      "grantRole(bytes32,address)": {
        "details": "Grants `role` to `account`. If `account` had not been already granted `role`, emits a {RoleGranted} event. Requirements: - the caller must have ``role``'s admin role."
      },
      "hasERC721TokenSold(address,uint256)": {
        "details": "Check whether the ERC721 token has sold at least once.",
        "params": {
          "_contractAddress": "address ERC721Contract address.",
          "_tokenId": "uint256 token ID."
        },
        "returns": {
          "_0": "bool of whether the token has sold."
        }
      },
      "hasRole(bytes32,address)": {
        "details": "Returns `true` if `account` has been granted `role`."
      },
      "initialize()": {
        "details": "Initializes the contract maxValue, minValues, and marketplaceFeePercentage to default settings.      Also, sets the roles for the contract to the owner."
      },
      "markERC721Token(address,uint256,bool)": {
        "details": "Mark a token as sold. Requirements: - `_contractAddress` cannot be the zero address.",
        "params": {
          "_contractAddress": "address ERC721Contract address.",
          "_hasSold": "bool of whether the token should be marked sold or not.",
          "_tokenId": "uint256 token ID."
        }
      },
      "markTokensAsSold(address,uint256[])": {
        "details": "Function to set an array of tokens for a contract as sold, thus not being subject to the primary sale fee, if one exists.",
        "params": {
          "_originContract": "address of ERC721 contract.",
          "_tokenIds": "uint256[] array of token ids."
        }
      },
      "owner()": {
        "details": "Returns the address of the current owner."
      },
      "renounceOwnership()": {
        "details": "Leaves the contract without owner. It will not be possible to call `onlyOwner` functions anymore. Can only be called by the current owner. NOTE: Renouncing ownership will leave the contract without an owner, thereby removing any functionality that is only available to the owner."
      },
      "renounceRole(bytes32,address)": {
        "details": "Revokes `role` from the calling account. Roles are often managed via {grantRole} and {revokeRole}: this function's purpose is to provide a mechanism for accounts to lose their privileges if they are compromised (such as when a trusted device is misplaced). If the calling account had been granted `role`, emits a {RoleRevoked} event. Requirements: - the caller must be `account`."
      },
      "revokeRole(bytes32,address)": {
        "details": "Revokes `role` from `account`. If `account` had been granted `role`, emits a {RoleRevoked} event. Requirements: - the caller must have ``role``'s admin role."
      },
      "setERC721ContractPrimarySaleFeePercentage(address,uint8)": {
        "details": "Set the primary sale fee percentage for a specific ERC721 contract. Requirements: - `_contractAddress` cannot be the zero address. - `_percentage` must be <= 100.",
        "params": {
          "_contractAddress": "address ERC721Contract address.",
          "_percentage": "uint8 percentage fee for the ERC721 contract."
        }
      },
      "setERC721ContractSecondarySaleFeePercentage(address,uint8)": {
        "details": "Set the secondary sale fee percentage for a specific ERC721 contract. Requirements: - `_contractAddress` cannot be the zero address. - `_percentage` must be <= 100.",
        "params": {
          "_contractAddress": "address ERC721Contract address.",
          "_percentage": "uint8 percentage fee for the ERC721 contract."
        }
      },
      "setMarketplaceFeePercentage(uint8)": {
        "details": "Set the marketplace fee percentage. Requirements: - `_percentage` must be <= 100.",
        "params": {
          "_percentage": "uint8 percentage fee."
        }
      },
      "setMarketplaceMaxValue(uint256)": {
        "details": "Set the maximum value of the marketplace settings.",
        "params": {
          "_maxValue": "uint256 maximum wei value."
        }
      },
      "setMarketplaceMinValue(uint256)": {
        "details": "Set the minimum value of the marketplace settings.",
        "params": {
          "_minValue": "uint256 minimum wei value."
        }
      },
      "transferOwnership(address)": {
        "details": "Transfers ownership of the contract to a new account (`newOwner`). Can only be called by the current owner."
      }
    },
    "title": "MarketplaceSettings Settings governing the marketplace fees.",
    "version": 1
  },
  "userdoc": {
    "kind": "user",
    "methods": {},
    "version": 1
  }
}