{
  "contractName": "Payments",
  "abi": [
    {
      "anonymous": false,
      "inputs": [
        {
          "indexed": true,
          "internalType": "address",
          "name": "_primarySalePayee",
          "type": "address"
        },
        {
          "indexed": false,
          "internalType": "uint256",
          "name": "primarySalePayment",
          "type": "uint256"
        }
      ],
      "name": "PrimarySalePayment",
      "type": "event"
    },
    {
      "anonymous": false,
      "inputs": [
        {
          "indexed": true,
          "internalType": "address",
          "name": "_marketplacePayee",
          "type": "address"
        },
        {
          "indexed": true,
          "internalType": "uint256",
          "name": "_marketplacePayment",
          "type": "uint256"
        }
      ],
      "name": "PrimarymarketplacePayment",
      "type": "event"
    },
    {
      "anonymous": false,
      "inputs": [
        {
          "indexed": true,
          "internalType": "address",
          "name": "_payee",
          "type": "address"
        },
        {
          "indexed": false,
          "internalType": "uint256",
          "name": "payeePayment",
          "type": "uint256"
        }
      ],
      "name": "PrimarypayeePayment",
      "type": "event"
    },
    {
      "anonymous": false,
      "inputs": [
        {
          "indexed": true,
          "internalType": "address",
          "name": "_secondarySalePayee",
          "type": "address"
        },
        {
          "indexed": false,
          "internalType": "uint256",
          "name": "primarySalePayment",
          "type": "uint256"
        }
      ],
      "name": "SecondarySalePayment",
      "type": "event"
    },
    {
      "anonymous": false,
      "inputs": [
        {
          "indexed": true,
          "internalType": "address",
          "name": "_marketplacePayee",
          "type": "address"
        },
        {
          "indexed": true,
          "internalType": "uint256",
          "name": "_marketplacePayment",
          "type": "uint256"
        }
      ],
      "name": "SecondarymarketplacePayment",
      "type": "event"
    },
    {
      "anonymous": false,
      "inputs": [
        {
          "indexed": true,
          "internalType": "address",
          "name": "_payee",
          "type": "address"
        },
        {
          "indexed": false,
          "internalType": "uint256",
          "name": "payeePayment",
          "type": "uint256"
        }
      ],
      "name": "SecondarypayeePayment",
      "type": "event"
    },
    {
      "anonymous": false,
      "inputs": [
        {
          "indexed": true,
          "internalType": "address",
          "name": "_payee",
          "type": "address"
        },
        {
          "indexed": false,
          "internalType": "uint256",
          "name": "amount",
          "type": "uint256"
        }
      ],
      "name": "SendValue",
      "type": "event"
    },
    {
      "inputs": [],
      "name": "SendValueProxyInitialize",
      "outputs": [],
      "stateMutability": "nonpayable",
      "type": "function"
    },
    {
      "inputs": [],
      "name": "initialize",
      "outputs": [],
      "stateMutability": "nonpayable",
      "type": "function"
    },
    {
      "inputs": [
        {
          "internalType": "address",
          "name": "dest",
          "type": "address"
        }
      ],
      "name": "payments",
      "outputs": [
        {
          "internalType": "uint256",
          "name": "",
          "type": "uint256"
        }
      ],
      "stateMutability": "view",
      "type": "function"
    },
    {
      "inputs": [
        {
          "internalType": "address payable",
          "name": "payee",
          "type": "address"
        }
      ],
      "name": "withdrawPayments",
      "outputs": [],
      "stateMutability": "nonpayable",
      "type": "function"
    },
    {
      "inputs": [],
      "name": "initializePayment",
      "outputs": [],
      "stateMutability": "nonpayable",
      "type": "function"
    }
  ],
  "bytecode": "0x608060405234801561001057600080fd5b50611c73806100206000396000f3fe608060405234801561001057600080fd5b50600436106100575760003560e01c806331b3eb941461005c57806338cdfc0c146100a05780638129fc1c146100aa578063e2982c21146100b4578063f4f75dd81461010c575b600080fd5b61009e6004803603602081101561007257600080fd5b81019080803573ffffffffffffffffffffffffffffffffffffffff169060200190929190505050610116565b005b6100a86101bc565b005b6100b26102c2565b005b6100f6600480360360208110156100ca57600080fd5b81019080803573ffffffffffffffffffffffffffffffffffffffff1690602001909291905050506103c8565b6040518082815260200191505060405180910390f35b610114610495565b005b600160009054906101000a900473ffffffffffffffffffffffffffffffffffffffff1673ffffffffffffffffffffffffffffffffffffffff166351cff8d9826040518263ffffffff1660e01b8152600401808273ffffffffffffffffffffffffffffffffffffffff168152602001915050600060405180830381600087803b1580156101a157600080fd5b505af11580156101b5573d6000803e3d6000fd5b5050505050565b600060019054906101000a900460ff16806101db57506101da6105fc565b5b806101f1575060008054906101000a900460ff16155b610246576040517f08c379a000000000000000000000000000000000000000000000000000000000815260040180806020018281038252602e815260200180611c10602e913960400191505060405180910390fd5b60008060019054906101000a900460ff161590508015610296576001600060016101000a81548160ff02191690831515021790555060016000806101000a81548160ff0219169083151502179055505b61029e6102c2565b80156102bf5760008060016101000a81548160ff0219169083151502179055505b50565b600060019054906101000a900460ff16806102e157506102e06105fc565b5b806102f7575060008054906101000a900460ff16155b61034c576040517f08c379a000000000000000000000000000000000000000000000000000000000815260040180806020018281038252602e815260200180611c10602e913960400191505060405180910390fd5b60008060019054906101000a900460ff16159050801561039c576001600060016101000a81548160ff02191690831515021790555060016000806101000a81548160ff0219169083151502179055505b6103a461060d565b80156103c55760008060016101000a81548160ff0219169083151502179055505b50565b6000600160009054906101000a900473ffffffffffffffffffffffffffffffffffffffff1673ffffffffffffffffffffffffffffffffffffffff1663e3a9db1a836040518263ffffffff1660e01b8152600401808273ffffffffffffffffffffffffffffffffffffffff16815260200191505060206040518083038186803b15801561045357600080fd5b505afa158015610467573d6000803e3d6000fd5b505050506040513d602081101561047d57600080fd5b81019080805190602001909291905050509050919050565b600060019054906101000a900460ff16806104b457506104b36105fc565b5b806104ca575060008054906101000a900460ff16155b61051f576040517f08c379a000000000000000000000000000000000000000000000000000000000815260040180806020018281038252602e815260200180611c10602e913960400191505060405180910390fd5b60008060019054906101000a900460ff16159050801561056f576001600060016101000a81548160ff02191690831515021790555060016000806101000a81548160ff0219169083151502179055505b60405161057b9061090f565b604051809103906000f080158015610597573d6000803e3d6000fd5b50600060026101000a81548173ffffffffffffffffffffffffffffffffffffffff021916908373ffffffffffffffffffffffffffffffffffffffff16021790555080156105f95760008060016101000a81548160ff0219169083151502179055505b50565b600061060730610713565b15905090565b600060019054906101000a900460ff168061062c575061062b6105fc565b5b80610642575060008054906101000a900460ff16155b610697576040517f08c379a000000000000000000000000000000000000000000000000000000000815260040180806020018281038252602e815260200180611c10602e913960400191505060405180910390fd5b60008060019054906101000a900460ff1615905080156106e7576001600060016101000a81548160ff02191690831515021790555060016000806101000a81548160ff0219169083151502179055505b6106ef610726565b80156107105760008060016101000a81548160ff0219169083151502179055505b50565b600080823b905060008111915050919050565b600060019054906101000a900460ff168061074557506107446105fc565b5b8061075b575060008054906101000a900460ff16155b6107b0576040517f08c379a000000000000000000000000000000000000000000000000000000000815260040180806020018281038252602e815260200180611c10602e913960400191505060405180910390fd5b60008060019054906101000a900460ff161590508015610800576001600060016101000a81548160ff02191690831515021790555060016000806101000a81548160ff0219169083151502179055505b60405161080c9061091c565b604051809103906000f080158015610828573d6000803e3d6000fd5b50600160006101000a81548173ffffffffffffffffffffffffffffffffffffffff021916908373ffffffffffffffffffffffffffffffffffffffff160217905550600160009054906101000a900473ffffffffffffffffffffffffffffffffffffffff1673ffffffffffffffffffffffffffffffffffffffff16638129fc1c6040518163ffffffff1660e01b8152600401600060405180830381600087803b1580156108d357600080fd5b505af11580156108e7573d6000803e3d6000fd5b50505050801561090c5760008060016101000a81548160ff0219169083151502179055505b50565b6101008061092a83390190565b6111e680610a2a8339019056fe608060405234801561001057600080fd5b5060e18061001f6000396000f3fe608060405260043610601c5760003560e01c80637d286e48146021575b600080fd5b606060048036036020811015603557600080fd5b81019080803573ffffffffffffffffffffffffffffffffffffffff1690602001909291905050506062565b005b8073ffffffffffffffffffffffffffffffffffffffff166108fc349081150290604051600060405180830381858888f1935050505015801560a7573d6000803e3d6000fd5b505056fea26469706673582212201c4aabc2e89f52a625592d2b04fb201fce49d5a2f68db45b86e0682342e5171f64736f6c634300060c0033608060405234801561001057600080fd5b506111c6806100206000396000f3fe6080604052600436106100705760003560e01c80638da5cb5b1161004e5780638da5cb5b146100f4578063e3a9db1a14610135578063f2fde38b1461019a578063f340fa01146101eb57610070565b806351cff8d914610075578063715018a6146100c65780638129fc1c146100dd575b600080fd5b34801561008157600080fd5b506100c46004803603602081101561009857600080fd5b81019080803573ffffffffffffffffffffffffffffffffffffffff16906020019092919050505061022f565b005b3480156100d257600080fd5b506100db6103e2565b005b3480156100e957600080fd5b506100f2610552565b005b34801561010057600080fd5b50610109610658565b604051808273ffffffffffffffffffffffffffffffffffffffff16815260200191505060405180910390f35b34801561014157600080fd5b506101846004803603602081101561015857600080fd5b81019080803573ffffffffffffffffffffffffffffffffffffffff169060200190929190505050610682565b6040518082815260200191505060405180910390f35b3480156101a657600080fd5b506101e9600480360360208110156101bd57600080fd5b81019080803573ffffffffffffffffffffffffffffffffffffffff1690602001909291905050506106cb565b005b61022d6004803603602081101561020157600080fd5b81019080803573ffffffffffffffffffffffffffffffffffffffff1690602001909291905050506108c0565b005b610237610a5b565b73ffffffffffffffffffffffffffffffffffffffff16610255610658565b73ffffffffffffffffffffffffffffffffffffffff16146102de576040517f08c379a00000000000000000000000000000000000000000000000000000000081526004018080602001828103825260208152602001807f4f776e61626c653a2063616c6c6572206973206e6f7420746865206f776e657281525060200191505060405180910390fd5b6000606560008373ffffffffffffffffffffffffffffffffffffffff1673ffffffffffffffffffffffffffffffffffffffff1681526020019081526020016000205490506000606560008473ffffffffffffffffffffffffffffffffffffffff1673ffffffffffffffffffffffffffffffffffffffff16815260200190815260200160002081905550610390818373ffffffffffffffffffffffffffffffffffffffff16610a6390919063ffffffff16565b8173ffffffffffffffffffffffffffffffffffffffff167f7084f5476618d8e60b11ef0d7d3f06914655adb8793e28ff7f018d4c76d505d5826040518082815260200191505060405180910390a25050565b6103ea610a5b565b73ffffffffffffffffffffffffffffffffffffffff16610408610658565b73ffffffffffffffffffffffffffffffffffffffff1614610491576040517f08c379a00000000000000000000000000000000000000000000000000000000081526004018080602001828103825260208152602001807f4f776e61626c653a2063616c6c6572206973206e6f7420746865206f776e657281525060200191505060405180910390fd5b600073ffffffffffffffffffffffffffffffffffffffff16603360009054906101000a900473ffffffffffffffffffffffffffffffffffffffff1673ffffffffffffffffffffffffffffffffffffffff167f8be0079c531659141344cd1fd0a4f28419497f9722a3daafe3b4186f6b6457e060405160405180910390a36000603360006101000a81548173ffffffffffffffffffffffffffffffffffffffff021916908373ffffffffffffffffffffffffffffffffffffffff160217905550565b600060019054906101000a900460ff16806105715750610570610b9d565b5b80610587575060008054906101000a900460ff16155b6105dc576040517f08c379a000000000000000000000000000000000000000000000000000000000815260040180806020018281038252602e815260200180611163602e913960400191505060405180910390fd5b60008060019054906101000a900460ff16159050801561062c576001600060016101000a81548160ff02191690831515021790555060016000806101000a81548160ff0219169083151502179055505b610634610bae565b80156106555760008060016101000a81548160ff0219169083151502179055505b50565b6000603360009054906101000a900473ffffffffffffffffffffffffffffffffffffffff16905090565b6000606560008373ffffffffffffffffffffffffffffffffffffffff1673ffffffffffffffffffffffffffffffffffffffff168152602001908152602001600020549050919050565b6106d3610a5b565b73ffffffffffffffffffffffffffffffffffffffff166106f1610658565b73ffffffffffffffffffffffffffffffffffffffff161461077a576040517f08c379a00000000000000000000000000000000000000000000000000000000081526004018080602001828103825260208152602001807f4f776e61626c653a2063616c6c6572206973206e6f7420746865206f776e657281525060200191505060405180910390fd5b600073ffffffffffffffffffffffffffffffffffffffff168173ffffffffffffffffffffffffffffffffffffffff161415610800576040517f08c379a00000000000000000000000000000000000000000000000000000000081526004018080602001828103825260268152602001806111036026913960400191505060405180910390fd5b8073ffffffffffffffffffffffffffffffffffffffff16603360009054906101000a900473ffffffffffffffffffffffffffffffffffffffff1673ffffffffffffffffffffffffffffffffffffffff167f8be0079c531659141344cd1fd0a4f28419497f9722a3daafe3b4186f6b6457e060405160405180910390a380603360006101000a81548173ffffffffffffffffffffffffffffffffffffffff021916908373ffffffffffffffffffffffffffffffffffffffff16021790555050565b6108c8610a5b565b73ffffffffffffffffffffffffffffffffffffffff166108e6610658565b73ffffffffffffffffffffffffffffffffffffffff161461096f576040517f08c379a00000000000000000000000000000000000000000000000000000000081526004018080602001828103825260208152602001807f4f776e61626c653a2063616c6c6572206973206e6f7420746865206f776e657281525060200191505060405180910390fd5b60003490506109c681606560008573ffffffffffffffffffffffffffffffffffffffff1673ffffffffffffffffffffffffffffffffffffffff16815260200190815260200160002054610cc490919063ffffffff16565b606560008473ffffffffffffffffffffffffffffffffffffffff1673ffffffffffffffffffffffffffffffffffffffff168152602001908152602001600020819055508173ffffffffffffffffffffffffffffffffffffffff167f2da466a7b24304f47e87fa2e1e5a81b9831ce54fec19055ce277ca2f39ba42c4826040518082815260200191505060405180910390a25050565b600033905090565b80471015610ad9576040517f08c379a000000000000000000000000000000000000000000000000000000000815260040180806020018281038252601d8152602001807f416464726573733a20696e73756666696369656e742062616c616e636500000081525060200191505060405180910390fd5b60008273ffffffffffffffffffffffffffffffffffffffff168260405180600001905060006040518083038185875af1925050503d8060008114610b39576040519150601f19603f3d011682016040523d82523d6000602084013e610b3e565b606091505b5050905080610b98576040517f08c379a000000000000000000000000000000000000000000000000000000000815260040180806020018281038252603a815260200180611129603a913960400191505060405180910390fd5b505050565b6000610ba830610d4c565b15905090565b600060019054906101000a900460ff1680610bcd5750610bcc610b9d565b5b80610be3575060008054906101000a900460ff16155b610c38576040517f08c379a000000000000000000000000000000000000000000000000000000000815260040180806020018281038252602e815260200180611163602e913960400191505060405180910390fd5b60008060019054906101000a900460ff161590508015610c88576001600060016101000a81548160ff02191690831515021790555060016000806101000a81548160ff0219169083151502179055505b610c90610d5f565b610c98610e5d565b610ca0611004565b8015610cc15760008060016101000a81548160ff0219169083151502179055505b50565b600080828401905083811015610d42576040517f08c379a000000000000000000000000000000000000000000000000000000000815260040180806020018281038252601b8152602001807f536166654d6174683a206164646974696f6e206f766572666c6f77000000000081525060200191505060405180910390fd5b8091505092915050565b600080823b905060008111915050919050565b600060019054906101000a900460ff1680610d7e5750610d7d610b9d565b5b80610d94575060008054906101000a900460ff16155b610de9576040517f08c379a000000000000000000000000000000000000000000000000000000000815260040180806020018281038252602e815260200180611163602e913960400191505060405180910390fd5b60008060019054906101000a900460ff161590508015610e39576001600060016101000a81548160ff02191690831515021790555060016000806101000a81548160ff0219169083151502179055505b8015610e5a5760008060016101000a81548160ff0219169083151502179055505b50565b600060019054906101000a900460ff1680610e7c5750610e7b610b9d565b5b80610e92575060008054906101000a900460ff16155b610ee7576040517f08c379a000000000000000000000000000000000000000000000000000000000815260040180806020018281038252602e815260200180611163602e913960400191505060405180910390fd5b60008060019054906101000a900460ff161590508015610f37576001600060016101000a81548160ff02191690831515021790555060016000806101000a81548160ff0219169083151502179055505b6000610f41610a5b565b905080603360006101000a81548173ffffffffffffffffffffffffffffffffffffffff021916908373ffffffffffffffffffffffffffffffffffffffff1602179055508073ffffffffffffffffffffffffffffffffffffffff16600073ffffffffffffffffffffffffffffffffffffffff167f8be0079c531659141344cd1fd0a4f28419497f9722a3daafe3b4186f6b6457e060405160405180910390a35080156110015760008060016101000a81548160ff0219169083151502179055505b50565b600060019054906101000a900460ff16806110235750611022610b9d565b5b80611039575060008054906101000a900460ff16155b61108e576040517f08c379a000000000000000000000000000000000000000000000000000000000815260040180806020018281038252602e815260200180611163602e913960400191505060405180910390fd5b60008060019054906101000a900460ff1615905080156110de576001600060016101000a81548160ff02191690831515021790555060016000806101000a81548160ff0219169083151502179055505b80156110ff5760008060016101000a81548160ff0219169083151502179055505b5056fe4f776e61626c653a206e6577206f776e657220697320746865207a65726f2061646472657373416464726573733a20756e61626c6520746f2073656e642076616c75652c20726563697069656e74206d61792068617665207265766572746564496e697469616c697a61626c653a20636f6e747261637420697320616c726561647920696e697469616c697a6564a2646970667358221220aa14e0debf5e30504e73a4c337c930e63a8e5048b7d863e29c86505f3089d55864736f6c634300060c0033496e697469616c697a61626c653a20636f6e747261637420697320616c726561647920696e697469616c697a6564a2646970667358221220fde8642554de68b106d120fa82d71ebf42a6714fd74c83cb1f9eb0440954f14364736f6c634300060c0033",
  "immutableReferences": {},
  "source": "pragma solidity 0.6.12;\n\n// import 'https://github.com/OpenZeppelin/openzeppelin-contracts-upgradeable/blob/release-v3.3/contracts/math/SafeMathUpgradeable.sol';\n// import 'https://github.com/OpenZeppelin/openzeppelin-contracts-upgradeable/blob/release-v3.3/contracts/proxy/Initializable.sol';\nimport '@openzeppelin/contracts-upgradeable/math/SafeMathUpgradeable.sol';\nimport '@openzeppelin/contracts-upgradeable/proxy/Initializable.sol';\n\nimport \"./SendValueOrEscrow.sol\";\n\n/**\n * @title Payments contract for SuperRare Marketplaces.\n */\ncontract Payments is Initializable ,SendValueOrEscrow {\n    using SafeMathUpgradeable for uint256;\n    using SafeMathUpgradeable for uint8;\n    //primaryEvents\n    event PrimarymarketplacePayment(address indexed _marketplacePayee,uint indexed _marketplacePayment);\n    event PrimarySalePayment(address indexed _primarySalePayee,uint primarySalePayment);\n    event PrimarypayeePayment(address indexed       _payee,uint payeePayment);\n    //SecondaryEvents\n    event SecondarymarketplacePayment(address indexed _marketplacePayee,uint indexed _marketplacePayment);\n    event SecondarySalePayment(address indexed _secondarySalePayee,uint primarySalePayment);\n    event SecondarypayeePayment(address indexed       _payee,uint payeePayment);\n\n    function initializePayment() public  initializer {\n         SendValueOrEscrow.initialize();\n    }\n\n\n\n    /////////////////////////////////////////////////////////////////////////\n    // refund\n    /////////////////////////////////////////////////////////////////////////\n    /**\n     * @dev Internal function to refund an address. Typically for canceled bids or offers.\n     * Requirements:\n     *\n     *  - _payee cannot be the zero address\n     *\n     * @param _marketplacePercentage uint8 percentage of the fee for the marketplace.\n     * @param _amount uint256 value to be split.\n     * @param _payee address seller of the token.\n     */\n    function refund(\n        uint8 _marketplacePercentage,\n        address payable _payee,\n        uint256 _amount\n    ) internal {\n        require(\n            _payee != address(0),\n            \"refund::no payees can be the zero address\"\n        );\n\n        if (_amount > 0) {\n            SendValueOrEscrow.sendValueOrEscrow(\n                _payee,\n                _amount.add(\n                    calcPercentagePayment(_amount, _marketplacePercentage)\n                )\n            );\n        }\n    }\n\n/////////////////////////////////////////////////////////////////////////\n    // payout Primay\n    /////////////////////////////////////////////////////////////////////////\n    /**\n     * @dev Internal function to pay the seller, creator, and maintainer.\n     * Requirements:\n     *\n     *  - _marketplacePercentage + _royaltyPercentage + _primarySalePercentage <= 100\n     *  - no payees can be the zero address\n     *\n     * @param _amount uint256 value to be split.\n     * @param _isPrimarySale bool of whether this is a primary sale.\n     * @param _marketplacePercentage uint8 percentage of the fee for the marketplace.\n     * @param _royaltyPercentage uint8 percentage of the fee for the royalty.\n     * @param _primarySalePercentage uint8 percentage primary sale fee for the marketplace.\n     * @param _payee address seller of the token.\n     * @param _marketplacePayee address seller of the token.\n     * @param _royaltyPayee address seller of the token.\n     * @param _primarySalePayee address seller of the token.\n     */\n    function payoutPrimary(\n        uint256 _amount,\n        bool _isPrimarySale,\n        uint8 _marketplacePercentage,\n        uint8 _royaltyPercentage,\n        uint8 _primarySalePercentage,\n        address payable _payee,\n        address payable _marketplacePayee,\n        address payable _royaltyPayee,\n        address payable _primarySalePayee\n    ) internal {\n        require(\n            _marketplacePercentage <= 100,\n            \"payout::marketplace percentage cannot be above 100\"\n        );\n        require(\n            _royaltyPercentage.add(_primarySalePercentage) <= 100,\n            \"payout::percentages cannot go beyond 100\"\n        );\n        require(\n            _payee != address(0) &&\n                _primarySalePayee != address(0) &&\n                _marketplacePayee != address(0) &&\n                _royaltyPayee != address(0),\n            \"payout::no payees can be the zero address\"\n        );\n\n        // Note:: Solidity is kind of terrible in that there is a limit to local\n        //        variables that can be put into the stack. The real pain is that\n        //        one can put structs, arrays, or mappings into memory but not basic\n        //        data types. Hence our payments array that stores these values.\n        uint256[4] memory payments;\n\n        // uint256 marketplacePayment\n        payments[0] = calcPercentagePayment(_amount, _marketplacePercentage);\n\n        // uint256 royaltyPayment\n        // payments[1] = calcRoyaltyPayment(\n        //     _isPrimarySale,\n        //     _amount,\n        //     _royaltyPercentage\n        // );\n\n        // uint256 primarySalePayment\n        payments[2] = calcPrimarySalePayment(\n            _isPrimarySale,\n            _amount,\n            _primarySalePercentage\n        );\n\n        // uint256 payeePayment\n        payments[3] = _amount.sub(payments[2]);\n\n        // marketplacePayment\n        if (payments[0] > 0) {\n            SendValueOrEscrow.sendValueOrEscrow(_marketplacePayee, payments[0]);\n            emit PrimarymarketplacePayment(_marketplacePayee,payments[0]);\n        }\n\n        // royaltyPayment\n        // if (payments[1] > 0) {\n        //     SendValueOrEscrow.sendValueOrEscrow(_royaltyPayee, payments[1]);\n        // }\n        // primarySalePayment\n        if (payments[2] > 0) {\n            SendValueOrEscrow.sendValueOrEscrow(_primarySalePayee, payments[2]);\n            emit PrimarySalePayment(_primarySalePayee, payments[2]);\n        }\n        // payeePayment\n        if (payments[3] > 0) {\n            SendValueOrEscrow.sendValueOrEscrow(_payee, payments[3]);\n            emit PrimarypayeePayment(_payee, payments[3]);\n        }\n    }\n        /////////////////////////////////////////////////////////////////////////\n    /////////////////////////////////////////////////////////////////////////\n    // payout With Secondary Fee\n    /////////////////////////////////////////////////////////////////////////\n    /**\n     * @dev Internal function to pay the seller, creator, and maintainer.\n     * Requirements:\n     *\n     *  - _marketplacePercentage + _royaltyPercentage + _secondarySalePercentage <= 100\n     *  - no payees can be the zero address\n     *\n     * @param _amount uint256 value to be split.\n     * @param _isPrimarySale bool of whether this is a primary sale.\n     * @param _marketplacePercentage uint8 percentage of the fee for the marketplace.\n     * @param _royaltyPercentage uint8 percentage of the fee for the royalty.\n     * @param _secondarySalePercentage uint8 percentage primary sale fee for the marketplace.\n     * @param _payee address seller of the token.\n     * @param _marketplacePayee address seller of the token.\n     * @param _royaltyPayee address seller of the token.\n     * @param _secondarySalePayee address seller of the token.\n     */\n    function payoutSecondary(\n        uint256 _amount,\n        bool _isPrimarySale, //false\n        uint8 _marketplacePercentage,\n        uint8 _royaltyPercentage,\n        uint8 _secondarySalePercentage,\n        address payable _payee,\n        address payable _marketplacePayee,\n        address payable _royaltyPayee,\n        address payable _secondarySalePayee\n    ) internal {\n        require(\n            _marketplacePercentage <= 100,\n            \"payout::marketplace percentage cannot be above 100\"\n        );\n        require(\n            _royaltyPercentage.add(_secondarySalePercentage) <= 100,\n            \"payout::percentages cannot go beyond 100\"\n        );\n        require(\n            _payee != address(0) &&\n                _secondarySalePayee != address(0) &&\n                _marketplacePayee != address(0) &&\n                _royaltyPayee != address(0),\n            \"payout::no payees can be the zero address\"\n        );\n\n        // Note:: Solidity is kind of terrible in that there is a limit to local\n        //        variables that can be put into the stack. The real pain is that\n        //        one can put structs, arrays, or mappings into memory but not basic\n        //        data types. Hence our payments array that stores these values.\n        uint256[4] memory payments;\n\n        // uint256 marketplacePayment\n        payments[0] = calcPercentagePayment(_amount, _marketplacePercentage);\n\n        // uint256 royaltyPayment\n        // payments[1] = calcRoyaltyPayment(\n        //     _isPrimarySale,\n        //     _amount,\n        //     _royaltyPercentage\n        // );\n\n        // uint256 SecondarySalePayment\n        payments[2] = calcSecondarySalePayment(\n            _isPrimarySale,\n            _amount,\n            _secondarySalePercentage\n        );\n\n        // uint256 payeePayment\n           payments[3] = _amount.sub(payments[2]);\n        \n\n        // marketplacePayment\n        if (payments[0] > 0) {\n            SendValueOrEscrow.sendValueOrEscrow(_marketplacePayee, payments[0]);\n            emit SecondarymarketplacePayment(_marketplacePayee,payments[0] );\n        }\n\n        // // royaltyPayment\n        // if (payments[1] > 0) {\n        //     SendValueOrEscrow.sendValueOrEscrow(_royaltyPayee, payments[1]);\n        // }\n        // primarySalePayment\n        if (payments[2] > 0) {\n            SendValueOrEscrow.sendValueOrEscrow(_secondarySalePayee, payments[2]);\n            emit SecondarySalePayment(_secondarySalePayee, payments[2]);\n        }\n        // payeePayment\n        if (payments[3] > 0) {\n            SendValueOrEscrow.sendValueOrEscrow(_payee, payments[3]);\n            emit SecondarypayeePayment(_payee,payments[3]);\n        }\n    }\n    \n    /////////////////////////////////////////////////////////////////////////\n    // calcRoyaltyPayment\n    /////////////////////////////////////////////////////////////////////////\n    /**\n     * @dev Private function to calculate Royalty amount.\n     *      If primary sale: 0\n     *      If no royalty percentage: 0\n     *      otherwise: royalty in wei\n     * @param _isPrimarySale bool of whether this is a primary sale\n     * @param _amount uint256 value to be split\n     * @param _percentage uint8 royalty percentage\n     * @return uint256 wei value owed for royalty\n     */\n    function calcRoyaltyPayment(\n        bool _isPrimarySale,\n        uint256 _amount,\n        uint8 _percentage\n    ) private pure returns (uint256) {\n        if (_isPrimarySale) {\n            return 0;\n        }\n        return calcPercentagePayment(_amount, _percentage);\n    }\n\n    /////////////////////////////////////////////////////////////////////////\n    // calcPrimarySalePayment\n    /////////////////////////////////////////////////////////////////////////\n    /**\n     * @dev Private function to calculate PrimarySale amount.\n     *      If not primary sale: 0\n     *      otherwise: primary sale in wei\n     * @param _isPrimarySale bool of whether this is a primary sale\n     * @param _amount uint256 value to be split\n     * @param _percentage uint8 royalty percentage\n     * @return uint256 wei value owed for primary sale\n     */\n    function calcPrimarySalePayment(\n        bool _isPrimarySale,\n        uint256 _amount,\n        uint8 _percentage\n    ) private pure returns (uint256) {\n        if (_isPrimarySale) {\n            return calcPercentagePayment(_amount, _percentage);\n        }\n        return 0;\n    }\n    \n        /////////////////////////////////////////////////////////////////////////\n    // calcSecondarySalePayment\n    /////////////////////////////////////////////////////////////////////////\n    /**\n     * @dev Private function to calculate PrimarySale amount.\n     *      If not primary sale: 0\n     *      otherwise: primary sale in wei\n     * @param _isPrimarySale bool of whether this is a primary sale\n     * @param _amount uint256 value to be split\n     * @param _percentage uint8 royalty percentage\n     * @return uint256 wei value owed for primary sale\n     */\n    function calcSecondarySalePayment(\n        bool _isPrimarySale,\n        uint256 _amount,\n        uint8 _percentage\n    ) private pure returns (uint256) {\n        if (!_isPrimarySale) {\n            return calcPercentagePayment(_amount, _percentage);\n        }\n        return 0;\n    }\n    /////////////////////////////////////////////////////////////////////////\n    // calcPercentagePayment\n    /////////////////////////////////////////////////////////////////////////\n    /**\n     * @dev Internal function to calculate percentage value.\n     * @param _amount uint256 wei value\n     * @param _percentage uint8  percentage\n     * @return uint256 wei value based on percentage.\n     */\n    function calcPercentagePayment(uint256 _amount, uint8 _percentage)\n        internal\n        pure\n        returns (uint256)\n    {\n        return _amount.mul(_percentage).div(100);\n    }\n}",
  "sourcePath": "/home/khizer/Documents/AllData/chimera-react-frontend/ChimeraContracts/contracts/Payments.sol",
  "compiler": {
    "name": "solc",
    "version": "0.6.12+commit.27d51765.Emscripten.clang"
  },
  "schemaVersion": "3.3.4",
  "updatedAt": "2021-05-10T10:04:18.358Z",
  "devdoc": {
    "kind": "dev",
    "methods": {
      "payments(address)": {
        "details": "Returns the payments owed to an address.",
        "params": {
          "dest": "The creditor's address."
        }
      },
      "withdrawPayments(address)": {
        "details": "Withdraw accumulated payments, forwarding all gas to the recipient. Note that _any_ account can call this function, not just the `payee`. This means that contracts unaware of the `PullPayment` protocol can still receive funds this way, by having a separate account call {withdrawPayments}. WARNING: Forwarding all gas opens the door to reentrancy vulnerabilities. Make sure you trust the recipient, or are either following the checks-effects-interactions pattern or using {ReentrancyGuard}.",
        "params": {
          "payee": "Whose payments will be withdrawn."
        }
      }
    },
    "title": "Payments contract for SuperRare Marketplaces.",
    "version": 1
  },
  "userdoc": {
    "kind": "user",
    "methods": {},
    "version": 1
  }
}