{
  "contractName": "SendValueProxy",
  "abi": [
    {
      "inputs": [
        {
          "internalType": "address payable",
          "name": "_to",
          "type": "address"
        }
      ],
      "name": "sendValue",
      "outputs": [],
      "stateMutability": "payable",
      "type": "function"
    }
  ],
  "bytecode": "0x608060405234801561001057600080fd5b5060e18061001f6000396000f3fe608060405260043610601c5760003560e01c80637d286e48146021575b600080fd5b606060048036036020811015603557600080fd5b81019080803573ffffffffffffffffffffffffffffffffffffffff1690602001909291905050506062565b005b8073ffffffffffffffffffffffffffffffffffffffff166108fc349081150290604051600060405180830381858888f1935050505015801560a7573d6000803e3d6000fd5b505056fea26469706673582212201c4aabc2e89f52a625592d2b04fb201fce49d5a2f68db45b86e0682342e5171f64736f6c634300060c0033",
  "immutableReferences": {},
  "source": "pragma solidity 0.6.12;\n\nimport \"./ISendValueProxy.sol\";\n\n/**\n * @dev Contract that attempts to send value to an address.\n */\ncontract SendValueProxy is ISendValueProxy {\n    /**\n     * @dev Send some wei to the address.\n     * @param _to address to send some value to.\n     */\n    function sendValue(address payable _to) external override payable {\n        // Note that `<address>.transfer` limits gas sent to receiver. It may\n        // not support complex contract operations in the future.\n        _to.transfer(msg.value);\n    }\n}\n",
  "sourcePath": "/home/khizer/Documents/AllData/chimera-react-frontend/ChimeraContracts/contracts/SendValueProxy.sol",
  "compiler": {
    "name": "solc",
    "version": "0.6.12+commit.27d51765.Emscripten.clang"
  },
  "schemaVersion": "3.3.4",
  "updatedAt": "2021-05-10T10:04:18.371Z",
  "devdoc": {
    "details": "Contract that attempts to send value to an address.",
    "kind": "dev",
    "methods": {
      "sendValue(address)": {
        "details": "Send some wei to the address.",
        "params": {
          "_to": "address to send some value to."
        }
      }
    },
    "version": 1
  },
  "userdoc": {
    "kind": "user",
    "methods": {},
    "version": 1
  }
}