{
  "contractName": "SuperRareMarketAuctionV2",
  "abi": [
    {
      "anonymous": false,
      "inputs": [
        {
          "indexed": true,
          "internalType": "address",
          "name": "_originContract",
          "type": "address"
        },
        {
          "indexed": true,
          "internalType": "address",
          "name": "_bidder",
          "type": "address"
        },
        {
          "indexed": true,
          "internalType": "address",
          "name": "_seller",
          "type": "address"
        },
        {
          "indexed": false,
          "internalType": "uint256",
          "name": "_amount",
          "type": "uint256"
        },
        {
          "indexed": false,
          "internalType": "uint256",
          "name": "_tokenId",
          "type": "uint256"
        }
      ],
      "name": "AcceptBid",
      "type": "event"
    },
    {
      "anonymous": false,
      "inputs": [
        {
          "indexed": true,
          "internalType": "address",
          "name": "_originContract",
          "type": "address"
        },
        {
          "indexed": true,
          "internalType": "address",
          "name": "_bidder",
          "type": "address"
        },
        {
          "indexed": false,
          "internalType": "uint256",
          "name": "_amount",
          "type": "uint256"
        },
        {
          "indexed": false,
          "internalType": "uint256",
          "name": "_tokenId",
          "type": "uint256"
        }
      ],
      "name": "Bid",
      "type": "event"
    },
    {
      "anonymous": false,
      "inputs": [
        {
          "indexed": true,
          "internalType": "address",
          "name": "_originContract",
          "type": "address"
        },
        {
          "indexed": true,
          "internalType": "address",
          "name": "_bidder",
          "type": "address"
        },
        {
          "indexed": false,
          "internalType": "uint256",
          "name": "_amount",
          "type": "uint256"
        },
        {
          "indexed": false,
          "internalType": "uint256",
          "name": "_tokenId",
          "type": "uint256"
        }
      ],
      "name": "CancelBid",
      "type": "event"
    },
    {
      "anonymous": false,
      "inputs": [
        {
          "indexed": true,
          "internalType": "address",
          "name": "previousOwner",
          "type": "address"
        },
        {
          "indexed": true,
          "internalType": "address",
          "name": "newOwner",
          "type": "address"
        }
      ],
      "name": "OwnershipTransferred",
      "type": "event"
    },
    {
      "anonymous": false,
      "inputs": [
        {
          "indexed": true,
          "internalType": "address",
          "name": "_primarySalePayee",
          "type": "address"
        },
        {
          "indexed": false,
          "internalType": "uint256",
          "name": "primarySalePayment",
          "type": "uint256"
        }
      ],
      "name": "PrimarySalePayment",
      "type": "event"
    },
    {
      "anonymous": false,
      "inputs": [
        {
          "indexed": true,
          "internalType": "address",
          "name": "_marketplacePayee",
          "type": "address"
        },
        {
          "indexed": true,
          "internalType": "uint256",
          "name": "_marketplacePayment",
          "type": "uint256"
        }
      ],
      "name": "PrimarymarketplacePayment",
      "type": "event"
    },
    {
      "anonymous": false,
      "inputs": [
        {
          "indexed": true,
          "internalType": "address",
          "name": "_payee",
          "type": "address"
        },
        {
          "indexed": false,
          "internalType": "uint256",
          "name": "payeePayment",
          "type": "uint256"
        }
      ],
      "name": "PrimarypayeePayment",
      "type": "event"
    },
    {
      "anonymous": false,
      "inputs": [
        {
          "indexed": true,
          "internalType": "bytes32",
          "name": "role",
          "type": "bytes32"
        },
        {
          "indexed": true,
          "internalType": "bytes32",
          "name": "previousAdminRole",
          "type": "bytes32"
        },
        {
          "indexed": true,
          "internalType": "bytes32",
          "name": "newAdminRole",
          "type": "bytes32"
        }
      ],
      "name": "RoleAdminChanged",
      "type": "event"
    },
    {
      "anonymous": false,
      "inputs": [
        {
          "indexed": true,
          "internalType": "bytes32",
          "name": "role",
          "type": "bytes32"
        },
        {
          "indexed": true,
          "internalType": "address",
          "name": "account",
          "type": "address"
        },
        {
          "indexed": true,
          "internalType": "address",
          "name": "sender",
          "type": "address"
        }
      ],
      "name": "RoleGranted",
      "type": "event"
    },
    {
      "anonymous": false,
      "inputs": [
        {
          "indexed": true,
          "internalType": "bytes32",
          "name": "role",
          "type": "bytes32"
        },
        {
          "indexed": true,
          "internalType": "address",
          "name": "account",
          "type": "address"
        },
        {
          "indexed": true,
          "internalType": "address",
          "name": "sender",
          "type": "address"
        }
      ],
      "name": "RoleRevoked",
      "type": "event"
    },
    {
      "anonymous": false,
      "inputs": [
        {
          "indexed": true,
          "internalType": "address",
          "name": "_secondarySalePayee",
          "type": "address"
        },
        {
          "indexed": false,
          "internalType": "uint256",
          "name": "primarySalePayment",
          "type": "uint256"
        }
      ],
      "name": "SecondarySalePayment",
      "type": "event"
    },
    {
      "anonymous": false,
      "inputs": [
        {
          "indexed": true,
          "internalType": "address",
          "name": "_marketplacePayee",
          "type": "address"
        },
        {
          "indexed": true,
          "internalType": "uint256",
          "name": "_marketplacePayment",
          "type": "uint256"
        }
      ],
      "name": "SecondarymarketplacePayment",
      "type": "event"
    },
    {
      "anonymous": false,
      "inputs": [
        {
          "indexed": true,
          "internalType": "address",
          "name": "_payee",
          "type": "address"
        },
        {
          "indexed": false,
          "internalType": "uint256",
          "name": "payeePayment",
          "type": "uint256"
        }
      ],
      "name": "SecondarypayeePayment",
      "type": "event"
    },
    {
      "anonymous": false,
      "inputs": [
        {
          "indexed": true,
          "internalType": "address",
          "name": "_payee",
          "type": "address"
        },
        {
          "indexed": false,
          "internalType": "uint256",
          "name": "amount",
          "type": "uint256"
        }
      ],
      "name": "SendValue",
      "type": "event"
    },
    {
      "anonymous": false,
      "inputs": [
        {
          "indexed": true,
          "internalType": "address",
          "name": "_originContract",
          "type": "address"
        },
        {
          "indexed": false,
          "internalType": "uint256",
          "name": "_amount",
          "type": "uint256"
        },
        {
          "indexed": false,
          "internalType": "uint256",
          "name": "_tokenId",
          "type": "uint256"
        }
      ],
      "name": "SetSalePrice",
      "type": "event"
    },
    {
      "anonymous": false,
      "inputs": [
        {
          "indexed": true,
          "internalType": "address",
          "name": "_originContract",
          "type": "address"
        },
        {
          "indexed": true,
          "internalType": "address",
          "name": "_buyer",
          "type": "address"
        },
        {
          "indexed": true,
          "internalType": "address",
          "name": "_seller",
          "type": "address"
        },
        {
          "indexed": false,
          "internalType": "uint256",
          "name": "_amount",
          "type": "uint256"
        },
        {
          "indexed": false,
          "internalType": "uint256",
          "name": "_tokenId",
          "type": "uint256"
        }
      ],
      "name": "Sold",
      "type": "event"
    },
    {
      "anonymous": false,
      "inputs": [
        {
          "indexed": false,
          "internalType": "address",
          "name": "_collector",
          "type": "address"
        }
      ],
      "name": "collectorRoleGrantedTo",
      "type": "event"
    },
    {
      "anonymous": false,
      "inputs": [
        {
          "indexed": false,
          "internalType": "address",
          "name": "_collector",
          "type": "address"
        }
      ],
      "name": "collectorRoleRevokedTo",
      "type": "event"
    },
    {
      "inputs": [],
      "name": "DEFAULT_ADMIN_ROLE",
      "outputs": [
        {
          "internalType": "bytes32",
          "name": "",
          "type": "bytes32"
        }
      ],
      "stateMutability": "view",
      "type": "function"
    },
    {
      "inputs": [],
      "name": "SendValueProxyInitialize",
      "outputs": [],
      "stateMutability": "nonpayable",
      "type": "function"
    },
    {
      "inputs": [],
      "name": "TOKEN_COLLECTOR_ROLE",
      "outputs": [
        {
          "internalType": "bytes32",
          "name": "",
          "type": "bytes32"
        }
      ],
      "stateMutability": "view",
      "type": "function"
    },
    {
      "inputs": [
        {
          "internalType": "bytes32",
          "name": "role",
          "type": "bytes32"
        }
      ],
      "name": "getRoleAdmin",
      "outputs": [
        {
          "internalType": "bytes32",
          "name": "",
          "type": "bytes32"
        }
      ],
      "stateMutability": "view",
      "type": "function"
    },
    {
      "inputs": [
        {
          "internalType": "bytes32",
          "name": "role",
          "type": "bytes32"
        },
        {
          "internalType": "uint256",
          "name": "index",
          "type": "uint256"
        }
      ],
      "name": "getRoleMember",
      "outputs": [
        {
          "internalType": "address",
          "name": "",
          "type": "address"
        }
      ],
      "stateMutability": "view",
      "type": "function"
    },
    {
      "inputs": [
        {
          "internalType": "bytes32",
          "name": "role",
          "type": "bytes32"
        }
      ],
      "name": "getRoleMemberCount",
      "outputs": [
        {
          "internalType": "uint256",
          "name": "",
          "type": "uint256"
        }
      ],
      "stateMutability": "view",
      "type": "function"
    },
    {
      "inputs": [
        {
          "internalType": "bytes32",
          "name": "role",
          "type": "bytes32"
        },
        {
          "internalType": "address",
          "name": "account",
          "type": "address"
        }
      ],
      "name": "grantRole",
      "outputs": [],
      "stateMutability": "nonpayable",
      "type": "function"
    },
    {
      "inputs": [
        {
          "internalType": "bytes32",
          "name": "role",
          "type": "bytes32"
        },
        {
          "internalType": "address",
          "name": "account",
          "type": "address"
        }
      ],
      "name": "hasRole",
      "outputs": [
        {
          "internalType": "bool",
          "name": "",
          "type": "bool"
        }
      ],
      "stateMutability": "view",
      "type": "function"
    },
    {
      "inputs": [],
      "name": "iERC721CreatorRoyalty",
      "outputs": [
        {
          "internalType": "contract IERC721CreatorRoyalty",
          "name": "",
          "type": "address"
        }
      ],
      "stateMutability": "view",
      "type": "function"
    },
    {
      "inputs": [],
      "name": "iMarketplaceSettings",
      "outputs": [
        {
          "internalType": "contract IMarketplaceSettings",
          "name": "",
          "type": "address"
        }
      ],
      "stateMutability": "view",
      "type": "function"
    },
    {
      "inputs": [],
      "name": "initializePayment",
      "outputs": [],
      "stateMutability": "nonpayable",
      "type": "function"
    },
    {
      "inputs": [],
      "name": "minimumBidIncreasePercentage",
      "outputs": [
        {
          "internalType": "uint8",
          "name": "",
          "type": "uint8"
        }
      ],
      "stateMutability": "view",
      "type": "function"
    },
    {
      "inputs": [],
      "name": "owner",
      "outputs": [
        {
          "internalType": "address",
          "name": "",
          "type": "address"
        }
      ],
      "stateMutability": "view",
      "type": "function"
    },
    {
      "inputs": [
        {
          "internalType": "address",
          "name": "dest",
          "type": "address"
        }
      ],
      "name": "payments",
      "outputs": [
        {
          "internalType": "uint256",
          "name": "",
          "type": "uint256"
        }
      ],
      "stateMutability": "view",
      "type": "function"
    },
    {
      "inputs": [],
      "name": "renounceOwnership",
      "outputs": [],
      "stateMutability": "nonpayable",
      "type": "function"
    },
    {
      "inputs": [
        {
          "internalType": "bytes32",
          "name": "role",
          "type": "bytes32"
        },
        {
          "internalType": "address",
          "name": "account",
          "type": "address"
        }
      ],
      "name": "renounceRole",
      "outputs": [],
      "stateMutability": "nonpayable",
      "type": "function"
    },
    {
      "inputs": [
        {
          "internalType": "bytes32",
          "name": "role",
          "type": "bytes32"
        },
        {
          "internalType": "address",
          "name": "account",
          "type": "address"
        }
      ],
      "name": "revokeRole",
      "outputs": [],
      "stateMutability": "nonpayable",
      "type": "function"
    },
    {
      "inputs": [
        {
          "internalType": "address",
          "name": "newOwner",
          "type": "address"
        }
      ],
      "name": "transferOwnership",
      "outputs": [],
      "stateMutability": "nonpayable",
      "type": "function"
    },
    {
      "inputs": [
        {
          "internalType": "address payable",
          "name": "payee",
          "type": "address"
        }
      ],
      "name": "withdrawPayments",
      "outputs": [],
      "stateMutability": "nonpayable",
      "type": "function"
    },
    {
      "inputs": [
        {
          "internalType": "address",
          "name": "_iMarketSettings",
          "type": "address"
        },
        {
          "internalType": "address",
          "name": "_iERC721CreatorRoyalty",
          "type": "address"
        }
      ],
      "name": "initialize",
      "outputs": [],
      "stateMutability": "nonpayable",
      "type": "function"
    },
    {
      "inputs": [],
      "name": "initialize",
      "outputs": [],
      "stateMutability": "nonpayable",
      "type": "function"
    },
    {
      "inputs": [
        {
          "internalType": "address",
          "name": "_address",
          "type": "address"
        }
      ],
      "name": "setMarketplaceSettings",
      "outputs": [],
      "stateMutability": "nonpayable",
      "type": "function"
    },
    {
      "inputs": [
        {
          "internalType": "address",
          "name": "_address",
          "type": "address"
        }
      ],
      "name": "setIERC721CreatorRoyalty",
      "outputs": [],
      "stateMutability": "nonpayable",
      "type": "function"
    },
    {
      "inputs": [
        {
          "internalType": "uint8",
          "name": "_percentage",
          "type": "uint8"
        }
      ],
      "name": "setMinimumBidIncreasePercentage",
      "outputs": [],
      "stateMutability": "nonpayable",
      "type": "function"
    },
    {
      "inputs": [
        {
          "internalType": "address",
          "name": "_originContract",
          "type": "address"
        },
        {
          "internalType": "uint256",
          "name": "_tokenId",
          "type": "uint256"
        },
        {
          "internalType": "uint256",
          "name": "_amount",
          "type": "uint256"
        }
      ],
      "name": "setSalePrice",
      "outputs": [],
      "stateMutability": "nonpayable",
      "type": "function"
    },
    {
      "inputs": [
        {
          "internalType": "address",
          "name": "_originContract",
          "type": "address"
        },
        {
          "internalType": "uint256",
          "name": "_tokenId",
          "type": "uint256"
        },
        {
          "internalType": "uint256",
          "name": "_amount",
          "type": "uint256"
        }
      ],
      "name": "safeBuy",
      "outputs": [],
      "stateMutability": "payable",
      "type": "function"
    },
    {
      "inputs": [
        {
          "internalType": "address",
          "name": "_originContract",
          "type": "address"
        },
        {
          "internalType": "uint256",
          "name": "_tokenId",
          "type": "uint256"
        }
      ],
      "name": "buy",
      "outputs": [],
      "stateMutability": "payable",
      "type": "function"
    },
    {
      "inputs": [
        {
          "internalType": "address",
          "name": "_originContract",
          "type": "address"
        },
        {
          "internalType": "uint256",
          "name": "_tokenId",
          "type": "uint256"
        }
      ],
      "name": "tokenPrice",
      "outputs": [
        {
          "internalType": "uint256",
          "name": "",
          "type": "uint256"
        }
      ],
      "stateMutability": "view",
      "type": "function"
    },
    {
      "inputs": [
        {
          "internalType": "address",
          "name": "_originContract",
          "type": "address"
        },
        {
          "internalType": "uint256",
          "name": "_tokenId",
          "type": "uint256"
        }
      ],
      "name": "tokenPriceFeeIncluded",
      "outputs": [
        {
          "internalType": "uint256",
          "name": "",
          "type": "uint256"
        }
      ],
      "stateMutability": "view",
      "type": "function"
    },
    {
      "inputs": [
        {
          "internalType": "uint256",
          "name": "_newBidAmount",
          "type": "uint256"
        },
        {
          "internalType": "address",
          "name": "_originContract",
          "type": "address"
        },
        {
          "internalType": "uint256",
          "name": "_tokenId",
          "type": "uint256"
        }
      ],
      "name": "bid",
      "outputs": [],
      "stateMutability": "payable",
      "type": "function"
    },
    {
      "inputs": [
        {
          "internalType": "address",
          "name": "_originContract",
          "type": "address"
        },
        {
          "internalType": "uint256",
          "name": "_tokenId",
          "type": "uint256"
        },
        {
          "internalType": "uint256",
          "name": "_amount",
          "type": "uint256"
        }
      ],
      "name": "safeAcceptBid",
      "outputs": [],
      "stateMutability": "nonpayable",
      "type": "function"
    },
    {
      "inputs": [
        {
          "internalType": "address",
          "name": "_originContract",
          "type": "address"
        },
        {
          "internalType": "uint256",
          "name": "_tokenId",
          "type": "uint256"
        }
      ],
      "name": "acceptBid",
      "outputs": [],
      "stateMutability": "nonpayable",
      "type": "function"
    },
    {
      "inputs": [
        {
          "internalType": "address",
          "name": "_originContract",
          "type": "address"
        },
        {
          "internalType": "uint256",
          "name": "_tokenId",
          "type": "uint256"
        }
      ],
      "name": "cancelBid",
      "outputs": [],
      "stateMutability": "nonpayable",
      "type": "function"
    },
    {
      "inputs": [
        {
          "internalType": "address",
          "name": "_originContract",
          "type": "address"
        },
        {
          "internalType": "uint256",
          "name": "_tokenId",
          "type": "uint256"
        }
      ],
      "name": "currentBidDetailsOfToken",
      "outputs": [
        {
          "internalType": "uint256",
          "name": "",
          "type": "uint256"
        },
        {
          "internalType": "address",
          "name": "",
          "type": "address"
        }
      ],
      "stateMutability": "view",
      "type": "function"
    }
  ],
  "bytecode": "0x608060405234801561001057600080fd5b5061848d80620000216000396000f3fe6080604052600436106101f95760003560e01c80638da5cb5b1161010d578063c0f4ed31116100a0578063cce7ec131161006f578063cce7ec1314610afa578063d547741f14610b48578063e2982c2114610ba3578063f2fde38b14610c08578063f4f75dd814610c59576101f9565b8063c0f4ed31146109ba578063c8db696214610a12578063ca15c87314610a6a578063cafdcad014610ab9576101f9565b806393d10cea116100dc57806393d10cea14610884578063955a5a76146108f3578063a217fddf1461094e578063a334c84414610979576101f9565b80638da5cb5b146106f45780639010d07c14610735578063916c03ba146107a457806391d1485414610813576101f9565b806338cdfc0c11610190578063508c1dbd1161015f578063508c1dbd146105ce5780636fe9f44c14610633578063715018a6146106615780637598fdb3146106785780638129fc1c146106dd576101f9565b806338cdfc0c146104ad57806339b6b1e5146104c4578063485cc9551461051f57806348626b9014610590576101f9565b8063248a9ca3116101cc578063248a9ca3146103575780632f2ff15d146103a657806331b3eb941461040157806336568abe14610452576101f9565b80630d7d703f146101fe57806314df85e91461024f578063176ab440146102db5780631d99572a1461032c575b600080fd5b34801561020a57600080fd5b5061024d6004803603602081101561022157600080fd5b81019080803573ffffffffffffffffffffffffffffffffffffffff169060200190929190505050610c70565b005b34801561025b57600080fd5b506102a86004803603604081101561027257600080fd5b81019080803573ffffffffffffffffffffffffffffffffffffffff16906020019092919080359060200190929190505050610de9565b604051808381526020018273ffffffffffffffffffffffffffffffffffffffff1681526020019250505060405180910390f35b3480156102e757600080fd5b5061032a600480360360208110156102fe57600080fd5b81019080803573ffffffffffffffffffffffffffffffffffffffff169060200190929190505050610ebf565b005b34801561033857600080fd5b50610341611038565b6040518082815260200191505060405180910390f35b34801561036357600080fd5b506103906004803603602081101561037a57600080fd5b810190808035906020019092919050505061105c565b6040518082815260200191505060405180910390f35b3480156103b257600080fd5b506103ff600480360360408110156103c957600080fd5b8101908080359060200190929190803573ffffffffffffffffffffffffffffffffffffffff16906020019092919050505061107c565b005b34801561040d57600080fd5b506104506004803603602081101561042457600080fd5b81019080803573ffffffffffffffffffffffffffffffffffffffff169060200190929190505050611106565b005b34801561045e57600080fd5b506104ab6004803603604081101561047557600080fd5b8101908080359060200190929190803573ffffffffffffffffffffffffffffffffffffffff1690602001909291905050506111ac565b005b3480156104b957600080fd5b506104c2611245565b005b3480156104d057600080fd5b5061051d600480360360408110156104e757600080fd5b81019080803573ffffffffffffffffffffffffffffffffffffffff1690602001909291908035906020019092919050505061134b565b005b34801561052b57600080fd5b5061058e6004803603604081101561054257600080fd5b81019080803573ffffffffffffffffffffffffffffffffffffffff169060200190929190803573ffffffffffffffffffffffffffffffffffffffff169060200190929190505050611479565b005b34801561059c57600080fd5b506105cc600480360360208110156105b357600080fd5b81019080803560ff16906020019092919050505061174f565b005b3480156105da57600080fd5b50610631600480360360608110156105f157600080fd5b81019080803573ffffffffffffffffffffffffffffffffffffffff169060200190929190803590602001909291908035906020019092919050505061181c565b005b34801561063f57600080fd5b506106486119c9565b604051808260ff16815260200191505060405180910390f35b34801561066d57600080fd5b506106766119dc565b005b34801561068457600080fd5b506106db6004803603606081101561069b57600080fd5b81019080803573ffffffffffffffffffffffffffffffffffffffff1690602001909291908035906020019092919080359060200190929190505050611b4c565b005b3480156106e957600080fd5b506106f2611c06565b005b34801561070057600080fd5b50610709611d0c565b604051808273ffffffffffffffffffffffffffffffffffffffff16815260200191505060405180910390f35b34801561074157600080fd5b506107786004803603604081101561075857600080fd5b810190808035906020019092919080359060200190929190505050611d36565b604051808273ffffffffffffffffffffffffffffffffffffffff16815260200191505060405180910390f35b3480156107b057600080fd5b506107fd600480360360408110156107c757600080fd5b81019080803573ffffffffffffffffffffffffffffffffffffffff16906020019092919080359060200190929190505050611d68565b6040518082815260200191505060405180910390f35b34801561081f57600080fd5b5061086c6004803603604081101561083657600080fd5b8101908080359060200190929190803573ffffffffffffffffffffffffffffffffffffffff169060200190929190505050611de9565b60405180821515815260200191505060405180910390f35b34801561089057600080fd5b506108dd600480360360408110156108a757600080fd5b81019080803573ffffffffffffffffffffffffffffffffffffffff16906020019092919080359060200190929190505050611e1b565b6040518082815260200191505060405180910390f35b3480156108ff57600080fd5b5061094c6004803603604081101561091657600080fd5b81019080803573ffffffffffffffffffffffffffffffffffffffff16906020019092919080359060200190929190505050611fae565b005b34801561095a57600080fd5b50610963612cf4565b6040518082815260200191505060405180910390f35b34801561098557600080fd5b5061098e612cfb565b604051808273ffffffffffffffffffffffffffffffffffffffff16815260200191505060405180910390f35b610a10600480360360608110156109d057600080fd5b8101908080359060200190929190803573ffffffffffffffffffffffffffffffffffffffff16906020019092919080359060200190929190505050612d21565b005b610a6860048036036060811015610a2857600080fd5b81019080803573ffffffffffffffffffffffffffffffffffffffff16906020019092919080359060200190929190803590602001909291905050506131fa565b005b348015610a7657600080fd5b50610aa360048036036020811015610a8d57600080fd5b81019080803590602001909291905050506132b4565b6040518082815260200191505060405180910390f35b348015610ac557600080fd5b50610ace6132db565b604051808273ffffffffffffffffffffffffffffffffffffffff16815260200191505060405180910390f35b610b4660048036036040811015610b1057600080fd5b81019080803573ffffffffffffffffffffffffffffffffffffffff16906020019092919080359060200190929190505050613301565b005b348015610b5457600080fd5b50610ba160048036036040811015610b6b57600080fd5b8101908080359060200190929190803573ffffffffffffffffffffffffffffffffffffffff169060200190929190505050614203565b005b348015610baf57600080fd5b50610bf260048036036020811015610bc657600080fd5b81019080803573ffffffffffffffffffffffffffffffffffffffff16906020019092919050505061428d565b6040518082815260200191505060405180910390f35b348015610c1457600080fd5b50610c5760048036036020811015610c2b57600080fd5b81019080803573ffffffffffffffffffffffffffffffffffffffff16906020019092919050505061435a565b005b348015610c6557600080fd5b50610c6e61454f565b005b610c786146b6565b73ffffffffffffffffffffffffffffffffffffffff16610c96611d0c565b73ffffffffffffffffffffffffffffffffffffffff1614610d1f576040517f08c379a00000000000000000000000000000000000000000000000000000000081526004018080602001828103825260208152602001807f4f776e61626c653a2063616c6c6572206973206e6f7420746865206f776e657281525060200191505060405180910390fd5b600073ffffffffffffffffffffffffffffffffffffffff168173ffffffffffffffffffffffffffffffffffffffff161415610da5576040517f08c379a000000000000000000000000000000000000000000000000000000000815260040180806020018281038252604d815260200180617f4c604d913960600191505060405180910390fd5b8060cb60006101000a81548173ffffffffffffffffffffffffffffffffffffffff021916908373ffffffffffffffffffffffffffffffffffffffff16021790555050565b60008060cd60008573ffffffffffffffffffffffffffffffffffffffff1673ffffffffffffffffffffffffffffffffffffffff16815260200190815260200160002060008481526020019081526020016000206001015460cd60008673ffffffffffffffffffffffffffffffffffffffff1673ffffffffffffffffffffffffffffffffffffffff168152602001908152602001600020600085815260200190815260200160002060000160009054906101000a900473ffffffffffffffffffffffffffffffffffffffff16915091509250929050565b610ec76146b6565b73ffffffffffffffffffffffffffffffffffffffff16610ee5611d0c565b73ffffffffffffffffffffffffffffffffffffffff1614610f6e576040517f08c379a00000000000000000000000000000000000000000000000000000000081526004018080602001828103825260208152602001807f4f776e61626c653a2063616c6c6572206973206e6f7420746865206f776e657281525060200191505060405180910390fd5b600073ffffffffffffffffffffffffffffffffffffffff168173ffffffffffffffffffffffffffffffffffffffff161415610ff4576040517f08c379a00000000000000000000000000000000000000000000000000000000081526004018080602001828103825260458152602001806182e66045913960600191505060405180910390fd5b8060ca60006101000a81548173ffffffffffffffffffffffffffffffffffffffff021916908373ffffffffffffffffffffffffffffffffffffffff16021790555050565b7f544f4b454e5f434f4c4c4543544f525f524f4c4500000000000000000000000081565b600060656000838152602001908152602001600020600201549050919050565b6110a3606560008481526020019081526020016000206002015461109e6146b6565b611de9565b6110f8576040517f08c379a000000000000000000000000000000000000000000000000000000000815260040180806020018281038252602f815260200180618006602f913960400191505060405180910390fd5b61110282826146be565b5050565b609860009054906101000a900473ffffffffffffffffffffffffffffffffffffffff1673ffffffffffffffffffffffffffffffffffffffff166351cff8d9826040518263ffffffff1660e01b8152600401808273ffffffffffffffffffffffffffffffffffffffff168152602001915050600060405180830381600087803b15801561119157600080fd5b505af11580156111a5573d6000803e3d6000fd5b5050505050565b6111b46146b6565b73ffffffffffffffffffffffffffffffffffffffff168173ffffffffffffffffffffffffffffffffffffffff1614611237576040517f08c379a000000000000000000000000000000000000000000000000000000000815260040180806020018281038252602f815260200180618429602f913960400191505060405180910390fd5b6112418282614752565b5050565b600060019054906101000a900460ff168061126457506112636147e6565b5b8061127a575060008054906101000a900460ff16155b6112cf576040517f08c379a000000000000000000000000000000000000000000000000000000000815260040180806020018281038252602e815260200180618290602e913960400191505060405180910390fd5b60008060019054906101000a900460ff16159050801561131f576001600060016101000a81548160ff02191690831515021790555060016000806101000a81548160ff0219169083151502179055505b611327611c06565b80156113485760008060016101000a81548160ff0219169083151502179055505b50565b6113563383836147f7565b6113ab576040517f08c379a00000000000000000000000000000000000000000000000000000000081526004018080602001828103825260398152602001806181be6039913960400191505060405180910390fd5b6113b582826148a4565b3373ffffffffffffffffffffffffffffffffffffffff168273ffffffffffffffffffffffffffffffffffffffff167f99a3761c98d7a0c3980cbeb3d8009b315a463f8020b43ca1e6901611b06547f960cd60008673ffffffffffffffffffffffffffffffffffffffff1673ffffffffffffffffffffffffffffffffffffffff16815260200190815260200160002060008581526020019081526020016000206001015484604051808381526020018281526020019250505060405180910390a35050565b600060019054906101000a900460ff168061149857506114976147e6565b5b806114ae575060008054906101000a900460ff16155b611503576040517f08c379a000000000000000000000000000000000000000000000000000000000815260040180806020018281038252602e815260200180618290602e913960400191505060405180910390fd5b60008060019054906101000a900460ff161590508015611553576001600060016101000a81548160ff02191690831515021790555060016000806101000a81548160ff0219169083151502179055505b600073ffffffffffffffffffffffffffffffffffffffff168373ffffffffffffffffffffffffffffffffffffffff1614156115d9576040517f08c379a000000000000000000000000000000000000000000000000000000000815260040180806020018281038252603a8152602001806183ad603a913960400191505060405180910390fd5b600073ffffffffffffffffffffffffffffffffffffffff168273ffffffffffffffffffffffffffffffffffffffff16141561165f576040517f08c379a000000000000000000000000000000000000000000000000000000000815260040180806020018281038252604081526020018061832b6040913960400191505060405180910390fd5b6116676149ec565b61166f614afa565b611677611245565b61168b6000801b611686611d0c565b614c08565b8260ca60006101000a81548173ffffffffffffffffffffffffffffffffffffffff021916908373ffffffffffffffffffffffffffffffffffffffff1602179055508160cb60006101000a81548173ffffffffffffffffffffffffffffffffffffffff021916908373ffffffffffffffffffffffffffffffffffffffff160217905550600a60ce60006101000a81548160ff021916908360ff160217905550801561174a5760008060016101000a81548160ff0219169083151502179055505b505050565b6117576146b6565b73ffffffffffffffffffffffffffffffffffffffff16611775611d0c565b73ffffffffffffffffffffffffffffffffffffffff16146117fe576040517f08c379a00000000000000000000000000000000000000000000000000000000081526004018080602001828103825260208152602001807f4f776e61626c653a2063616c6c6572206973206e6f7420746865206f776e657281525060200191505060405180910390fd5b8060ce60006101000a81548160ff021916908360ff16021790555050565b6118268383614c16565b6118308383614dc6565b600081141561189e576118438383614efc565b8273ffffffffffffffffffffffffffffffffffffffff167fb0b0e4adf2724af8f1646eae3a16f45d696c9334594729d09bf192da1f7838718284604051808381526020018281526020019250505060405180910390a26119c4565b60405180604001604052803373ffffffffffffffffffffffffffffffffffffffff1681526020018281525060cc60008573ffffffffffffffffffffffffffffffffffffffff1673ffffffffffffffffffffffffffffffffffffffff168152602001908152602001600020600084815260200190815260200160002060008201518160000160006101000a81548173ffffffffffffffffffffffffffffffffffffffff021916908373ffffffffffffffffffffffffffffffffffffffff160217905550602082015181600101559050508273ffffffffffffffffffffffffffffffffffffffff167fb0b0e4adf2724af8f1646eae3a16f45d696c9334594729d09bf192da1f7838718284604051808381526020018281526020019250505060405180910390a25b505050565b60ce60009054906101000a900460ff1681565b6119e46146b6565b73ffffffffffffffffffffffffffffffffffffffff16611a02611d0c565b73ffffffffffffffffffffffffffffffffffffffff1614611a8b576040517f08c379a00000000000000000000000000000000000000000000000000000000081526004018080602001828103825260208152602001807f4f776e61626c653a2063616c6c6572206973206e6f7420746865206f776e657281525060200191505060405180910390fd5b600073ffffffffffffffffffffffffffffffffffffffff16603360009054906101000a900473ffffffffffffffffffffffffffffffffffffffff1673ffffffffffffffffffffffffffffffffffffffff167f8be0079c531659141344cd1fd0a4f28419497f9722a3daafe3b4186f6b6457e060405160405180910390a36000603360006101000a81548173ffffffffffffffffffffffffffffffffffffffff021916908373ffffffffffffffffffffffffffffffffffffffff160217905550565b8060cd60008573ffffffffffffffffffffffffffffffffffffffff1673ffffffffffffffffffffffffffffffffffffffff16815260200190815260200160002060008481526020019081526020016000206001015414611bf7576040517f08c379a00000000000000000000000000000000000000000000000000000000081526004018080602001828103825260348152602001806181586034913960400191505060405180910390fd5b611c018383611fae565b505050565b600060019054906101000a900460ff1680611c255750611c246147e6565b5b80611c3b575060008054906101000a900460ff16155b611c90576040517f08c379a000000000000000000000000000000000000000000000000000000000815260040180806020018281038252602e815260200180618290602e913960400191505060405180910390fd5b60008060019054906101000a900460ff161590508015611ce0576001600060016101000a81548160ff02191690831515021790555060016000806101000a81548160ff0219169083151502179055505b611ce8614fd1565b8015611d095760008060016101000a81548160ff0219169083151502179055505b50565b6000603360009054906101000a900473ffffffffffffffffffffffffffffffffffffffff16905090565b6000611d6082606560008681526020019081526020016000206000016150d790919063ffffffff16565b905092915050565b6000611d748383614c16565b611d7e83836150f1565b15611dde5760cc60008473ffffffffffffffffffffffffffffffffffffffff1673ffffffffffffffffffffffffffffffffffffffff1681526020019081526020016000206000838152602001908152602001600020600101549050611de3565b600090505b92915050565b6000611e13826065600086815260200190815260200160002060000161522d90919063ffffffff16565b905092915050565b6000611e278383614c16565b611e3183836150f1565b15611fa357611f9c60ca60009054906101000a900473ffffffffffffffffffffffffffffffffffffffff1673ffffffffffffffffffffffffffffffffffffffff1663c3fc495260cc60008773ffffffffffffffffffffffffffffffffffffffff1673ffffffffffffffffffffffffffffffffffffffff1681526020019081526020016000206000868152602001908152602001600020600101546040518263ffffffff1660e01b81526004018082815260200191505060206040518083038186803b158015611eff57600080fd5b505afa158015611f13573d6000803e3d6000fd5b505050506040513d6020811015611f2957600080fd5b810190808051906020019092919050505060cc60008673ffffffffffffffffffffffffffffffffffffffff1673ffffffffffffffffffffffffffffffffffffffff16815260200190815260200160002060008581526020019081526020016000206001015461525d90919063ffffffff16565b9050611fa8565b600090505b92915050565b611fb88282614c16565b611fc28282614dc6565b611fcc82826152e5565b612021576040517f08c379a000000000000000000000000000000000000000000000000000000000815260040180806020018281038252603281526020018061818c6032913960400191505060405180910390fd5b612029616bbf565b60cd60008473ffffffffffffffffffffffffffffffffffffffff1673ffffffffffffffffffffffffffffffffffffffff16815260200190815260200160002060008381526020019081526020016000206040518060600160405290816000820160009054906101000a900473ffffffffffffffffffffffffffffffffffffffff1673ffffffffffffffffffffffffffffffffffffffff1673ffffffffffffffffffffffffffffffffffffffff1681526020016000820160149054906101000a900460ff1660ff1660ff168152602001600182015481525050905061210d8383614efc565b6121178383615392565b60008390508073ffffffffffffffffffffffffffffffffffffffff166342842e0e338460000151866040518463ffffffff1660e01b8152600401808473ffffffffffffffffffffffffffffffffffffffff1681526020018373ffffffffffffffffffffffffffffffffffffffff1681526020018281526020019350505050600060405180830381600087803b1580156121af57600080fd5b505af11580156121c3573d6000803e3d6000fd5b5050505060006121d96121d4611d0c565b615492565b905060ca60009054906101000a900473ffffffffffffffffffffffffffffffffffffffff1673ffffffffffffffffffffffffffffffffffffffff1663511bc84c86866040518363ffffffff1660e01b8152600401808373ffffffffffffffffffffffffffffffffffffffff1681526020018281526020019250505060206040518083038186803b15801561226c57600080fd5b505afa158015612280573d6000803e3d6000fd5b505050506040513d602081101561229657600080fd5b81019080805190602001909291905050506127ce57612687836040015160ca60009054906101000a900473ffffffffffffffffffffffffffffffffffffffff1673ffffffffffffffffffffffffffffffffffffffff1663511bc84c88886040518363ffffffff1660e01b8152600401808373ffffffffffffffffffffffffffffffffffffffff1681526020018281526020019250505060206040518083038186803b15801561234457600080fd5b505afa158015612358573d6000803e3d6000fd5b505050506040513d602081101561236e57600080fd5b81019080805190602001909291905050501560ca60009054906101000a900473ffffffffffffffffffffffffffffffffffffffff1673ffffffffffffffffffffffffffffffffffffffff1663834759216040518163ffffffff1660e01b815260040160206040518083038186803b1580156123e857600080fd5b505afa1580156123fc573d6000803e3d6000fd5b505050506040513d602081101561241257600080fd5b810190808051906020019092919050505060cb60009054906101000a900473ffffffffffffffffffffffffffffffffffffffff1673ffffffffffffffffffffffffffffffffffffffff16637c0329f78a8a6040518363ffffffff1660e01b8152600401808373ffffffffffffffffffffffffffffffffffffffff1681526020018281526020019250505060206040518083038186803b1580156124b457600080fd5b505afa1580156124c8573d6000803e3d6000fd5b505050506040513d60208110156124de57600080fd5b810190808051906020019092919050505060ca60009054906101000a900473ffffffffffffffffffffffffffffffffffffffff1673ffffffffffffffffffffffffffffffffffffffff1663b28a7bad8b6040518263ffffffff1660e01b8152600401808273ffffffffffffffffffffffffffffffffffffffff16815260200191505060206040518083038186803b15801561257857600080fd5b505afa15801561258c573d6000803e3d6000fd5b505050506040513d60208110156125a257600080fd5b8101908080519060200190929190505050338760cb60009054906101000a900473ffffffffffffffffffffffffffffffffffffffff1673ffffffffffffffffffffffffffffffffffffffff1663b85ed7e48e8e6040518363ffffffff1660e01b8152600401808373ffffffffffffffffffffffffffffffffffffffff1681526020018281526020019250505060206040518083038186803b15801561264657600080fd5b505afa15801561265a573d6000803e3d6000fd5b505050506040513d602081101561267057600080fd5b81019080805190602001909291905050508961549c565b60ca60009054906101000a900473ffffffffffffffffffffffffffffffffffffffff1673ffffffffffffffffffffffffffffffffffffffff16635a3c652d868660016040518463ffffffff1660e01b8152600401808473ffffffffffffffffffffffffffffffffffffffff16815260200183815260200182151581526020019350505050600060405180830381600087803b15801561272557600080fd5b505af1158015612739573d6000803e3d6000fd5b505050503373ffffffffffffffffffffffffffffffffffffffff16836000015173ffffffffffffffffffffffffffffffffffffffff168673ffffffffffffffffffffffffffffffffffffffff167f2a9d06eec42acd217a17785dbec90b8b4f01a93ecd8c127edd36bfccf239f8b6866040015188604051808381526020018281526020019250505060405180910390a4612ced565b612baa836040015160ca60009054906101000a900473ffffffffffffffffffffffffffffffffffffffff1673ffffffffffffffffffffffffffffffffffffffff1663511bc84c88886040518363ffffffff1660e01b8152600401808373ffffffffffffffffffffffffffffffffffffffff1681526020018281526020019250505060206040518083038186803b15801561286757600080fd5b505afa15801561287b573d6000803e3d6000fd5b505050506040513d602081101561289157600080fd5b81019080805190602001909291905050501560ca60009054906101000a900473ffffffffffffffffffffffffffffffffffffffff1673ffffffffffffffffffffffffffffffffffffffff1663834759216040518163ffffffff1660e01b815260040160206040518083038186803b15801561290b57600080fd5b505afa15801561291f573d6000803e3d6000fd5b505050506040513d602081101561293557600080fd5b810190808051906020019092919050505060cb60009054906101000a900473ffffffffffffffffffffffffffffffffffffffff1673ffffffffffffffffffffffffffffffffffffffff16637c0329f78a8a6040518363ffffffff1660e01b8152600401808373ffffffffffffffffffffffffffffffffffffffff1681526020018281526020019250505060206040518083038186803b1580156129d757600080fd5b505afa1580156129eb573d6000803e3d6000fd5b505050506040513d6020811015612a0157600080fd5b810190808051906020019092919050505060ca60009054906101000a900473ffffffffffffffffffffffffffffffffffffffff1673ffffffffffffffffffffffffffffffffffffffff1663a36fe8d88b6040518263ffffffff1660e01b8152600401808273ffffffffffffffffffffffffffffffffffffffff16815260200191505060206040518083038186803b158015612a9b57600080fd5b505afa158015612aaf573d6000803e3d6000fd5b505050506040513d6020811015612ac557600080fd5b8101908080519060200190929190505050338760cb60009054906101000a900473ffffffffffffffffffffffffffffffffffffffff1673ffffffffffffffffffffffffffffffffffffffff1663b85ed7e48e8e6040518363ffffffff1660e01b8152600401808373ffffffffffffffffffffffffffffffffffffffff1681526020018281526020019250505060206040518083038186803b158015612b6957600080fd5b505afa158015612b7d573d6000803e3d6000fd5b505050506040513d6020811015612b9357600080fd5b8101908080519060200190929190505050896158e0565b60ca60009054906101000a900473ffffffffffffffffffffffffffffffffffffffff1673ffffffffffffffffffffffffffffffffffffffff16635a3c652d868660016040518463ffffffff1660e01b8152600401808473ffffffffffffffffffffffffffffffffffffffff16815260200183815260200182151581526020019350505050600060405180830381600087803b158015612c4857600080fd5b505af1158015612c5c573d6000803e3d6000fd5b505050503373ffffffffffffffffffffffffffffffffffffffff16836000015173ffffffffffffffffffffffffffffffffffffffff168673ffffffffffffffffffffffffffffffffffffffff167f2a9d06eec42acd217a17785dbec90b8b4f01a93ecd8c127edd36bfccf239f8b6866040015188604051808381526020018281526020019250505060405180910390a45b5050505050565b6000801b81565b60ca60009054906101000a900473ffffffffffffffffffffffffffffffffffffffff1681565b612d4b7f544f4b454e5f434f4c4c4543544f525f524f4c4500000000000000000000000033611de9565b612da0576040517f08c379a0000000000000000000000000000000000000000000000000000000008152600401808060200182810382526022815260200180617fbb6022913960400191505060405180910390fd5b60008311612e16576040517f08c379a00000000000000000000000000000000000000000000000000000000081526004018080602001828103825260168152602001807f6269643a3a43616e6e6f74206269642030205765692e0000000000000000000081525060200191505060405180910390fd5b600060cd60008473ffffffffffffffffffffffffffffffffffffffff1673ffffffffffffffffffffffffffffffffffffffff16815260200190815260200160002060008381526020019081526020016000206001015490508084118015612ec65750612ec2612eb36064612ea560ce60009054906101000a900460ff1660ff1685615d2490919063ffffffff16565b615daa90919063ffffffff16565b8261525d90919063ffffffff16565b8410155b612f1b576040517f08c379a00000000000000000000000000000000000000000000000000000000081526004018080602001828103825260428152602001806183e76042913960600191505060405180910390fd5b6000612fdd60ca60009054906101000a900473ffffffffffffffffffffffffffffffffffffffff1673ffffffffffffffffffffffffffffffffffffffff1663c3fc4952876040518263ffffffff1660e01b81526004018082815260200191505060206040518083038186803b158015612f9357600080fd5b505afa158015612fa7573d6000803e3d6000fd5b505050506040513d6020811015612fbd57600080fd5b81019080805190602001909291905050508661525d90919063ffffffff16565b9050348114613037576040517f08c379a00000000000000000000000000000000000000000000000000000000081526004018080602001828103825260338152602001806180e06033913960400191505060405180910390fd5b600084905060008173ffffffffffffffffffffffffffffffffffffffff16636352211e866040518263ffffffff1660e01b81526004018082815260200191505060206040518083038186803b15801561308f57600080fd5b505afa1580156130a3573d6000803e3d6000fd5b505050506040513d60208110156130b957600080fd5b810190808051906020019092919050505090503373ffffffffffffffffffffffffffffffffffffffff168173ffffffffffffffffffffffffffffffffffffffff16141561316e576040517f08c379a000000000000000000000000000000000000000000000000000000000815260040180806020018281038252601c8152602001807f6269643a3a4269646465722063616e6e6f74206265206f776e65722e0000000081525060200191505060405180910390fd5b61317886866148a4565b61318487338888615e33565b3373ffffffffffffffffffffffffffffffffffffffff168673ffffffffffffffffffffffffffffffffffffffff167fd21fbaad97462831ad0c216f300fefb33a10b03bb18bb70ed668562e88d15d538988604051808381526020018281526020019250505060405180910390a350505050505050565b8060cc60008573ffffffffffffffffffffffffffffffffffffffff1673ffffffffffffffffffffffffffffffffffffffff168152602001908152602001600020600084815260200190815260200160002060010154146132a5576040517f08c379a000000000000000000000000000000000000000000000000000000000815260040180806020018281038252603381526020018061805e6033913960400191505060405180910390fd5b6132af8383613301565b505050565b60006132d460656000848152602001908152602001600020600001616077565b9050919050565b60cb60009054906101000a900473ffffffffffffffffffffffffffffffffffffffff1681565b61332b7f544f4b454e5f434f4c4c4543544f525f524f4c4500000000000000000000000033611de9565b613380576040517f08c379a0000000000000000000000000000000000000000000000000000000008152600401808060200182810382526022815260200180617fbb6022913960400191505060405180910390fd5b61338a8282614c16565b61339482826150f1565b6133e9576040517f08c379a00000000000000000000000000000000000000000000000000000000081526004018080602001828103825260458152602001806181136045913960600191505060405180910390fd5b6133f1616bf9565b60cc60008473ffffffffffffffffffffffffffffffffffffffff1673ffffffffffffffffffffffffffffffffffffffff16815260200190815260200160002060008381526020019081526020016000206040518060400160405290816000820160009054906101000a900473ffffffffffffffffffffffffffffffffffffffff1673ffffffffffffffffffffffffffffffffffffffff1673ffffffffffffffffffffffffffffffffffffffff1681526020016001820154815250509050600081602001511161350b576040517f08c379a00000000000000000000000000000000000000000000000000000000081526004018080602001828103825260298152602001806180b76029913960400191505060405180910390fd5b346135168484611e1b565b1461356c576040517f08c379a00000000000000000000000000000000000000000000000000000000081526004018080602001828103825260378152602001806181f76037913960400191505060405180910390fd5b600083905060008173ffffffffffffffffffffffffffffffffffffffff16636352211e856040518263ffffffff1660e01b81526004018082815260200191505060206040518083038186803b1580156135c457600080fd5b505afa1580156135d8573d6000803e3d6000fd5b505050506040513d60208110156135ee57600080fd5b8101908080519060200190929190505050905061360b8585614efc565b8173ffffffffffffffffffffffffffffffffffffffff166342842e0e8233876040518463ffffffff1660e01b8152600401808473ffffffffffffffffffffffffffffffffffffffff1681526020018373ffffffffffffffffffffffffffffffffffffffff1681526020018281526020019350505050600060405180830381600087803b15801561369a57600080fd5b505af11580156136ae573d6000803e3d6000fd5b505050506136bd3386866147f7565b156136cd576136cc85856148a4565b5b60006136df6136da611d0c565b615492565b905060ca60009054906101000a900473ffffffffffffffffffffffffffffffffffffffff1673ffffffffffffffffffffffffffffffffffffffff1663511bc84c87876040518363ffffffff1660e01b8152600401808373ffffffffffffffffffffffffffffffffffffffff1681526020018281526020019250505060206040518083038186803b15801561377257600080fd5b505afa158015613786573d6000803e3d6000fd5b505050506040513d602081101561379c57600080fd5b8101908080519060200190929190505050613cd857613b95846020015160ca60009054906101000a900473ffffffffffffffffffffffffffffffffffffffff1673ffffffffffffffffffffffffffffffffffffffff1663511bc84c89896040518363ffffffff1660e01b8152600401808373ffffffffffffffffffffffffffffffffffffffff1681526020018281526020019250505060206040518083038186803b15801561384a57600080fd5b505afa15801561385e573d6000803e3d6000fd5b505050506040513d602081101561387457600080fd5b81019080805190602001909291905050501560ca60009054906101000a900473ffffffffffffffffffffffffffffffffffffffff1673ffffffffffffffffffffffffffffffffffffffff1663834759216040518163ffffffff1660e01b815260040160206040518083038186803b1580156138ee57600080fd5b505afa158015613902573d6000803e3d6000fd5b505050506040513d602081101561391857600080fd5b810190808051906020019092919050505060cb60009054906101000a900473ffffffffffffffffffffffffffffffffffffffff1673ffffffffffffffffffffffffffffffffffffffff16637c0329f78b8b6040518363ffffffff1660e01b8152600401808373ffffffffffffffffffffffffffffffffffffffff1681526020018281526020019250505060206040518083038186803b1580156139ba57600080fd5b505afa1580156139ce573d6000803e3d6000fd5b505050506040513d60208110156139e457600080fd5b810190808051906020019092919050505060ca60009054906101000a900473ffffffffffffffffffffffffffffffffffffffff1673ffffffffffffffffffffffffffffffffffffffff1663b28a7bad8c6040518263ffffffff1660e01b8152600401808273ffffffffffffffffffffffffffffffffffffffff16815260200191505060206040518083038186803b158015613a7e57600080fd5b505afa158015613a92573d6000803e3d6000fd5b505050506040513d6020811015613aa857600080fd5b8101908080519060200190929190505050613ac288615492565b8760cb60009054906101000a900473ffffffffffffffffffffffffffffffffffffffff1673ffffffffffffffffffffffffffffffffffffffff1663b85ed7e48f8f6040518363ffffffff1660e01b8152600401808373ffffffffffffffffffffffffffffffffffffffff1681526020018281526020019250505060206040518083038186803b158015613b5457600080fd5b505afa158015613b68573d6000803e3d6000fd5b505050506040513d6020811015613b7e57600080fd5b81019080805190602001909291905050508961549c565b60ca60009054906101000a900473ffffffffffffffffffffffffffffffffffffffff1673ffffffffffffffffffffffffffffffffffffffff16635a3c652d878760016040518463ffffffff1660e01b8152600401808473ffffffffffffffffffffffffffffffffffffffff16815260200183815260200182151581526020019350505050600060405180830381600087803b158015613c3357600080fd5b505af1158015613c47573d6000803e3d6000fd5b505050508173ffffffffffffffffffffffffffffffffffffffff163373ffffffffffffffffffffffffffffffffffffffff168773ffffffffffffffffffffffffffffffffffffffff167f5764dbcef91eb6f946584f4ea671217c686fa7e858ce4f9f42d08422b86556a9876020015189604051808381526020018281526020019250505060405180910390a46141fb565b6140bc846020015160ca60009054906101000a900473ffffffffffffffffffffffffffffffffffffffff1673ffffffffffffffffffffffffffffffffffffffff1663511bc84c89896040518363ffffffff1660e01b8152600401808373ffffffffffffffffffffffffffffffffffffffff1681526020018281526020019250505060206040518083038186803b158015613d7157600080fd5b505afa158015613d85573d6000803e3d6000fd5b505050506040513d6020811015613d9b57600080fd5b81019080805190602001909291905050501560ca60009054906101000a900473ffffffffffffffffffffffffffffffffffffffff1673ffffffffffffffffffffffffffffffffffffffff1663834759216040518163ffffffff1660e01b815260040160206040518083038186803b158015613e1557600080fd5b505afa158015613e29573d6000803e3d6000fd5b505050506040513d6020811015613e3f57600080fd5b810190808051906020019092919050505060cb60009054906101000a900473ffffffffffffffffffffffffffffffffffffffff1673ffffffffffffffffffffffffffffffffffffffff16637c0329f78b8b6040518363ffffffff1660e01b8152600401808373ffffffffffffffffffffffffffffffffffffffff1681526020018281526020019250505060206040518083038186803b158015613ee157600080fd5b505afa158015613ef5573d6000803e3d6000fd5b505050506040513d6020811015613f0b57600080fd5b810190808051906020019092919050505060ca60009054906101000a900473ffffffffffffffffffffffffffffffffffffffff1673ffffffffffffffffffffffffffffffffffffffff1663a36fe8d88c6040518263ffffffff1660e01b8152600401808273ffffffffffffffffffffffffffffffffffffffff16815260200191505060206040518083038186803b158015613fa557600080fd5b505afa158015613fb9573d6000803e3d6000fd5b505050506040513d6020811015613fcf57600080fd5b8101908080519060200190929190505050613fe988615492565b8760cb60009054906101000a900473ffffffffffffffffffffffffffffffffffffffff1673ffffffffffffffffffffffffffffffffffffffff1663b85ed7e48f8f6040518363ffffffff1660e01b8152600401808373ffffffffffffffffffffffffffffffffffffffff1681526020018281526020019250505060206040518083038186803b15801561407b57600080fd5b505afa15801561408f573d6000803e3d6000fd5b505050506040513d60208110156140a557600080fd5b8101908080519060200190929190505050896158e0565b60ca60009054906101000a900473ffffffffffffffffffffffffffffffffffffffff1673ffffffffffffffffffffffffffffffffffffffff16635a3c652d878760016040518463ffffffff1660e01b8152600401808473ffffffffffffffffffffffffffffffffffffffff16815260200183815260200182151581526020019350505050600060405180830381600087803b15801561415a57600080fd5b505af115801561416e573d6000803e3d6000fd5b505050508173ffffffffffffffffffffffffffffffffffffffff163373ffffffffffffffffffffffffffffffffffffffff168773ffffffffffffffffffffffffffffffffffffffff167f5764dbcef91eb6f946584f4ea671217c686fa7e858ce4f9f42d08422b86556a9876020015189604051808381526020018281526020019250505060405180910390a45b505050505050565b61422a60656000848152602001908152602001600020600201546142256146b6565b611de9565b61427f576040517f08c379a00000000000000000000000000000000000000000000000000000000081526004018080602001828103825260308152602001806182606030913960400191505060405180910390fd5b6142898282614752565b5050565b6000609860009054906101000a900473ffffffffffffffffffffffffffffffffffffffff1673ffffffffffffffffffffffffffffffffffffffff1663e3a9db1a836040518263ffffffff1660e01b8152600401808273ffffffffffffffffffffffffffffffffffffffff16815260200191505060206040518083038186803b15801561431857600080fd5b505afa15801561432c573d6000803e3d6000fd5b505050506040513d602081101561434257600080fd5b81019080805190602001909291905050509050919050565b6143626146b6565b73ffffffffffffffffffffffffffffffffffffffff16614380611d0c565b73ffffffffffffffffffffffffffffffffffffffff1614614409576040517f08c379a00000000000000000000000000000000000000000000000000000000081526004018080602001828103825260208152602001807f4f776e61626c653a2063616c6c6572206973206e6f7420746865206f776e657281525060200191505060405180910390fd5b600073ffffffffffffffffffffffffffffffffffffffff168173ffffffffffffffffffffffffffffffffffffffff16141561448f576040517f08c379a00000000000000000000000000000000000000000000000000000000081526004018080602001828103825260268152602001806180916026913960400191505060405180910390fd5b8073ffffffffffffffffffffffffffffffffffffffff16603360009054906101000a900473ffffffffffffffffffffffffffffffffffffffff1673ffffffffffffffffffffffffffffffffffffffff167f8be0079c531659141344cd1fd0a4f28419497f9722a3daafe3b4186f6b6457e060405160405180910390a380603360006101000a81548173ffffffffffffffffffffffffffffffffffffffff021916908373ffffffffffffffffffffffffffffffffffffffff16021790555050565b600060019054906101000a900460ff168061456e575061456d6147e6565b5b80614584575060008054906101000a900460ff16155b6145d9576040517f08c379a000000000000000000000000000000000000000000000000000000000815260040180806020018281038252602e815260200180618290602e913960400191505060405180910390fd5b60008060019054906101000a900460ff161590508015614629576001600060016101000a81548160ff02191690831515021790555060016000806101000a81548160ff0219169083151502179055505b60405161463590616c29565b604051809103906000f080158015614651573d6000803e3d6000fd5b50609760006101000a81548173ffffffffffffffffffffffffffffffffffffffff021916908373ffffffffffffffffffffffffffffffffffffffff16021790555080156146b35760008060016101000a81548160ff0219169083151502179055505b50565b600033905090565b6146e6816065600085815260200190815260200160002060000161608c90919063ffffffff16565b1561474e576146f36146b6565b73ffffffffffffffffffffffffffffffffffffffff168173ffffffffffffffffffffffffffffffffffffffff16837f2f8788117e7eff1d82e926ec794901d17c78024a50270940304540a733656f0d60405160405180910390a45b5050565b61477a81606560008581526020019081526020016000206000016160bc90919063ffffffff16565b156147e2576147876146b6565b73ffffffffffffffffffffffffffffffffffffffff168173ffffffffffffffffffffffffffffffffffffffff16837ff6391f5c32d9c69d2a47ea670b442974b53935d1edc7fd64eb21e047a839171b60405160405180910390a45b5050565b60006147f1306160ec565b15905090565b60008373ffffffffffffffffffffffffffffffffffffffff1660cd60008573ffffffffffffffffffffffffffffffffffffffff1673ffffffffffffffffffffffffffffffffffffffff168152602001908152602001600020600084815260200190815260200160002060000160009054906101000a900473ffffffffffffffffffffffffffffffffffffffff1673ffffffffffffffffffffffffffffffffffffffff161490509392505050565b6148ac616bbf565b60cd60008473ffffffffffffffffffffffffffffffffffffffff1673ffffffffffffffffffffffffffffffffffffffff16815260200190815260200160002060008381526020019081526020016000206040518060600160405290816000820160009054906101000a900473ffffffffffffffffffffffffffffffffffffffff1673ffffffffffffffffffffffffffffffffffffffff1673ffffffffffffffffffffffffffffffffffffffff1681526020016000820160149054906101000a900460ff1660ff1660ff1681526020016001820154815250509050600073ffffffffffffffffffffffffffffffffffffffff16816000015173ffffffffffffffffffffffffffffffffffffffff1614156149c557506149e8565b6149cf8383615392565b6149e68160200151826000015183604001516160ff565b505b5050565b600060019054906101000a900460ff1680614a0b5750614a0a6147e6565b5b80614a21575060008054906101000a900460ff16155b614a76576040517f08c379a000000000000000000000000000000000000000000000000000000000815260040180806020018281038252602e815260200180618290602e913960400191505060405180910390fd5b60008060019054906101000a900460ff161590508015614ac6576001600060016101000a81548160ff02191690831515021790555060016000806101000a81548160ff0219169083151502179055505b614ace6161b9565b614ad66162b7565b8015614af75760008060016101000a81548160ff0219169083151502179055505b50565b600060019054906101000a900460ff1680614b195750614b186147e6565b5b80614b2f575060008054906101000a900460ff16155b614b84576040517f08c379a000000000000000000000000000000000000000000000000000000000815260040180806020018281038252602e815260200180618290602e913960400191505060405180910390fd5b60008060019054906101000a900460ff161590508015614bd4576001600060016101000a81548160ff02191690831515021790555060016000806101000a81548160ff0219169083151502179055505b614bdc6161b9565b614be461645e565b8015614c055760008060016101000a81548160ff0219169083151502179055505b50565b614c1282826146be565b5050565b600082905060008173ffffffffffffffffffffffffffffffffffffffff16636352211e846040518263ffffffff1660e01b81526004018082815260200191505060206040518083038186803b158015614c6e57600080fd5b505afa158015614c82573d6000803e3d6000fd5b505050506040513d6020811015614c9857600080fd5b810190808051906020019092919050505090508173ffffffffffffffffffffffffffffffffffffffff1663e985e9c582306040518363ffffffff1660e01b8152600401808373ffffffffffffffffffffffffffffffffffffffff1681526020018273ffffffffffffffffffffffffffffffffffffffff1681526020019250505060206040518083038186803b158015614d3057600080fd5b505afa158015614d44573d6000803e3d6000fd5b505050506040513d6020811015614d5a57600080fd5b8101908080519060200190929190505050614dc0576040517f08c379a000000000000000000000000000000000000000000000000000000000815260040180806020018281038252602181526020018061838c6021913960400191505060405180910390fd5b50505050565b60008290503373ffffffffffffffffffffffffffffffffffffffff168173ffffffffffffffffffffffffffffffffffffffff16636352211e846040518263ffffffff1660e01b81526004018082815260200191505060206040518083038186803b158015614e3357600080fd5b505afa158015614e47573d6000803e3d6000fd5b505050506040513d6020811015614e5d57600080fd5b810190808051906020019092919050505073ffffffffffffffffffffffffffffffffffffffff1614614ef7576040517f08c379a000000000000000000000000000000000000000000000000000000000815260040180806020018281038252601e8152602001807f73656e646572206d7573742062652074686520746f6b656e206f776e6572000081525060200191505060405180910390fd5b505050565b6040518060400160405280600073ffffffffffffffffffffffffffffffffffffffff168152602001600081525060cc60008473ffffffffffffffffffffffffffffffffffffffff1673ffffffffffffffffffffffffffffffffffffffff168152602001908152602001600020600083815260200190815260200160002060008201518160000160006101000a81548173ffffffffffffffffffffffffffffffffffffffff021916908373ffffffffffffffffffffffffffffffffffffffff160217905550602082015181600101559050505050565b600060019054906101000a900460ff1680614ff05750614fef6147e6565b5b80615006575060008054906101000a900460ff16155b61505b576040517f08c379a000000000000000000000000000000000000000000000000000000000815260040180806020018281038252602e815260200180618290602e913960400191505060405180910390fd5b60008060019054906101000a900460ff1615905080156150ab576001600060016101000a81548160ff02191690831515021790555060016000806101000a81548160ff0219169083151502179055505b6150b361655c565b80156150d45760008060016101000a81548160ff0219169083151502179055505b50565b60006150e68360000183616745565b60001c905092915050565b60008083905060cc60008573ffffffffffffffffffffffffffffffffffffffff1673ffffffffffffffffffffffffffffffffffffffff168152602001908152602001600020600084815260200190815260200160002060000160009054906101000a900473ffffffffffffffffffffffffffffffffffffffff1673ffffffffffffffffffffffffffffffffffffffff168173ffffffffffffffffffffffffffffffffffffffff16636352211e856040518263ffffffff1660e01b81526004018082815260200191505060206040518083038186803b1580156151d257600080fd5b505afa1580156151e6573d6000803e3d6000fd5b505050506040513d60208110156151fc57600080fd5b810190808051906020019092919050505073ffffffffffffffffffffffffffffffffffffffff161491505092915050565b6000615255836000018373ffffffffffffffffffffffffffffffffffffffff1660001b6167c8565b905092915050565b6000808284019050838110156152db576040517f08c379a000000000000000000000000000000000000000000000000000000000815260040180806020018281038252601b8152602001807f536166654d6174683a206164646974696f6e206f766572666c6f77000000000081525060200191505060405180910390fd5b8091505092915050565b60008073ffffffffffffffffffffffffffffffffffffffff1660cd60008573ffffffffffffffffffffffffffffffffffffffff1673ffffffffffffffffffffffffffffffffffffffff168152602001908152602001600020600084815260200190815260200160002060000160009054906101000a900473ffffffffffffffffffffffffffffffffffffffff1673ffffffffffffffffffffffffffffffffffffffff161415905092915050565b6040518060600160405280600073ffffffffffffffffffffffffffffffffffffffff168152602001600060ff168152602001600081525060cd60008473ffffffffffffffffffffffffffffffffffffffff1673ffffffffffffffffffffffffffffffffffffffff168152602001908152602001600020600083815260200190815260200160002060008201518160000160006101000a81548173ffffffffffffffffffffffffffffffffffffffff021916908373ffffffffffffffffffffffffffffffffffffffff16021790555060208201518160000160146101000a81548160ff021916908360ff160217905550604082015181600101559050505050565b6000819050919050565b60648760ff1611156154f9576040517f08c379a000000000000000000000000000000000000000000000000000000000815260040180806020018281038252603281526020018061822e6032913960400191505060405180910390fd5b60646155148660ff168860ff1661525d90919063ffffffff16565b111561556b576040517f08c379a00000000000000000000000000000000000000000000000000000000081526004018080602001828103825260288152602001806182be6028913960400191505060405180910390fd5b600073ffffffffffffffffffffffffffffffffffffffff168473ffffffffffffffffffffffffffffffffffffffff16141580156155d55750600073ffffffffffffffffffffffffffffffffffffffff168173ffffffffffffffffffffffffffffffffffffffff1614155b801561560e5750600073ffffffffffffffffffffffffffffffffffffffff168373ffffffffffffffffffffffffffffffffffffffff1614155b80156156475750600073ffffffffffffffffffffffffffffffffffffffff168273ffffffffffffffffffffffffffffffffffffffff1614155b61569c576040517f08c379a0000000000000000000000000000000000000000000000000000000008152600401808060200182810382526029815260200180617fdd6029913960400191505060405180910390fd5b6156a4616c36565b6156ae8a896167eb565b816000600481106156bb57fe5b6020020181815250506156cf898b8861681e565b816002600481106156dc57fe5b602002018181525050615709816002600481106156f557fe5b60200201518b61684390919063ffffffff16565b8160036004811061571657fe5b60200201818152505060008160006004811061572e57fe5b602002015111156157aa57615754848260006004811061574a57fe5b60200201516168c6565b8060006004811061576157fe5b60200201518473ffffffffffffffffffffffffffffffffffffffff167fa9fc7bb5e4b4d7971ef0c84708e14f2f199e11a9715d4886572e0304e8c73fe860405160405180910390a35b6000816002600481106157b957fe5b6020020151111561583f576157df82826002600481106157d557fe5b60200201516168c6565b8173ffffffffffffffffffffffffffffffffffffffff167f8417e0b8385f07a54787925d3a4071ef159568b5572174d7a7495c3eca0090d18260026004811061582457fe5b60200201516040518082815260200191505060405180910390a25b60008160036004811061584e57fe5b602002015111156158d457615874858260036004811061586a57fe5b60200201516168c6565b8473ffffffffffffffffffffffffffffffffffffffff167fafc216cffbed749a53a4b413bd36b80b147454a28fd3115902e58a501ffba382826003600481106158b957fe5b60200201516040518082815260200191505060405180910390a25b50505050505050505050565b60648760ff16111561593d576040517f08c379a000000000000000000000000000000000000000000000000000000000815260040180806020018281038252603281526020018061822e6032913960400191505060405180910390fd5b60646159588660ff168860ff1661525d90919063ffffffff16565b11156159af576040517f08c379a00000000000000000000000000000000000000000000000000000000081526004018080602001828103825260288152602001806182be6028913960400191505060405180910390fd5b600073ffffffffffffffffffffffffffffffffffffffff168473ffffffffffffffffffffffffffffffffffffffff1614158015615a195750600073ffffffffffffffffffffffffffffffffffffffff168173ffffffffffffffffffffffffffffffffffffffff1614155b8015615a525750600073ffffffffffffffffffffffffffffffffffffffff168373ffffffffffffffffffffffffffffffffffffffff1614155b8015615a8b5750600073ffffffffffffffffffffffffffffffffffffffff168273ffffffffffffffffffffffffffffffffffffffff1614155b615ae0576040517f08c379a0000000000000000000000000000000000000000000000000000000008152600401808060200182810382526029815260200180617fdd6029913960400191505060405180910390fd5b615ae8616c36565b615af28a896167eb565b81600060048110615aff57fe5b602002018181525050615b13898b88616937565b81600260048110615b2057fe5b602002018181525050615b4d81600260048110615b3957fe5b60200201518b61684390919063ffffffff16565b81600360048110615b5a57fe5b602002018181525050600081600060048110615b7257fe5b60200201511115615bee57615b988482600060048110615b8e57fe5b60200201516168c6565b80600060048110615ba557fe5b60200201518473ffffffffffffffffffffffffffffffffffffffff167f30959225fb4a138d6a38478ac258d8a7f8dccfb908b036b9f12afe9d2f1ebcb760405160405180910390a35b600081600260048110615bfd57fe5b60200201511115615c8357615c238282600260048110615c1957fe5b60200201516168c6565b8173ffffffffffffffffffffffffffffffffffffffff167fb7b5ff0f53e5ef824dff7f1fcf06b4a5067ddb2a2d387c95a606397692fea09382600260048110615c6857fe5b60200201516040518082815260200191505060405180910390a25b600081600360048110615c9257fe5b60200201511115615d1857615cb88582600360048110615cae57fe5b60200201516168c6565b8473ffffffffffffffffffffffffffffffffffffffff167ff5a5ff0237e3f4ba0a79c87a698d741c35373f699f010ed55ff74b202bcd220882600360048110615cfd57fe5b60200201516040518082815260200191505060405180910390a25b50505050505050505050565b600080831415615d375760009050615da4565b6000828402905082848281615d4857fe5b0414615d9f576040517f08c379a000000000000000000000000000000000000000000000000000000000815260040180806020018281038252602181526020018061836b6021913960400191505060405180910390fd5b809150505b92915050565b6000808211615e21576040517f08c379a000000000000000000000000000000000000000000000000000000000815260040180806020018281038252601a8152602001807f536166654d6174683a206469766973696f6e206279207a65726f00000000000081525060200191505060405180910390fd5b818381615e2a57fe5b04905092915050565b600073ffffffffffffffffffffffffffffffffffffffff168373ffffffffffffffffffffffffffffffffffffffff161415615ed6576040517f08c379a000000000000000000000000000000000000000000000000000000000815260040180806020018281038252601b8152602001807f4269646465722063616e6e6f74206265203020616464726573732e000000000081525060200191505060405180910390fd5b60405180606001604052808473ffffffffffffffffffffffffffffffffffffffff16815260200160ca60009054906101000a900473ffffffffffffffffffffffffffffffffffffffff1673ffffffffffffffffffffffffffffffffffffffff1663834759216040518163ffffffff1660e01b815260040160206040518083038186803b158015615f6557600080fd5b505afa158015615f79573d6000803e3d6000fd5b505050506040513d6020811015615f8f57600080fd5b810190808051906020019092919050505060ff1681526020018581525060cd60008473ffffffffffffffffffffffffffffffffffffffff1673ffffffffffffffffffffffffffffffffffffffff168152602001908152602001600020600083815260200190815260200160002060008201518160000160006101000a81548173ffffffffffffffffffffffffffffffffffffffff021916908373ffffffffffffffffffffffffffffffffffffffff16021790555060208201518160000160146101000a81548160ff021916908360ff1602179055506040820151816001015590505050505050565b60006160858260000161695b565b9050919050565b60006160b4836000018373ffffffffffffffffffffffffffffffffffffffff1660001b61696c565b905092915050565b60006160e4836000018373ffffffffffffffffffffffffffffffffffffffff1660001b6169dc565b905092915050565b600080823b905060008111915050919050565b600073ffffffffffffffffffffffffffffffffffffffff168273ffffffffffffffffffffffffffffffffffffffff161415616185576040517f08c379a00000000000000000000000000000000000000000000000000000000081526004018080602001828103825260298152602001806180356029913960400191505060405180910390fd5b60008111156161b4576161b3826161ae61619f84876167eb565b8461525d90919063ffffffff16565b6168c6565b5b505050565b600060019054906101000a900460ff16806161d857506161d76147e6565b5b806161ee575060008054906101000a900460ff16155b616243576040517f08c379a000000000000000000000000000000000000000000000000000000000815260040180806020018281038252602e815260200180618290602e913960400191505060405180910390fd5b60008060019054906101000a900460ff161590508015616293576001600060016101000a81548160ff02191690831515021790555060016000806101000a81548160ff0219169083151502179055505b80156162b45760008060016101000a81548160ff0219169083151502179055505b50565b600060019054906101000a900460ff16806162d657506162d56147e6565b5b806162ec575060008054906101000a900460ff16155b616341576040517f08c379a000000000000000000000000000000000000000000000000000000000815260040180806020018281038252602e815260200180618290602e913960400191505060405180910390fd5b60008060019054906101000a900460ff161590508015616391576001600060016101000a81548160ff02191690831515021790555060016000806101000a81548160ff0219169083151502179055505b600061639b6146b6565b905080603360006101000a81548173ffffffffffffffffffffffffffffffffffffffff021916908373ffffffffffffffffffffffffffffffffffffffff1602179055508073ffffffffffffffffffffffffffffffffffffffff16600073ffffffffffffffffffffffffffffffffffffffff167f8be0079c531659141344cd1fd0a4f28419497f9722a3daafe3b4186f6b6457e060405160405180910390a350801561645b5760008060016101000a81548160ff0219169083151502179055505b50565b600060019054906101000a900460ff168061647d575061647c6147e6565b5b80616493575060008054906101000a900460ff16155b6164e8576040517f08c379a000000000000000000000000000000000000000000000000000000000815260040180806020018281038252602e815260200180618290602e913960400191505060405180910390fd5b60008060019054906101000a900460ff161590508015616538576001600060016101000a81548160ff02191690831515021790555060016000806101000a81548160ff0219169083151502179055505b80156165595760008060016101000a81548160ff0219169083151502179055505b50565b600060019054906101000a900460ff168061657b575061657a6147e6565b5b80616591575060008054906101000a900460ff16155b6165e6576040517f08c379a000000000000000000000000000000000000000000000000000000000815260040180806020018281038252602e815260200180618290602e913960400191505060405180910390fd5b60008060019054906101000a900460ff161590508015616636576001600060016101000a81548160ff02191690831515021790555060016000806101000a81548160ff0219169083151502179055505b60405161664290616c58565b604051809103906000f08015801561665e573d6000803e3d6000fd5b50609860006101000a81548173ffffffffffffffffffffffffffffffffffffffff021916908373ffffffffffffffffffffffffffffffffffffffff160217905550609860009054906101000a900473ffffffffffffffffffffffffffffffffffffffff1673ffffffffffffffffffffffffffffffffffffffff16638129fc1c6040518163ffffffff1660e01b8152600401600060405180830381600087803b15801561670957600080fd5b505af115801561671d573d6000803e3d6000fd5b5050505080156167425760008060016101000a81548160ff0219169083151502179055505b50565b6000818360000180549050116167a6576040517f08c379a0000000000000000000000000000000000000000000000000000000008152600401808060200182810382526022815260200180617f996022913960400191505060405180910390fd5b8260000182815481106167b557fe5b9060005260206000200154905092915050565b600080836001016000848152602001908152602001600020541415905092915050565b600061681660646168088460ff1686615d2490919063ffffffff16565b615daa90919063ffffffff16565b905092915050565b600083156168375761683083836167eb565b905061683c565b600090505b9392505050565b6000828211156168bb576040517f08c379a000000000000000000000000000000000000000000000000000000000815260040180806020018281038252601e8152602001807f536166654d6174683a207375627472616374696f6e206f766572666c6f77000081525060200191505060405180910390fd5b818303905092915050565b60006168d28383616ac4565b9050806168e4576168e38383616b17565b5b8273ffffffffffffffffffffffffffffffffffffffff167fd88d14434dd4c47d8cd227a931f475ddfaa46a219994f6c5094bd04d940c3c1b836040518082815260200191505060405180910390a2505050565b60008361694f5761694883836167eb565b9050616954565b600090505b9392505050565b600081600001805490509050919050565b600061697883836167c8565b6169d15782600001829080600181540180825580915050600190039060005260206000200160009091909190915055826000018054905083600101600084815260200190815260200160002081905550600190506169d6565b600090505b92915050565b60008083600101600084815260200190815260200160002054905060008114616ab85760006001820390506000600186600001805490500390506000866000018281548110616a2757fe5b9060005260206000200154905080876000018481548110616a4457fe5b9060005260206000200181905550600183018760010160008381526020019081526020016000208190555086600001805480616a7c57fe5b60019003818190600052602060002001600090559055866001016000878152602001908152602001600020600090556001945050505050616abe565b60009150505b92915050565b60008273ffffffffffffffffffffffffffffffffffffffff166108fc839081150290604051600060405180830381858888f19350505050158015616b0c573d6000803e3d6000fd5b506001905092915050565b609860009054906101000a900473ffffffffffffffffffffffffffffffffffffffff1673ffffffffffffffffffffffffffffffffffffffff1663f340fa0182846040518363ffffffff1660e01b8152600401808273ffffffffffffffffffffffffffffffffffffffff1681526020019150506000604051808303818588803b158015616ba257600080fd5b505af1158015616bb6573d6000803e3d6000fd5b50505050505050565b6040518060600160405280600073ffffffffffffffffffffffffffffffffffffffff168152602001600060ff168152602001600081525090565b6040518060400160405280600073ffffffffffffffffffffffffffffffffffffffff168152602001600081525090565b61010080616c6683390190565b6040518060800160405280600490602082028036833780820191505090505090565b6111e680616d668339019056fe608060405234801561001057600080fd5b5060e18061001f6000396000f3fe608060405260043610601c5760003560e01c80637d286e48146021575b600080fd5b606060048036036020811015603557600080fd5b81019080803573ffffffffffffffffffffffffffffffffffffffff1690602001909291905050506062565b005b8073ffffffffffffffffffffffffffffffffffffffff166108fc349081150290604051600060405180830381858888f1935050505015801560a7573d6000803e3d6000fd5b505056fea26469706673582212201c4aabc2e89f52a625592d2b04fb201fce49d5a2f68db45b86e0682342e5171f64736f6c634300060c0033608060405234801561001057600080fd5b506111c6806100206000396000f3fe6080604052600436106100705760003560e01c80638da5cb5b1161004e5780638da5cb5b146100f4578063e3a9db1a14610135578063f2fde38b1461019a578063f340fa01146101eb57610070565b806351cff8d914610075578063715018a6146100c65780638129fc1c146100dd575b600080fd5b34801561008157600080fd5b506100c46004803603602081101561009857600080fd5b81019080803573ffffffffffffffffffffffffffffffffffffffff16906020019092919050505061022f565b005b3480156100d257600080fd5b506100db6103e2565b005b3480156100e957600080fd5b506100f2610552565b005b34801561010057600080fd5b50610109610658565b604051808273ffffffffffffffffffffffffffffffffffffffff16815260200191505060405180910390f35b34801561014157600080fd5b506101846004803603602081101561015857600080fd5b81019080803573ffffffffffffffffffffffffffffffffffffffff169060200190929190505050610682565b6040518082815260200191505060405180910390f35b3480156101a657600080fd5b506101e9600480360360208110156101bd57600080fd5b81019080803573ffffffffffffffffffffffffffffffffffffffff1690602001909291905050506106cb565b005b61022d6004803603602081101561020157600080fd5b81019080803573ffffffffffffffffffffffffffffffffffffffff1690602001909291905050506108c0565b005b610237610a5b565b73ffffffffffffffffffffffffffffffffffffffff16610255610658565b73ffffffffffffffffffffffffffffffffffffffff16146102de576040517f08c379a00000000000000000000000000000000000000000000000000000000081526004018080602001828103825260208152602001807f4f776e61626c653a2063616c6c6572206973206e6f7420746865206f776e657281525060200191505060405180910390fd5b6000606560008373ffffffffffffffffffffffffffffffffffffffff1673ffffffffffffffffffffffffffffffffffffffff1681526020019081526020016000205490506000606560008473ffffffffffffffffffffffffffffffffffffffff1673ffffffffffffffffffffffffffffffffffffffff16815260200190815260200160002081905550610390818373ffffffffffffffffffffffffffffffffffffffff16610a6390919063ffffffff16565b8173ffffffffffffffffffffffffffffffffffffffff167f7084f5476618d8e60b11ef0d7d3f06914655adb8793e28ff7f018d4c76d505d5826040518082815260200191505060405180910390a25050565b6103ea610a5b565b73ffffffffffffffffffffffffffffffffffffffff16610408610658565b73ffffffffffffffffffffffffffffffffffffffff1614610491576040517f08c379a00000000000000000000000000000000000000000000000000000000081526004018080602001828103825260208152602001807f4f776e61626c653a2063616c6c6572206973206e6f7420746865206f776e657281525060200191505060405180910390fd5b600073ffffffffffffffffffffffffffffffffffffffff16603360009054906101000a900473ffffffffffffffffffffffffffffffffffffffff1673ffffffffffffffffffffffffffffffffffffffff167f8be0079c531659141344cd1fd0a4f28419497f9722a3daafe3b4186f6b6457e060405160405180910390a36000603360006101000a81548173ffffffffffffffffffffffffffffffffffffffff021916908373ffffffffffffffffffffffffffffffffffffffff160217905550565b600060019054906101000a900460ff16806105715750610570610b9d565b5b80610587575060008054906101000a900460ff16155b6105dc576040517f08c379a000000000000000000000000000000000000000000000000000000000815260040180806020018281038252602e815260200180611163602e913960400191505060405180910390fd5b60008060019054906101000a900460ff16159050801561062c576001600060016101000a81548160ff02191690831515021790555060016000806101000a81548160ff0219169083151502179055505b610634610bae565b80156106555760008060016101000a81548160ff0219169083151502179055505b50565b6000603360009054906101000a900473ffffffffffffffffffffffffffffffffffffffff16905090565b6000606560008373ffffffffffffffffffffffffffffffffffffffff1673ffffffffffffffffffffffffffffffffffffffff168152602001908152602001600020549050919050565b6106d3610a5b565b73ffffffffffffffffffffffffffffffffffffffff166106f1610658565b73ffffffffffffffffffffffffffffffffffffffff161461077a576040517f08c379a00000000000000000000000000000000000000000000000000000000081526004018080602001828103825260208152602001807f4f776e61626c653a2063616c6c6572206973206e6f7420746865206f776e657281525060200191505060405180910390fd5b600073ffffffffffffffffffffffffffffffffffffffff168173ffffffffffffffffffffffffffffffffffffffff161415610800576040517f08c379a00000000000000000000000000000000000000000000000000000000081526004018080602001828103825260268152602001806111036026913960400191505060405180910390fd5b8073ffffffffffffffffffffffffffffffffffffffff16603360009054906101000a900473ffffffffffffffffffffffffffffffffffffffff1673ffffffffffffffffffffffffffffffffffffffff167f8be0079c531659141344cd1fd0a4f28419497f9722a3daafe3b4186f6b6457e060405160405180910390a380603360006101000a81548173ffffffffffffffffffffffffffffffffffffffff021916908373ffffffffffffffffffffffffffffffffffffffff16021790555050565b6108c8610a5b565b73ffffffffffffffffffffffffffffffffffffffff166108e6610658565b73ffffffffffffffffffffffffffffffffffffffff161461096f576040517f08c379a00000000000000000000000000000000000000000000000000000000081526004018080602001828103825260208152602001807f4f776e61626c653a2063616c6c6572206973206e6f7420746865206f776e657281525060200191505060405180910390fd5b60003490506109c681606560008573ffffffffffffffffffffffffffffffffffffffff1673ffffffffffffffffffffffffffffffffffffffff16815260200190815260200160002054610cc490919063ffffffff16565b606560008473ffffffffffffffffffffffffffffffffffffffff1673ffffffffffffffffffffffffffffffffffffffff168152602001908152602001600020819055508173ffffffffffffffffffffffffffffffffffffffff167f2da466a7b24304f47e87fa2e1e5a81b9831ce54fec19055ce277ca2f39ba42c4826040518082815260200191505060405180910390a25050565b600033905090565b80471015610ad9576040517f08c379a000000000000000000000000000000000000000000000000000000000815260040180806020018281038252601d8152602001807f416464726573733a20696e73756666696369656e742062616c616e636500000081525060200191505060405180910390fd5b60008273ffffffffffffffffffffffffffffffffffffffff168260405180600001905060006040518083038185875af1925050503d8060008114610b39576040519150601f19603f3d011682016040523d82523d6000602084013e610b3e565b606091505b5050905080610b98576040517f08c379a000000000000000000000000000000000000000000000000000000000815260040180806020018281038252603a815260200180611129603a913960400191505060405180910390fd5b505050565b6000610ba830610d4c565b15905090565b600060019054906101000a900460ff1680610bcd5750610bcc610b9d565b5b80610be3575060008054906101000a900460ff16155b610c38576040517f08c379a000000000000000000000000000000000000000000000000000000000815260040180806020018281038252602e815260200180611163602e913960400191505060405180910390fd5b60008060019054906101000a900460ff161590508015610c88576001600060016101000a81548160ff02191690831515021790555060016000806101000a81548160ff0219169083151502179055505b610c90610d5f565b610c98610e5d565b610ca0611004565b8015610cc15760008060016101000a81548160ff0219169083151502179055505b50565b600080828401905083811015610d42576040517f08c379a000000000000000000000000000000000000000000000000000000000815260040180806020018281038252601b8152602001807f536166654d6174683a206164646974696f6e206f766572666c6f77000000000081525060200191505060405180910390fd5b8091505092915050565b600080823b905060008111915050919050565b600060019054906101000a900460ff1680610d7e5750610d7d610b9d565b5b80610d94575060008054906101000a900460ff16155b610de9576040517f08c379a000000000000000000000000000000000000000000000000000000000815260040180806020018281038252602e815260200180611163602e913960400191505060405180910390fd5b60008060019054906101000a900460ff161590508015610e39576001600060016101000a81548160ff02191690831515021790555060016000806101000a81548160ff0219169083151502179055505b8015610e5a5760008060016101000a81548160ff0219169083151502179055505b50565b600060019054906101000a900460ff1680610e7c5750610e7b610b9d565b5b80610e92575060008054906101000a900460ff16155b610ee7576040517f08c379a000000000000000000000000000000000000000000000000000000000815260040180806020018281038252602e815260200180611163602e913960400191505060405180910390fd5b60008060019054906101000a900460ff161590508015610f37576001600060016101000a81548160ff02191690831515021790555060016000806101000a81548160ff0219169083151502179055505b6000610f41610a5b565b905080603360006101000a81548173ffffffffffffffffffffffffffffffffffffffff021916908373ffffffffffffffffffffffffffffffffffffffff1602179055508073ffffffffffffffffffffffffffffffffffffffff16600073ffffffffffffffffffffffffffffffffffffffff167f8be0079c531659141344cd1fd0a4f28419497f9722a3daafe3b4186f6b6457e060405160405180910390a35080156110015760008060016101000a81548160ff0219169083151502179055505b50565b600060019054906101000a900460ff16806110235750611022610b9d565b5b80611039575060008054906101000a900460ff16155b61108e576040517f08c379a000000000000000000000000000000000000000000000000000000000815260040180806020018281038252602e815260200180611163602e913960400191505060405180910390fd5b60008060019054906101000a900460ff1615905080156110de576001600060016101000a81548160ff02191690831515021790555060016000806101000a81548160ff0219169083151502179055505b80156110ff5760008060016101000a81548160ff0219169083151502179055505b5056fe4f776e61626c653a206e6577206f776e657220697320746865207a65726f2061646472657373416464726573733a20756e61626c6520746f2073656e642076616c75652c20726563697069656e74206d61792068617665207265766572746564496e697469616c697a61626c653a20636f6e747261637420697320616c726561647920696e697469616c697a6564a2646970667358221220aa14e0debf5e30504e73a4c337c930e63a8e5048b7d863e29c86505f3089d55864736f6c634300060c00337365744945524337323143726561746f72526f79616c74793a3a43616e6e6f742068617665206e756c6c206164647265737320666f72205f6945524337323143726561746f72526f79616c7479456e756d657261626c655365743a20696e646578206f7574206f6620626f756e6473596f7520617265206e6f7420616c6c6f77656420746f20636f6c6c656374204172747061796f75743a3a6e6f207061796565732063616e20626520746865207a65726f2061646472657373416363657373436f6e74726f6c3a2073656e646572206d75737420626520616e2061646d696e20746f206772616e74726566756e643a3a6e6f207061796565732063616e20626520746865207a65726f2061646472657373736166654275793a3a507572636861736520616d6f756e74206d75737420657175616c20657870656374656420616d6f756e744f776e61626c653a206e6577206f776e657220697320746865207a65726f20616464726573736275793a3a546f6b656e7320707269636564206174203020617265206e6f7420666f722073616c652e6269643a3a4d7573742070757263686173652074686520746f6b656e20666f722074686520636f72726563742070726963652e6275793a3a43757272656e7420746f6b656e206f776e6572206d7573742062652074686520706572736f6e20746f206861766520746865206c61746573742070726963652e736166654163636570744269643a3a42696420616d6f756e74206d75737420657175616c20657870656374656420616d6f756e746163636570744269643a3a43616e6e6f7420616363657074206120626964207768656e207468657265206973206e6f6e652e63616e63656c4269643a3a43616e6e6f742063616e63656c2061206269642069662073656e646572206861736e2774206d616465206f6e652e6275793a3a4d7573742070757263686173652074686520746f6b656e20666f722074686520636f727265637420707269636528627579297061796f75743a3a6d61726b6574706c6163652070657263656e746167652063616e6e6f742062652061626f766520313030416363657373436f6e74726f6c3a2073656e646572206d75737420626520616e2061646d696e20746f207265766f6b65496e697469616c697a61626c653a20636f6e747261637420697320616c726561647920696e697469616c697a65647061796f75743a3a70657263656e74616765732063616e6e6f7420676f206265796f6e64203130307365744d61726b6574706c61636553657474696e67733a3a43616e6e6f742068617665206e756c6c206164647265737320666f72205f694d61726b657453657474696e6773636f6e7374727563746f723a3a43616e6e6f742068617665206e756c6c206164647265737320666f72205f6945524337323143726561746f72526f79616c7479536166654d6174683a206d756c7469706c69636174696f6e206f766572666c6f776f776e6572206d757374206861766520617070726f76656420636f6e7472616374636f6e7374727563746f723a3a43616e6e6f742068617665206e756c6c206164647265737320666f72205f694d61726b657453657474696e67736269643a3a4d75737420706c6163652068696768657220626964207468616e206578697374696e6720626964202b206d696e696d756d2070657263656e746167652e416363657373436f6e74726f6c3a2063616e206f6e6c792072656e6f756e636520726f6c657320666f722073656c66a2646970667358221220c16fe6a4036b8997bd8c41b2de3b718d3b99d06bf20a3c86f8b4838530ae262964736f6c634300060c0033",
  "immutableReferences": {},
  "source": "pragma solidity 0.6.12;\n\nimport \"@openzeppelin/contracts-upgradeable/token/ERC721/IERC721Upgradeable.sol\";\nimport '@openzeppelin/contracts-upgradeable/math/SafeMathUpgradeable.sol';\nimport '@openzeppelin/contracts-upgradeable/access/OwnableUpgradeable.sol';\nimport '@openzeppelin/contracts-upgradeable/access/AccessControlUpgradeable.sol';\nimport '@openzeppelin/contracts-upgradeable/proxy/Initializable.sol';\n\n\nimport \"./IERC721CreatorRoyalty.sol\";\nimport \"./IMarketplaceSettings.sol\";\nimport \"./Payments.sol\";\n\n\ncontract SuperRareMarketAuctionV2 is Initializable, OwnableUpgradeable, AccessControlUpgradeable ,Payments {\n    using SafeMathUpgradeable for uint256;\n\n    /////////////////////////////////////////////////////////////////////////\n    // Structs\n    /////////////////////////////////////////////////////////////////////////\n\n    // The active bid for a given token, contains the bidder, the marketplace fee at the time of the bid, and the amount of wei placed on the token\n    struct ActiveBid {\n        address payable bidder;\n        uint8 marketplaceFee;\n        uint256 amount;\n    }\n\n    // The sale price for a given token containing the seller and the amount of wei to be sold for\n    struct SalePrice {\n        address payable seller;\n        uint256 amount;\n    }\n    \n    /////////////////////////////////////////////////////////////////////////\n    // Constants\n    /////////////////////////////////////////////////////////////////////////\n        \n    bytes32 public constant TOKEN_COLLECTOR_ROLE = \"TOKEN_COLLECTOR_ROLE\";\n\n    /////////////////////////////////////////////////////////////////////////\n    // State Variables\n    /////////////////////////////////////////////////////////////////////////\n\n    // Marketplace Settings Interface\n    IMarketplaceSettings public iMarketplaceSettings;\n\n    // Creator Royalty Interface\n    IERC721CreatorRoyalty public iERC721CreatorRoyalty;\n\n    // Mapping from ERC721 contract to mapping of tokenId to sale price.\n    mapping(address => mapping(uint256 => SalePrice)) private tokenPrices;\n\n    // Mapping of ERC721 contract to mapping of token ID to the current bid amount.\n    mapping(address => mapping(uint256 => ActiveBid)) private tokenCurrentBids;\n\n    // A minimum increase in bid amount when out bidding someone.\n    uint8 public minimumBidIncreasePercentage; // 10 = 10%\n\n    /////////////////////////////////////////////////////////////////////////////\n    // Events\n    /////////////////////////////////////////////////////////////////////////////\n    event Sold(\n        address indexed _originContract,\n        address indexed _buyer,\n        address indexed _seller,\n        uint256 _amount,\n        uint256 _tokenId\n    );\n\n    event SetSalePrice(\n        address indexed _originContract,\n        uint256 _amount,\n        uint256 _tokenId\n    );\n\n    event Bid(\n        address indexed _originContract,\n        address indexed _bidder,\n        uint256 _amount,\n        uint256 _tokenId\n    );\n\n    event AcceptBid(\n        address indexed _originContract,\n        address indexed _bidder,\n        address indexed _seller,\n        uint256 _amount,\n        uint256 _tokenId\n    );\n\n    event CancelBid(\n        address indexed _originContract,\n        address indexed _bidder,\n        uint256 _amount,\n        uint256 _tokenId\n    );\n    event collectorRoleGrantedTo(\n        address _collector\n        );\n        \n    event collectorRoleRevokedTo(\n        address _collector\n        );\n    /////////////////////////////////////////////////////////////////////////\n    // initialize\n    /////////////////////////////////////////////////////////////////////////\n    /**\n     * @dev Initializes the contract setting the market settings and creator royalty interfaces.\n     * @param _iMarketSettings address to set as iMarketplaceSettings.\n     * @param _iERC721CreatorRoyalty address to set as iERC721CreatorRoyalty.\n     */\n    function initialize(address _iMarketSettings, address _iERC721CreatorRoyalty) public initializer {\n        require(\n        _iMarketSettings != address(0),\n        \"constructor::Cannot have null address for _iMarketSettings\"\n        );\n\n        require(\n            _iERC721CreatorRoyalty != address(0),\n            \"constructor::Cannot have null address for _iERC721CreatorRoyalty\"\n        );\n        __Ownable_init();\n        __AccessControl_init();\n        Payments.initializePayment();\n        \n        // Grant the contract deployer the default admin role: it will be able\n        // to grant and revoke any roles\n        _setupRole(AccessControlUpgradeable.DEFAULT_ADMIN_ROLE, owner());\n        // Set iMarketSettings\n        iMarketplaceSettings = IMarketplaceSettings(_iMarketSettings);\n\n        // Set iERC721CreatorRoyalty\n        iERC721CreatorRoyalty = IERC721CreatorRoyalty(_iERC721CreatorRoyalty);\n        \n        minimumBidIncreasePercentage = 10;\n    }\n    \n    //Grant Role to Collectors\n    \n    function grantCollectorRole(address _collector) onlyOwner private {\n     \n        grantRole(TOKEN_COLLECTOR_ROLE, _collector);\n        \n        emit collectorRoleGrantedTo(_collector);\n    }\n    \n    //revoke roles\n    function revokeCollectorRole(address _collector) onlyOwner private{\n        revokeRole(TOKEN_COLLECTOR_ROLE, _collector);\n        \n        emit collectorRoleRevokedTo(_collector);\n    }\n    \n    /////////////////////////////////////////////////////////////////////////\n    // setIMarketplaceSettings\n    /////////////////////////////////////////////////////////////////////////\n    /**\n     * @dev Admin function to set the marketplace settings.\n     * Rules:\n     * - only owner\n     * - _address != address(0)\n     * @param _address address of the IMarketplaceSettings.\n     */\n    function setMarketplaceSettings(address _address) public onlyOwner {\n        require(\n            _address != address(0),\n            \"setMarketplaceSettings::Cannot have null address for _iMarketSettings\"\n        );\n\n        iMarketplaceSettings = IMarketplaceSettings(_address);\n    }\n\n    /////////////////////////////////////////////////////////////////////////\n    // setIERC721CreatorRoyalty\n    /////////////////////////////////////////////////////////////////////////\n    /**\n     * @dev Admin function to set the IERC721CreatorRoyalty.\n     * Rules:\n     * - only owner\n     * - _address != address(0)\n     * @param _address address of the IERC721CreatorRoyalty.\n     */\n    function setIERC721CreatorRoyalty(address _address) public onlyOwner {\n        require(\n            _address != address(0),\n            \"setIERC721CreatorRoyalty::Cannot have null address for _iERC721CreatorRoyalty\"\n        );\n\n        iERC721CreatorRoyalty = IERC721CreatorRoyalty(_address);\n    }\n\n    /////////////////////////////////////////////////////////////////////////\n    // setMinimumBidIncreasePercentage\n    /////////////////////////////////////////////////////////////////////////\n    /**\n     * @dev Admin function to set the minimum bid increase percentage.\n     * Rules:\n     * - only owner\n     * @param _percentage uint8 to set as the new percentage.\n     */\n    function setMinimumBidIncreasePercentage(uint8 _percentage)\n        public\n        onlyOwner\n    {\n        minimumBidIncreasePercentage = _percentage;\n    }\n\n    /////////////////////////////////////////////////////////////////////////\n    // Modifiers (as functions)\n    /////////////////////////////////////////////////////////////////////////\n    /**\n     * @dev Checks that the token owner is approved for the ERC721Market\n     * @param _originContract address of the contract storing the token.\n     * @param _tokenId uint256 ID of the token\n     */\n    function ownerMustHaveMarketplaceApproved(\n        address _originContract,\n        uint256 _tokenId\n    ) internal view {\n        IERC721Upgradeable erc721 = IERC721Upgradeable(_originContract);\n        address owner = erc721.ownerOf(_tokenId);\n        require(\n            erc721.isApprovedForAll(owner, address(this)),\n            \"owner must have approved contract\"\n        );\n    }\n\n    /**\n     * @dev Checks that the token is owned by the sender\n     * @param _originContract address of the contract storing the token.\n     * @param _tokenId uint256 ID of the token\n     */\n    function senderMustBeTokenOwner(address _originContract, uint256 _tokenId)\n        internal\n        view\n    {\n        IERC721Upgradeable erc721 = IERC721Upgradeable(_originContract);\n        require(\n            erc721.ownerOf(_tokenId) == msg.sender,\n            \"sender must be the token owner\"\n        );\n    }\n\n    /////////////////////////////////////////////////////////////////////////\n    // setSalePrice\n    /////////////////////////////////////////////////////////////////////////\n    /**\n     * @dev Set the token for sale. The owner of the token must be the sender and have the marketplace approved.\n     * @param _originContract address of the contract storing the token.\n     * @param _tokenId uint256 ID of the token\n     * @param _amount uint256 wei value that the item is for sale\n     */\n    function setSalePrice(\n        address _originContract,\n        uint256 _tokenId,\n        uint256 _amount\n    ) external {\n        \n        // The owner of the token must have the marketplace approved\n        ownerMustHaveMarketplaceApproved(_originContract, _tokenId);\n\n        // The sender must be the token owner\n        senderMustBeTokenOwner(_originContract, _tokenId);\n\n        if (_amount == 0) {\n            // Set not for sale and exit\n            _resetTokenPrice(_originContract, _tokenId);\n            emit SetSalePrice(_originContract, _amount, _tokenId);\n            return;\n        }\n\n        tokenPrices[_originContract][_tokenId] = SalePrice(msg.sender, _amount);\n        emit SetSalePrice(_originContract, _amount, _tokenId);\n    }\n\n    /////////////////////////////////////////////////////////////////////////\n    // safeBuy\n    /////////////////////////////////////////////////////////////////////////\n    /**\n     * @dev Purchase the token with the expected amount. The current token owner must have the marketplace approved.\n     * @param _originContract address of the contract storing the token.\n     * @param _tokenId uint256 ID of the token\n     * @param _amount uint256 wei amount expecting to purchase the token for.\n     */\n    function safeBuy(\n        address _originContract,\n        uint256 _tokenId,\n        uint256 _amount\n    ) external payable {\n        \n        // Make sure the tokenPrice is the expected amount\n        require(\n            tokenPrices[_originContract][_tokenId].amount == _amount,\n            \"safeBuy::Purchase amount must equal expected amount\"\n        );\n        buy(_originContract, _tokenId);\n    }\n\n   /////////////////////////////////////////////////////////////////////////\n    // buy\n    /////////////////////////////////////////////////////////////////////////\n    /**\n     * @dev Purchases the token if it is for sale.\n     * @param _originContract address of the contract storing the token.\n     * @param _tokenId uint256 ID of the token.\n     */\n    function buy(address _originContract, uint256 _tokenId) public payable {\n        require(hasRole(TOKEN_COLLECTOR_ROLE, msg.sender), \"You are not allowed to collect Art\");\n        // The owner of the token must have the marketplace approved\n        ownerMustHaveMarketplaceApproved(_originContract, _tokenId);\n\n        // Check that the person who set the price still owns the token.\n        require(\n            _priceSetterStillOwnsTheToken(_originContract, _tokenId),\n            \"buy::Current token owner must be the person to have the latest price.\"\n        );\n\n        SalePrice memory sp = tokenPrices[_originContract][_tokenId];\n\n        // Check that token is for sale.\n        require(sp.amount > 0, \"buy::Tokens priced at 0 are not for sale.\");\n\n        // Check that enough ether was sent.\n        require(\n            tokenPriceFeeIncluded(_originContract, _tokenId) == msg.value,\n            \"buy::Must purchase the token for the correct price(buy)\"\n        );\n\n        // Get token contract details.\n        IERC721Upgradeable erc721 = IERC721Upgradeable(_originContract);\n        address tokenOwner = erc721.ownerOf(_tokenId);\n\n        // Wipe the token price.\n        _resetTokenPrice(_originContract, _tokenId);\n\n        // Transfer token.\n        erc721.safeTransferFrom(tokenOwner, msg.sender, _tokenId);\n\n        // if the buyer had an existing bid, return it\n        if (_addressHasBidOnToken(msg.sender, _originContract, _tokenId)) {\n            _refundBid(_originContract, _tokenId);\n        }\n        //Made 2 types of Payments in Payments.sol Primary and secondary\n        // Payout all parties.\n        address payable owner = _makePayable(owner());\n        if(!iMarketplaceSettings.hasERC721TokenSold(_originContract, _tokenId)){\n            Payments.payoutPrimary(\n            sp.amount,\n            !iMarketplaceSettings.hasERC721TokenSold(_originContract, _tokenId),\n            iMarketplaceSettings.getMarketplaceFeePercentage(),\n            iERC721CreatorRoyalty.getERC721TokenRoyaltyPercentage(\n                _originContract,\n                _tokenId\n            ),\n            iMarketplaceSettings.getERC721ContractPrimarySaleFeePercentage(\n                _originContract\n            ),\n            _makePayable(tokenOwner),\n            owner,\n            iERC721CreatorRoyalty.tokenCreator(_originContract, _tokenId),\n            owner\n        );\n\n        // Set token as sold\n        iMarketplaceSettings.markERC721Token(_originContract, _tokenId, true);\n\n        emit Sold(_originContract, msg.sender, tokenOwner, sp.amount, _tokenId);\n        }\n        else{\n            Payments.payoutSecondary(\n            sp.amount,\n            !iMarketplaceSettings.hasERC721TokenSold(_originContract, _tokenId),\n            iMarketplaceSettings.getMarketplaceFeePercentage(),\n            iERC721CreatorRoyalty.getERC721TokenRoyaltyPercentage(\n                _originContract,\n                _tokenId\n            ),\n            iMarketplaceSettings.getERC721ContractSecondarySaleFeePercentage(\n                _originContract\n            ),\n            _makePayable(tokenOwner),\n            owner,\n            iERC721CreatorRoyalty.tokenCreator(_originContract, _tokenId),\n            owner\n        );\n\n        // Set token as sold\n        iMarketplaceSettings.markERC721Token(_originContract, _tokenId, true);\n\n        emit Sold(_originContract, msg.sender, tokenOwner, sp.amount, _tokenId);\n        }\n        \n    }\n\n    /////////////////////////////////////////////////////////////////////////\n    // tokenPrice\n    /////////////////////////////////////////////////////////////////////////\n    /**\n     * @dev Gets the sale price of the token\n     * @param _originContract address of the contract storing the token.\n     * @param _tokenId uint256 ID of the token\n     * @return uint256 sale price of the token\n     */\n    function tokenPrice(address _originContract, uint256 _tokenId)\n        external\n        view\n        returns (uint256)\n    {\n        // The owner of the token must have the marketplace approved\n        ownerMustHaveMarketplaceApproved(_originContract, _tokenId); // TODO: Make sure to write test to verify that this returns 0 when it fails\n\n        if (_priceSetterStillOwnsTheToken(_originContract, _tokenId)) {\n            return tokenPrices[_originContract][_tokenId].amount;\n        }\n        return 0;\n    }\n\n    /////////////////////////////////////////////////////////////////////////\n    // tokenPriceFeeIncluded\n    /////////////////////////////////////////////////////////////////////////\n    /**\n     * @dev Gets the sale price of the token including the marketplace fee.\n     * @param _originContract address of the contract storing the token.\n     * @param _tokenId uint256 ID of the token\n     * @return uint256 sale price of the token including the fee.\n     */\n    function tokenPriceFeeIncluded(address _originContract, uint256 _tokenId)\n        public\n        view\n        returns (uint256)\n    {\n        // The owner of the token must have the marketplace approved\n        ownerMustHaveMarketplaceApproved(_originContract, _tokenId); // TODO: Make sure to write test to verify that this returns 0 when it fails\n\n        if (_priceSetterStillOwnsTheToken(_originContract, _tokenId)) {\n            return\n                tokenPrices[_originContract][_tokenId].amount.add(\n                    iMarketplaceSettings.calculateMarketplaceFee(\n                        tokenPrices[_originContract][_tokenId].amount\n                    )\n                );\n        }\n        return 0;\n    }\n\n    /////////////////////////////////////////////////////////////////////////\n    // bid\n    /////////////////////////////////////////////////////////////////////////\n    /**\n     * @dev Bids on the token, replacing the bid if the bid is higher than the current bid. You cannot bid on a token you already own.\n     * @param _newBidAmount uint256 value in wei to bid.\n     * @param _originContract address of the contract storing the token.\n     * @param _tokenId uint256 ID of the token\n     */\n    function bid(\n        uint256 _newBidAmount,\n        address _originContract,\n        uint256 _tokenId\n    ) external payable {\n        require(hasRole(TOKEN_COLLECTOR_ROLE, msg.sender), \"You are not allowed to collect Art\");\n        // Check that bid is greater than 0.\n        require(_newBidAmount > 0, \"bid::Cannot bid 0 Wei.\");\n\n        // Check that bid is higher than previous bid\n        uint256 currentBidAmount =\n            tokenCurrentBids[_originContract][_tokenId].amount;\n        require(\n            _newBidAmount > currentBidAmount &&\n                _newBidAmount >=\n                currentBidAmount.add(\n                    currentBidAmount.mul(minimumBidIncreasePercentage).div(100)\n                ),\n            \"bid::Must place higher bid than existing bid + minimum percentage.\"\n        );\n\n        // Check that enough ether was sent.\n        uint256 requiredCost =\n            _newBidAmount.add(\n                iMarketplaceSettings.calculateMarketplaceFee(_newBidAmount)\n            );\n        require(\n            requiredCost == msg.value,\n            \"bid::Must purchase the token for the correct price.\"\n        );\n\n        // Check that bidder is not owner.\n        IERC721Upgradeable erc721 = IERC721Upgradeable(_originContract);\n        address tokenOwner = erc721.ownerOf(_tokenId);\n        require(tokenOwner != msg.sender, \"bid::Bidder cannot be owner.\");\n\n        // Refund previous bidder.\n        _refundBid(_originContract, _tokenId);\n\n        // Set the new bid.\n        _setBid(_newBidAmount, msg.sender, _originContract, _tokenId);\n\n        emit Bid(_originContract, msg.sender, _newBidAmount, _tokenId);\n    }\n\n    /////////////////////////////////////////////////////////////////////////\n    // safeAcceptBid\n    /////////////////////////////////////////////////////////////////////////\n    /**\n     * @dev Accept the bid on the token with the expected bid amount.\n     * @param _originContract address of the contract storing the token.\n     * @param _tokenId uint256 ID of the token\n     * @param _amount uint256 wei amount of the bid\n     */\n    function safeAcceptBid(\n        address _originContract,\n        uint256 _tokenId,\n        uint256 _amount\n    ) external {\n        // Make sure accepting bid is the expected amount\n        require(\n            tokenCurrentBids[_originContract][_tokenId].amount == _amount,\n            \"safeAcceptBid::Bid amount must equal expected amount\"\n        );\n        acceptBid(_originContract, _tokenId);\n    }\n\n    /////////////////////////////////////////////////////////////////////////\n   /////////////////////////////////////////////////////////////////////////\n    // acceptBid\n    /////////////////////////////////////////////////////////////////////////\n    /**\n     * @dev Accept the bid on the token.\n     * @param _originContract address of the contract storing the token.\n     * @param _tokenId uint256 ID of the token\n     */\n    function acceptBid(address _originContract, uint256 _tokenId) public {\n        // The owner of the token must have the marketplace approved\n        ownerMustHaveMarketplaceApproved(_originContract, _tokenId);\n\n        // The sender must be the token owner\n        senderMustBeTokenOwner(_originContract, _tokenId);\n\n        // Check that a bid exists.\n        require(\n            _tokenHasBid(_originContract, _tokenId),\n            \"acceptBid::Cannot accept a bid when there is none.\"\n        );\n\n        // Get current bid on token\n\n        ActiveBid memory currentBid =\n            tokenCurrentBids[_originContract][_tokenId];\n\n        // Wipe the token price and bid.\n        _resetTokenPrice(_originContract, _tokenId);\n        _resetBid(_originContract, _tokenId);\n\n        // Transfer token.\n        IERC721Upgradeable erc721 = IERC721Upgradeable(_originContract);\n        erc721.safeTransferFrom(msg.sender, currentBid.bidder, _tokenId);\n\n        // Payout all parties.\n        address payable owner = _makePayable(owner());\n        \n        if(!iMarketplaceSettings.hasERC721TokenSold(_originContract, _tokenId)){\n            \n        Payments.payoutPrimary(\n            currentBid.amount,\n            !iMarketplaceSettings.hasERC721TokenSold(_originContract, _tokenId),\n            iMarketplaceSettings.getMarketplaceFeePercentage(),\n            iERC721CreatorRoyalty.getERC721TokenRoyaltyPercentage(\n                _originContract,\n                _tokenId\n            ),\n            iMarketplaceSettings.getERC721ContractPrimarySaleFeePercentage(\n                _originContract\n            ),\n            msg.sender,\n            owner,\n            iERC721CreatorRoyalty.tokenCreator(_originContract, _tokenId),\n            owner\n        );\n\n        iMarketplaceSettings.markERC721Token(_originContract, _tokenId, true);\n\n        emit AcceptBid(\n            _originContract,\n            currentBid.bidder,\n            msg.sender,\n            currentBid.amount,\n            _tokenId\n        );\n            \n        }\n       else{\n            Payments.payoutSecondary(\n            currentBid.amount,\n            !iMarketplaceSettings.hasERC721TokenSold(_originContract, _tokenId),\n            iMarketplaceSettings.getMarketplaceFeePercentage(),\n            iERC721CreatorRoyalty.getERC721TokenRoyaltyPercentage(\n                _originContract,\n                _tokenId\n            ),\n            iMarketplaceSettings.getERC721ContractSecondarySaleFeePercentage(\n                _originContract\n            ),\n            msg.sender,\n            owner,\n            iERC721CreatorRoyalty.tokenCreator(_originContract, _tokenId),\n            owner\n        );\n\n        iMarketplaceSettings.markERC721Token(_originContract, _tokenId, true);\n\n        emit AcceptBid(\n            _originContract,\n            currentBid.bidder,\n            msg.sender,\n            currentBid.amount,\n            _tokenId\n        );\n       }\n    }\n\n    /////////////////////////////////////////////////////////////////////////\n    // cancelBid\n    /////////////////////////////////////////////////////////////////////////\n    /**\n     * @dev Cancel the bid on the token.\n     * @param _originContract address of the contract storing the token.\n     * @param _tokenId uint256 ID of the token.\n     */\n    function cancelBid(address _originContract, uint256 _tokenId) external {\n        // Check that sender has a current bid.\n        require(\n            _addressHasBidOnToken(msg.sender, _originContract, _tokenId),\n            \"cancelBid::Cannot cancel a bid if sender hasn't made one.\"\n        );\n\n        // Refund the bidder.\n        _refundBid(_originContract, _tokenId);\n\n        emit CancelBid(\n            _originContract,\n            msg.sender,\n            tokenCurrentBids[_originContract][_tokenId].amount,\n            _tokenId\n        );\n    }\n\n    /////////////////////////////////////////////////////////////////////////\n    // currentBidDetailsOfToken\n    /////////////////////////////////////////////////////////////////////////\n    /**\n     * @dev Function to get current bid and bidder of a token.\n     * @param _originContract address of ERC721 contract.\n     * @param _tokenId uin256 id of the token.\n     */\n    function currentBidDetailsOfToken(address _originContract, uint256 _tokenId)\n        public\n        view\n        returns (uint256, address)\n    {\n        return (\n            tokenCurrentBids[_originContract][_tokenId].amount,\n            tokenCurrentBids[_originContract][_tokenId].bidder\n        );\n    }\n\n    /////////////////////////////////////////////////////////////////////////\n    // _priceSetterStillOwnsTheToken\n    /////////////////////////////////////////////////////////////////////////\n    /**\n     * @dev Checks that the token is owned by the same person who set the sale price.\n     * @param _originContract address of the contract storing the token.\n     * @param _tokenId uint256 id of the.\n     */\n    function _priceSetterStillOwnsTheToken(\n        address _originContract,\n        uint256 _tokenId\n    ) internal view returns (bool) {\n        IERC721Upgradeable erc721 = IERC721Upgradeable(_originContract);\n        return\n            erc721.ownerOf(_tokenId) ==\n            tokenPrices[_originContract][_tokenId].seller;\n    }\n\n    /////////////////////////////////////////////////////////////////////////\n    // _resetTokenPrice\n    /////////////////////////////////////////////////////////////////////////\n    /**\n     * @dev Internal function to set token price to 0 for a given contract.\n     * @param _originContract address of ERC721 contract.\n     * @param _tokenId uin256 id of the token.\n     */\n    function _resetTokenPrice(address _originContract, uint256 _tokenId)\n        internal\n    {\n        tokenPrices[_originContract][_tokenId] = SalePrice(address(0), 0);\n    }\n\n    /////////////////////////////////////////////////////////////////////////\n    // _addressHasBidOnToken\n    /////////////////////////////////////////////////////////////////////////\n    /**\n     * @dev Internal function see if the given address has an existing bid on a token.\n     * @param _bidder address that may have a current bid.\n     * @param _originContract address of ERC721 contract.\n     * @param _tokenId uin256 id of the token.\n     */\n    function _addressHasBidOnToken(\n        address _bidder,\n        address _originContract,\n        uint256 _tokenId\n    ) internal view returns (bool) {\n        return tokenCurrentBids[_originContract][_tokenId].bidder == _bidder;\n    }\n\n    /////////////////////////////////////////////////////////////////////////\n    // _tokenHasBid\n    /////////////////////////////////////////////////////////////////////////\n    /**\n     * @dev Internal function see if the token has an existing bid.\n     * @param _originContract address of ERC721 contract.\n     * @param _tokenId uin256 id of the token.\n     */\n    function _tokenHasBid(address _originContract, uint256 _tokenId)\n        internal\n        view\n        returns (bool)\n    {\n        return tokenCurrentBids[_originContract][_tokenId].bidder != address(0);\n    }\n\n    /////////////////////////////////////////////////////////////////////////\n    // _refundBid\n    /////////////////////////////////////////////////////////////////////////\n    /**\n     * @dev Internal function to return an existing bid on a token to the\n     *      bidder and reset bid.\n     * @param _originContract address of ERC721 contract.\n     * @param _tokenId uin256 id of the token.\n     */\n    function _refundBid(address _originContract, uint256 _tokenId) internal {\n        ActiveBid memory currentBid =\n            tokenCurrentBids[_originContract][_tokenId];\n        if (currentBid.bidder == address(0)) {\n            return;\n        }\n        _resetBid(_originContract, _tokenId);\n        Payments.refund(\n            currentBid.marketplaceFee,\n            currentBid.bidder,\n            currentBid.amount\n        );\n    }\n\n    /////////////////////////////////////////////////////////////////////////\n    // _resetBid\n    /////////////////////////////////////////////////////////////////////////\n    /**\n     * @dev Internal function to reset bid by setting bidder and bid to 0.\n     * @param _originContract address of ERC721 contract.\n     * @param _tokenId uin256 id of the token.\n     */\n    function _resetBid(address _originContract, uint256 _tokenId) internal {\n        tokenCurrentBids[_originContract][_tokenId] = ActiveBid(\n            address(0),\n            0,\n            0\n        );\n    }\n\n    /////////////////////////////////////////////////////////////////////////\n    // _setBid\n    /////////////////////////////////////////////////////////////////////////\n    /**\n     * @dev Internal function to set a bid.\n     * @param _amount uint256 value in wei to bid. Does not include marketplace fee.\n     * @param _bidder address of the bidder.\n     * @param _originContract address of ERC721 contract.\n     * @param _tokenId uin256 id of the token.\n     */\n    function _setBid(\n        uint256 _amount,\n        address payable _bidder,\n        address _originContract,\n        uint256 _tokenId\n    ) internal {\n        // Check bidder not 0 address.\n        require(_bidder != address(0), \"Bidder cannot be 0 address.\");\n\n        // Set bid.\n        tokenCurrentBids[_originContract][_tokenId] = ActiveBid(\n            _bidder,\n            iMarketplaceSettings.getMarketplaceFeePercentage(),\n            _amount\n        );\n    }\n\n    /////////////////////////////////////////////////////////////////////////\n    // _makePayable\n    /////////////////////////////////////////////////////////////////////////\n    /**\n     * @dev Internal function to set a bid.\n     * @param _address non-payable address\n     * @return payable address\n     */\n    function _makePayable(address _address)\n        internal\n        pure\n        returns (address payable)\n    {\n        return address(uint160(_address));\n    }\n}\n",
  "sourcePath": "/home/khizer/Documents/AllData/chimera-react-frontend/ChimeraContracts/contracts/SuperRareMarketAuctionV2.sol",
  "compiler": {
    "name": "solc",
    "version": "0.6.12+commit.27d51765.Emscripten.clang"
  },
  "schemaVersion": "3.3.4",
  "updatedAt": "2021-05-10T10:04:18.423Z",
  "devdoc": {
    "kind": "dev",
    "methods": {
      "acceptBid(address,uint256)": {
        "details": "Accept the bid on the token.",
        "params": {
          "_originContract": "address of the contract storing the token.",
          "_tokenId": "uint256 ID of the token"
        }
      },
      "bid(uint256,address,uint256)": {
        "details": "Bids on the token, replacing the bid if the bid is higher than the current bid. You cannot bid on a token you already own.",
        "params": {
          "_newBidAmount": "uint256 value in wei to bid.",
          "_originContract": "address of the contract storing the token.",
          "_tokenId": "uint256 ID of the token"
        }
      },
      "buy(address,uint256)": {
        "details": "Purchases the token if it is for sale.",
        "params": {
          "_originContract": "address of the contract storing the token.",
          "_tokenId": "uint256 ID of the token."
        }
      },
      "cancelBid(address,uint256)": {
        "details": "Cancel the bid on the token.",
        "params": {
          "_originContract": "address of the contract storing the token.",
          "_tokenId": "uint256 ID of the token."
        }
      },
      "currentBidDetailsOfToken(address,uint256)": {
        "details": "Function to get current bid and bidder of a token.",
        "params": {
          "_originContract": "address of ERC721 contract.",
          "_tokenId": "uin256 id of the token."
        }
      },
      "getRoleAdmin(bytes32)": {
        "details": "Returns the admin role that controls `role`. See {grantRole} and {revokeRole}. To change a role's admin, use {_setRoleAdmin}."
      },
      "getRoleMember(bytes32,uint256)": {
        "details": "Returns one of the accounts that have `role`. `index` must be a value between 0 and {getRoleMemberCount}, non-inclusive. Role bearers are not sorted in any particular way, and their ordering may change at any point. WARNING: When using {getRoleMember} and {getRoleMemberCount}, make sure you perform all queries on the same block. See the following https://forum.openzeppelin.com/t/iterating-over-elements-on-enumerableset-in-openzeppelin-contracts/2296[forum post] for more information."
      },
      "getRoleMemberCount(bytes32)": {
        "details": "Returns the number of accounts that have `role`. Can be used together with {getRoleMember} to enumerate all bearers of a role."
      },
      "grantRole(bytes32,address)": {
        "details": "Grants `role` to `account`. If `account` had not been already granted `role`, emits a {RoleGranted} event. Requirements: - the caller must have ``role``'s admin role."
      },
      "hasRole(bytes32,address)": {
        "details": "Returns `true` if `account` has been granted `role`."
      },
      "initialize(address,address)": {
        "details": "Initializes the contract setting the market settings and creator royalty interfaces.",
        "params": {
          "_iERC721CreatorRoyalty": "address to set as iERC721CreatorRoyalty.",
          "_iMarketSettings": "address to set as iMarketplaceSettings."
        }
      },
      "owner()": {
        "details": "Returns the address of the current owner."
      },
      "payments(address)": {
        "details": "Returns the payments owed to an address.",
        "params": {
          "dest": "The creditor's address."
        }
      },
      "renounceOwnership()": {
        "details": "Leaves the contract without owner. It will not be possible to call `onlyOwner` functions anymore. Can only be called by the current owner. NOTE: Renouncing ownership will leave the contract without an owner, thereby removing any functionality that is only available to the owner."
      },
      "renounceRole(bytes32,address)": {
        "details": "Revokes `role` from the calling account. Roles are often managed via {grantRole} and {revokeRole}: this function's purpose is to provide a mechanism for accounts to lose their privileges if they are compromised (such as when a trusted device is misplaced). If the calling account had been granted `role`, emits a {RoleRevoked} event. Requirements: - the caller must be `account`."
      },
      "revokeRole(bytes32,address)": {
        "details": "Revokes `role` from `account`. If `account` had been granted `role`, emits a {RoleRevoked} event. Requirements: - the caller must have ``role``'s admin role."
      },
      "safeAcceptBid(address,uint256,uint256)": {
        "details": "Accept the bid on the token with the expected bid amount.",
        "params": {
          "_amount": "uint256 wei amount of the bid",
          "_originContract": "address of the contract storing the token.",
          "_tokenId": "uint256 ID of the token"
        }
      },
      "safeBuy(address,uint256,uint256)": {
        "details": "Purchase the token with the expected amount. The current token owner must have the marketplace approved.",
        "params": {
          "_amount": "uint256 wei amount expecting to purchase the token for.",
          "_originContract": "address of the contract storing the token.",
          "_tokenId": "uint256 ID of the token"
        }
      },
      "setIERC721CreatorRoyalty(address)": {
        "details": "Admin function to set the IERC721CreatorRoyalty. Rules: - only owner - _address != address(0)",
        "params": {
          "_address": "address of the IERC721CreatorRoyalty."
        }
      },
      "setMarketplaceSettings(address)": {
        "details": "Admin function to set the marketplace settings. Rules: - only owner - _address != address(0)",
        "params": {
          "_address": "address of the IMarketplaceSettings."
        }
      },
      "setMinimumBidIncreasePercentage(uint8)": {
        "details": "Admin function to set the minimum bid increase percentage. Rules: - only owner",
        "params": {
          "_percentage": "uint8 to set as the new percentage."
        }
      },
      "setSalePrice(address,uint256,uint256)": {
        "details": "Set the token for sale. The owner of the token must be the sender and have the marketplace approved.",
        "params": {
          "_amount": "uint256 wei value that the item is for sale",
          "_originContract": "address of the contract storing the token.",
          "_tokenId": "uint256 ID of the token"
        }
      },
      "tokenPrice(address,uint256)": {
        "details": "Gets the sale price of the token",
        "params": {
          "_originContract": "address of the contract storing the token.",
          "_tokenId": "uint256 ID of the token"
        },
        "returns": {
          "_0": "uint256 sale price of the token"
        }
      },
      "tokenPriceFeeIncluded(address,uint256)": {
        "details": "Gets the sale price of the token including the marketplace fee.",
        "params": {
          "_originContract": "address of the contract storing the token.",
          "_tokenId": "uint256 ID of the token"
        },
        "returns": {
          "_0": "uint256 sale price of the token including the fee."
        }
      },
      "transferOwnership(address)": {
        "details": "Transfers ownership of the contract to a new account (`newOwner`). Can only be called by the current owner."
      },
      "withdrawPayments(address)": {
        "details": "Withdraw accumulated payments, forwarding all gas to the recipient. Note that _any_ account can call this function, not just the `payee`. This means that contracts unaware of the `PullPayment` protocol can still receive funds this way, by having a separate account call {withdrawPayments}. WARNING: Forwarding all gas opens the door to reentrancy vulnerabilities. Make sure you trust the recipient, or are either following the checks-effects-interactions pattern or using {ReentrancyGuard}.",
        "params": {
          "payee": "Whose payments will be withdrawn."
        }
      }
    },
    "version": 1
  },
  "userdoc": {
    "kind": "user",
    "methods": {},
    "version": 1
  }
}