{
  "contractName": "SuperRareTokenCreatorRegistry",
  "abi": [
    {
      "anonymous": false,
      "inputs": [
        {
          "indexed": true,
          "internalType": "address",
          "name": "previousOwner",
          "type": "address"
        },
        {
          "indexed": true,
          "internalType": "address",
          "name": "newOwner",
          "type": "address"
        }
      ],
      "name": "OwnershipTransferred",
      "type": "event"
    },
    {
      "inputs": [],
      "name": "owner",
      "outputs": [
        {
          "internalType": "address",
          "name": "",
          "type": "address"
        }
      ],
      "stateMutability": "view",
      "type": "function"
    },
    {
      "inputs": [],
      "name": "renounceOwnership",
      "outputs": [],
      "stateMutability": "nonpayable",
      "type": "function"
    },
    {
      "inputs": [
        {
          "internalType": "address",
          "name": "newOwner",
          "type": "address"
        }
      ],
      "name": "transferOwnership",
      "outputs": [],
      "stateMutability": "nonpayable",
      "type": "function"
    },
    {
      "inputs": [
        {
          "internalType": "address[]",
          "name": "_iERC721Creators",
          "type": "address[]"
        }
      ],
      "name": "initialize",
      "outputs": [],
      "stateMutability": "nonpayable",
      "type": "function"
    },
    {
      "inputs": [
        {
          "internalType": "address",
          "name": "_contractAddress",
          "type": "address"
        },
        {
          "internalType": "uint256",
          "name": "_tokenId",
          "type": "uint256"
        }
      ],
      "name": "tokenCreator",
      "outputs": [
        {
          "internalType": "address payable",
          "name": "",
          "type": "address"
        }
      ],
      "stateMutability": "view",
      "type": "function"
    },
    {
      "inputs": [
        {
          "internalType": "address",
          "name": "_contractAddress",
          "type": "address"
        },
        {
          "internalType": "uint256",
          "name": "_tokenId",
          "type": "uint256"
        },
        {
          "internalType": "address payable",
          "name": "_creator",
          "type": "address"
        }
      ],
      "name": "setTokenCreator",
      "outputs": [],
      "stateMutability": "nonpayable",
      "type": "function"
    },
    {
      "inputs": [
        {
          "internalType": "address",
          "name": "_contractAddress",
          "type": "address"
        }
      ],
      "name": "setIERC721Creator",
      "outputs": [],
      "stateMutability": "nonpayable",
      "type": "function"
    }
  ],
  "bytecode": "0x608060405234801561001057600080fd5b50611468806100206000396000f3fe608060405234801561001057600080fd5b506004361061007d5760003560e01c80638da5cb5b1161005b5780638da5cb5b1461013e578063a224cee714610172578063b85ed7e41461022a578063f2fde38b146102a25761007d565b80632b1c19c9146100825780633a85757c146100f0578063715018a614610134575b600080fd5b6100ee6004803603606081101561009857600080fd5b81019080803573ffffffffffffffffffffffffffffffffffffffff16906020019092919080359060200190929190803573ffffffffffffffffffffffffffffffffffffffff1690602001909291905050506102e6565b005b6101326004803603602081101561010657600080fd5b81019080803573ffffffffffffffffffffffffffffffffffffffff169060200190929190505050610535565b005b61013c6106c5565b005b610146610835565b604051808273ffffffffffffffffffffffffffffffffffffffff16815260200191505060405180910390f35b6102286004803603602081101561018857600080fd5b81019080803590602001906401000000008111156101a557600080fd5b8201836020820111156101b757600080fd5b803590602001918460208302840111640100000000831117156101d957600080fd5b919080806020026020016040519081016040528093929190818152602001838360200280828437600081840152601f19601f82011690508083019250505050505050919291929050505061085f565b005b6102766004803603604081101561024057600080fd5b81019080803573ffffffffffffffffffffffffffffffffffffffff16906020019092919080359060200190929190505050610ae8565b604051808273ffffffffffffffffffffffffffffffffffffffff16815260200191505060405180910390f35b6102e4600480360360208110156102b857600080fd5b81019080803573ffffffffffffffffffffffffffffffffffffffff169060200190929190505050610cf5565b005b6102ee610eea565b73ffffffffffffffffffffffffffffffffffffffff1661030c610835565b73ffffffffffffffffffffffffffffffffffffffff1614610395576040517f08c379a00000000000000000000000000000000000000000000000000000000081526004018080602001828103825260208152602001807f4f776e61626c653a2063616c6c6572206973206e6f7420746865206f776e657281525060200191505060405180910390fd5b600073ffffffffffffffffffffffffffffffffffffffff168173ffffffffffffffffffffffffffffffffffffffff16141561041b576040517f08c379a00000000000000000000000000000000000000000000000000000000081526004018080602001828103825260338152602001806114006033913960400191505060405180910390fd5b600073ffffffffffffffffffffffffffffffffffffffff168373ffffffffffffffffffffffffffffffffffffffff1614156104a1576040517f08c379a00000000000000000000000000000000000000000000000000000000081526004018080602001828103825260308152602001806113a26030913960400191505060405180910390fd5b80606560008573ffffffffffffffffffffffffffffffffffffffff1673ffffffffffffffffffffffffffffffffffffffff168152602001908152602001600020600084815260200190815260200160002060006101000a81548173ffffffffffffffffffffffffffffffffffffffff021916908373ffffffffffffffffffffffffffffffffffffffff160217905550505050565b61053d610eea565b73ffffffffffffffffffffffffffffffffffffffff1661055b610835565b73ffffffffffffffffffffffffffffffffffffffff16146105e4576040517f08c379a00000000000000000000000000000000000000000000000000000000081526004018080602001828103825260208152602001807f4f776e61626c653a2063616c6c6572206973206e6f7420746865206f776e657281525060200191505060405180910390fd5b600073ffffffffffffffffffffffffffffffffffffffff168173ffffffffffffffffffffffffffffffffffffffff16141561066a576040517f08c379a00000000000000000000000000000000000000000000000000000000081526004018080602001828103825260328152602001806113336032913960400191505060405180910390fd5b6001606660008373ffffffffffffffffffffffffffffffffffffffff1673ffffffffffffffffffffffffffffffffffffffff16815260200190815260200160002060006101000a81548160ff02191690831515021790555050565b6106cd610eea565b73ffffffffffffffffffffffffffffffffffffffff166106eb610835565b73ffffffffffffffffffffffffffffffffffffffff1614610774576040517f08c379a00000000000000000000000000000000000000000000000000000000081526004018080602001828103825260208152602001807f4f776e61626c653a2063616c6c6572206973206e6f7420746865206f776e657281525060200191505060405180910390fd5b600073ffffffffffffffffffffffffffffffffffffffff16603360009054906101000a900473ffffffffffffffffffffffffffffffffffffffff1673ffffffffffffffffffffffffffffffffffffffff167f8be0079c531659141344cd1fd0a4f28419497f9722a3daafe3b4186f6b6457e060405160405180910390a36000603360006101000a81548173ffffffffffffffffffffffffffffffffffffffff021916908373ffffffffffffffffffffffffffffffffffffffff160217905550565b6000603360009054906101000a900473ffffffffffffffffffffffffffffffffffffffff16905090565b600060019054906101000a900460ff168061087e575061087d610ef2565b5b80610894575060008054906101000a900460ff16155b6108e9576040517f08c379a000000000000000000000000000000000000000000000000000000000815260040180806020018281038252602e8152602001806113d2602e913960400191505060405180910390fd5b60008060019054906101000a900460ff161590508015610939576001600060016101000a81548160ff02191690831515021790555060016000806101000a81548160ff0219169083151502179055505b6103e8825110610994576040517f08c379a00000000000000000000000000000000000000000000000000000000081526004018080602001828103825260438152602001806112ca6043913960600191505060405180910390fd5b61099c610f03565b60005b82518160ff161015610ac257600073ffffffffffffffffffffffffffffffffffffffff16838260ff16815181106109d257fe5b602002602001015173ffffffffffffffffffffffffffffffffffffffff161415610a47576040517f08c379a000000000000000000000000000000000000000000000000000000000815260040180806020018281038252603d815260200180611365603d913960400191505060405180910390fd5b600160666000858460ff1681518110610a5c57fe5b602002602001015173ffffffffffffffffffffffffffffffffffffffff1673ffffffffffffffffffffffffffffffffffffffff16815260200190815260200160002060006101000a81548160ff021916908315150217905550808060010191505061099f565b508015610ae45760008060016101000a81548160ff0219169083151502179055505b5050565b60008073ffffffffffffffffffffffffffffffffffffffff16606560008573ffffffffffffffffffffffffffffffffffffffff1673ffffffffffffffffffffffffffffffffffffffff168152602001908152602001600020600084815260200190815260200160002060009054906101000a900473ffffffffffffffffffffffffffffffffffffffff1673ffffffffffffffffffffffffffffffffffffffff1614610c0557606560008473ffffffffffffffffffffffffffffffffffffffff1673ffffffffffffffffffffffffffffffffffffffff168152602001908152602001600020600083815260200190815260200160002060009054906101000a900473ffffffffffffffffffffffffffffffffffffffff169050610cef565b606660008473ffffffffffffffffffffffffffffffffffffffff1673ffffffffffffffffffffffffffffffffffffffff16815260200190815260200160002060009054906101000a900460ff1615610cea578273ffffffffffffffffffffffffffffffffffffffff166340c1a064836040518263ffffffff1660e01b81526004018082815260200191505060206040518083038186803b158015610ca857600080fd5b505afa158015610cbc573d6000803e3d6000fd5b505050506040513d6020811015610cd257600080fd5b81019080805190602001909291905050509050610cef565b600090505b92915050565b610cfd610eea565b73ffffffffffffffffffffffffffffffffffffffff16610d1b610835565b73ffffffffffffffffffffffffffffffffffffffff1614610da4576040517f08c379a00000000000000000000000000000000000000000000000000000000081526004018080602001828103825260208152602001807f4f776e61626c653a2063616c6c6572206973206e6f7420746865206f776e657281525060200191505060405180910390fd5b600073ffffffffffffffffffffffffffffffffffffffff168173ffffffffffffffffffffffffffffffffffffffff161415610e2a576040517f08c379a000000000000000000000000000000000000000000000000000000000815260040180806020018281038252602681526020018061130d6026913960400191505060405180910390fd5b8073ffffffffffffffffffffffffffffffffffffffff16603360009054906101000a900473ffffffffffffffffffffffffffffffffffffffff1673ffffffffffffffffffffffffffffffffffffffff167f8be0079c531659141344cd1fd0a4f28419497f9722a3daafe3b4186f6b6457e060405160405180910390a380603360006101000a81548173ffffffffffffffffffffffffffffffffffffffff021916908373ffffffffffffffffffffffffffffffffffffffff16021790555050565b600033905090565b6000610efd30611011565b15905090565b600060019054906101000a900460ff1680610f225750610f21610ef2565b5b80610f38575060008054906101000a900460ff16155b610f8d576040517f08c379a000000000000000000000000000000000000000000000000000000000815260040180806020018281038252602e8152602001806113d2602e913960400191505060405180910390fd5b60008060019054906101000a900460ff161590508015610fdd576001600060016101000a81548160ff02191690831515021790555060016000806101000a81548160ff0219169083151502179055505b610fe5611024565b610fed611122565b801561100e5760008060016101000a81548160ff0219169083151502179055505b50565b600080823b905060008111915050919050565b600060019054906101000a900460ff16806110435750611042610ef2565b5b80611059575060008054906101000a900460ff16155b6110ae576040517f08c379a000000000000000000000000000000000000000000000000000000000815260040180806020018281038252602e8152602001806113d2602e913960400191505060405180910390fd5b60008060019054906101000a900460ff1615905080156110fe576001600060016101000a81548160ff02191690831515021790555060016000806101000a81548160ff0219169083151502179055505b801561111f5760008060016101000a81548160ff0219169083151502179055505b50565b600060019054906101000a900460ff16806111415750611140610ef2565b5b80611157575060008054906101000a900460ff16155b6111ac576040517f08c379a000000000000000000000000000000000000000000000000000000000815260040180806020018281038252602e8152602001806113d2602e913960400191505060405180910390fd5b60008060019054906101000a900460ff1615905080156111fc576001600060016101000a81548160ff02191690831515021790555060016000806101000a81548160ff0219169083151502179055505b6000611206610eea565b905080603360006101000a81548173ffffffffffffffffffffffffffffffffffffffff021916908373ffffffffffffffffffffffffffffffffffffffff1602179055508073ffffffffffffffffffffffffffffffffffffffff16600073ffffffffffffffffffffffffffffffffffffffff167f8be0079c531659141344cd1fd0a4f28419497f9722a3daafe3b4186f6b6457e060405160405180910390a35080156112c65760008060016101000a81548160ff0219169083151502179055505b5056fe636f6e7374727563746f723a3a43616e6e6f74206d61726b206d6f7265207468616e203130303020616464726573736573206173204945524337323143726561746f724f776e61626c653a206e6577206f776e657220697320746865207a65726f20616464726573737365744945524337323143726561746f723a3a5f636f6e7472616374416464726573732063616e6e6f74206265206e756c6c636f6e7374727563746f723a3a43616e6e6f742073657420746865206e756c6c206164647265737320617320616e204945524337323143726561746f72736574546f6b656e43726561746f723a3a5f636f6e7472616374416464726573732063616e6e6f74206265206e756c6c496e697469616c697a61626c653a20636f6e747261637420697320616c726561647920696e697469616c697a6564736574546f6b656e43726561746f723a3a43616e6e6f7420736574206e756c6c20616464726573732061732063726561746f72a2646970667358221220175d92a0bdd24e140fe24a32cfcb861af6e8c886673d0b20942e821feb434c4064736f6c634300060c0033",
  "immutableReferences": {},
  "source": "pragma solidity 0.6.12;\n\nimport '@openzeppelin/contracts-upgradeable/math/SafeMathUpgradeable.sol';\nimport '@openzeppelin/contracts-upgradeable/access/OwnableUpgradeable.sol';\nimport '@openzeppelin/contracts-upgradeable/proxy/Initializable.sol';\n\n// import \"https://github.com/OpenZeppelin/openzeppelin-contracts/blob/solc-0.6/contracts/math/SafeMath.sol\";\n// import \"https://github.com/OpenZeppelin/openzeppelin-contracts/blob/solc-0.6/contracts/access/Ownable.sol\";\nimport \"./IERC721CreatorRoyalty.sol\";\nimport \"./IERC721Creator.sol\";\n\n/**\n * @title IERC721 Non-Fungible Token Creator basic interface\n */\ncontract SuperRareTokenCreatorRegistry is Initializable, OwnableUpgradeable, IERC721TokenCreator {\n    using SafeMathUpgradeable for uint256;\n\n    /////////////////////////////////////////////////////////////////////////\n    // State Variables\n    /////////////////////////////////////////////////////////////////////////\n\n    // Mapping of ERC721 token to it's creator.\n    mapping(address => mapping(uint256 => address payable))\n        private tokenCreators;\n\n    // Mapping of addresses that implement IERC721Creator.\n    mapping(address => bool) private iERC721Creators;\n\n    /////////////////////////////////////////////////////////////////////////\n    // Constructor\n    /////////////////////////////////////////////////////////////////////////\n    /**\n     * @dev Initializes the contract setting the iERC721Creators with the provided addresses.\n     * @param _iERC721Creators address[] to set as iERC721Creators.\n     */\n    // constructor(address[] memory _iERC721Creators) public {\n    //     require(\n    //         _iERC721Creators.length < 1000,\n    //         \"constructor::Cannot mark more than 1000 addresses as IERC721Creator\"\n    //     );\n    //     for (uint8 i = 0; i < _iERC721Creators.length; i++) {\n    //         require(\n    //             _iERC721Creators[i] != address(0),\n    //             \"constructor::Cannot set the null address as an IERC721Creator\"\n    //         );\n    //         iERC721Creators[_iERC721Creators[i]] = true;\n    //     }\n    // }\n    /////////////////////////////////////////////////////////////////////////\n    // initializer\n    /////////////////////////////////////////////////////////////////////////\n    /**\n     * @dev Initializes the contract setting the iERC721Creators with the provided addresses.\n     * @param _iERC721Creators address[] to set as iERC721Creators.\n     */\n     function initialize(address[] memory _iERC721Creators) public initializer {\n        require(\n            _iERC721Creators.length < 1000,\n            \"constructor::Cannot mark more than 1000 addresses as IERC721Creator\"\n        );\n        __Ownable_init();\n        for (uint8 i = 0; i < _iERC721Creators.length; i++) {\n            require(\n                _iERC721Creators[i] != address(0),\n                \"constructor::Cannot set the null address as an IERC721Creator\"\n            );\n            iERC721Creators[_iERC721Creators[i]] = true;\n        }\n    }\n\n    /////////////////////////////////////////////////////////////////////////\n    // tokenCreator\n    /////////////////////////////////////////////////////////////////////////\n    /**\n     * @dev Gets the creator of the token\n     * @param _contractAddress address of the ERC721 contract\n     * @param _tokenId uint256 ID of the token\n     * @return address of the creator\n     */\n    function tokenCreator(address _contractAddress, uint256 _tokenId)\n        external\n        override\n        view\n        returns (address payable)\n    {\n        if (tokenCreators[_contractAddress][_tokenId] != address(0)) {\n            return tokenCreators[_contractAddress][_tokenId];\n        }\n\n        if (iERC721Creators[_contractAddress]) {\n            return IERC721Creator(_contractAddress).tokenCreator(_tokenId);\n        }\n        return address(0);\n    }\n\n    /////////////////////////////////////////////////////////////////////////\n    // setTokenCreator\n    /////////////////////////////////////////////////////////////////////////\n    /**\n     * @dev Sets the creator of the token\n     * @param _contractAddress address of the ERC721 contract\n     * @param _tokenId uint256 ID of the token\n     * @param _creator address of the creator for the token\n     */\n    function setTokenCreator(\n        address _contractAddress,\n        uint256 _tokenId,\n        address payable _creator\n    ) external onlyOwner {\n        require(\n            _creator != address(0),\n            \"setTokenCreator::Cannot set null address as creator\"\n        );\n        require(\n            _contractAddress != address(0),\n            \"setTokenCreator::_contractAddress cannot be null\"\n        );\n\n        tokenCreators[_contractAddress][_tokenId] = _creator;\n    }\n\n    /////////////////////////////////////////////////////////////////////////\n    // setIERC721Creator\n    /////////////////////////////////////////////////////////////////////////\n    /**\n     * @dev Set an address as an IERC721Creator\n     * @param _contractAddress address of the IERC721Creator contract\n     */\n    function setIERC721Creator(address _contractAddress) external onlyOwner {\n        require(\n            _contractAddress != address(0),\n            \"setIERC721Creator::_contractAddress cannot be null\"\n        );\n\n        iERC721Creators[_contractAddress] = true;\n    }\n}\n",
  "sourcePath": "/home/khizer/Documents/AllData/chimera-react-frontend/ChimeraContracts/contracts/SuperRareTokenCreatorRegistry.sol",
  "compiler": {
    "name": "solc",
    "version": "0.6.12+commit.27d51765.Emscripten.clang"
  },
  "schemaVersion": "3.3.4",
  "updatedAt": "2021-05-10T10:04:18.456Z",
  "devdoc": {
    "kind": "dev",
    "methods": {
      "initialize(address[])": {
        "details": "Initializes the contract setting the iERC721Creators with the provided addresses.",
        "params": {
          "_iERC721Creators": "address[] to set as iERC721Creators."
        }
      },
      "owner()": {
        "details": "Returns the address of the current owner."
      },
      "renounceOwnership()": {
        "details": "Leaves the contract without owner. It will not be possible to call `onlyOwner` functions anymore. Can only be called by the current owner. NOTE: Renouncing ownership will leave the contract without an owner, thereby removing any functionality that is only available to the owner."
      },
      "setIERC721Creator(address)": {
        "details": "Set an address as an IERC721Creator",
        "params": {
          "_contractAddress": "address of the IERC721Creator contract"
        }
      },
      "setTokenCreator(address,uint256,address)": {
        "details": "Sets the creator of the token",
        "params": {
          "_contractAddress": "address of the ERC721 contract",
          "_creator": "address of the creator for the token",
          "_tokenId": "uint256 ID of the token"
        }
      },
      "tokenCreator(address,uint256)": {
        "details": "Gets the creator of the token",
        "params": {
          "_contractAddress": "address of the ERC721 contract",
          "_tokenId": "uint256 ID of the token"
        },
        "returns": {
          "_0": "address of the creator"
        }
      },
      "transferOwnership(address)": {
        "details": "Transfers ownership of the contract to a new account (`newOwner`). Can only be called by the current owner."
      }
    },
    "title": "IERC721 Non-Fungible Token Creator basic interface",
    "version": 1
  },
  "userdoc": {
    "kind": "user",
    "methods": {},
    "version": 1
  }
}