{
  "contractName": "SuperRareLegacy",
  "abi": [
    {
      "anonymous": false,
      "inputs": [
        {
          "indexed": true,
          "internalType": "address",
          "name": "owner",
          "type": "address"
        },
        {
          "indexed": true,
          "internalType": "address",
          "name": "approved",
          "type": "address"
        },
        {
          "indexed": true,
          "internalType": "uint256",
          "name": "tokenId",
          "type": "uint256"
        }
      ],
      "name": "Approval",
      "type": "event"
    },
    {
      "anonymous": false,
      "inputs": [
        {
          "indexed": true,
          "internalType": "address",
          "name": "owner",
          "type": "address"
        },
        {
          "indexed": true,
          "internalType": "address",
          "name": "operator",
          "type": "address"
        },
        {
          "indexed": false,
          "internalType": "bool",
          "name": "approved",
          "type": "bool"
        }
      ],
      "name": "ApprovalForAll",
      "type": "event"
    },
    {
      "anonymous": false,
      "inputs": [
        {
          "indexed": true,
          "internalType": "address",
          "name": "previousOwner",
          "type": "address"
        },
        {
          "indexed": true,
          "internalType": "address",
          "name": "newOwner",
          "type": "address"
        }
      ],
      "name": "OwnershipTransferred",
      "type": "event"
    },
    {
      "anonymous": false,
      "inputs": [
        {
          "indexed": true,
          "internalType": "address",
          "name": "from",
          "type": "address"
        },
        {
          "indexed": true,
          "internalType": "address",
          "name": "to",
          "type": "address"
        },
        {
          "indexed": true,
          "internalType": "uint256",
          "name": "tokenId",
          "type": "uint256"
        }
      ],
      "name": "Transfer",
      "type": "event"
    },
    {
      "inputs": [
        {
          "internalType": "address",
          "name": "to",
          "type": "address"
        },
        {
          "internalType": "uint256",
          "name": "tokenId",
          "type": "uint256"
        }
      ],
      "name": "approve",
      "outputs": [],
      "stateMutability": "nonpayable",
      "type": "function"
    },
    {
      "inputs": [
        {
          "internalType": "address",
          "name": "owner",
          "type": "address"
        }
      ],
      "name": "balanceOf",
      "outputs": [
        {
          "internalType": "uint256",
          "name": "",
          "type": "uint256"
        }
      ],
      "stateMutability": "view",
      "type": "function"
    },
    {
      "inputs": [],
      "name": "baseURI",
      "outputs": [
        {
          "internalType": "string",
          "name": "",
          "type": "string"
        }
      ],
      "stateMutability": "view",
      "type": "function"
    },
    {
      "inputs": [
        {
          "internalType": "uint256",
          "name": "tokenId",
          "type": "uint256"
        }
      ],
      "name": "getApproved",
      "outputs": [
        {
          "internalType": "address",
          "name": "",
          "type": "address"
        }
      ],
      "stateMutability": "view",
      "type": "function"
    },
    {
      "inputs": [
        {
          "internalType": "address",
          "name": "owner",
          "type": "address"
        },
        {
          "internalType": "address",
          "name": "operator",
          "type": "address"
        }
      ],
      "name": "isApprovedForAll",
      "outputs": [
        {
          "internalType": "bool",
          "name": "",
          "type": "bool"
        }
      ],
      "stateMutability": "view",
      "type": "function"
    },
    {
      "inputs": [],
      "name": "name",
      "outputs": [
        {
          "internalType": "string",
          "name": "",
          "type": "string"
        }
      ],
      "stateMutability": "view",
      "type": "function"
    },
    {
      "inputs": [],
      "name": "owner",
      "outputs": [
        {
          "internalType": "address",
          "name": "",
          "type": "address"
        }
      ],
      "stateMutability": "view",
      "type": "function"
    },
    {
      "inputs": [],
      "name": "renounceOwnership",
      "outputs": [],
      "stateMutability": "nonpayable",
      "type": "function"
    },
    {
      "inputs": [
        {
          "internalType": "address",
          "name": "from",
          "type": "address"
        },
        {
          "internalType": "address",
          "name": "to",
          "type": "address"
        },
        {
          "internalType": "uint256",
          "name": "tokenId",
          "type": "uint256"
        }
      ],
      "name": "safeTransferFrom",
      "outputs": [],
      "stateMutability": "nonpayable",
      "type": "function"
    },
    {
      "inputs": [
        {
          "internalType": "address",
          "name": "from",
          "type": "address"
        },
        {
          "internalType": "address",
          "name": "to",
          "type": "address"
        },
        {
          "internalType": "uint256",
          "name": "tokenId",
          "type": "uint256"
        },
        {
          "internalType": "bytes",
          "name": "_data",
          "type": "bytes"
        }
      ],
      "name": "safeTransferFrom",
      "outputs": [],
      "stateMutability": "nonpayable",
      "type": "function"
    },
    {
      "inputs": [
        {
          "internalType": "address",
          "name": "operator",
          "type": "address"
        },
        {
          "internalType": "bool",
          "name": "approved",
          "type": "bool"
        }
      ],
      "name": "setApprovalForAll",
      "outputs": [],
      "stateMutability": "nonpayable",
      "type": "function"
    },
    {
      "inputs": [
        {
          "internalType": "bytes4",
          "name": "interfaceId",
          "type": "bytes4"
        }
      ],
      "name": "supportsInterface",
      "outputs": [
        {
          "internalType": "bool",
          "name": "",
          "type": "bool"
        }
      ],
      "stateMutability": "view",
      "type": "function"
    },
    {
      "inputs": [],
      "name": "symbol",
      "outputs": [
        {
          "internalType": "string",
          "name": "",
          "type": "string"
        }
      ],
      "stateMutability": "view",
      "type": "function"
    },
    {
      "inputs": [
        {
          "internalType": "uint256",
          "name": "index",
          "type": "uint256"
        }
      ],
      "name": "tokenByIndex",
      "outputs": [
        {
          "internalType": "uint256",
          "name": "",
          "type": "uint256"
        }
      ],
      "stateMutability": "view",
      "type": "function"
    },
    {
      "inputs": [
        {
          "internalType": "address",
          "name": "owner",
          "type": "address"
        },
        {
          "internalType": "uint256",
          "name": "index",
          "type": "uint256"
        }
      ],
      "name": "tokenOfOwnerByIndex",
      "outputs": [
        {
          "internalType": "uint256",
          "name": "",
          "type": "uint256"
        }
      ],
      "stateMutability": "view",
      "type": "function"
    },
    {
      "inputs": [],
      "name": "totalSupply",
      "outputs": [
        {
          "internalType": "uint256",
          "name": "",
          "type": "uint256"
        }
      ],
      "stateMutability": "view",
      "type": "function"
    },
    {
      "inputs": [
        {
          "internalType": "address",
          "name": "from",
          "type": "address"
        },
        {
          "internalType": "address",
          "name": "to",
          "type": "address"
        },
        {
          "internalType": "uint256",
          "name": "tokenId",
          "type": "uint256"
        }
      ],
      "name": "transferFrom",
      "outputs": [],
      "stateMutability": "nonpayable",
      "type": "function"
    },
    {
      "inputs": [
        {
          "internalType": "address",
          "name": "newOwner",
          "type": "address"
        }
      ],
      "name": "transferOwnership",
      "outputs": [],
      "stateMutability": "nonpayable",
      "type": "function"
    },
    {
      "inputs": [
        {
          "internalType": "string",
          "name": "_name",
          "type": "string"
        },
        {
          "internalType": "string",
          "name": "_symbol",
          "type": "string"
        }
      ],
      "name": "initialize",
      "outputs": [],
      "stateMutability": "nonpayable",
      "type": "function"
    },
    {
      "inputs": [
        {
          "internalType": "uint256[]",
          "name": "_tokenIds",
          "type": "uint256[]"
        }
      ],
      "name": "mintLegacyTokens",
      "outputs": [],
      "stateMutability": "nonpayable",
      "type": "function"
    },
    {
      "inputs": [],
      "name": "markMintingCompleted",
      "outputs": [],
      "stateMutability": "nonpayable",
      "type": "function"
    },
    {
      "inputs": [
        {
          "internalType": "uint256",
          "name": "_tokenId",
          "type": "uint256"
        }
      ],
      "name": "ownerOf",
      "outputs": [
        {
          "internalType": "address",
          "name": "owner",
          "type": "address"
        }
      ],
      "stateMutability": "view",
      "type": "function"
    },
    {
      "inputs": [
        {
          "internalType": "uint256",
          "name": "_tokenId",
          "type": "uint256"
        }
      ],
      "name": "preUpgradeOwnerOf",
      "outputs": [
        {
          "internalType": "address",
          "name": "",
          "type": "address"
        }
      ],
      "stateMutability": "view",
      "type": "function"
    },
    {
      "inputs": [
        {
          "internalType": "uint256",
          "name": "_tokenId",
          "type": "uint256"
        }
      ],
      "name": "isUpgraded",
      "outputs": [
        {
          "internalType": "bool",
          "name": "",
          "type": "bool"
        }
      ],
      "stateMutability": "view",
      "type": "function"
    },
    {
      "inputs": [
        {
          "internalType": "uint256",
          "name": "_tokenId",
          "type": "uint256"
        }
      ],
      "name": "refreshPreUpgradeOwnerOf",
      "outputs": [],
      "stateMutability": "nonpayable",
      "type": "function"
    },
    {
      "inputs": [
        {
          "internalType": "uint256",
          "name": "_tokenId",
          "type": "uint256"
        }
      ],
      "name": "tokenCreator",
      "outputs": [
        {
          "internalType": "address payable",
          "name": "",
          "type": "address"
        }
      ],
      "stateMutability": "view",
      "type": "function"
    },
    {
      "inputs": [
        {
          "internalType": "uint256",
          "name": "tokenId",
          "type": "uint256"
        }
      ],
      "name": "tokenURI",
      "outputs": [
        {
          "internalType": "string",
          "name": "",
          "type": "string"
        }
      ],
      "stateMutability": "view",
      "type": "function"
    }
  ],
  "bytecode": "0x608060405234801561001057600080fd5b50614035806100206000396000f3fe608060405234801561001057600080fd5b50600436106101a95760003560e01c8063651bd4bb116100f9578063a22cb46511610097578063c87b56dd11610071578063c87b56dd14610b0e578063e79c788414610bb5578063e985e9c514610bbf578063f2fde38b14610c39576101a9565b8063a22cb46514610961578063b88d4fde146109b1578063c0b41dfa14610ab6576101a9565b8063715018a6116100d3578063715018a61461085c57806382f11a1a146108665780638da5cb5b146108aa57806395d89b41146108de576101a9565b8063651bd4bb146107535780636c0360eb1461078157806370a0823114610804576101a9565b806323b872dd1161016657806342842e0e1161014057806342842e0e146104f95780634cd88b76146105675780634f6ccce7146106b95780636352211e146106fb576101a9565b806323b872dd146103d15780632f745c591461043f57806340c1a064146104a1576101a9565b806301ffc9a7146101ae57806306fdde0314610211578063081812fc14610294578063095ea7b3146102ec5780630ba4ea4b1461033a57806318160ddd146103b3575b600080fd5b6101f9600480360360208110156101c457600080fd5b8101908080357bffffffffffffffffffffffffffffffffffffffffffffffffffffffff19169060200190929190505050610c7d565b60405180821515815260200191505060405180910390f35b610219610ce5565b6040518080602001828103825283818151815260200191508051906020019080838360005b8381101561025957808201518184015260208101905061023e565b50505050905090810190601f1680156102865780820380516001836020036101000a031916815260200191505b509250505060405180910390f35b6102c0600480360360208110156102aa57600080fd5b8101908080359060200190929190505050610d87565b604051808273ffffffffffffffffffffffffffffffffffffffff16815260200191505060405180910390f35b6103386004803603604081101561030257600080fd5b81019080803573ffffffffffffffffffffffffffffffffffffffff16906020019092919080359060200190929190505050610e22565b005b6103b16004803603602081101561035057600080fd5b810190808035906020019064010000000081111561036d57600080fd5b82018360208201111561037f57600080fd5b803590602001918460208302840111640100000000831117156103a157600080fd5b9091929391929390505050610f66565b005b6103bb6110b6565b6040518082815260200191505060405180910390f35b61043d600480360360608110156103e757600080fd5b81019080803573ffffffffffffffffffffffffffffffffffffffff169060200190929190803573ffffffffffffffffffffffffffffffffffffffff169060200190929190803590602001909291905050506110c7565b005b61048b6004803603604081101561045557600080fd5b81019080803573ffffffffffffffffffffffffffffffffffffffff1690602001909291908035906020019092919050505061113d565b6040518082815260200191505060405180910390f35b6104cd600480360360208110156104b757600080fd5b8101908080359060200190929190505050611198565b604051808273ffffffffffffffffffffffffffffffffffffffff16815260200191505060405180910390f35b6105656004803603606081101561050f57600080fd5b81019080803573ffffffffffffffffffffffffffffffffffffffff169060200190929190803573ffffffffffffffffffffffffffffffffffffffff1690602001909291908035906020019092919050505061124f565b005b6106b76004803603604081101561057d57600080fd5b810190808035906020019064010000000081111561059a57600080fd5b8201836020820111156105ac57600080fd5b803590602001918460018302840111640100000000831117156105ce57600080fd5b91908080601f016020809104026020016040519081016040528093929190818152602001838380828437600081840152601f19601f8201169050808301925050505050505091929192908035906020019064010000000081111561063157600080fd5b82018360208201111561064357600080fd5b8035906020019184600183028401116401000000008311171561066557600080fd5b91908080601f016020809104026020016040519081016040528093929190818152602001838380828437600081840152601f19601f82011690508083019250505050505050919291929050505061126f565b005b6106e5600480360360208110156106cf57600080fd5b810190808035906020019092919050505061139c565b6040518082815260200191505060405180910390f35b6107276004803603602081101561071157600080fd5b81019080803590602001909291905050506113bf565b604051808273ffffffffffffffffffffffffffffffffffffffff16815260200191505060405180910390f35b61077f6004803603602081101561076957600080fd5b81019080803590602001909291905050506113e7565b005b6107896115e1565b6040518080602001828103825283818151815260200191508051906020019080838360005b838110156107c95780820151818401526020810190506107ae565b50505050905090810190601f1680156107f65780820380516001836020036101000a031916815260200191505b509250505060405180910390f35b6108466004803603602081101561081a57600080fd5b81019080803573ffffffffffffffffffffffffffffffffffffffff169060200190929190505050611683565b6040518082815260200191505060405180910390f35b610864611758565b005b6108926004803603602081101561087c57600080fd5b81019080803590602001909291905050506118c8565b60405180821515815260200191505060405180910390f35b6108b26119b2565b604051808273ffffffffffffffffffffffffffffffffffffffff16815260200191505060405180910390f35b6108e66119dc565b6040518080602001828103825283818151815260200191508051906020019080838360005b8381101561092657808201518184015260208101905061090b565b50505050905090810190601f1680156109535780820380516001836020036101000a031916815260200191505b509250505060405180910390f35b6109af6004803603604081101561097757600080fd5b81019080803573ffffffffffffffffffffffffffffffffffffffff169060200190929190803515159060200190929190505050611a7e565b005b610ab4600480360360808110156109c757600080fd5b81019080803573ffffffffffffffffffffffffffffffffffffffff169060200190929190803573ffffffffffffffffffffffffffffffffffffffff1690602001909291908035906020019092919080359060200190640100000000811115610a2e57600080fd5b820183602082011115610a4057600080fd5b80359060200191846001830284011164010000000083111715610a6257600080fd5b91908080601f016020809104026020016040519081016040528093929190818152602001838380828437600081840152601f19601f820116905080830192505050505050509192919290505050611c34565b005b610ae260048036036020811015610acc57600080fd5b8101908080359060200190929190505050611cac565b604051808273ffffffffffffffffffffffffffffffffffffffff16815260200191505060405180910390f35b610b3a60048036036020811015610b2457600080fd5b8101908080359060200190929190505050611d74565b6040518080602001828103825283818151815260200191508051906020019080838360005b83811015610b7a578082015181840152602081019050610b5f565b50505050905090810190601f168015610ba75780820380516001836020036101000a031916815260200191505b509250505060405180910390f35b610bbd611f47565b005b610c2160048036036040811015610bd557600080fd5b81019080803573ffffffffffffffffffffffffffffffffffffffff169060200190929190803573ffffffffffffffffffffffffffffffffffffffff169060200190929190505050612079565b60405180821515815260200191505060405180910390f35b610c7b60048036036020811015610c4f57600080fd5b81019080803573ffffffffffffffffffffffffffffffffffffffff16906020019092919050505061210d565b005b600060336000837bffffffffffffffffffffffffffffffffffffffffffffffffffffffff19167bffffffffffffffffffffffffffffffffffffffffffffffffffffffff1916815260200190815260200160002060009054906101000a900460ff169050919050565b6060606a8054600181600116156101000203166002900480601f016020809104026020016040519081016040528092919081815260200182805460018160011615610100020316600290048015610d7d5780601f10610d5257610100808354040283529160200191610d7d565b820191906000526020600020905b815481529060010190602001808311610d6057829003601f168201915b5050505050905090565b6000610d9282612302565b610de7576040517f08c379a000000000000000000000000000000000000000000000000000000000815260040180806020018281038252602c815260200180613f1d602c913960400191505060405180910390fd5b6068600083815260200190815260200160002060009054906101000a900473ffffffffffffffffffffffffffffffffffffffff169050919050565b6000610e2d8261231f565b90508073ffffffffffffffffffffffffffffffffffffffff168373ffffffffffffffffffffffffffffffffffffffff161415610eb4576040517f08c379a0000000000000000000000000000000000000000000000000000000008152600401808060200182810382526021815260200180613f726021913960400191505060405180910390fd5b8073ffffffffffffffffffffffffffffffffffffffff16610ed3612356565b73ffffffffffffffffffffffffffffffffffffffff161480610f025750610f0181610efc612356565b612079565b5b610f57576040517f08c379a0000000000000000000000000000000000000000000000000000000008152600401808060200182810382526038815260200180613e126038913960400191505060405180910390fd5b610f61838361235e565b505050565b610f6e612356565b73ffffffffffffffffffffffffffffffffffffffff16610f8c6119b2565b73ffffffffffffffffffffffffffffffffffffffff1614611015576040517f08c379a00000000000000000000000000000000000000000000000000000000081526004018080602001828103825260208152602001807f4f776e61626c653a2063616c6c6572206973206e6f7420746865206f776e657281525060200191505060405180910390fd5b60cb60009054906101000a900460ff161561107b576040517f08c379a000000000000000000000000000000000000000000000000000000000815260040180806020018281038252603f815260200180613c59603f913960400191505060405180910390fd5b60005b828290508110156110b1576110a483838381811061109857fe5b90506020020135612417565b808060010191505061107e565b505050565b60006110c2606661251f565b905090565b6110d86110d2612356565b82612534565b61112d576040517f08c379a0000000000000000000000000000000000000000000000000000000008152600401808060200182810382526031815260200180613fcf6031913960400191505060405180910390fd5b611138838383612628565b505050565b600061119082606560008673ffffffffffffffffffffffffffffffffffffffff1673ffffffffffffffffffffffffffffffffffffffff16815260200190815260200160002061286b90919063ffffffff16565b905092915050565b600060c960009054906101000a900473ffffffffffffffffffffffffffffffffffffffff1673ffffffffffffffffffffffffffffffffffffffff1663d5da8d44836040518263ffffffff1660e01b81526004018082815260200191505060206040518083038186803b15801561120d57600080fd5b505afa158015611221573d6000803e3d6000fd5b505050506040513d602081101561123757600080fd5b81019080805190602001909291905050509050919050565b61126a83838360405180602001604052806000815250611c34565b505050565b600060019054906101000a900460ff168061128e575061128d612885565b5b806112a4575060008054906101000a900460ff16155b6112f9576040517f08c379a000000000000000000000000000000000000000000000000000000000815260040180806020018281038252602e815260200180613ecd602e913960400191505060405180910390fd5b60008060019054906101000a900460ff161590508015611349576001600060016101000a81548160ff02191690831515021790555060016000806101000a81548160ff0219169083151502179055505b611351612896565b61135b83836129a4565b600060cb60006101000a81548160ff02191690831515021790555080156113975760008060016101000a81548160ff0219169083151502179055505b505050565b6000806113b3836066612abe90919063ffffffff16565b50905080915050919050565b60006113ca826118c8565b6113d6573090506113e2565b6113df8261231f565b90505b919050565b6113f0816118c8565b15611446576040517f08c379a0000000000000000000000000000000000000000000000000000000008152600401808060200182810382526031815260200180613d666031913960400191505060405180910390fd5b600060c960009054906101000a900473ffffffffffffffffffffffffffffffffffffffff1673ffffffffffffffffffffffffffffffffffffffff16636352211e836040518263ffffffff1660e01b81526004018082815260200191505060206040518083038186803b1580156114bb57600080fd5b505afa1580156114cf573d6000803e3d6000fd5b505050506040513d60208110156114e557600080fd5b81019080805190602001909291905050509050600061150383611cac565b90508073ffffffffffffffffffffffffffffffffffffffff168273ffffffffffffffffffffffffffffffffffffffff16141561158a576040517f08c379a000000000000000000000000000000000000000000000000000000000815260040180806020018281038252603d815260200180613d97603d913960400191505060405180910390fd5b8160ca600085815260200190815260200160002060006101000a81548173ffffffffffffffffffffffffffffffffffffffff021916908373ffffffffffffffffffffffffffffffffffffffff160217905550505050565b6060606d8054600181600116156101000203166002900480601f0160208091040260200160405190810160405280929190818152602001828054600181600116156101000203166002900480156116795780601f1061164e57610100808354040283529160200191611679565b820191906000526020600020905b81548152906001019060200180831161165c57829003601f168201915b5050505050905090565b60008073ffffffffffffffffffffffffffffffffffffffff168273ffffffffffffffffffffffffffffffffffffffff16141561170a576040517f08c379a000000000000000000000000000000000000000000000000000000000815260040180806020018281038252602a815260200180613e7a602a913960400191505060405180910390fd5b611751606560008473ffffffffffffffffffffffffffffffffffffffff1673ffffffffffffffffffffffffffffffffffffffff168152602001908152602001600020612aea565b9050919050565b611760612356565b73ffffffffffffffffffffffffffffffffffffffff1661177e6119b2565b73ffffffffffffffffffffffffffffffffffffffff1614611807576040517f08c379a00000000000000000000000000000000000000000000000000000000081526004018080602001828103825260208152602001807f4f776e61626c653a2063616c6c6572206973206e6f7420746865206f776e657281525060200191505060405180910390fd5b600073ffffffffffffffffffffffffffffffffffffffff16609760009054906101000a900473ffffffffffffffffffffffffffffffffffffffff1673ffffffffffffffffffffffffffffffffffffffff167f8be0079c531659141344cd1fd0a4f28419497f9722a3daafe3b4186f6b6457e060405160405180910390a36000609760006101000a81548173ffffffffffffffffffffffffffffffffffffffff021916908373ffffffffffffffffffffffffffffffffffffffff160217905550565b60008060c960009054906101000a900473ffffffffffffffffffffffffffffffffffffffff1673ffffffffffffffffffffffffffffffffffffffff16636352211e846040518263ffffffff1660e01b81526004018082815260200191505060206040518083038186803b15801561193e57600080fd5b505afa158015611952573d6000803e3d6000fd5b505050506040513d602081101561196857600080fd5b810190808051906020019092919050505090508073ffffffffffffffffffffffffffffffffffffffff163073ffffffffffffffffffffffffffffffffffffffff1614915050919050565b6000609760009054906101000a900473ffffffffffffffffffffffffffffffffffffffff16905090565b6060606b8054600181600116156101000203166002900480601f016020809104026020016040519081016040528092919081815260200182805460018160011615610100020316600290048015611a745780601f10611a4957610100808354040283529160200191611a74565b820191906000526020600020905b815481529060010190602001808311611a5757829003601f168201915b5050505050905090565b611a86612356565b73ffffffffffffffffffffffffffffffffffffffff168273ffffffffffffffffffffffffffffffffffffffff161415611b27576040517f08c379a00000000000000000000000000000000000000000000000000000000081526004018080602001828103825260198152602001807f4552433732313a20617070726f766520746f2063616c6c65720000000000000081525060200191505060405180910390fd5b8060696000611b34612356565b73ffffffffffffffffffffffffffffffffffffffff1673ffffffffffffffffffffffffffffffffffffffff16815260200190815260200160002060008473ffffffffffffffffffffffffffffffffffffffff1673ffffffffffffffffffffffffffffffffffffffff16815260200190815260200160002060006101000a81548160ff0219169083151502179055508173ffffffffffffffffffffffffffffffffffffffff16611be1612356565b73ffffffffffffffffffffffffffffffffffffffff167f17307eab39ab6107e8899845ad3d59bd9653f200f220920489ca2b5937696c318360405180821515815260200191505060405180910390a35050565b611c45611c3f612356565b83612534565b611c9a576040517f08c379a0000000000000000000000000000000000000000000000000000000008152600401808060200182810382526031815260200180613fcf6031913960400191505060405180910390fd5b611ca684848484612aff565b50505050565b60008060ca600084815260200190815260200160002060009054906101000a900473ffffffffffffffffffffffffffffffffffffffff169050600073ffffffffffffffffffffffffffffffffffffffff168173ffffffffffffffffffffffffffffffffffffffff161415611d6b576040517f08c379a000000000000000000000000000000000000000000000000000000000815260040180806020018281038252603e815260200180613dd4603e913960400191505060405180910390fd5b80915050919050565b6060611d7f82612302565b611dd4576040517f08c379a0000000000000000000000000000000000000000000000000000000008152600401808060200182810382526030815260200180613e4a6030913960400191505060405180910390fd5b60c960009054906101000a900473ffffffffffffffffffffffffffffffffffffffff1673ffffffffffffffffffffffffffffffffffffffff1663c87b56dd836040518263ffffffff1660e01b81526004018082815260200191505060006040518083038186803b158015611e4757600080fd5b505afa158015611e5b573d6000803e3d6000fd5b505050506040513d6000823e3d601f19601f820116820180604052506020811015611e8557600080fd5b8101908080516040519392919084640100000000821115611ea557600080fd5b83820191506020820185811115611ebb57600080fd5b8251866001820283011164010000000082111715611ed857600080fd5b8083526020830192505050908051906020019080838360005b83811015611f0c578082015181840152602081019050611ef1565b50505050905090810190601f168015611f395780820380516001836020036101000a031916815260200191505b506040525050509050919050565b611f4f612356565b73ffffffffffffffffffffffffffffffffffffffff16611f6d6119b2565b73ffffffffffffffffffffffffffffffffffffffff1614611ff6576040517f08c379a00000000000000000000000000000000000000000000000000000000081526004018080602001828103825260208152602001807f4f776e61626c653a2063616c6c6572206973206e6f7420746865206f776e657281525060200191505060405180910390fd5b60cb60009054906101000a900460ff161561205c576040517f08c379a000000000000000000000000000000000000000000000000000000000815260040180806020018281038252603c815260200180613f93603c913960400191505060405180910390fd5b600160cb60006101000a81548160ff021916908315150217905550565b6000606960008473ffffffffffffffffffffffffffffffffffffffff1673ffffffffffffffffffffffffffffffffffffffff16815260200190815260200160002060008373ffffffffffffffffffffffffffffffffffffffff1673ffffffffffffffffffffffffffffffffffffffff16815260200190815260200160002060009054906101000a900460ff16905092915050565b612115612356565b73ffffffffffffffffffffffffffffffffffffffff166121336119b2565b73ffffffffffffffffffffffffffffffffffffffff16146121bc576040517f08c379a00000000000000000000000000000000000000000000000000000000081526004018080602001828103825260208152602001807f4f776e61626c653a2063616c6c6572206973206e6f7420746865206f776e657281525060200191505060405180910390fd5b600073ffffffffffffffffffffffffffffffffffffffff168173ffffffffffffffffffffffffffffffffffffffff161415612242576040517f08c379a0000000000000000000000000000000000000000000000000000000008152600401808060200182810382526026815260200180613cca6026913960400191505060405180910390fd5b8073ffffffffffffffffffffffffffffffffffffffff16609760009054906101000a900473ffffffffffffffffffffffffffffffffffffffff1673ffffffffffffffffffffffffffffffffffffffff167f8be0079c531659141344cd1fd0a4f28419497f9722a3daafe3b4186f6b6457e060405160405180910390a380609760006101000a81548173ffffffffffffffffffffffffffffffffffffffff021916908373ffffffffffffffffffffffffffffffffffffffff16021790555050565b6000612318826066612b7190919063ffffffff16565b9050919050565b600061234f82604051806060016040528060298152602001613ea4602991396066612b8b9092919063ffffffff16565b9050919050565b600033905090565b816068600083815260200190815260200160002060006101000a81548173ffffffffffffffffffffffffffffffffffffffff021916908373ffffffffffffffffffffffffffffffffffffffff160217905550808273ffffffffffffffffffffffffffffffffffffffff166123d18361231f565b73ffffffffffffffffffffffffffffffffffffffff167f8c5be1e5ebec7d5bd14f71427d1e84f3dd0314c0f7b2291e5b200ac8c7c3b92560405160405180910390a45050565b600060c960009054906101000a900473ffffffffffffffffffffffffffffffffffffffff1673ffffffffffffffffffffffffffffffffffffffff16636352211e836040518263ffffffff1660e01b81526004018082815260200191505060206040518083038186803b15801561248c57600080fd5b505afa1580156124a0573d6000803e3d6000fd5b505050506040513d60208110156124b657600080fd5b810190808051906020019092919050505090508060ca600084815260200190815260200160002060006101000a81548173ffffffffffffffffffffffffffffffffffffffff021916908373ffffffffffffffffffffffffffffffffffffffff1602179055505050565b600061252d82600001612baa565b9050919050565b600061253f82612302565b612594576040517f08c379a000000000000000000000000000000000000000000000000000000000815260040180806020018281038252602c815260200180613d3a602c913960400191505060405180910390fd5b600061259f8361231f565b90508073ffffffffffffffffffffffffffffffffffffffff168473ffffffffffffffffffffffffffffffffffffffff16148061260e57508373ffffffffffffffffffffffffffffffffffffffff166125f684610d87565b73ffffffffffffffffffffffffffffffffffffffff16145b8061261f575061261e8185612079565b5b91505092915050565b8273ffffffffffffffffffffffffffffffffffffffff166126488261231f565b73ffffffffffffffffffffffffffffffffffffffff16146126b4576040517f08c379a0000000000000000000000000000000000000000000000000000000008152600401808060200182810382526029815260200180613f496029913960400191505060405180910390fd5b600073ffffffffffffffffffffffffffffffffffffffff168273ffffffffffffffffffffffffffffffffffffffff16141561273a576040517f08c379a0000000000000000000000000000000000000000000000000000000008152600401808060200182810382526024815260200180613cf06024913960400191505060405180910390fd5b612745838383612bbb565b61275060008261235e565b6127a181606560008673ffffffffffffffffffffffffffffffffffffffff1673ffffffffffffffffffffffffffffffffffffffff168152602001908152602001600020612bc090919063ffffffff16565b506127f381606560008573ffffffffffffffffffffffffffffffffffffffff1673ffffffffffffffffffffffffffffffffffffffff168152602001908152602001600020612bda90919063ffffffff16565b5061280a81836066612bf49092919063ffffffff16565b50808273ffffffffffffffffffffffffffffffffffffffff168473ffffffffffffffffffffffffffffffffffffffff167fddf252ad1be2c89b69c2b068fc378daa952ba7f163c4a11628f55a4df523b3ef60405160405180910390a4505050565b600061287a8360000183612c29565b60001c905092915050565b600061289030612cac565b15905090565b600060019054906101000a900460ff16806128b557506128b4612885565b5b806128cb575060008054906101000a900460ff16155b612920576040517f08c379a000000000000000000000000000000000000000000000000000000000815260040180806020018281038252602e815260200180613ecd602e913960400191505060405180910390fd5b60008060019054906101000a900460ff161590508015612970576001600060016101000a81548160ff02191690831515021790555060016000806101000a81548160ff0219169083151502179055505b612978612cbf565b612980612dbd565b80156129a15760008060016101000a81548160ff0219169083151502179055505b50565b600060019054906101000a900460ff16806129c357506129c2612885565b5b806129d9575060008054906101000a900460ff16155b612a2e576040517f08c379a000000000000000000000000000000000000000000000000000000000815260040180806020018281038252602e815260200180613ecd602e913960400191505060405180910390fd5b60008060019054906101000a900460ff161590508015612a7e576001600060016101000a81548160ff02191690831515021790555060016000806101000a81548160ff0219169083151502179055505b612a86612cbf565b612a8e612f64565b612a988383613072565b8015612ab95760008060016101000a81548160ff0219169083151502179055505b505050565b600080600080612ad186600001866131d0565b915091508160001c8160001c9350935050509250929050565b6000612af882600001613269565b9050919050565b612b0a848484612628565b612b168484848461327a565b612b6b576040517f08c379a0000000000000000000000000000000000000000000000000000000008152600401808060200182810382526032815260200180613c986032913960400191505060405180910390fd5b50505050565b6000612b83836000018360001b613493565b905092915050565b6000612b9e846000018460001b846134b6565b60001c90509392505050565b600081600001805490509050919050565b505050565b6000612bd2836000018360001b6135ac565b905092915050565b6000612bec836000018360001b613694565b905092915050565b6000612c20846000018460001b8473ffffffffffffffffffffffffffffffffffffffff1660001b613704565b90509392505050565b600081836000018054905011612c8a576040517f08c379a0000000000000000000000000000000000000000000000000000000008152600401808060200182810382526022815260200180613c376022913960400191505060405180910390fd5b826000018281548110612c9957fe5b9060005260206000200154905092915050565b600080823b905060008111915050919050565b600060019054906101000a900460ff1680612cde5750612cdd612885565b5b80612cf4575060008054906101000a900460ff16155b612d49576040517f08c379a000000000000000000000000000000000000000000000000000000000815260040180806020018281038252602e815260200180613ecd602e913960400191505060405180910390fd5b60008060019054906101000a900460ff161590508015612d99576001600060016101000a81548160ff02191690831515021790555060016000806101000a81548160ff0219169083151502179055505b8015612dba5760008060016101000a81548160ff0219169083151502179055505b50565b600060019054906101000a900460ff1680612ddc5750612ddb612885565b5b80612df2575060008054906101000a900460ff16155b612e47576040517f08c379a000000000000000000000000000000000000000000000000000000000815260040180806020018281038252602e815260200180613ecd602e913960400191505060405180910390fd5b60008060019054906101000a900460ff161590508015612e97576001600060016101000a81548160ff02191690831515021790555060016000806101000a81548160ff0219169083151502179055505b6000612ea1612356565b905080609760006101000a81548173ffffffffffffffffffffffffffffffffffffffff021916908373ffffffffffffffffffffffffffffffffffffffff1602179055508073ffffffffffffffffffffffffffffffffffffffff16600073ffffffffffffffffffffffffffffffffffffffff167f8be0079c531659141344cd1fd0a4f28419497f9722a3daafe3b4186f6b6457e060405160405180910390a3508015612f615760008060016101000a81548160ff0219169083151502179055505b50565b600060019054906101000a900460ff1680612f835750612f82612885565b5b80612f99575060008054906101000a900460ff16155b612fee576040517f08c379a000000000000000000000000000000000000000000000000000000000815260040180806020018281038252602e815260200180613ecd602e913960400191505060405180910390fd5b60008060019054906101000a900460ff16159050801561303e576001600060016101000a81548160ff02191690831515021790555060016000806101000a81548160ff0219169083151502179055505b61304e6301ffc9a760e01b6137e0565b801561306f5760008060016101000a81548160ff0219169083151502179055505b50565b600060019054906101000a900460ff16806130915750613090612885565b5b806130a7575060008054906101000a900460ff16155b6130fc576040517f08c379a000000000000000000000000000000000000000000000000000000000815260040180806020018281038252602e815260200180613ecd602e913960400191505060405180910390fd5b60008060019054906101000a900460ff16159050801561314c576001600060016101000a81548160ff02191690831515021790555060016000806101000a81548160ff0219169083151502179055505b82606a9080519060200190613162929190613b99565b5081606b9080519060200190613179929190613b99565b5061318a6380ac58cd60e01b6137e0565b61319a635b5e139f60e01b6137e0565b6131aa63780e9d6360e01b6137e0565b80156131cb5760008060016101000a81548160ff0219169083151502179055505b505050565b60008082846000018054905011613232576040517f08c379a0000000000000000000000000000000000000000000000000000000008152600401808060200182810382526022815260200180613efb6022913960400191505060405180910390fd5b600084600001848154811061324357fe5b906000526020600020906002020190508060000154816001015492509250509250929050565b600081600001805490509050919050565b600061329b8473ffffffffffffffffffffffffffffffffffffffff16612cac565b6132a8576001905061348b565b606061341263150b7a0260e01b6132bd612356565b888787604051602401808573ffffffffffffffffffffffffffffffffffffffff1681526020018473ffffffffffffffffffffffffffffffffffffffff16815260200183815260200180602001828103825283818151815260200191508051906020019080838360005b83811015613341578082015181840152602081019050613326565b50505050905090810190601f16801561336e5780820380516001836020036101000a031916815260200191505b5095505050505050604051602081830303815290604052907bffffffffffffffffffffffffffffffffffffffffffffffffffffffff19166020820180517bffffffffffffffffffffffffffffffffffffffffffffffffffffffff8381831617835250505050604051806060016040528060328152602001613c98603291398773ffffffffffffffffffffffffffffffffffffffff166138e99092919063ffffffff16565b9050600081806020019051602081101561342b57600080fd5b8101908080519060200190929190505050905063150b7a0260e01b7bffffffffffffffffffffffffffffffffffffffffffffffffffffffff1916817bffffffffffffffffffffffffffffffffffffffffffffffffffffffff191614925050505b949350505050565b600080836001016000848152602001908152602001600020541415905092915050565b6000808460010160008581526020019081526020016000205490506000811415839061357d576040517f08c379a00000000000000000000000000000000000000000000000000000000081526004018080602001828103825283818151815260200191508051906020019080838360005b83811015613542578082015181840152602081019050613527565b50505050905090810190601f16801561356f5780820380516001836020036101000a031916815260200191505b509250505060405180910390fd5b5084600001600182038154811061359057fe5b9060005260206000209060020201600101549150509392505050565b6000808360010160008481526020019081526020016000205490506000811461368857600060018203905060006001866000018054905003905060008660000182815481106135f757fe5b906000526020600020015490508087600001848154811061361457fe5b906000526020600020018190555060018301876001016000838152602001908152602001600020819055508660000180548061364c57fe5b6001900381819060005260206000200160009055905586600101600087815260200190815260200160002060009055600194505050505061368e565b60009150505b92915050565b60006136a08383613901565b6136f95782600001829080600181540180825580915050600190039060005260206000200160009091909190915055826000018054905083600101600084815260200190815260200160002081905550600190506136fe565b600090505b92915050565b60008084600101600085815260200190815260200160002054905060008114156137ab578460000160405180604001604052808681526020018581525090806001815401808255809150506001900390600052602060002090600202016000909190919091506000820151816000015560208201518160010155505084600001805490508560010160008681526020019081526020016000208190555060019150506137d9565b828560000160018303815481106137be57fe5b90600052602060002090600202016001018190555060009150505b9392505050565b63ffffffff60e01b817bffffffffffffffffffffffffffffffffffffffffffffffffffffffff1916141561387c576040517f08c379a000000000000000000000000000000000000000000000000000000000815260040180806020018281038252601c8152602001807f4552433136353a20696e76616c696420696e746572666163652069640000000081525060200191505060405180910390fd5b600160336000837bffffffffffffffffffffffffffffffffffffffffffffffffffffffff19167bffffffffffffffffffffffffffffffffffffffffffffffffffffffff1916815260200190815260200160002060006101000a81548160ff02191690831515021790555050565b60606138f88484600085613924565b90509392505050565b600080836001016000848152602001908152602001600020541415905092915050565b60608247101561397f576040517f08c379a0000000000000000000000000000000000000000000000000000000008152600401808060200182810382526026815260200180613d146026913960400191505060405180910390fd5b61398885612cac565b6139fa576040517f08c379a000000000000000000000000000000000000000000000000000000000815260040180806020018281038252601d8152602001807f416464726573733a2063616c6c20746f206e6f6e2d636f6e747261637400000081525060200191505060405180910390fd5b600060608673ffffffffffffffffffffffffffffffffffffffff1685876040518082805190602001908083835b60208310613a4a5780518252602082019150602081019050602083039250613a27565b6001836020036101000a03801982511681845116808217855250505050505090500191505060006040518083038185875af1925050503d8060008114613aac576040519150601f19603f3d011682016040523d82523d6000602084013e613ab1565b606091505b5091509150613ac1828286613acd565b92505050949350505050565b60608315613add57829050613b92565b600083511115613af05782518084602001fd5b816040517f08c379a00000000000000000000000000000000000000000000000000000000081526004018080602001828103825283818151815260200191508051906020019080838360005b83811015613b57578082015181840152602081019050613b3c565b50505050905090810190601f168015613b845780820380516001836020036101000a031916815260200191505b509250505060405180910390fd5b9392505050565b828054600181600116156101000203166002900490600052602060002090601f016020900481019282601f10613bda57805160ff1916838001178555613c08565b82800160010185558215613c08579182015b82811115613c07578251825591602001919060010190613bec565b5b509050613c159190613c19565b5090565b5b80821115613c32576000816000905550600101613c1a565b509056fe456e756d657261626c655365743a20696e646578206f7574206f6620626f756e64735375706572526172654c65676163793a2043616e6e6f74206d696e7420746f6b656e73206f6e6365206d696e74696e672068617320636f6d706c657465642e4552433732313a207472616e7366657220746f206e6f6e20455243373231526563656976657220696d706c656d656e7465724f776e61626c653a206e6577206f776e657220697320746865207a65726f20616464726573734552433732313a207472616e7366657220746f20746865207a65726f2061646472657373416464726573733a20696e73756666696369656e742062616c616e636520666f722063616c6c4552433732313a206f70657261746f7220717565727920666f72206e6f6e6578697374656e7420746f6b656e5375706572526172654c65676163793a2063616e6e6f74207265667265736820616e20757067726164656420746f6b656e5375706572526172654c65676163793a2063616e6e6f742072656672657368207768656e207072652d75706772616465206f776e657273206d617463685375706572526172654c65676163793a207072652d75706772616465206f776e657220717565727920666f72206e6f6e6578697374656e7420746f6b656e4552433732313a20617070726f76652063616c6c6572206973206e6f74206f776e6572206e6f7220617070726f76656420666f7220616c6c5375706572526172654c65676163793a2055524920717565727920666f72206e6f6e6578697374656e7420746f6b656e4552433732313a2062616c616e636520717565727920666f7220746865207a65726f20616464726573734552433732313a206f776e657220717565727920666f72206e6f6e6578697374656e7420746f6b656e496e697469616c697a61626c653a20636f6e747261637420697320616c726561647920696e697469616c697a6564456e756d657261626c654d61703a20696e646578206f7574206f6620626f756e64734552433732313a20617070726f76656420717565727920666f72206e6f6e6578697374656e7420746f6b656e4552433732313a207472616e73666572206f6620746f6b656e2074686174206973206e6f74206f776e4552433732313a20617070726f76616c20746f2063757272656e74206f776e65725375706572526172654c65676163793a2043616e6e6f74206d61726b20636f6d706c6574656420696620616c726561647920636f6d706c657465642e4552433732313a207472616e736665722063616c6c6572206973206e6f74206f776e6572206e6f7220617070726f766564a26469706673582212206afdb58bddc5e79099ae72a5f3e2544495d086077ccbc4a6cfbb0128d22ac25764736f6c634300060c0033",
  "immutableReferences": {},
  "source": "pragma solidity 0.6.12;\n\n// import 'https://github.com/OpenZeppelin/openzeppelin-contracts-upgradeable/blob/release-v3.3/contracts/token/ERC721/ERC721Upgradeable.sol';\n// import 'https://github.com/OpenZeppelin/openzeppelin-contracts-upgradeable/blob/release-v3.3/contracts/access/OwnableUpgradeable.sol';\n// import 'https://github.com/OpenZeppelin/openzeppelin-contracts-upgradeable/blob/release-v3.3/contracts/math/SafeMathUpgradeable.sol';\n// import 'https://github.com/OpenZeppelin/openzeppelin-contracts-upgradeable/blob/release-v3.3/contracts/proxy/Initializable.sol';\n// import \"https://github.com/OpenZeppelin/openzeppelin-contracts/blob/solc-0.6/contracts/token/ERC721/ERC721.sol\";\n// import \"https://github.com/OpenZeppelin/openzeppelin-contracts/blob/solc-0.6/contracts/access/Ownable.sol\";\n// import \"https://github.com/OpenZeppelin/openzeppelin-contracts/blob/solc-0.6/contracts/math/SafeMath.sol\";\n\nimport '@openzeppelin/contracts-upgradeable/proxy/Initializable.sol';\nimport '@openzeppelin/contracts-upgradeable/token/ERC721/ERC721Upgradeable.sol';\nimport '@openzeppelin/contracts-upgradeable/access/OwnableUpgradeable.sol';\nimport '@openzeppelin/contracts-upgradeable/math/SafeMathUpgradeable.sol';\n\nimport \"./ISupeRare.sol\";\nimport \"./IERC721Creator.sol\";\n\n/**\n * @title SuperRare Legacy Tokens\n * @dev This contract acts the new SuperRare Legacy contract (formerly known as SupeRare).\n * It is used to upgrade SupeRare tokens to make them fully ERC721 compliant.\n *\n * Steps for upgrading:\n * 1.) As the token owner, make sure you are the `preUpgradeOwner` to ensure you are the receiver of the new token.\n * 2.) Transfer your old token to this contract's address.\n * 3.) Boom! You're now the owner of the upgraded token.\n *\n */\ncontract SuperRareLegacy is ERC721Upgradeable, IERC721Creator, OwnableUpgradeable {\n    using SafeMathUpgradeable for uint256;\n\n    /////////////////////////////////////////////////////////////////////////\n    // State Variables\n    /////////////////////////////////////////////////////////////////////////\n\n    // Old SuperRare contract to look up token details.\n    ISupeRare private oldSuperRare;\n\n    // Mapping from token ID to the pre upgrade token owner.\n    mapping(uint256 => address) private _tokenOwnerPreUpgrade;\n\n    // Boolean for when minting has completed.\n    bool private _mintingCompleted;\n\n    /////////////////////////////////////////////////////////////////////////\n    // Constructor\n    /////////////////////////////////////////////////////////////////////////\n    // constructor(\n    //     string memory _name,\n    //     string memory _symbol,\n    //     address _oldSuperRare\n    // ) public ERC721(_name, _symbol) {\n    //     require(\n    //         _oldSuperRare != address(0),\n    //         \"constructor::Cannot have null address for _oldSuperRare\"\n    //     );\n\n    //     // Set old SuperRare.\n    //     oldSuperRare = ISupeRare(_oldSuperRare);\n\n    //     // Mark minting as not completed\n    //     _mintingCompleted = false;\n    // }\n\n    /////////////////////////////////////////////////////////////////////////\n    // Initializer\n    /////////////////////////////////////////////////////////////////////////\n     function initialize(string memory _name, string memory _symbol) public initializer  \n    // constructor(string memory _name, string memory _symbol, address _oldSuperRare) public ERC721Upgradeable(_name, _symbol) \n    {\n\n        //initialize base Initializer function\n         __Ownable_init();\n        __ERC721_init(_name,_symbol );\n        // Set old SuperRare.\n        // oldSuperRare = ISupeRare(_oldSuperRare);\n\n        // Mark minting as not completed\n        _mintingCompleted = false;\n    }\n\n    /////////////////////////////////////////////////////////////////////////\n    // Admin Methods\n    /////////////////////////////////////////////////////////////////////////\n\n    /////////////////////////////////////////////////////////////////////////\n    // mintLegacyTokens\n    /////////////////////////////////////////////////////////////////////////\n    /**\n     * @dev Mints the legacy tokens without emitting any events.\n     * @param _tokenIds uint256 array of token ids to mint.\n     */\n    function mintLegacyTokens(uint256[] calldata _tokenIds) external onlyOwner {\n        require(\n            !_mintingCompleted,\n            \"SuperRareLegacy: Cannot mint tokens once minting has completed.\"\n        );\n        for (uint256 i = 0; i < _tokenIds.length; i++) {\n            _createLegacyToken(_tokenIds[i]);\n        }\n    }\n\n    /////////////////////////////////////////////////////////////////////////\n    // markMintingCompleted\n    /////////////////////////////////////////////////////////////////////////\n    /**\n     * @dev Marks _mintedCompleted as true which forever prevents any more minting.\n     */\n    function markMintingCompleted() external onlyOwner {\n        require(\n            !_mintingCompleted,\n            \"SuperRareLegacy: Cannot mark completed if already completed.\"\n        );\n        _mintingCompleted = true;\n    }\n\n    /////////////////////////////////////////////////////////////////////////\n    // Public Methods\n    /////////////////////////////////////////////////////////////////////////\n\n    /////////////////////////////////////////////////////////////////////////\n    // ownerOf\n    /////////////////////////////////////////////////////////////////////////\n    /**\n     * @dev Returns the owner of the NFT specified by `tokenId`\n     * @param _tokenId uint256 token id to get the owner of.\n     * @return owner address of the token owner.\n     */\n    function ownerOf(uint256 _tokenId)\n        public\n        override\n        view\n        returns (address owner)\n    {\n        if (!isUpgraded((_tokenId))) {\n            return address(this);\n        }\n        return ERC721Upgradeable.ownerOf(_tokenId);\n    }\n\n    /////////////////////////////////////////////////////////////////////////\n    // preUpgradeOwnerOf\n    /////////////////////////////////////////////////////////////////////////\n    /**\n     * @dev Returns the pre-upgrade token owner of the NFT specified by `tokenId`.\n     * This owner will become the owner of the upgraded token.\n     * @param _tokenId uint256 token id to get the pre-upgrade owner of.\n     * @return address of the token pre-upgrade owner.\n     */\n    function preUpgradeOwnerOf(uint256 _tokenId) public view returns (address) {\n        address preUpgradeOwner = _tokenOwnerPreUpgrade[_tokenId];\n        require(\n            preUpgradeOwner != address(0),\n            \"SuperRareLegacy: pre-upgrade owner query for nonexistent token\"\n        );\n        return preUpgradeOwner;\n    }\n\n    /////////////////////////////////////////////////////////////////////////\n    // isUpgraded\n    /////////////////////////////////////////////////////////////////////////\n    /**\n     * @dev Returns whether the token has been upgraded.\n     * @param _tokenId uint256 token id to get the owner of.\n     * @return bool of whether the token has been upgraded.\n     */\n    function isUpgraded(uint256 _tokenId) public view returns (bool) {\n        address ownerOnOldSuperRare = oldSuperRare.ownerOf(_tokenId);\n        return address(this) == ownerOnOldSuperRare;\n    }\n\n    /////////////////////////////////////////////////////////////////////////\n    // refreshPreUpgradeOwnerOf\n    /////////////////////////////////////////////////////////////////////////\n    /**\n     * @dev Refreshes the pre-upgrade token owner. Useful in the event of a\n     * non-upgraded token transferring ownership. Throws if token has upgraded\n     * or if there is nothing to refresh.\n     * @param _tokenId uint256 token id to refresh the pre-upgrade token owner.\n     */\n    function refreshPreUpgradeOwnerOf(uint256 _tokenId) external {\n        require(\n            !isUpgraded(_tokenId),\n            \"SuperRareLegacy: cannot refresh an upgraded token\"\n        );\n        address ownerOnOldSuperRare = oldSuperRare.ownerOf(_tokenId);\n        address outdatedOwner = preUpgradeOwnerOf(_tokenId);\n        require(\n            ownerOnOldSuperRare != outdatedOwner,\n            \"SuperRareLegacy: cannot refresh when pre-upgrade owners match\"\n        );\n      //  _transferFromNoEvent(outdatedOwner, ownerOnOldSuperRare, _tokenId);\n        _tokenOwnerPreUpgrade[_tokenId] = ownerOnOldSuperRare;\n    }\n\n    /////////////////////////////////////////////////////////////////////////\n    // tokenCreator\n    /////////////////////////////////////////////////////////////////////////\n    /**\n     * @dev Refreshes the pre-upgrade token owner. Useful in the event of a\n     * non-upgraded token transferring ownership. Throws if token has upgraded\n     * or if there is nothing to refresh.\n     * @param _tokenId uint256 token id to refresh the pre-upgrade token owner.\n     * @return address of the token pre-upgrade owner.\n     */\n    function tokenCreator(uint256 _tokenId)\n        external\n        override\n        view\n        returns (address payable)\n    {\n        return oldSuperRare.creatorOfToken(_tokenId);\n    }\n\n    /////////////////////////////////////////////////////////////////////////\n    // tokenURI\n    /////////////////////////////////////////////////////////////////////////\n    /**\n     * @dev Returns the URI for a given token ID. May return an empty string.\n     * If the token's URI is non-empty and a base URI was set\n     * Reverts if the token ID does not exist.\n     * @param tokenId uint256 token id to refresh the pre-upgrade token owner.\n     * @return string URI of the given token ID.\n     */\n    function tokenURI(uint256 tokenId)\n        public\n        override\n        view\n        returns (string memory)\n    {\n        require(\n            _exists(tokenId),\n            \"SuperRareLegacy: URI query for nonexistent token\"\n        );\n        return oldSuperRare.tokenURI(tokenId);\n    }\n\n    /////////////////////////////////////////////////////////////////////////\n    // Internal Methods\n    /////////////////////////////////////////////////////////////////////////\n\n    /////////////////////////////////////////////////////////////////////////\n    // _createLegacyToken\n    /////////////////////////////////////////////////////////////////////////\n    /**\n     * @dev Mints a legacy token with the appropriate metadata and owner.\n     * @param _tokenId uint256 token id to get the owner of.\n     */\n    function _createLegacyToken(uint256 _tokenId) internal {\n        address ownerOnOldSuperRare = oldSuperRare.ownerOf(_tokenId);\n        //_mintWithNoEvent(ownerOnOldSuperRare, _tokenId);\n        _tokenOwnerPreUpgrade[_tokenId] = ownerOnOldSuperRare;\n    }\n}\n",
  "sourcePath": "/home/khizer/Documents/AllData/chimera-react-frontend/ChimeraContracts/contracts/SuperRareLegacy.sol",
  "compiler": {
    "name": "solc",
    "version": "0.6.12+commit.27d51765.Emscripten.clang"
  },
  "schemaVersion": "3.3.4",
  "updatedAt": "2021-05-10T10:04:18.416Z",
  "devdoc": {
    "details": "This contract acts the new SuperRare Legacy contract (formerly known as SupeRare). It is used to upgrade SupeRare tokens to make them fully ERC721 compliant. Steps for upgrading: 1.) As the token owner, make sure you are the `preUpgradeOwner` to ensure you are the receiver of the new token. 2.) Transfer your old token to this contract's address. 3.) Boom! You're now the owner of the upgraded token.",
    "kind": "dev",
    "methods": {
      "approve(address,uint256)": {
        "details": "See {IERC721-approve}."
      },
      "balanceOf(address)": {
        "details": "See {IERC721-balanceOf}."
      },
      "baseURI()": {
        "details": "Returns the base URI set via {_setBaseURI}. This will be automatically added as a prefix in {tokenURI} to each token's URI, or to the token ID if no specific URI is set for that token ID."
      },
      "getApproved(uint256)": {
        "details": "See {IERC721-getApproved}."
      },
      "isApprovedForAll(address,address)": {
        "details": "See {IERC721-isApprovedForAll}."
      },
      "isUpgraded(uint256)": {
        "details": "Returns whether the token has been upgraded.",
        "params": {
          "_tokenId": "uint256 token id to get the owner of."
        },
        "returns": {
          "_0": "bool of whether the token has been upgraded."
        }
      },
      "markMintingCompleted()": {
        "details": "Marks _mintedCompleted as true which forever prevents any more minting."
      },
      "mintLegacyTokens(uint256[])": {
        "details": "Mints the legacy tokens without emitting any events.",
        "params": {
          "_tokenIds": "uint256 array of token ids to mint."
        }
      },
      "name()": {
        "details": "See {IERC721Metadata-name}."
      },
      "owner()": {
        "details": "Returns the address of the current owner."
      },
      "ownerOf(uint256)": {
        "details": "Returns the owner of the NFT specified by `tokenId`",
        "params": {
          "_tokenId": "uint256 token id to get the owner of."
        },
        "returns": {
          "owner": "address of the token owner."
        }
      },
      "preUpgradeOwnerOf(uint256)": {
        "details": "Returns the pre-upgrade token owner of the NFT specified by `tokenId`. This owner will become the owner of the upgraded token.",
        "params": {
          "_tokenId": "uint256 token id to get the pre-upgrade owner of."
        },
        "returns": {
          "_0": "address of the token pre-upgrade owner."
        }
      },
      "refreshPreUpgradeOwnerOf(uint256)": {
        "details": "Refreshes the pre-upgrade token owner. Useful in the event of a non-upgraded token transferring ownership. Throws if token has upgraded or if there is nothing to refresh.",
        "params": {
          "_tokenId": "uint256 token id to refresh the pre-upgrade token owner."
        }
      },
      "renounceOwnership()": {
        "details": "Leaves the contract without owner. It will not be possible to call `onlyOwner` functions anymore. Can only be called by the current owner. NOTE: Renouncing ownership will leave the contract without an owner, thereby removing any functionality that is only available to the owner."
      },
      "safeTransferFrom(address,address,uint256)": {
        "details": "See {IERC721-safeTransferFrom}."
      },
      "safeTransferFrom(address,address,uint256,bytes)": {
        "details": "See {IERC721-safeTransferFrom}."
      },
      "setApprovalForAll(address,bool)": {
        "details": "See {IERC721-setApprovalForAll}."
      },
      "supportsInterface(bytes4)": {
        "details": "See {IERC165-supportsInterface}. Time complexity O(1), guaranteed to always use less than 30 000 gas."
      },
      "symbol()": {
        "details": "See {IERC721Metadata-symbol}."
      },
      "tokenByIndex(uint256)": {
        "details": "See {IERC721Enumerable-tokenByIndex}."
      },
      "tokenCreator(uint256)": {
        "details": "Refreshes the pre-upgrade token owner. Useful in the event of a non-upgraded token transferring ownership. Throws if token has upgraded or if there is nothing to refresh.",
        "params": {
          "_tokenId": "uint256 token id to refresh the pre-upgrade token owner."
        },
        "returns": {
          "_0": "address of the token pre-upgrade owner."
        }
      },
      "tokenOfOwnerByIndex(address,uint256)": {
        "details": "See {IERC721Enumerable-tokenOfOwnerByIndex}."
      },
      "tokenURI(uint256)": {
        "details": "Returns the URI for a given token ID. May return an empty string. If the token's URI is non-empty and a base URI was set Reverts if the token ID does not exist.",
        "params": {
          "tokenId": "uint256 token id to refresh the pre-upgrade token owner."
        },
        "returns": {
          "_0": "string URI of the given token ID."
        }
      },
      "totalSupply()": {
        "details": "See {IERC721Enumerable-totalSupply}."
      },
      "transferFrom(address,address,uint256)": {
        "details": "See {IERC721-transferFrom}."
      },
      "transferOwnership(address)": {
        "details": "Transfers ownership of the contract to a new account (`newOwner`). Can only be called by the current owner."
      }
    },
    "title": "SuperRare Legacy Tokens",
    "version": 1
  },
  "userdoc": {
    "kind": "user",
    "methods": {},
    "version": 1
  }
}