{
  "contractName": "TestExpensiveWallet",
  "abi": [
    {
      "anonymous": false,
      "inputs": [
        {
          "indexed": true,
          "internalType": "address",
          "name": "previousOwner",
          "type": "address"
        },
        {
          "indexed": true,
          "internalType": "address",
          "name": "newOwner",
          "type": "address"
        }
      ],
      "name": "OwnershipTransferred",
      "type": "event"
    },
    {
      "inputs": [],
      "name": "owner",
      "outputs": [
        {
          "internalType": "address",
          "name": "",
          "type": "address"
        }
      ],
      "stateMutability": "view",
      "type": "function"
    },
    {
      "inputs": [],
      "name": "renounceOwnership",
      "outputs": [],
      "stateMutability": "nonpayable",
      "type": "function"
    },
    {
      "inputs": [
        {
          "internalType": "address",
          "name": "newOwner",
          "type": "address"
        }
      ],
      "name": "transferOwnership",
      "outputs": [],
      "stateMutability": "nonpayable",
      "type": "function"
    },
    {
      "stateMutability": "payable",
      "type": "receive"
    },
    {
      "inputs": [],
      "name": "initialize",
      "outputs": [],
      "stateMutability": "nonpayable",
      "type": "function"
    },
    {
      "inputs": [
        {
          "internalType": "address",
          "name": "_escrowAddress",
          "type": "address"
        }
      ],
      "name": "claimMoney",
      "outputs": [],
      "stateMutability": "nonpayable",
      "type": "function"
    },
    {
      "inputs": [
        {
          "internalType": "uint256",
          "name": "_newBidAmount",
          "type": "uint256"
        },
        {
          "internalType": "address",
          "name": "_originContract",
          "type": "address"
        },
        {
          "internalType": "uint256",
          "name": "_tokenId",
          "type": "uint256"
        },
        {
          "internalType": "address",
          "name": "_market",
          "type": "address"
        }
      ],
      "name": "bid",
      "outputs": [],
      "stateMutability": "payable",
      "type": "function"
    }
  ],
  "bytecode": "0x608060405234801561001057600080fd5b50610d39806100206000396000f3fe6080604052600436106100595760003560e01c80634da00aea146100d5578063501f22ed1461014d578063715018a61461019e5780638129fc1c146101b55780638da5cb5b146101cc578063f2fde38b1461020d576100d0565b366100d05760005b6216e36081101561007757600181019050610061565b61008761008261025e565b610288565b73ffffffffffffffffffffffffffffffffffffffff166108fc349081150290604051600060405180830381858888f193505050501580156100cc573d6000803e3d6000fd5b5050005b600080fd5b61014b600480360360808110156100eb57600080fd5b8101908080359060200190929190803573ffffffffffffffffffffffffffffffffffffffff16906020019092919080359060200190929190803573ffffffffffffffffffffffffffffffffffffffff169060200190929190505050610292565b005b34801561015957600080fd5b5061019c6004803603602081101561017057600080fd5b81019080803573ffffffffffffffffffffffffffffffffffffffff16906020019092919050505061032a565b005b3480156101aa57600080fd5b506101b3610465565b005b3480156101c157600080fd5b506101ca6105d5565b005b3480156101d857600080fd5b506101e161025e565b604051808273ffffffffffffffffffffffffffffffffffffffff16815260200191505060405180910390f35b34801561021957600080fd5b5061025c6004803603602081101561023057600080fd5b81019080803573ffffffffffffffffffffffffffffffffffffffff1690602001909291905050506106db565b005b6000603360009054906101000a900473ffffffffffffffffffffffffffffffffffffffff16905090565b6000819050919050565b8073ffffffffffffffffffffffffffffffffffffffff1663c0f4ed31348686866040518563ffffffff1660e01b8152600401808481526020018373ffffffffffffffffffffffffffffffffffffffff16815260200182815260200193505050506000604051808303818588803b15801561030b57600080fd5b505af115801561031f573d6000803e3d6000fd5b505050505050505050565b6103326108d0565b73ffffffffffffffffffffffffffffffffffffffff1661035061025e565b73ffffffffffffffffffffffffffffffffffffffff16146103d9576040517f08c379a00000000000000000000000000000000000000000000000000000000081526004018080602001828103825260208152602001807f4f776e61626c653a2063616c6c6572206973206e6f7420746865206f776e657281525060200191505060405180910390fd5b8073ffffffffffffffffffffffffffffffffffffffff166331b3eb946103fe30610288565b6040518263ffffffff1660e01b8152600401808273ffffffffffffffffffffffffffffffffffffffff168152602001915050600060405180830381600087803b15801561044a57600080fd5b505af115801561045e573d6000803e3d6000fd5b5050505050565b61046d6108d0565b73ffffffffffffffffffffffffffffffffffffffff1661048b61025e565b73ffffffffffffffffffffffffffffffffffffffff1614610514576040517f08c379a00000000000000000000000000000000000000000000000000000000081526004018080602001828103825260208152602001807f4f776e61626c653a2063616c6c6572206973206e6f7420746865206f776e657281525060200191505060405180910390fd5b600073ffffffffffffffffffffffffffffffffffffffff16603360009054906101000a900473ffffffffffffffffffffffffffffffffffffffff1673ffffffffffffffffffffffffffffffffffffffff167f8be0079c531659141344cd1fd0a4f28419497f9722a3daafe3b4186f6b6457e060405160405180910390a36000603360006101000a81548173ffffffffffffffffffffffffffffffffffffffff021916908373ffffffffffffffffffffffffffffffffffffffff160217905550565b600060019054906101000a900460ff16806105f457506105f36108d8565b5b8061060a575060008054906101000a900460ff16155b61065f576040517f08c379a000000000000000000000000000000000000000000000000000000000815260040180806020018281038252602e815260200180610cd6602e913960400191505060405180910390fd5b60008060019054906101000a900460ff1615905080156106af576001600060016101000a81548160ff02191690831515021790555060016000806101000a81548160ff0219169083151502179055505b6106b76108e9565b80156106d85760008060016101000a81548160ff0219169083151502179055505b50565b6106e36108d0565b73ffffffffffffffffffffffffffffffffffffffff1661070161025e565b73ffffffffffffffffffffffffffffffffffffffff161461078a576040517f08c379a00000000000000000000000000000000000000000000000000000000081526004018080602001828103825260208152602001807f4f776e61626c653a2063616c6c6572206973206e6f7420746865206f776e657281525060200191505060405180910390fd5b600073ffffffffffffffffffffffffffffffffffffffff168173ffffffffffffffffffffffffffffffffffffffff161415610810576040517f08c379a0000000000000000000000000000000000000000000000000000000008152600401808060200182810382526026815260200180610cb06026913960400191505060405180910390fd5b8073ffffffffffffffffffffffffffffffffffffffff16603360009054906101000a900473ffffffffffffffffffffffffffffffffffffffff1673ffffffffffffffffffffffffffffffffffffffff167f8be0079c531659141344cd1fd0a4f28419497f9722a3daafe3b4186f6b6457e060405160405180910390a380603360006101000a81548173ffffffffffffffffffffffffffffffffffffffff021916908373ffffffffffffffffffffffffffffffffffffffff16021790555050565b600033905090565b60006108e3306109f7565b15905090565b600060019054906101000a900460ff168061090857506109076108d8565b5b8061091e575060008054906101000a900460ff16155b610973576040517f08c379a000000000000000000000000000000000000000000000000000000000815260040180806020018281038252602e815260200180610cd6602e913960400191505060405180910390fd5b60008060019054906101000a900460ff1615905080156109c3576001600060016101000a81548160ff02191690831515021790555060016000806101000a81548160ff0219169083151502179055505b6109cb610a0a565b6109d3610b08565b80156109f45760008060016101000a81548160ff0219169083151502179055505b50565b600080823b905060008111915050919050565b600060019054906101000a900460ff1680610a295750610a286108d8565b5b80610a3f575060008054906101000a900460ff16155b610a94576040517f08c379a000000000000000000000000000000000000000000000000000000000815260040180806020018281038252602e815260200180610cd6602e913960400191505060405180910390fd5b60008060019054906101000a900460ff161590508015610ae4576001600060016101000a81548160ff02191690831515021790555060016000806101000a81548160ff0219169083151502179055505b8015610b055760008060016101000a81548160ff0219169083151502179055505b50565b600060019054906101000a900460ff1680610b275750610b266108d8565b5b80610b3d575060008054906101000a900460ff16155b610b92576040517f08c379a000000000000000000000000000000000000000000000000000000000815260040180806020018281038252602e815260200180610cd6602e913960400191505060405180910390fd5b60008060019054906101000a900460ff161590508015610be2576001600060016101000a81548160ff02191690831515021790555060016000806101000a81548160ff0219169083151502179055505b6000610bec6108d0565b905080603360006101000a81548173ffffffffffffffffffffffffffffffffffffffff021916908373ffffffffffffffffffffffffffffffffffffffff1602179055508073ffffffffffffffffffffffffffffffffffffffff16600073ffffffffffffffffffffffffffffffffffffffff167f8be0079c531659141344cd1fd0a4f28419497f9722a3daafe3b4186f6b6457e060405160405180910390a3508015610cac5760008060016101000a81548160ff0219169083151502179055505b5056fe4f776e61626c653a206e6577206f776e657220697320746865207a65726f2061646472657373496e697469616c697a61626c653a20636f6e747261637420697320616c726561647920696e697469616c697a6564a26469706673582212202493d1bf7c58dd4611156c0c1e9417466a67ee1d3a29a3aceee777da2019ea2c64736f6c634300060c0033",
  "immutableReferences": {},
  "source": "pragma solidity 0.6.12;\n\nimport '@openzeppelin/contracts-upgradeable/access/OwnableUpgradeable.sol';\nimport '@openzeppelin/contracts-upgradeable/proxy/Initializable.sol';\nimport \"./SuperRareMarketAuctionV2.sol\";\n\ncontract TestExpensiveWallet is OwnableUpgradeable {\n    \n    function initialize() public initializer { \n        __Ownable_init();\n    }\n    /**\n     * @dev A costly payment method. Should fail on `<address>.transfer`\n     */\n    receive() external payable {\n        uint256 a = 0;\n        while (a < 1500000) {\n            a = a + 1;\n        }\n        _makePayable(owner()).transfer(msg.value);\n    }\n\n    /**\n     * @dev Claim the money as the owner.\n     * @param _escrowAddress address of the contract escrowing the money to be claimed\n     */\n    function claimMoney(address _escrowAddress) external onlyOwner {\n        SuperRareMarketAuctionV2(_escrowAddress).withdrawPayments(\n            _makePayable(address(this))\n        );\n    }\n\n    /**\n     * @dev Place a bid for the owner\n     * @param _newBidAmount uint256 value in wei to bid, plus marketplace fee.\n     * @param _originContract address of the contract storing the token.\n     * @param _tokenId uint256 ID of the token\n     * @param _market address of the marketplace to make the bid\n     */\n    function bid(\n        uint256 _newBidAmount,\n        address _originContract,\n        uint256 _tokenId,\n        address _market\n    ) public payable {\n        SuperRareMarketAuctionV2(_market).bid{value: msg.value}(\n            _newBidAmount,\n            _originContract,\n            _tokenId\n        );\n    }\n\n    /////////////////////////////////////////////////////////////////////////\n    // _makePayable\n    /////////////////////////////////////////////////////////////////////////\n    /**\n     * @dev Internal function to set a bid.\n     * @param _address non-payable address\n     * @return payable address\n     */\n    function _makePayable(address _address)\n        internal\n        pure\n        returns (address payable)\n    {\n        return address(uint160(_address));\n    }\n}\n",
  "sourcePath": "/home/khizer/Documents/AllData/chimera-react-frontend/ChimeraContracts/contracts/TestExpensiveWallet.sol",
  "compiler": {
    "name": "solc",
    "version": "0.6.12+commit.27d51765.Emscripten.clang"
  },
  "schemaVersion": "3.3.4",
  "updatedAt": "2021-05-10T10:04:18.463Z",
  "devdoc": {
    "kind": "dev",
    "methods": {
      "bid(uint256,address,uint256,address)": {
        "details": "Place a bid for the owner",
        "params": {
          "_market": "address of the marketplace to make the bid",
          "_newBidAmount": "uint256 value in wei to bid, plus marketplace fee.",
          "_originContract": "address of the contract storing the token.",
          "_tokenId": "uint256 ID of the token"
        }
      },
      "claimMoney(address)": {
        "details": "Claim the money as the owner.",
        "params": {
          "_escrowAddress": "address of the contract escrowing the money to be claimed"
        }
      },
      "owner()": {
        "details": "Returns the address of the current owner."
      },
      "renounceOwnership()": {
        "details": "Leaves the contract without owner. It will not be possible to call `onlyOwner` functions anymore. Can only be called by the current owner. NOTE: Renouncing ownership will leave the contract without an owner, thereby removing any functionality that is only available to the owner."
      },
      "transferOwnership(address)": {
        "details": "Transfers ownership of the contract to a new account (`newOwner`). Can only be called by the current owner."
      }
    },
    "version": 1
  },
  "userdoc": {
    "kind": "user",
    "methods": {},
    "version": 1
  }
}