{
  "contractName": "TestRequireFailOnPay",
  "abi": [
    {
      "stateMutability": "payable",
      "type": "receive"
    },
    {
      "inputs": [
        {
          "internalType": "uint256",
          "name": "_newBidAmount",
          "type": "uint256"
        },
        {
          "internalType": "address",
          "name": "_originContract",
          "type": "address"
        },
        {
          "internalType": "uint256",
          "name": "_tokenId",
          "type": "uint256"
        },
        {
          "internalType": "address",
          "name": "_market",
          "type": "address"
        }
      ],
      "name": "bid",
      "outputs": [],
      "stateMutability": "payable",
      "type": "function"
    }
  ],
  "bytecode": "0x608060405234801561001057600080fd5b506101e8806100206000396000f3fe6080604052600436106100225760003560e01c80634da00aea146100a25761009d565b3661009d57600061009b576040517f08c379a00000000000000000000000000000000000000000000000000000000081526004018080602001828103825260108152602001807f726561647920746f206661696c2121210000000000000000000000000000000081525060200191505060405180910390fd5b005b600080fd5b610118600480360360808110156100b857600080fd5b8101908080359060200190929190803573ffffffffffffffffffffffffffffffffffffffff16906020019092919080359060200190929190803573ffffffffffffffffffffffffffffffffffffffff16906020019092919050505061011a565b005b8073ffffffffffffffffffffffffffffffffffffffff1663c0f4ed31348686866040518563ffffffff1660e01b8152600401808481526020018373ffffffffffffffffffffffffffffffffffffffff16815260200182815260200193505050506000604051808303818588803b15801561019357600080fd5b505af11580156101a7573d6000803e3d6000fd5b50505050505050505056fea26469706673582212203f168731aebe106da301fde48520483a926beea866c1e731fb67eb27b533207964736f6c634300060c0033",
  "immutableReferences": {},
  "source": "pragma solidity 0.6.12;\n\nimport \"./SuperRareMarketAuctionV2.sol\";\n\ncontract TestRequireFailOnPay {\n    /**\n     * @dev A payment method that will fail by a failed require\n     */\n    receive() external payable {\n        require(false, \"ready to fail!!!\");\n    }\n\n    /**\n     * @dev Place a bid for the owner\n     * @param _newBidAmount uint256 value in wei to bid, plus marketplace fee.\n     * @param _originContract address of the contract storing the token.\n     * @param _tokenId uint256 ID of the token\n     * @param _market address of the marketplace to make the bid\n     */\n    function bid(\n        uint256 _newBidAmount,\n        address _originContract,\n        uint256 _tokenId,\n        address _market\n    ) public payable {\n        SuperRareMarketAuctionV2(_market).bid{value: msg.value}(\n            _newBidAmount,\n            _originContract,\n            _tokenId\n        );\n    }\n}\n",
  "sourcePath": "/home/khizer/Documents/AllData/chimera-react-frontend/ChimeraContracts/contracts/TestRequireFailOnPay.sol",
  "compiler": {
    "name": "solc",
    "version": "0.6.12+commit.27d51765.Emscripten.clang"
  },
  "schemaVersion": "3.3.4",
  "updatedAt": "2021-05-10T10:04:18.467Z",
  "devdoc": {
    "kind": "dev",
    "methods": {
      "bid(uint256,address,uint256,address)": {
        "details": "Place a bid for the owner",
        "params": {
          "_market": "address of the marketplace to make the bid",
          "_newBidAmount": "uint256 value in wei to bid, plus marketplace fee.",
          "_originContract": "address of the contract storing the token.",
          "_tokenId": "uint256 ID of the token"
        }
      }
    },
    "version": 1
  },
  "userdoc": {
    "kind": "user",
    "methods": {},
    "version": 1
  }
}