{
  "contractName": "Whitelist",
  "abi": [
    {
      "anonymous": false,
      "inputs": [
        {
          "indexed": true,
          "internalType": "address",
          "name": "_newAddress",
          "type": "address"
        }
      ],
      "name": "AddToWhitelist",
      "type": "event"
    },
    {
      "anonymous": false,
      "inputs": [
        {
          "indexed": true,
          "internalType": "address",
          "name": "previousOwner",
          "type": "address"
        },
        {
          "indexed": true,
          "internalType": "address",
          "name": "newOwner",
          "type": "address"
        }
      ],
      "name": "OwnershipTransferred",
      "type": "event"
    },
    {
      "anonymous": false,
      "inputs": [
        {
          "indexed": true,
          "internalType": "address",
          "name": "_removedAddress",
          "type": "address"
        }
      ],
      "name": "RemoveFromWhitelist",
      "type": "event"
    },
    {
      "inputs": [],
      "name": "owner",
      "outputs": [
        {
          "internalType": "address",
          "name": "",
          "type": "address"
        }
      ],
      "stateMutability": "view",
      "type": "function"
    },
    {
      "inputs": [],
      "name": "renounceOwnership",
      "outputs": [],
      "stateMutability": "nonpayable",
      "type": "function"
    },
    {
      "inputs": [
        {
          "internalType": "address",
          "name": "newOwner",
          "type": "address"
        }
      ],
      "name": "transferOwnership",
      "outputs": [],
      "stateMutability": "nonpayable",
      "type": "function"
    },
    {
      "inputs": [],
      "name": "initialize",
      "outputs": [],
      "stateMutability": "nonpayable",
      "type": "function"
    },
    {
      "inputs": [
        {
          "internalType": "bool",
          "name": "_enabled",
          "type": "bool"
        }
      ],
      "name": "enableWhitelist",
      "outputs": [],
      "stateMutability": "nonpayable",
      "type": "function"
    },
    {
      "inputs": [
        {
          "internalType": "address",
          "name": "_newAddress",
          "type": "address"
        }
      ],
      "name": "addToWhitelist",
      "outputs": [],
      "stateMutability": "nonpayable",
      "type": "function"
    },
    {
      "inputs": [
        {
          "internalType": "address",
          "name": "_removedAddress",
          "type": "address"
        }
      ],
      "name": "removeFromWhitelist",
      "outputs": [],
      "stateMutability": "nonpayable",
      "type": "function"
    },
    {
      "inputs": [
        {
          "internalType": "address",
          "name": "_address",
          "type": "address"
        }
      ],
      "name": "isWhitelisted",
      "outputs": [
        {
          "internalType": "bool",
          "name": "",
          "type": "bool"
        }
      ],
      "stateMutability": "view",
      "type": "function"
    }
  ],
  "bytecode": "0x60806040526001606660006101000a81548160ff02191690831515021790555034801561002b57600080fd5b50610f1c8061003b6000396000f3fe608060405234801561001057600080fd5b50600436106100885760003560e01c80638ab1d6811161005b5780638ab1d6811461012b5780638da5cb5b1461016f578063e43252d7146101a3578063f2fde38b146101e757610088565b8063040b65831461008d5780633af32abf146100bd578063715018a6146101175780638129fc1c14610121575b600080fd5b6100bb600480360360208110156100a357600080fd5b8101908080351515906020019092919050505061022b565b005b6100ff600480360360208110156100d357600080fd5b81019080803573ffffffffffffffffffffffffffffffffffffffff1690602001909291905050506102f7565b60405180821515815260200191505060405180910390f35b61011f61036c565b005b6101296104dc565b005b61016d6004803603602081101561014157600080fd5b81019080803573ffffffffffffffffffffffffffffffffffffffff1690602001909291905050506105e2565b005b6101776106e0565b604051808273ffffffffffffffffffffffffffffffffffffffff16815260200191505060405180910390f35b6101e5600480360360208110156101b957600080fd5b81019080803573ffffffffffffffffffffffffffffffffffffffff16906020019092919050505061070a565b005b610229600480360360208110156101fd57600080fd5b81019080803573ffffffffffffffffffffffffffffffffffffffff169060200190929190505050610808565b005b6102336109fd565b73ffffffffffffffffffffffffffffffffffffffff166102516106e0565b73ffffffffffffffffffffffffffffffffffffffff16146102da576040517f08c379a00000000000000000000000000000000000000000000000000000000081526004018080602001828103825260208152602001807f4f776e61626c653a2063616c6c6572206973206e6f7420746865206f776e657281525060200191505060405180910390fd5b80606660006101000a81548160ff02191690831515021790555050565b6000606660009054906101000a900460ff161561036257606560008373ffffffffffffffffffffffffffffffffffffffff1673ffffffffffffffffffffffffffffffffffffffff16815260200190815260200160002060009054906101000a900460ff169050610367565b600190505b919050565b6103746109fd565b73ffffffffffffffffffffffffffffffffffffffff166103926106e0565b73ffffffffffffffffffffffffffffffffffffffff161461041b576040517f08c379a00000000000000000000000000000000000000000000000000000000081526004018080602001828103825260208152602001807f4f776e61626c653a2063616c6c6572206973206e6f7420746865206f776e657281525060200191505060405180910390fd5b600073ffffffffffffffffffffffffffffffffffffffff16603360009054906101000a900473ffffffffffffffffffffffffffffffffffffffff1673ffffffffffffffffffffffffffffffffffffffff167f8be0079c531659141344cd1fd0a4f28419497f9722a3daafe3b4186f6b6457e060405160405180910390a36000603360006101000a81548173ffffffffffffffffffffffffffffffffffffffff021916908373ffffffffffffffffffffffffffffffffffffffff160217905550565b600060019054906101000a900460ff16806104fb57506104fa610a05565b5b80610511575060008054906101000a900460ff16155b610566576040517f08c379a000000000000000000000000000000000000000000000000000000000815260040180806020018281038252602e815260200180610eb9602e913960400191505060405180910390fd5b60008060019054906101000a900460ff1615905080156105b6576001600060016101000a81548160ff02191690831515021790555060016000806101000a81548160ff0219169083151502179055505b6105be610a16565b80156105df5760008060016101000a81548160ff0219169083151502179055505b50565b6105ea6109fd565b73ffffffffffffffffffffffffffffffffffffffff166106086106e0565b73ffffffffffffffffffffffffffffffffffffffff1614610691576040517f08c379a00000000000000000000000000000000000000000000000000000000081526004018080602001828103825260208152602001807f4f776e61626c653a2063616c6c6572206973206e6f7420746865206f776e657281525060200191505060405180910390fd5b61069a81610b24565b8073ffffffffffffffffffffffffffffffffffffffff167f1f756c8b089af6b33ee121fee8badac2553a2fa89c0575ea91ff8792617746c260405160405180910390a250565b6000603360009054906101000a900473ffffffffffffffffffffffffffffffffffffffff16905090565b6107126109fd565b73ffffffffffffffffffffffffffffffffffffffff166107306106e0565b73ffffffffffffffffffffffffffffffffffffffff16146107b9576040517f08c379a00000000000000000000000000000000000000000000000000000000081526004018080602001828103825260208152602001807f4f776e61626c653a2063616c6c6572206973206e6f7420746865206f776e657281525060200191505060405180910390fd5b6107c281610b7f565b8073ffffffffffffffffffffffffffffffffffffffff167f75b2135d1c8c3519f3c09c43fe6527089ef09f40c7981ebf0ed46e79e79032c760405160405180910390a250565b6108106109fd565b73ffffffffffffffffffffffffffffffffffffffff1661082e6106e0565b73ffffffffffffffffffffffffffffffffffffffff16146108b7576040517f08c379a00000000000000000000000000000000000000000000000000000000081526004018080602001828103825260208152602001807f4f776e61626c653a2063616c6c6572206973206e6f7420746865206f776e657281525060200191505060405180910390fd5b600073ffffffffffffffffffffffffffffffffffffffff168173ffffffffffffffffffffffffffffffffffffffff16141561093d576040517f08c379a0000000000000000000000000000000000000000000000000000000008152600401808060200182810382526026815260200180610e936026913960400191505060405180910390fd5b8073ffffffffffffffffffffffffffffffffffffffff16603360009054906101000a900473ffffffffffffffffffffffffffffffffffffffff1673ffffffffffffffffffffffffffffffffffffffff167f8be0079c531659141344cd1fd0a4f28419497f9722a3daafe3b4186f6b6457e060405160405180910390a380603360006101000a81548173ffffffffffffffffffffffffffffffffffffffff021916908373ffffffffffffffffffffffffffffffffffffffff16021790555050565b600033905090565b6000610a1030610bda565b15905090565b600060019054906101000a900460ff1680610a355750610a34610a05565b5b80610a4b575060008054906101000a900460ff16155b610aa0576040517f08c379a000000000000000000000000000000000000000000000000000000000815260040180806020018281038252602e815260200180610eb9602e913960400191505060405180910390fd5b60008060019054906101000a900460ff161590508015610af0576001600060016101000a81548160ff02191690831515021790555060016000806101000a81548160ff0219169083151502179055505b610af8610bed565b610b00610ceb565b8015610b215760008060016101000a81548160ff0219169083151502179055505b50565b6000606560008373ffffffffffffffffffffffffffffffffffffffff1673ffffffffffffffffffffffffffffffffffffffff16815260200190815260200160002060006101000a81548160ff02191690831515021790555050565b6001606560008373ffffffffffffffffffffffffffffffffffffffff1673ffffffffffffffffffffffffffffffffffffffff16815260200190815260200160002060006101000a81548160ff02191690831515021790555050565b600080823b905060008111915050919050565b600060019054906101000a900460ff1680610c0c5750610c0b610a05565b5b80610c22575060008054906101000a900460ff16155b610c77576040517f08c379a000000000000000000000000000000000000000000000000000000000815260040180806020018281038252602e815260200180610eb9602e913960400191505060405180910390fd5b60008060019054906101000a900460ff161590508015610cc7576001600060016101000a81548160ff02191690831515021790555060016000806101000a81548160ff0219169083151502179055505b8015610ce85760008060016101000a81548160ff0219169083151502179055505b50565b600060019054906101000a900460ff1680610d0a5750610d09610a05565b5b80610d20575060008054906101000a900460ff16155b610d75576040517f08c379a000000000000000000000000000000000000000000000000000000000815260040180806020018281038252602e815260200180610eb9602e913960400191505060405180910390fd5b60008060019054906101000a900460ff161590508015610dc5576001600060016101000a81548160ff02191690831515021790555060016000806101000a81548160ff0219169083151502179055505b6000610dcf6109fd565b905080603360006101000a81548173ffffffffffffffffffffffffffffffffffffffff021916908373ffffffffffffffffffffffffffffffffffffffff1602179055508073ffffffffffffffffffffffffffffffffffffffff16600073ffffffffffffffffffffffffffffffffffffffff167f8be0079c531659141344cd1fd0a4f28419497f9722a3daafe3b4186f6b6457e060405160405180910390a3508015610e8f5760008060016101000a81548160ff0219169083151502179055505b5056fe4f776e61626c653a206e6577206f776e657220697320746865207a65726f2061646472657373496e697469616c697a61626c653a20636f6e747261637420697320616c726561647920696e697469616c697a6564a2646970667358221220186abad0e57359220000dcf4396cfec4a21069b9a0dff786f8e7cfdf3edf84d964736f6c634300060c0033",
  "immutableReferences": {},
  "source": "// contracts/MyContract.sol\n// SPDX-License-Identifier: MIT\npragma solidity 0.6.12;\n\nimport '@openzeppelin/contracts-upgradeable/proxy/Initializable.sol';\nimport '@openzeppelin/contracts-upgradeable/token/ERC721/ERC721Upgradeable.sol';\nimport '@openzeppelin/contracts-upgradeable/access/OwnableUpgradeable.sol';\nimport '@openzeppelin/contracts-upgradeable/math/SafeMathUpgradeable.sol';\n\n\n// import \"https://github.com/OpenZeppelin/openzeppelin-contracts-upgradeable/blob/release-v3.4/contracts/access/OwnableUpgradeable.sol\";\n// import \"https://github.com/OpenZeppelin/openzeppelin-contracts-upgradeable/blob/release-v3.4/contracts/proxy/Initializable.sol\";\n// import \"https://github.com/OpenZeppelin/openzeppelin-contracts-upgradeable/blob/release-v3.4/contracts/token/ERC721/ERC721Upgradeable.sol\";\n// import \"https://github.com/OpenZeppelin/openzeppelin-contracts-upgradeable/blob/release-v3.4/contracts/math/SafeMathUpgradeable.sol\";\n// //last contract inheritance\n//contract Chimera is Initializable, ERC721Upgradeable, IERC721Creator, Ownable, Whitelist \n\n  contract Whitelist is Initializable, OwnableUpgradeable {\n      \n       function initialize() public initializer {\n         __Ownable_init();\n          }\n      \n    // Mapping of address to boolean indicating whether the address is whitelisted\n    mapping(address => bool) private whitelistMap;\n\n    // flag controlling whether whitelist is enabled.\n    bool private whitelistEnabled = true;\n\n    event AddToWhitelist(address indexed _newAddress);\n    event RemoveFromWhitelist(address indexed _removedAddress);\n\n    /**\n   * @dev Enable or disable the whitelist\n   * @param _enabled bool of whether to enable the whitelist.\n   */\n    function enableWhitelist(bool _enabled) public onlyOwner {\n        whitelistEnabled = _enabled;\n    }\n\n    /**\n   * @dev Adds the provided address to the whitelist\n   * @param _newAddress address to be added to the whitelist\n   */\n    function addToWhitelist(address _newAddress) public onlyOwner {\n        _whitelist(_newAddress);\n        \n        emit AddToWhitelist(_newAddress);\n    }\n\n    /**\n   * @dev Removes the provided address to the whitelist\n   * @param _removedAddress address to be removed from the whitelist\n   */\n    function removeFromWhitelist(address _removedAddress) public onlyOwner {\n        _unWhitelist(_removedAddress);\n        emit RemoveFromWhitelist(_removedAddress);\n    }\n\n    /**\n   * @dev Returns whether the address is whitelisted\n   * @param _address address to check\n   * @return bool\n   */\n    function isWhitelisted(address _address) public view returns (bool) {\n        if (whitelistEnabled) {\n            return whitelistMap[_address];\n        } else {\n            return true;\n        }\n    }\n\n    /**\n   * @dev Internal function for removing an address from the whitelist\n   * @param _removedAddress address to unwhitelisted\n   */\n    function _unWhitelist(address _removedAddress) internal {\n        whitelistMap[_removedAddress] = false;\n    }\n\n    /**\n   * @dev Internal function for adding the provided address to the whitelist\n   * @param _newAddress address to be added to the whitelist\n   */\n    function _whitelist(address _newAddress) internal {\n        whitelistMap[_newAddress] = true;\n    }\n}\ncontract Chimera is Initializable, ERC721Upgradeable, OwnableUpgradeable, Whitelist {\n    using SafeMathUpgradeable for uint256;\n    \n    string private _name;\n    string private _symbol;\n    uint8 private _decimals;\n    // Mapping from token ID to the creator's address.\n    mapping(uint256 => address) private tokenCreators;\n    \n    //Enum for storing token type whether it is physical or Digital\n    enum TokenType {DIGITAL,PHYSICAL}\n    //Enum for storing token sale type PRIMARY or SECONDARY\n    enum TokenSaleType {PRIMARY,SECONDARY}\n    \n    struct tokenTypeStruct{\n    TokenType tokenType;\n    TokenSaleType tokensaleType;\n      \n    }\n     \n    //mapping to hold token Type \n    mapping(uint256 => tokenTypeStruct) private tokentypes;\n    \n    \n    \n    // Counter for creating token IDs\n    uint256 private idCounter;\n    \n    // Event indicating metadata was updated.\n    event TokenURIUpdated(uint256 indexed _tokenId, string  _uri, TokenType _tokenType);\n\n    function initialize(string memory name, string memory symbol)  public initializer {\n        //ERC721Upgradeable.__ERC721_init(name , symbol);\n        Whitelist.initialize();\n        __Ownable_init();\n        __ERC721_init(name , symbol);\n        \n    }\n\n    /**\n     * @dev Whitelists a bunch of addresses.\n     * @param _whitelistees address[] of addresses to whitelist.\n     */\n    function initWhitelist(address[] memory _whitelistees) public onlyOwner {\n      // Add all whitelistees.\n      for (uint256 i = 0; i < _whitelistees.length; i++) {\n        address creator = _whitelistees[i];\n        if (!isWhitelisted(creator)) {\n          _whitelist(creator);\n        }\n      }\n      \n    }\n\n    /**\n     * @dev Checks that the token is owned by the sender.\n     * @param _tokenId uint256 ID of the token.\n     */\n    modifier onlyTokenOwner(uint256 _tokenId) {\n      address owner = ownerOf(_tokenId);\n      require(owner == msg.sender, \"must be the owner of the token\");\n      _;\n    }\n\n    /**\n     * @dev Checks that the token was created by the sender.\n     * @param _tokenId uint256 ID of the token.\n     */\n    modifier onlyTokenCreator(uint256 _tokenId) {\n      address creator = tokenCreator(_tokenId);\n      require(creator == msg.sender, \"must be the creator of the token\");\n      _;\n    }\n\n    /**\n     * @dev Adds a new unique token to the supply.\n     * @param _uri string metadata uri associated with the token.\n     * param _tokenType of the token to make it PHYSICAL or DIGITAL\n     */\n    function addNewToken(string memory _uri, TokenType _tokenType) public {\n      require(isWhitelisted(msg.sender), \"must be whitelisted to create tokens\");\n      _createToken(_uri, msg.sender, _tokenType);\n    }\n\n    /**\n     * @dev Deletes the token with the provided ID.\n     * @param _tokenId uint256 ID of the token.\n    //  */\n    function deleteToken(uint256 _tokenId) public onlyTokenOwner(_tokenId) {\n      _burn( _tokenId);\n    }\n\n    /**\n     * @dev Updates the token metadata if the owner is also the\n     *      creator.\n     * @param _tokenId uint256 ID of the token.\n     * @param _uri string metadata URI.\n     * param _tokenType of the token PHYSICAL or DIGITAL 0,1\n     */\n    function updateTokenMetadata(uint256 _tokenId, string memory _uri,TokenType _tokenType  )\n      public\n      onlyTokenOwner(_tokenId)\n      onlyTokenCreator(_tokenId)\n    {\n      _setTokenURI(_tokenId, _uri);\n      _setTokenType(_tokenId,_tokenType);\n      \n      emit TokenURIUpdated(_tokenId, _uri, _tokenType);\n    }\n\n    /**\n    * @dev Gets the creator of the token.\n    * @param _tokenId uint256 ID of the token.\n    * @return address of the creator.\n    */\n    function tokenCreator(uint256 _tokenId) public view returns (address) {\n        return tokenCreators[_tokenId];\n    }\n    \n      /**\n    * @dev Gets the Type of the token.\n    * @param _tokenId uint256 ID of the token.\n    * @return _tokentype of the token PHYSICAL or DIGITAL.\n    */\n    function tokenType(uint256 _tokenId) public view returns (TokenType _tokentype) {\n        return  tokentypes[_tokenId].tokenType;\n    }\n      /**\n    * @dev Gets the Sale Type of the token.\n    * @param _tokenId uint256 ID of the token.\n    * @return _tokensaleType of the token PHYSICAL or DIGITAL.\n    */\n    function getTokenSaleType(uint256 _tokenId) public view returns (TokenSaleType _tokensaleType) {\n        return  tokentypes[_tokenId].tokensaleType;\n    }\n    \n\n    /**\n     * @dev Internal function for setting the token's creator.\n     * @param _tokenId uint256 id of the token.\n     * @param _creator address of the creator of the token.\n     */\n    function _setTokenCreator(uint256 _tokenId, address _creator) internal {\n      tokenCreators[_tokenId] = _creator;\n    }\n     /**\n     * @dev Internal function for setting the token Type.\n     * @param _tokenId uint256 id of the token.\n     * @param _tokenType 0,1 DIGITAL,PHYSICAL of the creator of the token.\n     */\n    function _setTokenType(uint256 _tokenId, TokenType _tokenType ) internal{\n        tokentypes[_tokenId].tokenType = _tokenType;\n    }\n    \n    // function _setTokenSaleType(uint256 _tokenId ) internal returns(TokenSaleType _tokensaleType){\n    //     TokenSaleType tokensaleType = TokenSaleType.PRIMARY;\n    //     tokentypes[_tokenId].tokensaleType = tokensaleType;\n        \n    //     return tokentypes[_tokenId].tokensaleType;\n    // }\n    /**\n     * @dev Internal function creating a new token.\n     * @param _uri string metadata uri associated with the token\n     * @param _creator address of the creator of the token.\n     * @param _tokenType of the token\n     */\n    function _createToken(string memory _uri, address _creator,TokenType _tokenType  ) internal returns (uint256) {\n      uint256 newId = idCounter;\n      idCounter++;\n      _mint(_creator, newId);\n      _setTokenURI(newId, _uri);\n      _setTokenCreator(newId, _creator);\n      _setTokenType(newId,_tokenType);\n      //_setTokenSaleType(newId);\n      return newId;\n    }\n}",
  "sourcePath": "/home/khizer/Documents/AllData/chimera-react-frontend/ChimeraContracts/contracts/chimerasource.sol",
  "compiler": {
    "name": "solc",
    "version": "0.6.12+commit.27d51765.Emscripten.clang"
  },
  "schemaVersion": "3.3.4",
  "updatedAt": "2021-05-10T10:04:18.481Z",
  "devdoc": {
    "kind": "dev",
    "methods": {
      "addToWhitelist(address)": {
        "details": "Adds the provided address to the whitelist",
        "params": {
          "_newAddress": "address to be added to the whitelist"
        }
      },
      "enableWhitelist(bool)": {
        "details": "Enable or disable the whitelist",
        "params": {
          "_enabled": "bool of whether to enable the whitelist."
        }
      },
      "isWhitelisted(address)": {
        "details": "Returns whether the address is whitelisted",
        "params": {
          "_address": "address to check"
        },
        "returns": {
          "_0": "bool"
        }
      },
      "owner()": {
        "details": "Returns the address of the current owner."
      },
      "removeFromWhitelist(address)": {
        "details": "Removes the provided address to the whitelist",
        "params": {
          "_removedAddress": "address to be removed from the whitelist"
        }
      },
      "renounceOwnership()": {
        "details": "Leaves the contract without owner. It will not be possible to call `onlyOwner` functions anymore. Can only be called by the current owner. NOTE: Renouncing ownership will leave the contract without an owner, thereby removing any functionality that is only available to the owner."
      },
      "transferOwnership(address)": {
        "details": "Transfers ownership of the contract to a new account (`newOwner`). Can only be called by the current owner."
      }
    },
    "version": 1
  },
  "userdoc": {
    "kind": "user",
    "methods": {},
    "version": 1
  }
}